S020000072656E657361736375705F736D6172746D65646963696E652E7372656307
S3150000000000050020B91D000019220000B51D0000E2
S31500000010B51D0000B51D0000B51D0000B51D000092
S31500000020000000000000000000000000054600007F
S31500000030B51D0000000000001D46000085460000BA
S31500000040792C0000012E0000292F0000792C0000D9
S315000000504D2D000001420000654100009142000064
S31500000060D942000059350000D9360000E1370000BA
S31500000070B9380000914300002D44000015450000EA
S30900000080FD2F00004A
S315000000844000350000000000686D0000000000001C
S3150000009400000000000000000000000070000020C6
S315000000A401000000280000200300000001000000F9
S315000000B40373000002730000027300000273000061
S315000000C40273000002730000027300000273000052
S315000000D4000000000C0C000000606000006060007E
S315000000E40060600000606000006060000060600006
S315000000F4010000000E0000000500000001000000E1
S31500000104010000003B000000140000000400000091
S3150000011400000000030000009C9E0120A0000020B7
S31500000124000000009C9E0120049F01206C9F01207A
S3150000013400000000000000000000000000000000B5
S3150000014400000000000000000000000000000000A5
S315000001540000000000000000000000000000000095
S3110000016400000000000000000000000089
S315000001700348044B834202D0034B03B11847704730
S31500000180EC000020EC00002000000000064B0749B0
S31500000190C91A891048BF0131491003D0044B0BB16D
S315000001A001481847704700BFEC000020EC00002013
S315000001B00000000010B5064C237843B9FFF7D8FFBE
S315000001C0044B13B10448AFF300800123237010BD24
S315000001D0200500200000000084A2000108B5054BA0
S315000001E01BB105490548AFF30080BDE80840FFF79D
S315000001F0CDBF00BF000000002405002084A200013E
S315000002004FF0FF31002200F10803C0E90131C0E9D7
S3150000021003330260704700BF00230361704700BFCD
S3150000022030B40D686B1C10D000F108031C465B68E7
S315000002301A68AA42FAD902684B60013299608C604A
S315000002406160086130BC0260704704696368F2E768
S315000002500346026910B45468406899689C428160FC
S31500000260486008BF5160002110685DF8044B0138F2
S3150000027019611060704700BFF8B5431E0A3361D894
S3150000028010F0070300F1080466D15A4E01F014F984
S3150000029033682246002B72D0002C58DBDFF87CE155
S315000002A0DEF80070A74252D3534954480A68824286
S315000002B0C0F08B80524DAA4298BF8C4608D984E084
S315000002C0136843B1834273D3AB42944670D81A463F
S315000002D05168A142F4D33368934238D0DCF8006009
S315000002E0083686427ED3AE427CD81368A142CCF84B
S315000002F0003070D3081B102807D911194D075DD19E
S3150000030048601351CCF8001021463E487F1A046815
S3150000031041F00041A7424FF0000438BF07603A4859
S3150000032051600368146001330360CEF8007001F079
S31500000330CBF873070ED040F25711344B344A354888
S3150000034001F01CFF2B4E01F0B7F83368ABB101F09A
S31500000350BBF800263046F8BDA3F10902A242F1D34C
S31500000360244E1030C41A01F0A7F83368224633B180
S31500000370002AECDB002C91D1E9E7002214461F4845
S31500000380002147071CBF073020F007000546224B17
S31500000390194F23F00703181AC7E900513360C3E960
S315000003A00011C5E90030174B18601C4B1860DFE7D9
S315000003B0FB211B4B164A174801F0E0FE4FF48B71E8
S315000003C0184B134A134801F0D9FEF521144B104A75
S315000003D0104801F0D3FE40F20D11134B0C4A0D48A4
S315000003E001F0CCFE40F20511104B094A094801F014
S315000003F0C5FE00BF4C050020500500205805002012
S31500000400579501204405002040050020D85E0000D5
S3150000041030680000945D00005095012048050020DA
S31500000420205D0000A45E0000705E0000FC5D000020
S3150000043000284BD0F8B53A4FA0F10804BC42054657
S3150000044058D3384EB44255D850F8043C002B5FDAE6
S3150000045050F8082C002A54D123F0004340F8043CFD
S3150000046001F02AF83048DFF8E8C00346DCF800203F
S3150000047055F8041C0A44CCF800201A461B689C4216
S31500000480FBD8824203D0BA422DD3B2422BD8506851
S315000004901618B4420FD06018834218D045F8083CAD
S315000004A0A24218BF1460214A136801331360BDE8E5
S315000004B0F84001F009B80144501883425160F2D166
S315000004C01B48006883420CD0144604E07047184865
S315000004D000688342E2D0D3E900500144C4E90051E8
S315000004E0DEE71360DFE74FF4FD71124B124A134843
S315000004F001F044FE4FF4B571114B124A0F4801F05A
S315000005003DFE4FF4B671104B0E4A0C4801F036FE14
S3150000051040F26B110D4B0B4A084801F02FFE00BF4D
S315000005205805002057950120500500203C05002065
S315000005304C0500202060000008680000945D000063
S31500000540145F000024680000F85F0000845F00006C
S315000005504805002070B51646026C0446856B0AB342
S3150000056086B9406804F08FFE6368216CA2680B446C
S315000005709342636005F1010515D32368002063608B
S31500000580A56370BDC06804F07EFE226CE36851422C
S315000005909B1A2268E360934202D2A3680B44E3608D
S315000005A0022E03D001350020A56370BD012D38BF92
S315000005B00125F8E770B5054604F0AAF895F8453028
S315000005C05CB2002C14DD05F1240603E0631EDAB2EA
S315000005D05CB26AB16B6A5BB1304601F02BF9002858
S315000005E0F4D001F0EFF9631EDAB25CB2002AF1D161
S315000005F0FF2385F8453004F0B3F804F089F895F840
S3150000060044305CB2002C14DD05F1100603E0631ED5
S31500000610DAB25CB26AB12B695BB1304601F00AF915
S315000006200028F4D001F0CEF9631EDAB25CB2002ADB
S31500000630F1D1FF2385F84430BDE8704004F090B84E
S3150000064070B5002848D0C56B0446002D3DD0026C1D
S31500000650A2FB0525002D38D10E4604F059F8D4E941
S315000006600F30FF2100FB03F32268181A626013445F
S315000006700244A563C4E9023284F8441084F84510A4
S31500000680BEB923691BB904F06BF8012070BD04F1F3
S31500000690100001F0CFF80028F5D04FF08052124B31
S315000006A05A60BFF34F8FBFF36F8F04F059F80120E4
S315000006B070BD04F11000FFF7A3FD04F12400FFF75D
S315000006C09FFD04F04DF8012070BD4FF4B671074B45
S315000006D0074A084801F052FD40F23711064B044A1A
S315000006E0044801F04BFD00BF00ED00E0FC60000097
S315000006F0F4680000A0600000F460000070B582B0ED
S315000007009DF818603BB30546F0B11C46A2B1D9B1BD
S3150000071050230193019B502B24D1C4E90F51012191
S315000007202046226084F84610019BFFF789FF204689
S3150000073084F84C6002B070BD31B950230193019B1F
S31500000740502B0FD12246E8E74FF4D871094B0A4ADD
S315000007500A4801F013FD4FF4C271094B064A0748D7
S3150000076001F00CFD4FF4CB71064B034A034801F030
S3150000077005FD00BF4C610000D8680000A0600000C5
S3150000078020610000306100002DE9F04110B3A1FBAB
S31500000790003705460E46EFB901FB00F010F1510F88
S315000007A018D850309046FFF767FD044668B180F8C8
S315000007B046706EB100F1500301212046C4E90F5680
S315000007C02360FFF73DFF84F84C802046BDE8F081AA
S315000007D00346F1E740F22A21024B034A034801F09F
S315000007E0CDFC00BF4C610000C4680000A0600000A2
S315000007F030B583B0D8B188420D4618D3144622B31B
S3150000080050230193019B502B18D101210023226014
S31500000810D0632364204684F84610019AFFF710FF40
S3150000082002232046A56384F84C3003B030BD4FF454
S315000008305E71094B094A0A4801F0A0FC4FF4CB71DE
S31500000840084B094A064801F099FC4FF4C271074B60
S31500000850054A034801F092FC58610000A0680000B8
S31500000860A060000030610000D86800002061000030
S315000008702DE9F04184B00192002800F0AF800446D3
S315000008800F461E46002900F08B80022E03D1E36B33
S31500000890012B40F09C8001F09BF8002867D003F004
S315000008A037FFA26BE36B9A4253D3022E51D000203E
S315000008B0DFF8448105460DE003F052FF2046FFF7BE
S315000008C079FE00F001FE03F023FFA26BE36B01202B
S315000008D09A423ED3019B002B6DD0B0B303F040FF8C
S315000008E000F0EAFD03F014FF94F84430FF2B08BF34
S315000008F084F8445094F84530FF2B08BF84F84550DF
S3150000090003F02EFF02A801A901F014F8002858D11F
S3150000091003F0FEFEA26BE36B9A42CDD103F020FFFB
S31500000920019904F1100000F031FF2046FFF742FE66
S3150000093000F0CAFD0028C6D14FF08053C8F8043035
S31500000940BFF34F8FBFF36F8FBDE702A800F0E6FF3E
S31500000950C4E7324639462046FFF7FCFD636A83B991
S31500000960A8B903F0FDFE012004B0BDE8F081019BAB
S31500000970002B94D040F2BB311C4B1D4A1D4801F0A0
S31500000980FDFB04F1240000F055FF0028E9D04FF0EC
S315000009908052194B5A60BFF34F8FBFF36F8FE0E75A
S315000009A0036C002B3FF471AF40F2B731134B104A82
S315000009B0104801F0E3FB03F0D3FE002004B0BDE8CD
S315000009C0F0812046FFF7F6FD00F07EFDF5E74FF4D7
S315000009D06E710B4B064A074801F0D0FB40F2B63168
S315000009E0084B034A034801F0C9FB00BF0862000038
S315000009F08C680000A060000000ED00E0606100006F
S31500000A00B8610000F4600000F8B500283DD0036C22
S31500000A100446002B40D103680D4603B303F0FEFEE7
S31500000A20EFF31186102383F31188A36BE26B9A42CE
S31500000A3011D994F845200133FF2AA36357B218D180
S31500000A40636A03B304F1240000F0F4FED8B1D5B113
S31500000A5001232B6017E0002086F31188F8BD836818
S31500000A60002BDBD040F24951124B134A134801F0D8
S31500000A7085FB00F02FFE874205D27F2F13D001376A
S31500000A807FB284F845700120E6E74FF4A8610C4B6D
S31500000A90094A0A4801F072FB40F24451094B064AE2
S31500000AA0064801F06BFB40F2CB51074B024A034864
S31500000AB001F064FB9C62000078680000A060000002
S31500000AC0F4600000806200005C620000F0B585B052
S31500000AD00192002800F0A38004460E4600296ED03D
S31500000AE000F076FF002857D003F012FEA56B002D0C
S31500000AF06FD1019B002B35D002A800F00FFF2F46C7
S31500000B0003F02EFE00F0D8FC03F002FE94F8443009
S31500000B10FF2B08BF84F8447094F84530FF2B08BFBC
S31500000B2084F8457003F01CFE01A902A800F002FF3C
S31500000B30E8B903F0EDFDA36B33BB03F011FE019999
S31500000B4004F1240000F022FE2046FFF733FD00F0FA
S31500000B50BBFC58B303F0DCFDA56B002D39D1019B1E
S31500000B60002BCDD103F0FCFD002005B0F0BD2046E2
S31500000B70FFF720FD00F0A8FC03F0CAFDA36B002BD5
S31500000B80F0D003F0EDFDE5E703F0EAFD2046FFF7C0
S31500000B9011FD00F099FCDDE7019B002BA4D040F28B
S31500000BA0F251224B224A234801F0E8FA4FF08052D4
S31500000BB0214B5A60BFF34F8FBFF36F8FCAE7036CA9
S31500000BC0002B8DD040F2ED511C4B194A194801F00B
S31500000BD0D5FA226C5AB1E168A36811449942E160E2
S31500000BE028BF2168304628BFE16004F04CFB23692A
S31500000BF0013DA56323B903F0B3FD012005B0F0BDA7
S31500000C0004F1100000F016FE0028F4D04FF08052D8
S31500000C10094B5A60BFF34F8FBFF36F8FEBE740F27C
S31500000C20E951074B024A034801F0A8FA086200009E
S31500000C3068680000A060000000ED00E00C630000A2
S31500000C400063000070B584B00191002800F0918027
S31500000C50036C0446002B40F0858000F0B9FE0028A6
S31500000C6055D003F055FDA56B002D63D1019BA3B3B1
S31500000C7002A800F053FE2E4603F072FD00F01CFCA5
S31500000C8003F046FD94F84430FF2B08BF84F8446017
S31500000C9094F84530FF2B08BF84F8456003F060FDEB
S31500000CA001A902A800F046FEE0B903F031FDA36BEE
S31500000CB02BBB03F055FD019904F1240000F066FDFD
S31500000CC02046FFF777FC00F0FFFB50B303F020FD52
S31500000CD0A56B7DBB019B002BCED103F041FD00200F
S31500000CE004B070BD2046FFF765FC00F0EDFB03F095
S31500000CF00FFDA36B002BF0D003F032FDE6E703F007
S31500000D002FFD2046FFF756FC00F0DEFBDEE7019BD9
S31500000D10002BA6D040F28B61194B1A4A1A4801F0F3
S31500000D202DFA4FF08052194B5A60BFF34F8FBFF325
S31500000D306F8FCBE72369013DA56323B903F010FD4F
S31500000D40012004B070BD04F1100000F073FD00280E
S31500000D50F4D04FF080520D4B5A60BFF34F8FBFF364
S31500000D606F8FEBE740F28661094B064A064801F0B1
S31500000D7005FA40F28261074B024A034801F0FEF988
S31500000D800862000054680000A060000000ED00E06A
S31500000D90806200000063000070B500B3D9B1002482
S31500000DA0124D23462A4604E001330A2B02F10802BB
S31500000DB00ED0566886420FD0002CF5D155F8336018
S31500000DC00133002E08BF14460A2B02F10802F0D1A7
S31500000DD00CB1C4E9001070BD05EBC304F9E740F699
S31500000DE0C931034B034A044801F0C8F9589501205C
S31500000DF09860000040680000A060000070B50446DE
S31500000E000E46154603F084FC94F84430FF2B04BFCD
S31500000E10002384F8443094F84530FF2B04BF0023A8
S31500000E2084F8453003F09CFCA36B23B12046BDE853
S31500000E307040FFF7BFBB04F124002A46314600F09C
S31500000E40C3FC2046BDE87040FFF7B4BB2DE9F04176
S31500000E50044603F05DFC394A394E136801331360CA
S31500000E603368002B3ED0374FE36A3A68002A32D007
S31500000E70354D364936480A6804F1040C013262647D
S31500000E800A6002689A4238BF036003EB830305EBEE
S31500000E90830041689B00EA58D1F808E0A160C4F8D5
S31500000EA00CE00132CEF804C0C1F808C06061EA5017
S31500000EB003F056FC3B6863B13268E36AD26A9A4231
S31500000EC007D24FF08052234B5A60BFF34F8FBFF3C8
S31500000ED06F8FBDE8F08132681B4DD26A9A4298BF87
S31500000EE03460C6E734601368012B03D0E36A164DFD
S31500000EF0144FBEE7144D2F4605F1640838461437E3
S31500000F00FFF77EF94745F9D1DFF86480124F404676
S31500000F10FFF776F93846FFF773F91048FFF770F9CF
S31500000F200F48FFF76DF90F48FFF76AF90E4BC3F844
S31500000F3000800E4B1F60E36A024F9AE7D0950120AE
S31500000F40A8960120C495012044960120B49501205D
S31500000F50C895012000ED00E01C96012000960120B6
S31500000F60EC950120D49501201896012014960120B5
S31500000F70309601202DE9F8430446264B2648274A99
S31500000F80274DD0F800901768D3F8008028680E46E1
S31500000F900430FFF75DF9631C17D02B6819EB0404C6
S31500000FA05C600BD2296838460431FFF739F91D4BCE
S31500000FB01A68A24200D91C60BDE8F8832968404639
S31500000FC0BDE8F8430431FFF72BB976B92B6809F170
S31500000FD0FF325A60B9F1000FF0D129683846043162
S31500000FE0FFF71EF90F4B1B68E6E70F4B29685A6897
S31500000FF01C688A602E680134286829681C602D6880
S31500001000946804300431F460606091606B61BDE8FF
S31500001010F88300BF14960120CC9501201896012074
S31500001020A8960120B0950120D49501202DE9F0471E
S315000010308A460A9C95002A460746A521206B9846B3
S31500001040089EDDF8249004F0C7F8236B043D1D4488
S3150000105025F00705BAF1000F0FD00AF1FF3C0AF19F
S315000010600F0104F133031CF9012F03F8012F0AB114
S315000010708C45F8D1002384F84330042E1AD8E66252
S31500001080201DFFF7C9F8C6F1050604F11800FFF7A1
S31500001090C3F843463A462846216BA661246164623A
S315000010A003F01CFB2060B9F1000F01D0C9F8004025
S315000010B0BDE8F08740F26471024B034A034801F031
S315000010C05DF800BFC4630000DC69000070630000C7
S315000010D0F8B51A4D2B6823B3194F1A4E05E0012BAC
S315000010E020D0022B22D12B68DBB103F011FBFB6869
S315000010F0DC68201DFFF7ACF83368013B33602B68D2
S31500001100013B2B6003F02CFB94F86530002BE6D1F5
S31500001110206BFFF78DF92046FFF78AF92B68002B25
S31500001120E3D1F8BD2046FFF783F9DCE741F62E113F
S31500001130054B064A064801F021F800BFE895012054
S31500001140EC950120D0950120D8630000CC69000001
S31500001150706300004FF0805608B5094C094DFFF743
S31500001160B7FF2368012BFAD96E60BFF34F8FBFF329
S315000011706F8FFFF7ADFF2368012BF5D8EFE700BFB0
S315000011804496012000ED00E02DE9F04F574B83B067
S315000011901E6801361E60002E7BD055490B689E42A4
S315000011A061D3544F3B681868002800F093800020F4
S315000011B0514B8446B2468146504DDFF85CE10093C0
S315000011C0019146E05969D3E90224946062604A6855
S315000011D0181D82420A6808BF4C60013AC3F814C061
S315000011E00A60996A71B1D3E90724946062604A681B
S315000011F003F11806B2420A6808BF4C60013AC3F808
S3150000120028C00A60DA6ADEF800108A4202EB820120
S3150000121005EB8108D8F8046055F82140D6F808B0E7
S315000012209E60C3F80CB0CBF80400B060C3F814801D
S31500001230009B88BFCEF80020013445F8214019688C
S315000012403B68C96A1B688A4288BF4FF00109002BB8
S315000012503AD03B68DB68DB685A689245B2D201999E
S3150000126048460A6003E00020234B244D0093009B70
S31500001270234A1B681268DB6A03EB830355F82330A5
S31500001280022B28BF0120002A18BF012003B0BDE8A9
S31500001290F08F184B1A68126802BB1A4A1868116850
S315000012A01960194910600A6801320A601A681268E2
S315000012B022B94FF0FF330E490B606FE71B680C49EC
S315000012C0DB681B680B6069E7484601994FF0FF33FE
S315000012D00B60CCE7084B094D0093F7E741F25F211D
S315000012E00A4B0B4A0B4800F049FF00BFCC95012082
S315000012F0B095012018960120A89601204496012059
S31500001300BC95012014960120B89501200C640000BC
S315000013108869000070630000C89501202DE9F0433C
S315000013200E46002187B0DDF83C80109C0491B8F190
S31500001330000F24D0002C30D0994668230593174619
S31500001340059A9A4222D105462046059B03F044FFA2
S3150000135028460E9DC4F8308000950225029484F834
S31500001360655004AD4B463A4631460195FFF75EFEA1
S315000013702046FFF76BFD049807B0BDE8F08340F206
S31500001380F141094B094A0A4800F0F8FE40F2FA41D9
S31500001390084B064A064800F0F1FE40F2F241064BC1
S315000013A0024A034800F0EAFE84640000F469000083
S315000013B070630000C0640000A46400002DE9F043DF
S315000013C0074685B09000164688469946FEF754FFB4
S315000013D0F8B105466820FEF74FFF0446B0B1682213
S315000013E0002103F0F9FE25630D9D4B4601950C9DEA
S315000013F032464146384602940095FFF717FE2046CE
S31500001400FFF724FD012005B0BDE8F0832846FFF76D
S315000014100FF84FF0FF3005B0BDE8F08330B500247B
S315000014208DB01B4B07AA06A905A80893CDE905446C
S315000014308DF8244003F0E4FADDE905122346CDE9F0
S3150000144001211448079A009408A9FFF767FF124B79
S31500001450186018B9114B1B680DB030BD00F074FC54
S31500001460012808D00130F5D140F6A9610C4B0D4A90
S315000014700D4800F083FE80F310884FF0FF350B49CE
S315000014800B4A0C4B0D6010601C6003F0A9F9E1E7F4
S3150000149049444C4555110000AC950120086A0000EE
S315000014A0DC640000AC69000070630000B0950120A8
S315000014B0C4950120CC950120024A136801331360BC
S315000014C0704700BFA89501202DE9F04F5B4F83B010
S315000014D003F01EF93B68002B00F0A8803B68013B37
S315000014E03B60D7F80080B8F1000F40F09080544B75
S315000014F01B68002B00F08B80DFF870E1DEF800300F
S31500001500002B00F090804F4BDFF864914E4E019314
S31500001510DEF80C30DB689A6AD3E90701816048601F
S31500001520506803F11804A04208BF51601168C3F85F
S315000015302880013911605A69D3E902108860416038
S3150000154051681D1DA942116808BF5060013911601C
S31500001550DA6AD9F800103D488A4288BFC9F80020E7
S3150000156002EB8201006806EB810CDCF80440D0F83F
S315000015702CA056F82100D4F808B0013052459C60E2
S31500001580C3F80CB0CBF80450A560C3F814C046F8F5
S31500001590210002D90122019B1A60DEF80030002BDF
S315000015A0B6D12B4B1A681268002A37D01A68294B15
S315000015B0D26812681A60284D2C68A4B10126DDF89D
S315000015C0048006E0FFF7E0FD08B1C8F80060013CC2
S315000015D008D03B68002BF5D02B68013C03F10103D2
S315000015E02B60F6D12C60019B1B6883B14FF08052B3
S315000015F01A4B164909685A60BFF34F8FBFF36F8FB6
S31500001600012403F0ADF8204603B0BDE8F08F0024B6
S3150000161003F0A6F8204603B0BDE8F08F4FF0FF3286
S315000016200C4B1A60C7E7074B0193C4E740F68B7172
S315000016300B4B0C4A0C4800F0A1FD00BFA8950120F9
S31500001640D0950120BC95012044960120A896012042
S3150000165018960120B0950120C095012000ED00E00C
S31500001660F06400009C690000706300000096012091
S31500001670C895012008B560B10E4B1A6801321A6090
S315000016801B68012B0ED10021FFF774FCFFF71CFF2E
S3150000169038B94FF08052084B5A60BFF34F8FBFF3F3
S315000016A06F8F08BD40F68E11044B054A054800F0C1
S315000016B065FD00BFA895012000ED00E0386500003B
S315000016C0C069000070630000014B1868704700BFD6
S315000016D0CC950120014B1868704700BFD0950120BA
S315000016E0054B1B680BB9FFF74FBD044A0020136872
S315000016F001331360704700BFA8950120C0950120F3
S3150000170038B51A4B1B681BB10122194B1A6038BD3C
S31500001710174A184C13602368174803EB830250F8E6
S315000017202250990000EB82023DB9C3B152F8141C55
S31500001730013B09B9143AF8E79900CA1800EB82018F
S3150000174008464A680830526882424A6004BFCA683E
S315000017504A600A49D2680A6023600B6838BD41F2C4
S31500001760FA31074B074A084800F008FDA895012002
S31500001770BC950120C895012044960120A896012019
S3150000178054650000746900007063000010B558B11C
S315000017900C46094B19681831FEF742FD2046BDE894
S315000017A010400121FFF7E6BB4FF4A451034B044A56
S315000017B0044800F0E3FC00BFA89601206465000021
S315000017C05C69000070630000F8B5034610B3154C61
S315000017D05D680846002A11462268D4F800E02768AA
S315000017E02668D5611A68D4F800C006F11804AE68F8
S315000017F007F1180702F10102CEF8206018BF4FF07A
S31500001800FF307760AC60CCF828301A60BDE8F8404D
S31500001810FFF7B0BB41F2BE41034B044A044800F057
S31500001820ADFC00BFA8960120646500003C6900007D
S3150000183070630000F8B5C368DB68002B54D0D3E9A9
S31500001840070100269A6A81604860506803F118040F
S31500001850A042294808BF5160116805680139D86A55
S315000018609E621160A5B1254A15685168013515605B
S315000018708D68D9611D626C608C609A62204B1B6812
S31500001880DB6A83422ED201231E4A18461360F8BD36
S315000018905A69D3E90241A1604C6054681E1DB442E6
S315000018A008BF5160116801391160174A11688142F9
S315000018B0164938BF106000EB800201EB82077D6895
S315000018C09200D5F808C08C589D60C3F80CC0CCF8BF
S315000018D00460AE605F610A4B01341B688C50DB6AA2
S315000018E08342D0D30020F8BD41F2F541084B094AA6
S315000018F0094800F043FC00BFA8950120009601208E
S31500001900A8960120BC950120C89501204496012087
S31500001910706500002069000070630000034A044BF4
S3150000192012681B68C0E90023704700BFB895012004
S31500001930CC950120F8B550B30D4679B3044602F0B4
S31500001940E7FE2B68194A581C11681BD0D4E90060C1
S31500001950DFF86CC0DCF80070BE4208D0884206D8BA
S31500001960002301242B6002F0FBFE2046F8BD0F1A6F
S31500001970BB42F5D95B1ADCF80010126803442B60F1
S31500001980C4E90012002402F0EBFE2046F8BD41F245
S31500001990A551074B074A084800F0F0FB41F2A65153
S315000019A0064B044A044800F0E9FB00BFCC95012031
S315000019B08065000008690000706300008C65000007
S315000019C0B89501200122014B1A607047BC95012091
S315000019D0054B1B6833B1054B1868B0FA80F0400917
S315000019E04000704701207047C4950120A89501204A
S315000019F0F0B5124C83B002F08BFE256825B103B01A
S31500001A00BDE8F04002F0ACBE0D4E0E4F3046FEF77C
S31500001A10F7FB3846FEF7F4FB0B490C4B00950A2002
S31500001A201F600E600A4B0C210A4AFEF767FE206013
S31500001A300028E4D00849FFF7AFF9E0E77C970120DA
S31500001A409C97012088970120849701208097012088
S31500001A50AC960120FC9601209C6500002DE9F0471C
S31500001A60DFF884900546D9F800300F46DB68DC685D
S31500001A7004F104084046FEF7EBFB94F828305A07B9
S31500001A800ED423F0010384F828302046236ABDE8EB
S31500001A90F047184793421BD82046236A9847354695
S31500001AA0A3697A1BEE182CBF01210021B74266609C
S31500001AB02461EFD2AF4201D20029EDD0D9F800005F
S31500001AC04146FEF7ADFB2046236ABDE8F0471847BE
S31500001AD0044B41461868FEF7A3FB2046236ABDE87F
S31500001AE0F047184780970120849701202DE9F04F91
S31500001AF000278D4D8D4E8E4CDFF8488285B02B68C1
S31500001B00D3F800B0BBF1000F00F0D980DB68D3F842
S31500001B1000B0FFF7D1FCFFF7D7FD3368824683425A
S31500001B2043D88345306040F2E68000222068ABEB64
S31500001B300A01FFF763F9FFF7C7FC38B94FF0805386
S31500001B407C4A5360BFF34F8FBFF36F8FCDE90177A8
S31500001B5003970022206801A9FEF7B8FF0028CED01F
S31500001B60019B002BF5DBDDF80CA0DAF814301BB175
S31500001B700AF10400FEF76CFBFFF7A6FD3368834607
S31500001B80984226D3019BC6F800B0013B082BE0D84B
S31500001B90DFE803F029296C738C29296C7300DB6854
S31500001BA04FF0FF311868FFF759FF2B681A68002AB3
S31500001BB0F5D1D8F80020C6F800A02A60C8F8003091
S31500001BC0FFF782FCC2E7DB684FF0FF311868FFF7CA
S31500001BD045FF2B681A68002AF5D1D8F80020C8F806
S31500001BE000302A60CEE79AF828C00298DAF8182062
S31500001BF04CF0010183188AF828102CBF012100211E
S31500001C005B45CAF80430CAF810A06AD8ABEB0000EE
S31500001C10824244D81CF0040F13D12CF001038AF839
S31500001C2028305046DAF82030984792E7ABEB0303AA
S31500001C3093426BD3DAF82030504698474B46DAF891
S31500001C40182013EB02092CBF01200020CB45CAF84F
S31500001C500490CAF810A0E9D29B4501D20028E9D029
S31500001C6028680AF10401FEF7DBFADAE79AF8283069
S31500001C7023F001038AF828306BE79AF82820029BA4
S31500001C8042F001028AF82820CAF81830002B44D006
S31500001C905B445B45CAF80430CAF810A025D8D8F8CA
S31500001CA000000AF10401FEF7BBFA52E79AF8283061
S31500001CB09A0727D523F001038AF8283049E7FFF76A
S31500001CC0FBFBFFF701FD336882469842FFF46DAFD8
S31500001CD0D8F80030C6F800A01A68B2FA82F25209A3
S31500001CE024E7584501D9002994D028680AF104014F
S31500001CF0FEF796FA2DE7FFF7E7FB51465846FFF742
S31500001D00ADFE23E75046FEF793FB22E7D8F8000026
S31500001D100AF10401FEF784FA83E74FF48261064B69
S31500001D20064A074800F02AFA849701207497012092
S31500001D307C97012000ED00E0186600000C6A0000A8
S31500001D40C06500008097012010B588B0FFF750FEEF
S31500001D50114B1B68CBB1002407AA06A905A8CDE93B
S31500001D60054402F05BFE03222346059C0092029482
S31500001D70069C0A490A48079A0194FFF7CFFA094BCD
S31500001D80186010B1012008B010BD4FF4A371064BC6
S31500001D90064A074800F0F2F97C97012040660000E9
S31500001DA0ED1A00007897012048660000286A0000B6
S31500001DB0C065000000BE704708B500F035F802F0B7
S31500001DC0FBFDFEE7F8B5174F05463E68A6B17C68F1
S31500001DD006EB460604EB860602E00C34B4420BD052
S31500001DE0637AAB42F9D1D4E900020021121A0C340D
S31500001DF003F0F2F9B442F3D1BE6896B1FC6804EB85
S31500001E00061602E01034A6420BD0637BAB42F9D132
S31500001E10D4E90002A168121A103403F034FAA6427B
S31500001E20F3D1F8BD4C6A00004FF47001274B284AE5
S31500001E3070B50020C3F888109A6002F0B7FF00F072
S31500001E4069F8012002F0B2FF224B83F30A880020D2
S31500001E50FFF7B8FF00F048F800F036F9032000F06D
S31500001E6075FA00234FF6FF701B4903F10802013390
S31500001E700C2B21F81200F8D10024032000F036FACA
S31500001E80032000F063FA154B03205C609C60DC6065
S31500001E901C6100F02BFA022002F088FF0120FFF7F8
S31500001EA091FF0F4D0F4B5B1BA3424FEAA30605DDC7
S31500001EB055F8043B01349847A642F9DC00F0CAF90C
S31500001EC0BDE87040002000F057B900BF00ED00E00B
S31500001ED00000000000010020000D084000000E4038
S31500001EE0046E0000086E0000064B074993F82600B2
S31500001EF01A6A51F82030C2F302620449D3400B60DB
S31500001F00704700BF00E0014000050020B0970120A7
S31500001F10704700BFF8B54AF2035001235E495F4A95
S31500001F20A1F8FE03A2F80431B2F804319BB2002BEB
S31500001F30FAD101204FF400454FF0090C584CDFF858
S31500001F4080E1584EC4F804E0DFF878E15249C4F85D
S31500001F500CE0A2F80001B060534A30605348544F79
S31500001F60C4E90502A56091F8262025612760086A64
S31500001F7054F822204F4DC0F30260C2402A6081F817
S31500001F80133481F8A2C091F880341BB991F88134DA
S31500001F9098077CD0404E96F88034002B6CD00022F7
S31500001FA03D4B83F8812483F8802400233A4A82F843
S31500001FB0363092F83C30D907FBD50023364982F8F3
S31500001FC0323091F83C301A07FBD5002342F61176E1
S31500001FD043F20210304AA1F8486081F84A30088579
S31500001FE081F82A3092F83C309B06FBD50320052366
S31500001FF02A494FF0F10C81F81C012F492F48116234
S3150000200082F8263092F82630166A54F82310C6F362
S315000020100264E14029600123F0260025802480F82F
S315000020200CC00372067382F8303082F8523082F8A0
S315000020303E5082F83E4092F87630174943F040030E
S3150000204082F8763091F87630DB09FBD0C623032080
S3150000205081F86E0081F8763091F876300E4A03F0FA
S31500002060BF0381F8763092F87630DB09FBD14FF466
S315000020702543A2F8FE33F8BD0121C82086F8801456
S3150000208000F084F896F88034012BFBD187E74FF4F3
S315000020907A70FFF73DFF88E700E0014000C001408D
S315000020A00005002000700040001C4E0E00C2EB0B25
S315000020B0002D3101B097012021120120002000409F
S315000020C000127A0000366E0138B50025284C012131
S315000020D0C82084F8285000F059F884F8245094F861
S315000020E02430002BFBD194F82430214943F002031D
S315000020F084F8243091F82430C3F340009B07F9D4C8
S315000021001B4A81F8220092F8223003F0FF00002BD0
S31500002110F9D192F84030164960F3C71382F840307F
S3150000212091F84030DB09FBD191F84200104A63F385
S31500002130C71081F8420092F84230DB09FBD192F8D1
S3150000214044000B4963F3C71082F8440091F8443009
S31500002150C3F3C014DB09F9D1012000F0F7F8054BF1
S31500002160012083F8BB44BDE8384000F0BFB800BF8B
S315000021700030084000E00140704700BF00BEFEE7A7
S31500002180A0F101000028FBD1704700BF1F4B204A79
S315000021901B6800FB01F1934213D302F1854202F55D
S315000021A0071203F5741302F6834203F6FF03A2FB3C
S315000021B003231B0DA3FB01314FF0FF30F9B1FFF7ED
S315000021C0DFBF4FF47A7210B4A1FB02C41148B0FB12
S315000021D0F3F34FF0FF3044B9BCFBF3FC4FEA9C002D
S315000021E088B15DF8044BFFF7CBBF9B00B1FBF3F161
S315000021F0A1FB0212002AF4D1084620B1F1E71846E5
S31500002200002BDCD170475DF8044B7047B097012076
S3150000221000127A0000CA9A3B70B500240B4B0C4E94
S31500002220B3F82021B3F84051ADB2154025FA04F3B6
S31500002230DB0704D556F82430E0B203B198470134E1
S31500002240102CF3D1014BA3F8305170BD0060004053
S31500002250B497012070B5032084B000F077F800260B
S315000022606FF0FF014FF0FF301C4C1D4B2246996466
S315000022704FF0010E3346CDE9010004F1220503902B
S3150000228032F8021F0EFA03FC013311B1012620EACF
S315000022900C00AA42F4D1F6B10190124B104A106715
S315000022A0C3F88002029903205167C3F88412039988
S315000022B09167C3F8881200F019F800230A4834F829
S315000022C0022F03F1C00101330AB140F82120A542D3
S315000022D0F5D104B070BD4FF0FF30DEE7426D00006F
S315000022E00080004000E100E000600040EFF3108154
S315000022F0012383F31088124B33F8102092B22AB1CF
S3150000230033F81020013A92B223F8102033F8103037
S315000023109BB293B90B4A10B4B2F8FE330A4C9BB287
S3150000232034F8100043F4254323EA0003A2F8FE33F1
S3150000233081F310885DF8044B704781F3108870476D
S315000023403C98012000E00140406A000030B4EFF301
S315000023501081012383F310880E4A32F810309BB2A5
S315000023606BB90D4C0D4DB4F8FE3335F810C09BB269
S3150000237043EA0C0343F425439BB2A4F8FE3332F838
S31500002380103001339BB222F8103081F3108830BC34
S31500002390704700BF3C98012000E00140406A000001
S315000023A008B502F067FF0C2203464FF0FF301A60B3
S315000023B008BD00BF30B4D0E90004226800EB021269
S315000023C093681D0C4D731D0E0D739BB20B60D36885
S315000023D0D0F8B0509BB20B61D0F8A0324D60DB4311
S315000023E0C3F30D038B6094F91530002030BC002B2D
S315000023F0BCBF0023D360704784460020CCE9053279
S31500002400CCF81010704700BF1F2930B536D801F13F
S31500002410400E00EBCE1EDEF800301B4DC3F3807479
S3150000242054714FEAD37CDEF8084023F0604382F80B
S3150000243004C01360DEF8043004F007041B0F946038
S31500002440EC5C0EF10C03947144B10C34A6440B32CF
S3150000245013F801CB734502F801CFF9D11F2905D82E
S3150000246001238B40DB43C0F8B03030BDFF23272962
S315000024708CBF6831203140F8213030BD01F1A00E0B
S3150000248000EBCE1EC7E700BF406B00001F290346C6
S3150000249010B5006809D80123D0F8B0408B4023421C
S315000024A00ED0FFF7B1FF002010BD27290AD801235F
S315000024B0D0F8A042A1F1200C03FA0CF32342F0D08D
S315000024C0242010BD5B68D0F8A0421B6803EB4303D1
S315000024D019440123A1F1200C03FA0CF3A343EFD016
S315000024E0FFF792FF0020DFE770B5456904460E4608
S315000024F098B0A5B160222946684602F0C4FE602263
S315000025003146284602F0BFFE28462369984760698F
S3150000251018B16022694602F0B6FE18B070BD0D46CD
S31500002520F2E700BF2DE9F04146680F0635680468FA
S3150000253001F00F0252D404EB0518D8F804704FEAE4
S31500002540051E17F0040F0EF1040333D117F0010F27
S3150000255004EB030C01D1052A2FD0D8F8043023F060
S3150000256007031343C8F80430DCF8043003F007030C
S315000025709A42F9D1BA0715D0CB0713D4336905EBC4
S315000025804505DE69EF1C303656F8253004EB85022A
S31500002590D2F8201103F0010301350B43BD42C2F806
S315000025A02031F1D1A644DEF8043003F007030373AB
S315000025B0BDE8F08111F0010FC8D104EB030CD8F887
S315000025C0043023F0070343F00103C8F80430DCF8B5
S315000025D0043003F00703012BF9D1BEE7D4F88830A5
S315000025E013F0010C19D1CB0717D5634604EB830E04
S315000025F0DEF8C070013327F00107082BCEF8C07053
S31500002600F4D1002304EB830EDEF82071013327F0AA
S315000026100107062BCEF82071F4D1D4F8883023F0C8
S3150000262007031343C4F88830D4F88C3003F007034B
S315000026309A42F9D1BCF1000F0ED011F001010BD175
S315000026403369DB69043301F1300253F8046F013159
S31500002650082944F82260F6D14FEA051EA644DEF8A2
S31500002660043003F007030373BDE8F08138B5002397
S315000026704468836094F91530002B0DDB0121354D3C
S315000026805A0903F01F03203201FA03F345F82230FA
S31500002690BFF34F8FBFF36F8F94F91730002B0DDB0D
S315000026A001212C4D5A0903F01F03203201FA03F3CE
S315000026B045F82230BFF34F8FBFF36F8F94F9163072
S315000026C0002B0DDB0121234D5A0903F01F03203295
S315000026D001FA03F345F82230BFF34F8FBFF36F8F34
S315000026E0236843B908221B4BC3F88020BFF34F8FE2
S315000026F0BFF36F8F2368B3FA83F3174D5B0955F861
S3150000270023303BB10521FFF70DFF0020236845F874
S31500002710230038BD10220F4BC3F88020BFF34F8F24
S31500002720BFF36F8F8121FFF7FDFE8521FFF7FAFECC
S31500002730EFF31081012383F31088084B9A6842F067
S3150000274000629A609B6881F310880020236845F830
S31500002750230038BD00E100E0489801200040084011
S3150000276070B5437B0D46934213D014464268802CC5
S31500002770166816D0802B2BD00221FFF7D3FE0268F5
S3150000278002EB0612536823F0E06343EA04635360E6
S315000027904473037BAB4202D02946FFF7C3FE0020F9
S315000027A070BD0121036803EB061CDCF8042003F569
S315000027B0805322F08072CCF80420D3F8082301FA63
S315000027C006F61643C3F80863C3F80C134473E0E730
S315000027D001210368B14003F58053D3F8082322EAA8
S315000027E00102C3F80823D3F80823002AC4D1C3F88A
S315000027F00C23C1E7F0B513795579DB0743EA8573F6
S3150000280044681568272943EA05032468056828D81B
S3150000281001EB84142E1996F8D067360762D405EBBF
S31500002820C41C0CF5803CCCF800309679E301082EE8
S3150000283061D9182E59D937090B373F07CCF80470E0
S31500002840976803F5803C07F0070EEF1807F580330D
S315000028500CF10C0CC3F808E0AC4402F10C0336BBD7
S3150000286033E0A1F1280604EB4404344405EBC41C10
S315000028700CF5C04CCCF800349679E301082E2FD91C
S31500002880182E3AD937090B3746F2084E3F07CCF8CF
S315000028900474976803F5C84C07F007072B440CF13E
S315000028A00C0C43F80E70AC4402F10C039EB106F119
S315000028B00C0E72440CF1FF3C13F801EB9A420CF833
S315000028C001EFF9D12729056805D801222B1983F8CC
S315000028D0D0220020F0BDFF22903445F82420F8E7EE
S315000028E03746D1E74EF66320F0BDA6F10807BF08CC
S315000028F00837FFB2A1E737469FE7A6F10807BF08EA
S315000029000837FFB2C0E700BF00222DE9F04F0B6881
S3150000291083B000938B68D1F810B0CE4E0361CB68BC
S3150000292088460746C0E90523DBF81C50066041606F
S31500002930EFF31081012383F31088C74B9A6822F0C6
S3150000294000629A609B6881F31088D6F88C30DB07AA
S3150000295000F13181C14B019395F82C30C04A1B011F
S31500002960DBB282F80333019BDF60BE4BD3F80C1356
S3150000297021F48031C3F80C13D3F80C33BFF35F8F07
S315000029800823C2F8803113604FF480730099B64A69
S31500002990B04D012942F82170DBF800A0C5F8983047
S315000029A021D0002441F60806009B03F0010904F03B
S315000029B00F0E22090EF5C07C42F4807205EB0C1C4A
S315000029C0C5F898209AE80F008CE80F0005EB0E1E5C
S315000029D05EF80630013469F3C713202C0AF1100A99
S315000029E04EF80630E3D100249A4B01213846C3F84D
S315000029F09840FFF797FDDBF81450D8F80460696833
S31500002A003368FF29084628BFFF20013BC3F3090CA2
S31500002A102B680139013BDBB243EA01237168934A13
S31500002A2001394CEA4141D6E902C60CF1FF3C013EB0
S31500002A3041EA4C6141EA8621D5E90265013E43EA55
S31500002A400643009E013D43EA0563350105F18045D5
S31500002A5005F530252960710101F1804101F531212B
S31500002A60C1F800349BF818304FEAC60A5B0243EA05
S31500002A70004343F4806343F00103C1F80434DBF8F8
S31500002A800800DBF80C10524403C2DBF8103043F0A8
S31500002A9003036B6098F91530A34226DB98F81420DF
S31500002AA003F160411201D2B201F5614181F80023C0
S31500002AB0019A03F1C00142F823706A4A52F82100D4
S31500002AC064F3104042F8210052F82120BFF35F8FD3
S31500002AD0012203F01F015B099B0003F1604303F52C
S31500002AE061438A40C3F880211A6098F91730002B99
S31500002AF026DB98F8142003F160411201D2B201F5E9
S31500002B00614181F800230199564A41F8237003F187
S31500002B10C00152F8210020F4803042F8210052F81A
S31500002B202120BFF35F8F012203F01F015B099B0089
S31500002B3003F1604303F561438A40C3F880211A60BC
S31500002B4098F91630002B27DB98F8142003F1604122
S31500002B501201D2B201F5614181F800230198414A80
S31500002B6003F1C00140F8237052F8210020F48030B0
S31500002B7042F8210052F82120BFF35F8F01215A0944
S31500002B80920003F01F0302F1604202F5614201FA6E
S31500002B9003F3C2F88031136038468021FFF7C2FC88
S31500002BA00021FFF7BFFC00231846314ABB81BA60FB
S31500002BB003B0BDE8F08FD6F88C4014F00804FAD1C3
S31500002BC081213846FFF7AEFC4FF4001C23466A68A5
S31500002BD02849C6F88420C6F89CC0C1F81443AA6ADE
S31500002BE01C48C6F8AC202A1D03F1300152F8046FC8
S31500002BF00133082B40F82160F6D195F82D30184A9C
S31500002C001B01DBB282F80433144B00211E460193EC
S31500002C10144B3161D3F8106361F31046C3F81063A7
S31500002C20D3F81033BFF35F8F1023C2F880311360DF
S31500002C302A4652F82C3B074EC0F8883052F8043F1B
S31500002C4004F14801013423F00103062C46F8213033
S31500002C50F4D181E600000B4000400840F8970120BF
S31500002C6000E100E00060004048980120500F0B4052
S31500002C704446435200100B4070B598B0EFF30383FF
S31500002C80103B5BB2032B2BD01C462D4B5A22002146
S31500002C900DF1060053F8245002F09EFA4FF48072AC
S31500002CA000216B68ADF804201E682B68284603EBEC
S31500002CB00613DA6892B20292D960AB696946009649
S31500002CC00493FFF711FC1F4A04F1C00352F82310C6
S31500002CD021F4803142F8231052F8233018B070BD29
S31500002CE0194B6022002168461C6802F075FA4FF401
S31500002CF0805300212268ADF80430D2F89030180CC9
S31500002D001B0403EB007302939B03C2F890100ED5CD
S31500002D10D2F8A83293FAA3F3B3FA83F302EB830251
S31500002D200393D2F8E03023F00403C2F8E030A3693D
S31500002D302046694604930324FFF7D6FBC3E700BF8A
S31500002D40F897012000600040489801202DE9F043E3
S31500002D50284D99B0D5F8AC4294FAA4F4002C38D09A
S31500002D60B4FA84F4072C34DC01274FF48062D5F8DA
S31500002D70A032A74004F120083B42CDF80C80ADF804
S31500002D8004201BD105EBC41606F5C046DFF86C908F
S31500002D90083633684146C3F30123164805AA009353
S31500002DA0FFF732FB009B694659F8230083690493B9
S31500002DB0FFF79AFBD5F8A0323B42EAD0A40004F113
S31500002DC0804404F53024D4F8E03023F00803C4F836
S31500002DD0E030084BD3F8AC3243B9074AD2F81013A7
S31500002DE063F31041C2F81013D2F8103319B0BDE8DE
S31500002DF0F08300BF00000B400060004048980120AF
S31500002E002DE9F04399B0EFF30384454B103C64B2CF
S31500002E1053F82490D9F80430D9F818201F68D9F847
S31500002E2000101D6901F598580097049218F80730AC
S31500002E30B844002B61D007262AE04FF4006003F562
S31500002E40617301EB83021368ADF8040093FAA3F3F0
S31500002E501BB1B3FA83F3072B07DD536893FAA3F389
S31500002E60002B5AD0B3FA83F3203303EB87121144B5
S31500002E7091F8D02722F0060281F8D0276946484605
S31500002E800393FFF731FB98F80030B3B3D9F800107D
S31500002E9098F800207B00D0B2D20727F00047CCD4A8
S31500002EA0020723D5EA690C3352F82330D1F8B4026D
S31500002EB013F4805F0CBF4FF400534FF4006307EB2D
S31500002EC0470206FA02F20240ADF8043092FAA2F284
S31500002ED002B3B2FA82F202F1280301EB8202D2F8BF
S31500002EE0E01121F01001C2F8E011C7E703F56B739A
S31500002EF04FF4007001EB8302A5E70A4BC03453F888
S31500002F00242022F4803243F8242053F8243019B0C8
S31500002F10BDE8F08348232022DFE74023A5E700BF72
S31500002F20F8970120006000402DE9F04399B0EFF3D7
S31500002F3003892F4BA9F110094FFA89F953F8296033
S31500002F40D6E90003D0F8B0421A6804F03F0494FAB8
S31500002F50A4F4002C47D0B4FA84F3012513F01C0F17
S31500002F6003F108011C4618BF03F0030305FA01F537
S31500002F700CBF2833283303934FF48063ADF8043035
S31500002F80D0F8A03200922B4214D1DFF86C8004F105
S31500002F902807394605AAFFF737FA009B694658F80D
S31500002FA0230083690493FFF79FFA3068D0F8A032B4
S31500002FB02B42EED000EB8404D4F8E03123F0080372
S31500002FC0C4F8E031D0F8B03253B90A4A09F1C00961
S31500002FD052F8291063F3104142F8291052F82930AB
S31500002FE019B0BDE8F0834FF480752823C3E700BF0E
S31500002FF0F8970120006000404898012010B582B083
S31500003000EFF30383103B0D4A5BB203F1C00152F8A4
S31500003010210020F4803042F8210052F82120084A8D
S3150000302001A852F823406269E36801929847A368B1
S31500003030DA680AB101221A7702B010BD00600040BA
S31500003040F89701200346002059601A72704700BFA6
S3150000305084460020CCE90E32CCF83410704700BF0D
S315000030600346044ADB6800209B1AB3FA83F35B0924
S315000030700B7070474349495230B5836B83B00446A1
S315000030800A466D46A3B193E8030085E80300E16BA9
S315000030901A711846626B19609047A36B1BB195E8CD
S315000030A0030083E80300002384F82B3003B030BD0F
S315000030B02B46ECE730B5404B83B01B6A0193019B6E
S315000030C003F00F23019303690199019D1A7C90F87F
S315000030D02C4094B9C1F30321D2B2A1EB15618A4009
S315000030E0920804D1082003B030BD013AFAD05978CD
S315000030F0C1F3C014C909F8D1DC71002290F826107A
S31500003100056880F8271080F8282081696C6A80F8A5
S315000031102B20026280F82D20C16180F82E2080F8D5
S315000031202F2080F83020217894F801E0012914BF7F
S315000031304FF0040C4FF0050C6179090141EA4E018C
S3150000314094F806E0E47941EACE114CEA0101C9B2ED
S31500003150D970197941F010011971197962F3C30117
S315000031601971197962F3041119711A7964F3C71286
S315000031701A715A7942F001025A7195F90F20002A04
S3150000318008DB012302F01F040C495209A34041F851
S3150000319022300369BF215A7A02F0F3025A72D971BA
S315000031A090F82C202AB1002380F82C30002003B0A0
S315000031B030BD02225A70F9E700E0014000E100E06C
S315000031C090F808C0C0E90512BCF1010F80F82A305A
S315000031D008D10022436880F826C05B0080F82430BE
S315000031E080F82520002380F82930FFF763BF00BF51
S315000031F090F808C0C0E90512BCF1010F80F82A302A
S315000032000AD10022436880F826C05B0043F0010320
S3150000321080F8243080F82520012380F82930FFF734
S3150000322049BF00BF2DE9F0434022002403691C700A
S315000032301A701A785206FCD5C0260268DFF89491F7
S31500003240576AD2F804E01E703E794FF0000C46F043
S31500003250E0061E74FE784FF0B30846F0E0065E7492
S31500003260BE78594C360106F0700646F008069E7088
S315000032703E787F78012E14BF04260526CE4514BF5E
S315000032804FF0770E4FF0F70E46EA4706F6B2DE70BD
S3150000329083F805E083F806C083F807804E7B91F932
S315000032A011304A4D36014A4AE718F6B287F80063EC
S315000032B003F1C00645F8230052F826706CF3104758
S315000032C042F8267052F82660BFF35F8F4FF0010E6A
S315000032D05E09B60003F01F0306F1604606F5614677
S315000032E00EFA03F3C6F8803133604E7B91F90F3046
S315000032F03601E718F6B287F8006303F1C00645F811
S31500003300230052F826706CF3104742F8267052F8E4
S315000033102660BFF35F8F5E09B60003F01F0306F158
S3150000332060460EFA03F306F56146C6F8803133604F
S315000033304E7B91F910303601E718F6B287F8006334
S3150000334003F1C00645F8230052F826706CF31047C7
S3150000335042F8267052F82660BFF35F8F5E09B6000A
S3150000336003F01F0306F160460EFA03F306F5614605
S31500003370C6F8803133604B7B91F90E101B010C446B
S31500003380DBB284F8003301F1C00345F8210052F89E
S3150000339023406CF3104442F8234052F82330BFF325
S315000033A05F8F4B099B0001F01F0103F160430EFA8A
S315000033B001F103F56143C3F8801119609F22036987
S315000033C01A70BDE8F08300BF00E100E0F897012025
S315000033D00060004040420F0070B500250A78016089
S315000033E002F5800202F51F62120202618A68044633
S315000033F042600A7B0272CA6942630A6A80F82950EF
S31500003400C26380F82A50856380F82B504561C0E975
S315000034100655056280F82C50EFF3108C012282F3DA
S3150000342010880B78C3F109039A40074B5E6826EAB9
S3150000343002025A605B688CF31088FFF7F3FE034BB9
S315000034402846E36070BD00BF00400840434949522A
S3150000345038B5002503690168DD71FFF7E3FEB32285
S31500003460836990F826100362036980F8281080F8B3
S315000034702C50C56180F82A502846DA7138BD00BF45
S3150000348038B50025044603690168DD71FFF7CAFEF9
S31500003490B320012394F8262084F82C5084F82820A1
S315000034A0A269E5612262226984F82A50D071D57139
S315000034B02268E56092F911202549500902F01F02A1
S315000034C003FA02F2203041F82020BFF34F8FBFF3FA
S315000034D06F8F226892F90E20500902F01F0203FA3C
S315000034E002F2203041F82020BFF34F8FBFF36F8FD9
S315000034F0226892F91020500902F01F0203FA02F224
S31500003500203041F82020BFF34F8FBFF36F8F226822
S3150000351092F90F20500902F01F0203FA02F220303E
S3150000352041F82020BFF34F8FBFF36F8FEFF310806A
S3150000353083F310882168074A0978C1F109018B4095
S3150000354051680B435360536880F31088284638BD92
S3150000355000E100E00040084010B582B0EFF30383BD
S31500003560103B5A4A5BB2C03352F8231021F4803123
S3150000357042F8231052F82330EFF30383544A103BEA
S315000035805BB252F8234094F82D304BBBA369022B53
S3150000359020D9E369012B0CD123691A7942F0100274
S315000035A01A711A7942F008021A711A7922F0100279
S315000035B01A7123685B6ADB79002B3ED101222369ED
S315000035C0DB7CDBB28DF807309DF8073084F82D20C0
S315000035D002B010BD2269137943F040031371D8E796
S315000035E0E369002BF4D02268526AD279FAB9032B28
S315000035F017D0022B26D0012B32D02269D17C236A28
S315000036006269D154D4E907320132013BC4E9073279
S31500003610002BDDD121690A7963F386120A7102B0A3
S3150000362010BD2269137943F040031371E6E70521C3
S315000036302046FFF721FDE369D9E705212046FFF77C
S315000036401BFDBBE72269137943F01003137113794D
S3150000365043F008031371137923F010031371CDE7B8
S3150000366094F82A204AB322681A4892F90F20510981
S3150000367002F01F0203FA02F2203140F82120BFF3C4
S315000036804F8FBFF36F8F04202269D17941F08001FB
S31500003690D171117941F010011171117921F00801F0
S315000036A01171117921F0100111715070517921F0C9
S315000036B00101517184F82C30A0E708212269537A60
S315000036C003F0F7035372517098E700BF00600040A3
S315000036D0F897012000E100E010B5EFF30383103BFB
S315000036E03C4A5BB2C03352F8231021F4803142F8D1
S315000036F0231052F82330EFF30383374A103B5BB2B3
S3150000370052F8234094F82730002B3BD194F8293007
S31500003710002B36D123685B6ADB792BB194F82B300A
S3150000372013B9236A002B50D1E3692169002B3AD1E2
S31500003730CB79C02223F08003CB7101E0013A02D09D
S31500003740CB79DB09FAD12368224A93F9103003F1C9
S31500003750C00052F8204024F4803442F8204052F849
S315000037602020002B09DB01205A091C4C03F01F0303
S31500003770603200FA03F344F82230CB7943F0400379
S31500003780CB7110BD94F8261094F82820032915D083
S3150000379094F8240021690132013B887484F82820BA
S315000037A084F8273010BD226A6069013B805C0132D3
S315000037B08874C4E90732002BBAD010BD022AE7D1BB
S315000037C094F830100029E3D110BD05212046FFF7FB
S315000037D053FCA9E700600040F897012000E100E0F3
S315000037E038B5EFF30383314A103B5BB252F82340FE
S315000037F023685B6ADB79002B45D194F829301BB12D
S3150000380094F82730012B4BD0E369D3B12169CA79EB
S31500003810C02322F04002CA7101E0013B02D0CA79FE
S315000038205206FAD4EFF30383103B214A5BB2C0334E
S3150000383052F8231021F4803142F8231052F8233035
S3150000384038BD94F82A201AB301202268194D92F93E
S315000038500F20510902F01F02203100FA02F245F84A
S315000038602120BFF34F8FBFF36F8F2169CA7942F0D2
S315000038708002CA7104224A704A7963F300024A71CF
S3150000388084F82C00C3E705212046FFF7F5FBB4E7D3
S31500003890082221694B7A03F0F7034B724A70B6E7A8
S315000038A094F83030002BAFD1B0E700BFF897012075
S315000038B00060004000E100E038B5EFF303834B4AB7
S315000038C0103B5BB252F8230003695A7A597AD5063F
S315000038D001F0E00159725FFA82FC02F003012AD579
S315000038E05A7854064CD400240125016880F82B50E0
S315000038F0DC71FFF797FCB32290F8263080F82C4055
S3150000390080F82830C46180F82A4003698469294612
S315000039100462DA71FFF7B0FBEFF30383103B344A1E
S315000039205BB2C03352F8231021F4803142F82310E1
S3150000393052F8233038BD0029D5D11CF0080F10D01D
S31500003940C269002A42D190F82B20002A3ED1B32228
S3150000395090F82910DA71C1F10301C9B2FFF78CFBA7
S31500003960DAE790F82C100CF0040231B3002AD3D019
S31500003970C269002A38D190F82B20002A34D1E6E714
S315000039800029B0D15A78C2F380115206D5D5082243
S31500003990046880F82B10616A88795A700A78497928
S315000039A042EAC01242EA011242F00202D2B2DA70D0
S315000039B05A7942F001025A71AEE7002AACD0036888
S315000039C05B6ADB79002BA7D00421C7E70022B3216D
S315000039D090F8264080F82C2080F828408469C2613F
S315000039E0046280F82A20D9710121B7E7F8970120EF
S315000039F0006000402DE9F84F0388DBB182464FF0A6
S31500003A00000B4FF00109DFF8D0800024304D4FEA5B
S31500003A10CB07DAF8043035F8022BD9198988914298
S31500003A200AD00134032CF4D1BAF800300BF1010BA3
S31500003A305B45EAD8BDE8F88FDB5909FA04F603F0CE
S31500003A40B853B3F1807FF6B298F8BB3413D0334243
S31500003A5031D1204A04F1200612F81630DB09E0D0F5
S31500003A6012F81630012123F08003C82002F8163020
S31500003A70FEF78CFBD5E7334211D0164A04F120013C
S31500003A8012F81130DB09CCD112F81130C82043F0FE
S31500003A90800302F811300121FEF778FBC1E701200F
S31500003AA0FEF754FC98F8BB340120334388F8BB3446
S31500003AB0FEF71CFCE1E70120FEF748FC98F8BB3452
S31500003AC0012023EA060388F8BB34FEF70FFCC0E7A3
S31500003AD0706B00000030084000E00140F8B5044675
S31500003AE0FFF788FFEFF31082012383F31088234F3B
S31500003AF03B681BB92249CB704023CB703B6801332E
S31500003B003B6082F3108823882BB361681D4C01EB60
S31500003B10C30E06E01B01083113448E4544F823000A
S31500003B2019D008688A88C5034FEA1223D2B2F1D5A4
S31500003B3002EB031C54F82C601B01083120F480357D
S31500003B4026F4803613448E4544F82C6044F82C50F5
S31500003B5044F82300E5D1EFF31082012383F31088A4
S31500003B603B6813B13B68013B3B603B681BB9802057
S31500003B700349CB70C87082F31088F8BDF497012012
S31500003B80000D08400008084008B5034B03600846CE
S31500003B90FFF7A4FF002008BD54524F5003460020F3
S31500003BA0012110B41A6A58609070DA692C4C92F9A7
S31500003BB005204FEA521C02F01F0201FA02F20CF134
S31500003BC0200C44F82C20BFF34F8FBFF36F8FDA69B8
S31500003BD092F90B204FEA521C02F01F0201FA02F280
S31500003BE00CF1200C44F82C20BFF34F8FBFF36F8FDE
S31500003BF0DA6992F907204FEA521C02F01F0201FA15
S31500003C0002F20CF1200C44F82C20BFF34F8FBFF3C7
S31500003C106F8FDA6992F909204FEA521C02F01F02EF
S31500003C2001FA02F20CF1200C44F82C20BFF34F8F5E
S31500003C30BFF36F8FEFF3108481F31088DB69094AB5
S31500003C4093F800C04FF00043516823FA0CF30B437E
S31500003C505360536884F310885DF8044B704700BFC7
S31500003C6000E100E00040084003460020C3E90512D9
S31500003C70704700BF10B4046AA37803F07B03A370F7
S31500003C80837803F00303D21A0B440261A278C3605F
S31500003C90837842F0800203F00303022BA27005D062
S31500003CA00B780020E3705DF8044B70470B8800200A
S31500003CB043F47E43E3815DF8044B7047844600205D
S31500003CC0CCE90A32CCF82410704700BF012310B5A6
S31500003CD0C4690A7894F800C003FA0CF313F0060FCF
S31500003CE001D013071ED402F05C0E0022036A93F87B
S31500003CF002C00CF00B049C70C26010468A784C78A7
S31500003D005A701A780CF07B0C64F301021A70CA78A8
S31500003D109A74DA7902F0A30242EA0E02DA7183F8A3
S31500003D2002C010BD032010BD4FF0FF330020C1E9D3
S31500003D30003370470346880710D510B40024186A6C
S31500003D40C907827802F07B02827020461C6102D588
S31500003D50002210469A615DF8044B7047CA0748BFB7
S31500003D6000224FF0060044BF9A611046704700BF1C
S31500003D700346002210B49C6910460C605DF8044BA3
S31500003D809A61704706207047F0B5846A85B005468B
S31500003D900F4694466E46B4B194E80F0086E80F00CD
S31500003DA0EB6920461B7884F804C02360EB6AC4E9FB
S31500003DB002736B6A9847AC6A1CB196E80F0084E8F8
S31500003DC00F0005B0F0BD3446EAE700BF0620704795
S31500003DD02DE9F04101240A780346944014F0060FB9
S31500003DE005D0C86940680078000700F1AD81002061
S31500003DF0012518704E6902F580025E6202F58C524A
S31500003E008E691202C3E90712C3E90A064E789A7848
S31500003E10864214BF2E46022666F301029A7091F975
S31500003E200B60CB4C720906F01F07203205FA07F724
S31500003E3091F80AC044F82270BFF34F8FBFF36F8F1B
S31500003E40C44A06F1C00752F827E060F3104E42F864
S31500003E5027E052F82770C04F4FEA0C1C04EB060E01
S31500003E605FFA8CFC8EF800C347F8263091F905609E
S31500003E7091F804C04FEA561E06F01F080EF1200EF8
S31500003E8005FA08F844F82E80BFF34F8FBFF36F8F03
S31500003E9006F1C00E52F82E8060F3104842F82E80CC
S31500003EA052F82EE04FEA0C1C04EB060E5FFA8CFC6F
S31500003EB08EF800C347F8263091F9076091F806C0DE
S31500003EC04FEA561E06F01F080EF1200E05FA08F8F6
S31500003ED044F82E80BFF34F8FBFF36F8F06F1C00EED
S31500003EE052F82E8060F3104842F82E8052F82EE0E9
S31500003EF04FEA0C1C04EB060E5FFA8CFC8EF800C32E
S31500003F0047F8263091F9096091F808C04FEA561E25
S31500003F1006F01F080EF1200E05FA08F844F82E8068
S31500003F20BFF34F8FBFF36F8F06F1C00E52F82E808E
S31500003F3060F3104842F82E8052F82E204FEA0C12F9
S31500003F40D2B2344484F8002347F82630EFF31087C2
S31500003F5085F310884FF000460C78804AE640546896
S31500003F6024EA06045460526887F310881A6A40F2FD
S31500003F70F9379070107150729072D0725083087831
S31500003F80CC69854040F2F930054218BF40204FF019
S31500003F90060518BFD074012015770D788E78A840D5
S31500003FA0384218BF4FF478404D78C97818BF9082D0
S31500003FB0C900032D41EA061100F0C280002D0CBF96
S31500003FC0E220F220C9B211709071217B08290EBF40
S31500003FD00A21490001F0020151736178A078C901F4
S31500003FE0400100F02000C9B201430020107294F88D
S31500003FF000C0ACF10200012840F29880C9B2D1712C
S31500004000616888784D785070107865F301001070FB
S31500004010C87809789074D07901F05C0100F0A300AB
S315000040200143D1710020D96918619861D86058613F
S3150000403091F90550474A05F1C00152F8216060F335
S31500004040104642F8216052F82110BFF35F8F012617
S315000040506909890005F01F0501F1604101F561411B
S3150000406006FA05F5C1F880510D60D96991F90B5032
S3150000407005F1C00152F8217060F3104742F8217033
S3150000408052F82110BFF35F8F6909890005F01F05FB
S3150000409001F1604106FA05F501F56141C1F880516B
S315000040A00D60D96991F907E00EF1C00152F821506F
S315000040B060F3104542F8215052F82110BFF35F8F8C
S315000040C04FEA5E1189000EF01F0E01F1604106FAFB
S315000040D00EF501F56141C1F880510D60D96991F97C
S315000040E0091001F1C00552F8257060F3104742F837
S315000040F0257052F82520BFF35F8F4A09920001F020
S315000041001F0102F160428E4002F56142C2F88061F1
S3150000411016601A6A0CF0030C4CF0700C618982F878
S3150000412002C00F4A19815A60BDE8F081FF20BCF138
S31500004130020F08BF41F01001C9B25070D17171E78A
S31500004140F22041F040013DE70320BDE8F08100BFC9
S3150000415000E100E000600040F897012000400840C0
S315000041605549435310B4EFF30383103B224A5BB225
S3150000417003F1C00152F8210020F4803042F82100FA
S3150000418052F821201D4A52F82300C3691B69ABB1BE
S31500004190036913B15DF8044B7047026A00219378F6
S315000041A0446A03F07F0343F004039370C160002C5C
S315000041B0F0D080225DF8044BFFF7E6BD0369026A82
S315000041C0002BEBD08178C46801F0030CBCF1020F20
S315000041D00AD094F800C082F803C001F003029B1ACB
S315000041E01444C0E90343D4E7B4F800C04CF47E4C51
S315000041F0A2F80EC0F1E700BF00600040F89701206A
S3150000420010B582B0EFF30383103B1F4A5BB203F194
S31500004210C00152F8210020F4803042F8210052F803
S3150000422021201A4A52F82340A27802F00303022BF7
S31500004230236A0CBF198A5979A3690CBFC1F3080117
S31500004240C9B2019143B9636AB3B10422204602B0F0
S31500004250BDE81040FFF798BD02F0030201A96069AE
S3150000426001F011F8D4E90521A37803F003031A44F9
S31500004270C91AC4E9052109B102B010BD636A002B51
S31500004280FAD00122E2E700BF00600040F897012063
S3150000429010B5EFF303830E4A103B5CB252F82400CC
S315000042A0D0E90821937803F07B03937019B10222B9
S315000042B00021FFF769FD074A04F1C00352F82310F5
S315000042C021F4803142F8231052F8233010BD00BF8C
S315000042D0F89701200060004010B5EFF303831A4AF7
S315000042E0103B5CB252F82400837803F00303022BE0
S315000042F0036A0CBF198A597993F804C00CBFC1F33D
S315000043000801C9B21CF0100F0CF0380206D093F861
S315000043101CC01CF0010F08BF42F0400293F804C015
S315000043200CF0C70C83F804C0436A0BB1FFF72CFDF1
S31500004330064A04F1C00352F8231021F4803142F8F2
S31500004340231052F8233010BDF8970120006000407A
S3150000435030B5836A85B004468C4601ADABB193E8AF
S31500004360070085E8070062681846117883F804C0DC
S31500004370E26A19609A60636A9847A36A1BB195E876
S31500004380070083E8070005B030BD2B46EBE700BF0A
S3150000439010B4EFF30383103B214A5BB203F1C00173
S315000043A052F8210020F4803042F8210052F82120F2
S315000043B01C4A52F82330D3E906218A421CD01869D8
S315000043C09C6838B393F820C0BCF10F0F0AD9616816
S315000043D040F82210D96901328A429A610CD05DF800
S315000043E0044B7047BCF1070F16D821798154D9695F
S315000043F001328A429A61F2D15B6893F90330012255
S3150000440003F01F0008495B09824041F823205DF84C
S31500004410044B70476068DEE7A48820F81240DAE7AC
S3150000442000600040F897012000E100E030B4EFF3AF
S315000044300382103A344953B203F1C00051F82040C8
S3150000444002F0FF0224F4803441F8204051F8201095
S315000044502E4951F823008168C978890705D5416836
S31500004460497A012901D030BC70470121284C5B09EB
S3150000447002F01F02203301FA02F244F82320BFF3B0
S315000044804F8FBFF36F8F436893F90230002B32DBF7
S315000044905A0903F01F0301FA03F3203244F82230CD
S315000044A0BFF34F8FBFF36F8FD0E90124237892F9C2
S315000044B0022023F04003002A237018DB124B02F17E
S315000044C0C00453F8245025F4803543F8245053F89B
S315000044D02430BFF35F8F53099B0002F01F0203F1E4
S315000044E06043914003F56143C3F8801119600121CF
S315000044F030BCFFF72DBF8268012130BC137823F052
S3150000450040031370FFF724BF00600040F8970120B6
S3150000451000E100E070B5EFF30383364A103B5CB26E
S3150000452052F82460736893F90230002B49DB0120AE
S3150000453031495A0903F01F03203200FA03F341F808
S315000045402230BFF34F8FBFF36F8FD6E9013293F955
S3150000455002301178002B21F04001117019DB274A37
S3150000456003F1C00152F8215025F4803542F821505C
S3150000457052F82120BFF35F8F03F01F025B099B00F7
S3150000458003F16043904003F56143C3F8800118606E
S31500004590B2680021D378D1701A07DDB224D4EB07B4
S315000045A015D405F01405142D19D0144A04F1C003CE
S315000045B052F8231021F4803142F8231052F82330A8
S315000045C070BDB268137823F040031370E1E704214D
S315000045D0304605F01405FFF7BBFE142DE5D1082182
S315000045E03046FFF7B5FEE0E705213046FFF7B0FE9F
S315000045F0D5E700BFF897012000E100E00060004029
S3150000460000BEFEE71EF0040F0CBFEFF30880EFF3C9
S315000046100980014908470000A94600000F4B1968A8
S31500004620EFF309821EF0100F08BF22ED108A22E96F
S31500004630F04FEFF30B8342F8043D0A604FF0100091
S3150000464080F31188BFF34F8FBFF36F8FFDF758F8D4
S315000046504FF0000080F3118800F002B8A896012000
S31500004660074801680A6802CA81F30B88B2E8F04F6E
S315000046701EF0100F08BFB2EC108A82F3098870474B
S31500004680A896012010B5EFF31184102383F3118847
S31500004690FDF726F818B14FF08052024B5A6084F3AA
S315000046A0118810BD00ED00E008B5836913F8023CDF
S315000046B0022B02D0032B04D808BDBDE80840FFF743
S315000046C0CFBF4FF47E71024B024A0348FDF756FDF9
S315000046D050660000EC6B00006466000070B44FF09A
S315000046E080756FF00204094E283122F0010240F86D
S315000046F00C6C40F8045C40F8244C40F8203C40F830
S31500004700082C70BC40F8481D704700BF01460000E9
S3150000471008B5EFF31181102383F311880A4A136851
S315000047200133012B136000D008BD084A084B116005
S315000047305B68C3F30803002BF6D040F2A441054B97
S31500004740054A0648FDF71AFD5498012050980120A5
S3150000475000ED00E0B4660000D86B0000646600005F
S31500004760094A08B513683BB1013B13601BB9074BF7
S315000047701B6883F3118808BD40F2AD41044B054A1E
S315000047800548FDF7FBFC00BF549801205098012016
S31500004790FC660000C46B0000646600000D4B0E4A08
S315000047A01B68A2FB03239B09013BB3F1807F00D367
S315000047B070474FF0E0224FF0F00C0020072110B4B4
S315000047C0064C536184F823C05DF8044B9061116177
S315000047D0704700BFB0970120D34D621000ED00E096
S315000047E0F02208B50B4B83F82220FFF7D7FF0A4AC1
S315000047F0536B43F04043536362B6BFF36F8FEFF3DF
S31500004800148C2CF0040C8CF31488BFF36F8F02DF2A
S3150000481000BEFDE700ED00E000EF00E008B5EFF3B5
S315000048200383103B1A0604D50E4BDB685B0511D4D7
S3150000483008BD03F0FF0202F1604303F5614393F8FC
S3150000484000331B09F0D140F20F61074B074A0848B5
S31500004850FDF794FC40F22161064B044A0448FDF73B
S315000048608DFC00BF00ED00E010670000A46B0000A7
S31500004870646600004867000010B5044600F068F85A
S315000048802046BDE8104000F0D7B800BF30B501247F
S315000048900D480E4A03680E4D85B01919CDE901255C
S315000048A00C4B01604FF480720B490C480094FCF7E6
S315000048B035FD0B4B186008B105B030BD014605B09B
S315000048C0BDE8304000F042B8849E0120E89F0120F8
S315000048D0CC980120006C0000746700007948000045
S315000048E0C898012010B5044600F032F82046BDE80D
S315000048F0104000F0C5B800BF30B501250C480D4C7E
S31500004900036883B0591901944FF4807201600A4B11
S315000049100A490B480095FCF751FDA84201D103B0A6
S3150000492030BD0021206803B0BDE8304000F00EB86D
S31500004930849E012050990120806C00008067000051
S31500004940E5480000704700BFFFF7FCBF00BE704798
S3150000495038B5164C4FF0FF312068FCF773F9012883
S3150000496003D000212068FFF7F1FF114B1A7802B13E
S3150000497038BD01221A70FFF7E7FF0E4D2B68013B89
S315000049802B60002BF4D0002320681A461946FBF74B
S315000049906FFF0128F2D000212068FFF7D7FF2B68B0
S315000049A0013B2B60002BEED138BD00BF7C9E012061
S315000049B0809E0120849E012038B500230C4D0D4CAD
S315000049C001214FF480700C4A2B602370FBF710FF17
S315000049D00A4B186038B1FFF78FFFFFF757FFFCF758
S315000049E01DFD002038BD0146FFF7B0FFF3E700BF0D
S315000049F0849E0120809E01202C9E01207C9E012009
S31500004A00802330B4034D044C05600C60136030BC49
S31500004A10704700BFC49D0120C49B0120802330B491
S31500004A20034D044C05600C60136030BC704700BF3A
S31500004A305C9B01205C99012010B50E4882B000F005
S31500004A40EBFA00F031F800230B4CADF80430ADF86A
S31500004A5006300DF1060101A800F03AF830B1204603
S31500004A60BDF90620BDF9041000F06EFA3220FCF7FD
S31500004A7001FEEEE790670000AC670000704700BFDC
S31500004A8008B500F013F90121022000F017F9012101
S31500004A90032000F013F90121084600F00FF9012068
S31500004AA0FCF7E8FDFBE700BF08B500F063F828B1A6
S31500004AB0BDE808400146044800F046BA0348BDE890
S31500004AC0084000F0A9BA00BFCC670000EC67000000
S31500004AD030B583B0044668460D4600F061F848B923
S31500004AE09DF80400012808D00A4A0B4B12881B883F
S31500004AF022802B80002003B030BDBDF90230BDF806
S31500004B00002022802B80034A21881180024A1380CC
S31500004B1003B030BD8A9E0120889E0120002100B589
S31500004B20114B83B01A680191B2B10379023B012B94
S31500004B3015D94FF0010C0D4B104601A983F800C0A2
S31500004B40FBF762FF019B3BB14FF08052084B5A6066
S31500004B50BFF34F8FBFF36F8F03B05DF804FB1046B2
S31500004B6001A9FBF751FFEDE7909E01208C9E0120E5
S31500004B7000ED00E010B5084C216839B1BDE81040E1
S31500004B80064BD3E901121868126810470322012068
S31500004B90FBF7FAFD2060F1E7909E0120446C0000CF
S31500004BA001232DE9F0414FF0000C4FF0020E2F4A81
S31500004BB086B0976812682E4EBC68019205460DF1C4
S31500004BC00F0110461A468DF80FE086F800C0A04780
S31500004BD0044618B1204606B0BDE8F081DFF894809F
S31500004BE06421D8F80000FCF72DF8012832D133787B
S31500004BF0002B39D1234605227C68019804A9A047D9
S31500004C0004460028E6D16421D8F80000FCF71AF81B
S31500004C1001281FD133783BBB9DF8103003F00F03FA
S31500004C20013B042B1BD8287120469DF811309DF8B6
S31500004C3012201B0203F470631A439DF813302A8076
S31500004C401B029DF8142003F4706313436B8006B0B7
S31500004C50BDE8F0811424204606B0BDE8F081204668
S31500004C602C7106B0BDE8F0811224B3E7446C000055
S31500004C708C9E0120909E012070B54FF0080C0024F8
S31500004C8094B0019008684968074D04AB03C3AE6849
S31500004C90ADF808408DF80AC021462868736801AA55
S31500004CA00394984714B070BD846C0000024BD3E99E
S31500004CB00112186812681047846C00000A46002327
S31500004CC04AF6F33C00B583B06946CDE90033ADF84A
S31500004CD000C08DF80220FFF7CFFF03B05DF804FB9C
S31500004CE070B50D4D2B786BB90C4B0D4ED3E90112F7
S31500004CF01868126890473168044631B1012320468E
S31500004D002B7070BD0024204670BD03220120FBF7E6
S31500004D103BFD3060F2E700BF949E0120046C00006A
S31500004D20989E0120002200B5037983B0022B0192E0
S31500004D3002D003B05DF804FB0A4B18680028F8D0CF
S31500004D4001A9FBF761FE019B002BF2D04FF08052C8
S31500004D50054B5A60BFF34F8FBFF36F8F03B05DF8FB
S31500004D6004FB00BF989E012000ED00E038B50C4B17
S31500004D700D461B7814467BB10A4B29469868224695
S31500004D8085681868A84728B9074B186810B16421C8
S31500004D90FBF758FF204638BDFFF7A2FFECE700BF40
S31500004DA0949E0120046C0000989E0120022800D0E9
S31500004DB0704702490248FEF7E7BE00BFA86C000034
S31500004DC054990120002310B5044683608181194659
S31500004DD04366C28108228361C0E90033C0E9043317
S31500004DE05C3000F0F9F90D4B246263620C4BA36250
S31500004DF00C4BE3620C4B23630C4B9C4206D003F135
S31500004E006802944202D0D0339C4205D104F1580086
S31500004E10BDE8104000F034BA10BD00BF29500000B4
S31500004E204B50000083500000A75000009C9E0120BC
S31500004E30024A0349034800F069B800BF9000002009
S31500004E403D5B0000A000002041680C4B994210B564
S31500004E50044601D000F072FEA168094B994202D0C7
S31500004E60204600F06BFEE168064B994204D02046CE
S31500004E70BDE8104000F062BE10BD00BF9C9E012040
S31500004E80049F01206C9F012010B50B4B04210B4C95
S31500004E900B4A20461A600022FFF794FF04F16800CF
S31500004EA001220921FFF78EFF04F1D0000222122110
S31500004EB0BDE81040FFF786BFD49F01209C9E0120CD
S31500004EC0314E0000014800F0DCB900BFDD9F012033
S31500004ED0014800F0D7B900BFDD9F012010B5044698
S31500004EE0FFF7F0FF236A1BB1BDE81040FFF7F0BFE4
S31500004EF0044B2362044B1B68002BF5D1FFF7C4FF5C
S31500004F00F2E700BF494E0000D49F01202DE9F84387
S31500004F100746884614460026D4E90195B9F10109E9
S31500004F2005D52468002CF7D13046BDE8F883AB8957
S31500004F30012B07D9B5F90E30013303D0294638467F
S31500004F40C04706436835E9E70FB407B5064904AB21
S31500004F50086853F8042B8168019300F0C3FA03B084
S31500004F605DF804EB04B070479C000020036A70B53E
S31500004F7005460E4684680BB9FFF7B0FF636EDB0784
S31500004F8005D4A389980502D4A06D00F07AF9A38907
S31500004F90190702D52369002B35D12146284600F092
S31500004FA0C5F880B34FF0FF35636EDA0705D4A389E1
S31500004FB09B0502D4A06D00F065F9284670BD002B54
S31500004FC004DAA2699A4217DC0A2915D023685A1C0A
S31500004FD022601970A36816F8011F013BA36000291F
S31500004FE0EDD1002B11DA22460A21284600F05FF89F
S31500004FF00130D7D00A25D7E72246284600F057F8D1
S315000050000130E7D1CEE7013EE4E723685A1C22606F
S315000050100A221A70EEE70000024B01461868FFF7F5
S31500005020A5BF00BF9C00002010B50C46B1F90E10BC
S3150000503000F0FCF80028ABBF636DA3891B1823F4AE
S315000050408053ACBF6365A38110BD2DE9F0411F46B7
S315000050508B8905460C46DB05164605D5022300223C
S31500005060B1F90E1000F0D0F8A3893246B4F90E104B
S31500005070284623F48053A3813B46BDE8F04100F067
S31500005080E7B810B50C46B1F90E1000F0BDF8431C98
S31500005090A38915BF606523F4805343F48053A3812D
S315000050A018BFA38110BDB1F90E1000F09DB8F8B578
S315000050B00E461446054618B1036A0BB9FFF70EFFF4
S315000050C0A369A360A3891A0701D5236943B92146B9
S315000050D0284600F02BF818B14FF0FF373846F8BDD8
S315000050E02368F6B222693746981A6369834205DC5B
S315000050F02146284600F022FD0028EDD1A368013B99
S31500005100A36023685A1C22601E70431C62699A427F
S3150000511004D0A389DB07E1D50A2EDFD12146284634
S3150000512000F00CFD0028D9D0D6E7000038B5294B91
S3150000513005460C46186818B1036A0BB9FFF7CEFE90
S31500005140B4F90C30190722D4DA0607D409222A60EA
S3150000515043F040034FF0FF30A38133E0580712D5E8
S31500005160616B41B104F14403994202D0284600F034
S3150000517097F800236363A38923F02403A381002304
S31500005180636023692360A38943F00803A38123692D
S315000051904BB9A38903F42073B3F5007F03D02146EE
S315000051A0284600F018FDB4F90C3013F001020AD0BD
S315000051B00022A26062695242A261226942B913F0DA
S315000051C08000C5D138BD990758BF6269A260F4E76F
S315000051D00020F7E79C00002002440346934200D1DA
S315000051E0704703F8011BF9E738B50023054D04465F
S315000051F008462B6000F06CFD431C02D12B6803B1FE
S31500005200236038BDD89F012038B50446064D0846B0
S31500005210114600222A601A4600F072FD431C02D194
S315000052202B6803B1236038BDD89F012038B50446EA
S31500005230064D0846114600222A601A4600F068FD0F
S31500005240431C02D12B6803B1236038BDD89F0120CF
S3150000525038B50446064D0846114600222A601A460D
S31500005260FFF784FD431C02D12B6803B1236038BDD0
S31500005270D89F0120014B1868704700BF9C00002092
S315000052807047704770470A44431E914200D17047E9
S3150000529010B511F8014B914203F8014FF9D110BD39
S315000052A038B50546002941D051F8043C0C1F002BA7
S315000052B0B8BFE41800F0E0F81D4A136833B963601C
S315000052C014602846BDE8384000F0DCB8A34208D98F
S315000052D0206821188B4201BF19685B680918216094
S315000052E0EDE71A465B680BB1A342FAD9116850186C
S315000052F0A0420BD120680144501811608342E0D1CE
S3150000530018685B68084453601060DAE702D90C231A
S315000053102B60D6E7206821188B4202BF19685B68AC
S315000053200918636008BF21605460CAE738BD00BF32
S31500005330E49F012070B50F4E0C460546316811B941
S3150000534000F0A8FC30602146284600F0A3FC431C70
S3150000535003D14FF0FF34204670BDC41C24F0030473
S31500005360A042F8D0211A284600F094FC0130F2D170
S31500005370EFE700BFE09F01202DE9F843CD1C06466C
S3150000538025F0030508350C2D38BF0C25002D01DB53
S31500005390A94204D90C2333600020BDE8F883DFF866
S315000053A0D48000F069F8D8F800301C4644BB294682
S315000053B03046FFF7BFFF431C044658D1D8F80040DB
S315000053C02746002F43D1002C4BD023683946304660
S315000053D004EB030900F05EFC814542D121683046AA
S315000053E06D1A2946FFF7A6FF01303AD023682B44F1
S315000053F02360D8F800305A6862BBC8F800700FE026
S315000054002268521B20D40B2A17D96119A3422560A2
S3150000541018BF5960636808BFC8F8001062514B6036
S31500005420304600F02FF804F10B00231D20F0070092
S31500005430C21A1CBF1B1AA350AFE76268A3420CBF77
S31500005440C8F800205A60EBE723466468AEE73C469E
S315000054507F68B6E71A465B68A342FBD10023536018
S31500005460DEE70C233046336000F00CF894E7056065
S31500005470D6E700BFE49F01200148FFF702BF00BF47
S31500005480DC9F01200148FFF7FDBE00BFDC9F012025
S315000054909368013B002B936010B408DA9469A34229
S315000054A001DB0A2903D15DF8044BFFF700BE136840
S315000054B0581C1060084619705DF8044B7047F8B523
S315000054C006460F461446D518AC4201D1002007E027
S315000054D03A4614F8011B3046FFF7DAFF431CF3D1B6
S315000054E0F8BD00002DE9F04F0D469DB014469846D4
