S020000072656E657361736375705F736D6172746D65646963696E652E7372656307
S31500000000A0040020251C000085200000211C000003
S31500000010211C0000211C0000211C0000211C0000E6
S31500000020000000000000000000000000F13D00009C
S31500000030211C000000000000093E0000713E000087
S31500000040D12A0000592C0000812D0000D12A000081
S31500000050A52B0000ED390000513900007D3A000063
S31500000060C53A0000C932000049340000513500008D
S31500000070293600007D3B0000193C0000013D0000D0
S30D00000080552E0000D92E0000E8
S315000000882456000000000000FF00000000000000E9
S31500000098001E00006800002001000000200000206B
S315000000A80300000001000000037300000273000053
S315000000B8027300000273000002730000027300005E
S315000000C80273000002730000000000000C0C000020
S315000000D80060600000606000006060000060600012
S315000000E80060600000606000010000000E00000073
S315000000F80500000001000000010000003B000000B0
S30E00000108140000000400000002CE
S315000001140348044B834202D0034B03B1184770478C
S315000001248C0000208C00002000000000064B0749CC
S31500000134C91A891048BF0131491003D0044B0BB1C9
S3150000014401481847704700BF8C0000208C0000202F
S315000001540000000010B5064C237843B9FFF7D8FF1A
S31500000164044B13B10448AFF300800123237010BD80
S31500000174C00400200000000084A2000108B5054B5D
S315000001841BB105490548AFF30080BDE80840FFF7F9
S31500000194CDBF00BF00000000C404002084A20001FB
S315000001A44FF0FF31002200F10803C0E90131C0E934
S315000001B403330260704700BF00230361704700BF2A
S315000001C430B40D686B1C10D000F108031C465B6844
S315000001D41A68AA42FAD902684B60013299608C60A7
S315000001E46160086130BC0260704704696368F2E7C5
S315000001F40346026910B45468406899689C42816059
S31500000204486008BF5160002110685DF8044B01384E
S3150000021419611060704700BFF8B5431E0A3361D8F0
S3150000022410F0070300F1080466D15A4E01F07EF877
S3150000023433682246002B72D0002C58DBDFF87CE1B1
S31500000244DEF80070A74252D3534954480A688242E2
S31500000254C0F08B80524DAA4298BF8C4608D984E0E0
S31500000264136843B1834273D3AB42944670D81A469B
S315000002745168A142F4D33368934238D0DCF8006065
S31500000284083686427ED3AE427CD81368A142CCF8A7
S31500000294003070D3081B102807D911194D075DD1FA
S315000002A448601351CCF8001021463E487F1A046872
S315000002B441F00041A7424FF0000438BF07603A48B6
S315000002C451600368146001330360CEF8007001F0D6
S315000002D435F873070ED040F25711344B344A35487B
S315000002E401F080FE2B4E01F021F83368ABB101F02A
S315000002F425F800263046F8BDA3F10902A242F1D33F
S31500000304244E1030C41A01F011F83368224633B172
S31500000314002AECDB002C91D1E9E7002214461F48A1
S31500000324002147071CBF073020F007000546224B73
S31500000334194F23F00703181AC7E900513360C3E9BC
S315000003440011C5E90030174B18601C4B1860DFE735
S31500000354FB211B4B164A174801F044FE4FF48B71E0
S31500000364184B134A134801F03DFEF521144B104A6D
S31500000374104801F037FE40F20D11134B0C4A0D489C
S3150000038401F030FE40F20511104B094A094801F00C
S3150000039429FE00BFEC040020F0040020F80400202D
S315000003A4F7940120E4040020E004002094490000AE
S315000003B4EC51000050480000F0940120E8040020AD
S315000003C4DC470000604900002C490000B8480000E2
S315000003D400284BD0F8B53A4FA0F10804BC420546B4
S315000003E458D3384EB44255D850F8043C002B5FDA43
S315000003F450F8082C002A54D123F0004340F8043C5A
S3150000040400F094FF3048DFF8E8C00346DCF800202B
S3150000041455F8041C0A44CCF800201A461B689C4272
S31500000424FBD8824203D0BA422DD3B2422BD85068AD
S315000004341618B4420FD06018834218D045F8083C09
S31500000444A24218BF1460214A136801331360BDE841
S31500000454F84000F073BF0144501883425160F2D152
S315000004641B48006883420CD0144604E070471848C1
S3150000047400688342E2D0D3E900500144C4E9005144
S31500000484DEE71360DFE74FF4FD71124B124A13489F
S3150000049401F0A8FD4FF4B571114B124A0F4801F053
S315000004A4A1FD4FF4B671104B0E4A0C4801F09AFDAB
S315000004B440F26B110D4B0B4A084801F093FD00BF47
S315000004C4F8040020F7940120F0040020DC04002046
S315000004D4EC040020DC4A0000C4510000504800002F
S315000004E4D0490000E0510000B44A0000404A000030
S315000004F4E804002070B51646026C0446856B0AB300
S3150000050486B9406804F05AF96368216CA2680B4402
S315000005149342636005F1010515D3236800206360E7
S31500000524A56370BDC06804F049F9226CE3685142C2
S315000005349B1A2268E360934202D2A3680B44E360E9
S31500000544022E03D001350020A56370BD012D38BFEE
S315000005540125F8E770B5054603F0CEFC95F845305D
S315000005645CB2002C14DD05F1240603E0631EDAB246
S315000005745CB26AB16B6A5BB1304601F08FF8002851
S31500000584F4D001F053F9631EDAB25CB2002AF1D159
S31500000594FF2385F8453003F0D7FC03F0ADFC95F84E
S315000005A444305CB2002C14DD05F1100603E0631E32
S315000005B4DAB25CB26AB12B695BB1304601F06EF80F
S315000005C40028F4D001F032F9631EDAB25CB2002AD4
S315000005D4F1D1FF2385F84430BDE8704003F0B4BC84
S315000005E470B5002848D0C56B0446002D3DD0026C7A
S315000005F4A2FB0525002D38D10E4603F07DFCD4E977
S315000006040F30FF2100FB03F32268181A62601344BB
S315000006140244A563C4E9023284F8441084F8451000
S31500000624BEB923691BB903F08FFC012070BD04F128
S31500000634100001F033F80028F5D04FF08052124B29
S315000006445A60BFF34F8FBFF36F8F03F07DFC012019
S3150000065470BD04F11000FFF7A3FD04F12400FFF7B9
S315000006649FFD03F071FC012070BD4FF4B671074B7A
S31500000674074A084801F0B6FC40F23711064B044A13
S31500000684044801F0AFFC00BF00ED00E0B84B0000E9
S31500000694885200005C4B0000B04B000070B582B07D
S315000006A49DF818603BB30546F0B11C46A2B1D9B11A
S315000006B450230193019B502B24D1C4E90F510121EE
S315000006C42046226084F84610019BFFF789FF2046E6
S315000006D484F84C6002B070BD31B950230193019B7C
S315000006E4502B0FD12246E8E74FF4D871094B0A4A3A
S315000006F40A4801F077FC4FF4C271094B064A0748D1
S3150000070401F070FC4FF4CB71064B034A034801F029
S3150000071469FC00BF084C00006C5200005C4B0000F2
S31500000724DC4B0000EC4B000030B583B0D8B18842F6
S315000007340D4618D3144622B350230193019B502B24
S3150000074418D1012100232260D0632364204684F853
S315000007544610019AFFF744FF02232046A56384F856
S315000007644C3003B030BD4FF45E71094B094A0A4858
S3150000077401F038FC4FF4CB71084B094A064801F0E6
S3150000078431FC4FF4C271074B054A034801F02AFCB9
S31500000794144C0000485200005C4B0000EC4B000077
S315000007A46C520000DC4B00002DE9F04184B001924C
S315000007B4002800F0AF8004460F461E46002900F0CC
S315000007C48B80022E03D1E36B012B40F09C8001F059
S315000007D433F8002867D003F08FFBA26BE36B9A42D1
S315000007E453D3022E51D00020DFF8448105460DE094
S315000007F403F0AAFB2046FFF7ADFE00F09FFD03F0D1
S315000008047BFBA26BE36B01209A423ED3019B002B38
S315000008146DD0B0B303F098FB00F088FD03F06CFBD9
S3150000082494F84430FF2B08BF84F8445094F84530BC
S31500000834FF2B08BF84F8455003F086FB02A801A9E4
S3150000084400F0ACFF002858D103F056FBA26BE36B13
S315000008549A42CDD103F078FB019904F1100000F01F
S31500000864C9FE2046FFF776FE00F068FD0028C6D1D3
S315000008744FF08053C8F80430BFF34F8FBFF36F8F28
S31500000884BDE702A800F07EFFC4E73246394620469B
S31500000894FFF730FE636A83B9A8B903F055FB01205C
S315000008A404B0BDE8F081019B002B94D040F2BB312B
S315000008B41C4B1D4A1D4801F095FB04F1240000F071
S315000008C4EDFE0028E9D04FF08052194B5A60BFF371
S315000008D44F8FBFF36F8FE0E7036C002B3FF471AFCC
S315000008E440F2B731134B104A104801F07BFB03F07A
S315000008F42BFB002004B0BDE8F0812046FFF72AFE5A
S3150000090400F01CFDF5E74FF46E710B4B064A0748E1
S3150000091401F068FB40F2B631084B034A034801F084
S3150000092461FB00BFC44C0000345200005C4B000065
S3150000093400ED00E01C4C0000744C0000B04B0000BD
S31500000944F0B585B00192002800F0A38004460E4657
S3150000095400296ED000F070FF002857D003F0CCFABF
S31500000964A56B002D6FD1019B002B35D002A800F09A
S3150000097409FF2F4603F0E8FA00F0D8FC03F0BCFAAE
S3150000098494F84430FF2B08BF84F8447094F845303B
S31500000994FF2B08BF84F8457003F0D6FA01A902A814
S315000009A400F0FCFEE8B903F0A7FAA36B33BB03F02F
S315000009B4CBFA019904F1240000F01CFE2046FFF74F
S315000009C4C9FD00F0BBFC58B303F096FAA56B002DE5
S315000009D439D1019B002BCDD103F0B6FA002005B026
S315000009E4F0BD2046FFF7B6FD00F0A8FC03F084FA3C
S315000009F4A36B002BF0D003F0A7FAE5E703F0A4FA03
S31500000A042046FFF7A7FD00F099FCDDE7019B002BCC
S31500000A14A4D040F2F251224B224A234801F0E2FAD2
S31500000A244FF08052214B5A60BFF34F8FBFF36F8F45
S31500000A34CAE7036C002B8DD040F2ED511C4B194ACA
S31500000A44194801F0CFFA226C5AB1E168A36811443F
S31500000A549942E16028BF2168304628BFE16003F06F
S31500000A64ADFE2369013DA56323B903F06DFA0120A8
S31500000A7405B0F0BD04F1100000F010FE0028F4D01B
S31500000A844FF08052094B5A60BFF34F8FBFF36F8FFD
S31500000A94EBE740F2E951074B024A034801F0A2FA98
S31500000AA4C44C0000245200005C4B000000ED00E042
S31500000AB4A44D0000984D000070B584B00191002843
S31500000AC400F09180036C0446002B40F0858000F012
S31500000AD4B3FE002855D003F00FFAA56B002D63D1A1
S31500000AE4019BA3B302A800F04DFE2E4603F02CFA98
S31500000AF400F01CFC03F000FA94F84430FF2B08BF06
S31500000B0484F8446094F84530FF2B08BF84F84560A8
S31500000B1403F01AFA01A902A800F040FEE0B903F0B6
S31500000B24EBF9A36B2BBB03F00FFA019904F1240034
S31500000B3400F060FD2046FFF70DFD00F0FFFB50B30B
S31500000B4403F0DAF9A56B7DBB019B002BCED103F034
S31500000B54FBF9002004B070BD2046FFF7FBFC00F053
S31500000B64EDFB03F0C9F9A36B002BF0D003F0ECF90D
S31500000B74E6E703F0E9F92046FFF7ECFC00F0DEFBBC
S31500000B84DEE7019B002BA6D040F28B61194B1A4A73
S31500000B941A4801F027FA4FF08052194B5A60BFF3F6
S31500000BA44F8FBFF36F8FCBE72369013DA56323B94D
S31500000BB403F0CAF9012004B070BD04F1100000F07E
S31500000BC46DFD0028F4D04FF080520D4B5A60BFF3F0
S31500000BD44F8FBFF36F8FEBE740F28661094B064AEE
S31500000BE4064801F0FFF940F28261074B024A0348C6
S31500000BF401F0F8F9C44C0000105200005C4B0000F0
S31500000C0400ED00E0184D0000984D000070B500B3EB
S31500000C14D9B10024124D23462A4604E001330A2B97
S31500000C2402F108020ED0566886420FD0002CF5D188
S31500000C3455F833600133002E08BF14460A2B02F11F
S31500000C440802F0D10CB1C4E9001070BD05EBC30471
S31500000C54F9E740F6C931034B034A044801F0C2F9E7
S31500000C64F8940120544B0000FC5100005C4B00003A
S31500000C7470B504460E46154603F03EF994F8443022
S31500000C84FF2B04BF002384F8443094F84530FF2B2F
S31500000C9404BF002384F8453003F056F9A36B23B14F
S31500000CA42046BDE87040FFF755BC04F124002A46EF
S31500000CB4314600F0BDFC2046BDE87040FFF74ABC53
S31500000CC42DE9F041044603F017F9394A394E136801
S31500000CD4013313603368002B3ED0374FE36A3A681A
S31500000CE4002A32D0354D364936480A6804F1040CD8
S31500000CF4013262640A6002689A4238BF036003EBF9
S31500000D04830305EB830041689B00EA58D1F808E0A9
S31500000D14A160C4F80CE00132CEF804C0C1F808C0E2
S31500000D246061EA5003F010F93B6863B13268E36A24
S31500000D34D26A9A4207D24FF08052234B5A60BFF3CD
S31500000D444F8FBFF36F8FBDE8F08132681B4DD26AB7
S31500000D549A4298BF3460C6E734601368012B03D007
S31500000D64E36A164D144FBEE7144D2F4605F1640889
S31500000D7438461437FFF714FA4745F9D1DFF864808B
S31500000D84124F4046FFF70CFA3846FFF709FA1048A7
S31500000D94FFF706FA0F48FFF703FA0F48FFF700FAC2
S31500000DA40E4BC3F800800E4B1F60E36A024F9AE7AE
S31500000DB4709501204896012064950120E495012050
S31500000DC4549501206895012000ED00E0BC950120B2
S31500000DD4A09501208C95012074950120B8950120D9
S31500000DE4B4950120D09501202DE9F8430446264BFD
S31500000DF42648274A274DD0F800901768D3F8008074
S31500000E0428680E460430FFF7F3F9631C17D02B68E5
S31500000E1419EB04045C600BD2296838460431FFF7E9
S31500000E24CFF91D4B1A68A24200D91C60BDE8F883AD
S31500000E3429684046BDE8F8430431FFF7C1B976B9DD
S31500000E442B6809F1FF325A60B9F1000FF0D1296815
S31500000E5438460431FFF7B4F90F4B1B68E6E70F4B2E
S31500000E6429685A681C688A602E68013428682968CB
S31500000E741C602D68946804300431F46060609160ED
S31500000E846B61BDE8F88300BFB49501206C95012021
S31500000E94B8950120489601205095012074950120AB
S31500000EA42DE9F0478A460A9C95002A460746A5215D
S31500000EB4206B9846089EDDF8249003F077FC236B9C
S31500000EC4043D1D4425F00705BAF1000F0FD00AF1C1
S31500000ED4FF3C0AF10F0104F133031CF9012F03F857
S31500000EE4012F0AB18C45F8D1002384F84330042E2F
S31500000EF41AD8E662201DFFF75FF9C6F1050604F16C
S31500000F041800FFF759F943463A462846216BA6616D
S31500000F142461646202F0D6FF2060B9F1000F01D0AB
S31500000F24C9F80040BDE8F08740F26471024B034AF9
S31500000F34034801F057F800BF5C4E000070530000F0
S31500000F44084E0000F8B51A4D2B6823B3194F1A4EF4
S31500000F5405E0012B20D0022B22D12B68DBB102F055
S31500000F64CBFFFB68DC68201DFFF742F93368013BC1
S31500000F7433602B68013B2B6002F0E6FF94F8653082
S31500000F84002BE6D1206BFFF723FA2046FFF720FA61
S31500000F942B68002BE3D1F8BD2046FFF719FADCE7EE
S31500000FA441F62E11054B064A064801F01BF800BF10
S31500000FB4889501208C95012070950120704E0000C3
S31500000FC460530000084E00004FF0805608B5094CE7
S31500000FD4094DFFF7B7FF2368012BFAD96E60BFF3FB
S31500000FE44F8FBFF36F8FFFF7ADFF2368012BF5D843
S31500000FF4EFE700BFE495012000ED00E02DE9F04F96
S31500001004574B83B01E6801361E60002E7BD05549AF
S315000010140B689E4261D3544F3B681868002800F061
S3150000102493800020514B8446B2468146504DDFF8EA
S315000010345CE10093019146E05969D3E90224946086
S3150000104462604A68181D82420A6808BF4C60013A09
S31500001054C3F814C00A60996A71B1D3E9072494608D
S3150000106462604A6803F11806B2420A6808BF4C6017
S31500001074013AC3F828C00A60DA6ADEF800108A4228
S3150000108402EB820105EB8108D8F8046055F821408B
S31500001094D6F808B09E60C3F80CB0CBF80400B06074
S315000010A4C3F81480009B88BFCEF80020013445F8AD
S315000010B4214019683B68C96A1B688A4288BF4FF099
S315000010C40109002B3AD03B68DB68DB685A68924515
S315000010D4B2D2019948460A6003E00020234B244D0E
S315000010E40093009B234A1B681268DB6A03EB8303A5
S315000010F455F82330022B28BF0120002A18BF0120EF
S3150000110403B0BDE8F08F184B1A68126802BB1A4A7E
S31500001114186811681960194910600A6801320A6072
S315000011241A68126822B94FF0FF330E490B606FE755
S315000011341B680C49DB681B680B6069E74846019924
S315000011444FF0FF330B60CCE7084B094D0093F7E7EC
S3150000115441F25F210A4B0B4A0B4800F043FF00BFE4
S315000011646C95012050950120B895012048960120E0
S31500001174E49501205C950120B49501205895012041
S31500001184A44E00001C530000084E00006895012080
S315000011942DE9F0430E46002187B0DDF83C80109C13
S315000011A40491B8F1000F24D0002C30D0994668235E
S315000011B405931746059A9A4222D105462046059B71
S315000011C403F0F4FA28460E9DC4F8308000950225F3
S315000011D4029484F8655004AD4B463A46314601956F
S315000011E4FFF75EFE2046FFF76BFD049807B0BDE8E7
S315000011F4F08340F2F141094B094A0A4800F0F2FE35
S3150000120440F2FA41084B064A064800F0EBFE40F26B
S31500001214F241064B024A034800F0E4FE1C4F00006C
S3150000122488530000084E0000584F00003C4F000051
S315000012342DE9F043074685B0900016468846994640
S31500001244FEF7EAFFF8B105466820FEF7E5FF044617
S31500001254B0B16822002103F0A9FA25630D9D4B461F
S3150000126401950C9D32464146384602940095FFF797
S3150000127417FE2046FFF724FD012005B0BDE8F083E4
S315000012842846FFF7A5F84FF0FF3005B0BDE8F08318
S3150000129430B500248DB01B4B07AA06A905A80893F0
S315000012A4CDE905448DF8244002F070FFDDE905120E
S315000012B42346CDE901211448079A009408A9FFF7AB
S315000012C467FF124B186018B9114B1B680DB030BD7F
S315000012D400F06EFC012808D00130F5D140F6A96172
S315000012E40C4B0D4A0D4800F07DFE80F310884FF03C
S315000012F4FF350B490B4A0C4B0D6010601C6002F065
S3150000130463FEE1E749444C45CD0F00004C950120AE
S315000013149C530000744F000040530000084E000028
S3150000132450950120649501206C950120024A1368AA
S3150000133401331360704700BF489501202DE9F04F33
S315000013445B4F83B002F0D8FD3B68002B00F0A88009
S315000013543B68013B3B60D7F80080B8F1000F40F0D2
S315000013649080544B1B68002B00F08B80DFF870E1F3
S31500001374DEF80030002B00F090804F4BDFF86491CC
S315000013844E4E0193DEF80C30DB689A6AD3E9070106
S3150000139481604860506803F11804A04208BF516098
S315000013A41168C3F82880013911605A69D3E902101B
S315000013B48860416051681D1DA942116808BF5060CC
S315000013C401391160DA6AD9F800103D488A4288BFAB
S315000013D4C9F8002002EB8201006806EB810CDCF8F8
S315000013E40440D0F82CA056F82100D4F808B00130F7
S315000013F452459C60C3F80CB0CBF80450A560C3F802
S3150000140414C046F8210002D90122019B1A60DEF8B5
S315000014140030002BB6D12B4B1A681268002A37D03D
S315000014241A68294BD26812681A60284D2C68A4B130
S315000014340126DDF8048006E0FFF7E0FD08B1C8F8F0
S315000014440060013C08D03B68002BF5D02B68013CBA
S3150000145403F101032B60F6D12C60019B1B6883B159
S315000014644FF080521A4B164909685A60BFF34F8FE2
S31500001474BFF36F8F012402F067FD204603B0BDE879
S31500001484F08F002402F060FD204603B0BDE8F08F23
S315000014944FF0FF320C4B1A60C7E7074B0193C4E7C2
S315000014A440F68B710B4B0C4A0C4800F09BFD00BFB9
S315000014B448950120709501205C950120E495012052
S315000014C448960120B8950120509501206095012089
S315000014D400ED00E0884F000030530000084E000085
S315000014E4A09501206895012008B560B10E4B1A68D5
S315000014F401321A601B68012B0ED10021FFF774FC20
S31500001504FFF71CFF38B94FF08052084B5A60BFF3FF
S315000015144F8FBFF36F8F08BD40F68E11044B054AFB
S31500001524054800F05FFD00BF4895012000ED00E08E
S31500001534D04F000054530000084E0000014B1868B9
S31500001544704700BF6C950120054B1B680BB9FFF76C
S3150000155455BD044A0020136801331360704700BF69
S31500001564489501206095012038B51A4B1B681BB1BC
S315000015740122194B1A6038BD174A184C13602368A8
S31500001584174803EB830250F82250990000EB8202BD
S315000015943DB9C3B152F8141C013B09B9143AF8E732
S315000015A49900CA1800EB820108464A680830526856
S315000015B482424A6004BFCA684A600A49D2680A601D
S315000015C423600B6838BD41F2FA31074B074A0848D5
S315000015D400F008FD489501205C95012068950120DE
S315000015E4E495012048960120EC4F000008530000C2
S315000015F4084E000010B558B10C46094B196818314D
S31500001604FEF7DEFD2046BDE810400121FFF7ECBBE6
S315000016144FF4A451034B044A044800F0E3FC00BF12
S3150000162448960120FC4F0000F0520000084E0000CE
S31500001634F8B5034610B3154C5D680846002A1146F2
S315000016442268D4F800E027682668D5611A68D4F8B9
S3150000165400C006F11804AE6807F1180702F101028A
S31500001664CEF8206018BF4FF0FF307760AC60CCF83E
S3150000167428301A60BDE8F840FFF7B6BB41F2BE4118
S31500001684034B044A044800F0ADFC00BF4896012011
S31500001694FC4F0000D0520000084E0000F8B5C368A5
S315000016A4DB68002B54D0D3E9070100269A6A8160CF
S315000016B44860506803F11804A042294808BF5160E5
S315000016C4116805680139D86A9E621160A5B1254A78
S315000016D415685168013515608D68D9611D626C60A5
S315000016E48C609A62204B1B68DB6A83422ED20123EC
S315000016F41E4A18461360F8BD5A69D3E90241A1602F
S315000017044C6054681E1DB44208BF5160116801390B
S315000017141160174A11688142164938BF106000EB00
S31500001724800201EB82077D689200D5F808C08C58C8
S315000017349D60C3F80CC0CCF80460AE605F610A4BD0
S3150000174401341B688C50DB6A8342D0D30020F8BD79
S3150000175441F2F541084B094A094800F043FC00BF31
S3150000176448950120A0950120489601205C9501200A
S3150000177468950120E495012008500000B452000049
S31500001784084E0000034A044B12681B68C0E9002394
S31500001794704700BF589501206C950120F8B550B3E9
S315000017A40D4679B3044602F0A7FB2B68194A581C68
S315000017B411681BD0D4E90060DFF86CC0DCF8007057
S315000017C4BE4208D0884206D8002301242B6002F0CA
S315000017D4BBFB2046F8BD0F1ABB42F5D95B1ADCF8F1
S315000017E40010126803442B60C4E90012002402F0BE
S315000017F4ABFB2046F8BD41F2A551074B074A084802
S3150000180400F0F0FB41F2A651064B044A044800F0EE
S31500001814E9FB00BF6C950120185000009C520000A3
S31500001824084E000024500000589501200122014B67
S315000018341A6070475C950120054B1B6833B1054B54
S315000018441868B0FA80F040094000704701207047DC
S315000018546495012048950120F0B5124C83B002F03E
S315000018644BFB256825B103B0BDE8F04002F06CBB24
S315000018740D4E0E4F3046FEF793FC3846FEF790FCAD
S315000018840B490C4B00950A201F600E600A4B0C2175
S315000018940A4AFEF703FF20600028E4D00849FFF750
S315000018A4B5F9E0E71C9701203C9701202897012011
S315000018B424970120209701204C9601209C96012014
S315000018C4345000002DE9F047DFF884900546D9F836
S315000018D400300F46DB68DC6804F104084046FEF776
S315000018E487FC94F828305A070ED423F0010384F8B1
S315000018F428302046236ABDE8F047184793421BD890
S315000019042046236A98473546A3697A1BEE182CBFEE
S3150000191401210021B74266602461EFD2AF4201D2B1
S315000019240029EDD0D9F800004146FEF749FC2046CF
S31500001934236ABDE8F0471847044B41461868FEF78A
S315000019443FFC2046236ABDE8F0471847209701204C
S31500001954249701202DE9F04F00278D4D8D4E8E4C96
S31500001964DFF8488285B02B68D3F800B0BBF1000FCE
S3150000197400F0D980DB68D3F800B0FFF7D7FCFFF797
S31500001984DDFD33688246834243D88345306040F2A6
S31500001994E68000222068ABEB0A01FFF769F9FFF73E
S315000019A4CDFC38B94FF080537C4A5360BFF34F8F58
S315000019B4BFF36F8FCDE9017703970022206801A951
S315000019C4FEF7BEFF0028CED0019B002BF5DBDDF829
S315000019D40CA0DAF814301BB10AF10400FEF708FC77
S315000019E4FFF7ACFD33688346984226D3019BC6F8BD
S315000019F400B0013B082BE0D8DFE803F029296C731B
S31500001A048C29296C7300DB684FF0FF311868FFF7E7
S31500001A1459FF2B681A68002AF5D1D8F80020C6F8B1
S31500001A2400A02A60C8F80030FFF788FCC2E7DB682C
S31500001A344FF0FF311868FFF745FF2B681A68002A34
S31500001A44F5D1D8F80020C8F800302A60CEE79AF815
S31500001A5428C00298DAF818204CF0010183188AF895
S31500001A6428102CBF012100215B45CAF80430CAF8AE
S31500001A7410A06AD8ABEB0000824244D81CF0040FD5
S31500001A8413D12CF001038AF828305046DAF82030B6
S31500001A94984792E7ABEB030393426BD3DAF8203013
S31500001AA4504698474B46DAF8182013EB02092CBF28
S31500001AB401200020CB45CAF80490CAF810A0E9D248
S31500001AC49B4501D20028E9D028680AF10401FEF7F3
S31500001AD477FBDAE79AF8283023F001038AF82830EE
S31500001AE46BE79AF82820029B42F001028AF8282024
S31500001AF4CAF81830002B44D05B445B45CAF804305E
S31500001B04CAF810A025D8D8F800000AF10401FEF797
S31500001B1457FB52E79AF828309A0727D523F0010392
S31500001B248AF8283049E7FFF701FCFFF707FD336819
S31500001B3482469842FFF46DAFD8F80030C6F800A08C
S31500001B441A68B2FA82F2520924E7584501D90029E3
S31500001B5494D028680AF10401FEF732FB2DE7FFF75B
S31500001B64EDFB51465846FFF7ADFE23E75046FEF718
S31500001B742FFC22E7D8F800000AF10401FEF720FB47
S31500001B8483E74FF48261064B064A074800F02AFAB7
S31500001B9424970120149701201C97012000ED00E0F2
S31500001BA4B0500000A05300005850000020970120B8
S31500001BB410B588B0FFF750FE114B1B68CBB100245B
S31500001BC407AA06A905A8CDE9054402F0EDFA032201
S31500001BD42346059C00920294069C0A490A48079AE1
S31500001BE40194FFF7D5FA094B186010B1012008B02B
S31500001BF410BD4FF4A371064B064A074800F0F2F9EC
S31500001C041C970120D850000059190000189701208C
S31500001C14E0500000BC5300005850000000BE70475E
S31500001C2408B500F035F802F08DFAFEE7F8B5174F5F
S31500001C3405463E68A6B17C6806EB460604EB8606B6
S31500001C4402E00C34B4420BD0637AAB42F9D1D4E946
S31500001C5400020021121A0C3402F0A8FDB442F3D19A
S31500001C64BE6896B1FC6804EB061602E01034A64280
S31500001C740BD0637BAB42F9D1D4E90002A168121AF6
S31500001C84103402F09BFDA642F3D1F8BDE0530000E8
S31500001C944FF47001274B284A70B50020C3F888100A
S31500001CA49A6002F077FD00F069F8012002F072FDF7
S31500001CB4224B83F30A880020FFF7B8FF00F048F8A8
S31500001CC400F036F9032000F075FA00234FF6FF7092
S31500001CD41B4903F1080201330C2B21F81200F8D139
S31500001CE40024032000F036FA032000F063FA154BB3
S31500001CF403205C609C60DC601C6100F02BFA02200F
S31500001D0402F048FD0120FFF791FF0F4D0F4B5B1BBF
S31500001D14A3424FEAA30605DD55F8043B0134984770
S31500001D24A642F9DC00F0CAF9BDE87040002000F0D4
S31500001D3457B900BF00ED00E000000000A00000203D
S31500001D44000D084000000E408C560000905600001E
S31500001D54064B074993F826001A6A51F82030C2F355
S31500001D6402620449D3400B60704700BF00E00140A3
S31500001D74A004002050970120704700BFF8B54AF22E
S31500001D84035001235E495F4AA1F8FE03A2F8043119
S31500001D94B2F804319BB2002BFAD101204FF400456E
S31500001DA44FF0090C584CDFF880E1584EC4F804E0B3
S31500001DB4DFF878E15249C4F80CE0A2F80001B060FB
S31500001DC4534A30605348544FC4E90502A56091F85C
S31500001DD4262025612760086A54F822204F4DC0F357
S31500001DE40260C2402A6081F8133481F8A2C091F8D7
S31500001DF480341BB991F8813498077CD0404E96F80C
S31500001E048034002B6CD000223D4B83F8812483F868
S31500001E14802400233A4A82F8363092F83C30D907B7
S31500001E24FBD50023364982F8323091F83C301A0744
S31500001E34FBD5002342F6117643F20210304AA1F88C
S31500001E44486081F84A30088581F82A3092F83C3097
S31500001E549B06FBD5032005232A494FF0F10C81F894
S31500001E641C012F492F48116282F8263092F8263039
S31500001E74166A54F82310C6F30264E140296001236C
S31500001E84F0260025802480F80CC00372067382F8BD
S31500001E94303082F8523082F83E5082F83E4092F852
S31500001EA47630174943F0400382F8763091F876305D
S31500001EB4DB09FBD0C623032081F86E0081F8763057
S31500001EC491F876300E4A03F0BF0381F8763092F823
S31500001ED47630DB09FBD14FF42543A2F8FE33F8BD77
S31500001EE40121C82086F8801400F084F896F880341E
S31500001EF4012BFBD187E74FF47A70FFF73DFF88E7A4
S31500001F0400E0014000C00140A00400200070004031
S31500001F14001C4E0E00C2EB0B002D31015097012020
S31500001F24211201200020004000127A0000366E01C2
S31500001F3438B50025284C0121C82084F8285000F023
S31500001F4459F884F8245094F82430002BFBD194F8E3
S31500001F542430214943F0020384F8243091F82430D4
S31500001F64C3F340009B07F9D41B4A81F8220092F878
S31500001F74223003F0FF00002BF9D192F840301649C5
S31500001F8460F3C71382F8403091F84030DB09FBD187
S31500001F9491F84200104A63F3C71081F8420092F8A0
S31500001FA44230DB09FBD192F844000B4963F3C710B6
S31500001FB482F8440091F84430C3F3C014DB09F9D124
S31500001FC4012000F0F7F8054B012083F8BB44BDE877
S31500001FD4384000F0BFB800BF0030084000E00140C0
S31500001FE4704700BF00BEFEE7A0F101000028FBD148
S31500001FF4704700BF1F4B204A1B6800FB01F1934248
S3150000200413D302F1854202F5071203F5741302F69F
S31500002014834203F6FF03A2FB03231B0DA3FB01313B
S315000020244FF0FF30F9B1FFF7DFBF4FF47A7210B407
S31500002034A1FB02C41148B0FBF3F34FF0FF3044B9DF
S31500002044BCFBF3FC4FEA9C0088B15DF8044BFFF738
S31500002054CBBF9B00B1FBF3F1A1FB0212002AF4D122
S31500002064084620B1F1E71846002BDCD170475DF82D
S31500002074044B70475097012000127A0000CA9A3B1D
S3150000208470B500240B4B0C4EB3F82021B3F8405125
S31500002094ADB2154025FA04F3DB0704D556F824300F
S315000020A4E0B203B198470134102CF3D1014BA3F8E5
S315000020B4305170BD0060004054970120F0B50320F4
S315000020C485B000F077F800276FF0FF014FF0FF3678
S315000020D41C4C1D4B224699644FF0010C3B46CDE93E
S315000020E4016604F12405039632F8021F0CFA03F084
S315000020F4013311B1012726EA0006AA42F4D1F7B149
S315000021040196124B104A03201667C3F8806202999F
S315000021145167C3F8841203999167C3F8881200F0D3
S3150000212419F800230A4834F8022F03F1C0010133D9
S315000021340AB140F82120A542F5D105B0F0BD4FF013
S31500002144FF36DEE7FE5500000080004000E100E0B7
S3150000215400600040EFF31081012383F31088124BD3
S3150000216433F8102092B22AB133F81020013A92B211
S3150000217423F8102033F810309BB293B90B4A10B4ED
S31500002184B2F8FE330A4C9BB234F8100043F42543EC
S3150000219423EA0003A2F8FE3381F310885DF8044BAA
S315000021A4704781F310887047E097012000E00140F2
S315000021B4D453000030B4EFF31081012383F3108865
S315000021C40E4A32F810309BB26BB90D4C0D4DB4F873
S315000021D4FE3335F810C09BB243EA0C0343F425439F
S315000021E49BB2A4F8FE3332F8103001339BB222F8C6
S315000021F4103081F3108830BC704700BFE09701208F
S3150000220400E00140D453000030B4D0E90004226851
S3150000221400EB021293681D0C4D731D0E0D739BB2D9
S315000022240B60D368D0F8B0509BB20B61D0F8A032E3
S315000022344D60DB43C3F30D038B6094F91530002026
S3150000224430BC002BBCBF0023D360704784460020FB
S31500002254CCE90532CCF81010704700BF1F2930B501
S3150000226436D801F1400E00EBCE1EDEF800301B4DD1
S31500002274C3F3807454714FEAD37CDEF8084023F02C
S31500002284604382F804C01360DEF8043004F00704E7
S315000022941B0F9460EC5C0EF10C03947144B10C3486
S315000022A4A6440B3213F801CB734502F801CFF9D1DA
S315000022B41F2905D801238B40DB43C0F8B03030BD5D
S315000022C4FF2327298CBF6831203140F8213030BDE7
S315000022D401F1A00E00EBCE1EC7E700BFD4540000E8
S315000022E41F29034610B5006809D80123D0F8B04069
S315000022F48B4023420ED0FFF7B1FF002010BD2729E3
S315000023040AD80123D0F8A042A1F1200C03FA0CF359
S315000023142342F0D0242010BD5B68D0F8A0421B688D
S3150000232403EB430319440123A1F1200C03FA0CF334
S31500002334A343EFD0FFF792FF0020DFE770B54569AE
S3150000234404460E4698B0A5B160222946684602F0B6
S3150000235435FA60223146284602F030FA28462369C7
S315000023649847606918B16022694602F027FA18B0E6
S3150000237470BD0D46F2E700BF2DE9F04146680F0631
S315000023843568046801F00F0252D404EB0518D8F836
S3150000239404704FEA051E17F0040F0EF1040333D13F
S315000023A417F0010F04EB030C01D1052A2FD0D8F83E
S315000023B4043023F007031343C8F80430DCF8043070
S315000023C403F007039A42F9D1BA0715D0CB0713D401
S315000023D4336905EB4505DE69EF1C303656F82530C2
S315000023E404EB8502D2F8201103F0010301350B43F7
S315000023F4BD42C2F82031F1D1A644DEF8043003F020
S3150000240407030373BDE8F08111F0010FC8D104EB93
S31500002414030CD8F8043023F0070343F00103C8F88B
S315000024240430DCF8043003F00703012BF9D1BEE7CE
S31500002434D4F8883013F0010C19D1CB0717D56346AD
S3150000244404EB830EDEF8C070013327F00107082B76
S31500002454CEF8C070F4D1002304EB830EDEF82071AD
S31500002464013327F00107062BCEF82071F4D1D4F8F6
S31500002474883023F007031343C4F88830D4F88C302B
S3150000248403F007039A42F9D1BCF1000F0ED011F004
S3150000249401010BD13369DB69043301F1300253F8CE
S315000024A4046F0131082944F82260F6D14FEA051E6B
S315000024B4A644DEF8043003F007030373BDE8F08195
S315000024C438B500234468836094F91530002B0DDB7E
S315000024D40121354D5A0903F01F03203201FA03F393
S315000024E445F82230BFF34F8FBFF36F8F94F917303F
S315000024F4002B0DDB01212C4D5A0903F01F0320325A
S3150000250401FA03F345F82230BFF34F8FBFF36F8F01
S3150000251494F91630002B0DDB0121234D5A0903F0E3
S315000025241F03203201FA03F345F82230BFF34F8F1D
S31500002534BFF36F8F236843B908221B4BC3F880206F
S31500002544BFF34F8FBFF36F8F2368B3FA83F3174D2F
S315000025545B0955F823303BB10521FFF70DFF002039
S31500002564236845F8230038BD10220F4BC3F880209A
S31500002574BFF34F8FBFF36F8F8121FFF7FDFE8521D8
S31500002584FFF7FAFEEFF31081012383F31088084B5B
S315000025949A6842F000629A609B6881F31088002072
S315000025A4236845F8230038BD00E100E0EC970120DC
S315000025B40040084070B5437B0D46934213D0144641
S315000025C44268802C166816D0802B2BD00221FFF788
S315000025D4D3FE026802EB0612536823F0E06343EA73
S315000025E4046353604473037BAB4202D02946FFF76E
S315000025F4C3FE002070BD0121036803EB061CDCF852
S31500002604042003F5805322F08072CCF80420D3F81A
S31500002614082301FA06F61643C3F80863C3F80C1335
S315000026244473E0E701210368B14003F58053D3F80E
S31500002634082322EA0102C3F80823D3F80823002A50
S31500002644C4D1C3F80C23C1E7F0B513795579DB0778
S3150000265443EA857344681568272943EA0503246811
S31500002664056828D801EB84142E1996F8D067360726
S3150000267462D405EBC41C0CF5803CCCF8003096798A
S31500002684E301082E61D9182E59D937090B373F07AC
S31500002694CCF80470976803F5803C07F0070EEF1832
S315000026A407F580330CF10C0CC3F808E0AC4402F1D6
S315000026B40C0336BB33E0A1F1280604EB440434448E
S315000026C405EBC41C0CF5C04CCCF800349679E30138
S315000026D4082E2FD9182E3AD937090B3746F2084E49
S315000026E43F07CCF80474976803F5C84C07F007074E
S315000026F42B440CF10C0C43F80E70AC4402F10C03A1
S315000027049EB106F10C0E72440CF1FF3C13F801EB7A
S315000027149A420CF801EFF9D12729056805D8012258
S315000027242B1983F8D0220020F0BDFF22903445F8FF
S315000027342420F8E73746D1E74EF66320F0BDA6F12C
S315000027440807BF080837FFB2A1E737469FE7A6F197
S315000027540807BF080837FFB2C0E700BF00222DE90B
S31500002764F04F0B6883B000938B68D1F810B0CE4E4F
S315000027740361CB6888460746C0E90523DBF81C508D
S3150000278406604160EFF31081012383F31088C74B81
S315000027949A6822F000629A609B6881F31088D6F8E2
S315000027A48C30DB0700F13181C14B019395F82C3055
S315000027B4C04A1B01DBB282F80333019BDF60BE4BC8
S315000027C4D3F80C1321F48031C3F80C13D3F80C336B
S315000027D4BFF35F8F0823C2F8803113604FF4807310
S315000027E40099B64AB04D012942F82170DBF800A0E1
S315000027F4C5F8983021D0002441F60806009B03F062
S31500002804010904F00F0E22090EF5C07C42F4807211
S3150000281405EB0C1CC5F898209AE80F008CE80F000D
S3150000282405EB0E1E5EF80630013469F3C713202C3F
S315000028340AF1100A4EF80630E3D100249A4B01211E
S315000028443846C3F89840FFF797FDDBF81450D8F8DC
S31500002854046069683368FF29084628BFFF20013BE6
S31500002864C3F3090C2B680139013BDBB243EA0123AC
S315000028747168934A01394CEA4141D6E902C60CF122
S31500002884FF3C013E41EA4C6141EA8621D5E90265F5
S31500002894013E43EA0643009E013D43EA05633501D2
S315000028A405F1804505F530252960710101F1804166
S315000028B401F53121C1F800349BF818304FEAC60AF5
S315000028C45B0243EA004343F4806343F00103C1F827
S315000028D40434DBF80800DBF80C10524403C2DBF8BE
S315000028E4103043F003036B6098F91530A34226DBDE
S315000028F498F8142003F160411201D2B201F5614146
S3150000290481F80023019A03F1C00142F823706A4A50
S3150000291452F8210064F3104042F8210052F82120B5
S31500002924BFF35F8F012203F01F015B099B0003F1D4
S31500002934604303F561438A40C3F880211A6098F91D
S315000029441730002B26DB98F8142003F1604112019E
S31500002954D2B201F5614181F800230199564A41F842
S31500002964237003F1C00152F8210020F4803042F8AC
S31500002974210052F82120BFF35F8F012203F01F01CB
S315000029845B099B0003F1604303F561438A40C3F886
S3150000299480211A6098F91630002B27DB98F814204A
S315000029A403F160411201D2B201F5614181F80023BD
S315000029B40198414A03F1C00140F8237052F82100FE
S315000029C420F4803042F8210052F82120BFF35F8FB3
S315000029D401215A09920003F01F0302F1604202F535
S315000029E4614201FA03F3C2F880311360384680214C
S315000029F4FFF7C2FC0021FFF7BFFC00231846314A4B
S31500002A04BB81BA6003B0BDE8F08FD6F88C4014F0F1
S31500002A140804FAD181213846FFF7AEFC4FF4001CB6
S31500002A2423466A682849C6F88420C6F89CC0C1F8BB
S31500002A341443AA6A1C48C6F8AC202A1D03F13001C7
S31500002A4452F8046F0133082B40F82160F6D195F84B
S31500002A542D30184A1B01DBB282F80433144B0021D3
S31500002A641E460193144B3161D3F8106361F310468B
S31500002A74C3F81063D3F81033BFF35F8F1023C2F883
S31500002A84803113602A4652F82C3B074EC0F8883032
S31500002A9452F8043F04F14801013423F00103062CE3
S31500002AA446F82130F4D181E600000B40004008408E
S31500002AB49897012000E100E000600040EC970120B7
S31500002AC4500F0B404446435200100B4070B598B06B
S31500002AD4EFF30383103B5BB2032B2BD01C462D4B29
S31500002AE45A2200210DF1060053F8245001F05EFE2F
S31500002AF44FF4807200216B68ADF804201E682B68C1
S31500002B04284603EB0613DA6892B20292D960AB69DF
S31500002B14694600960493FFF711FC1F4A04F1C003AB
S31500002B2452F8231021F4803142F8231052F823304E
S31500002B3418B070BD194B6022002168461C6801F06C
S31500002B4435FE4FF4805300212268ADF80430D2F8E4
S31500002B549030180C1B0403EB007302939B03C2F81A
S31500002B6490100ED5D2F8A83293FAA3F3B3FA83F3EE
S31500002B7402EB83020393D2F8E03023F00403C2F895
S31500002B84E030A3692046694604930324FFF7D6FB85
S31500002B94C3E700BF9897012000600040EC9701202E
S31500002BA42DE9F043284D99B0D5F8AC4294FAA4F433
S31500002BB4002C38D0B4FA84F4072C34DC01274FF403
S31500002BC48062D5F8A032A74004F120083B42CDF834
S31500002BD40C80ADF804201BD105EBC41606F5C046DF
S31500002BE4DFF86C90083633684146C3F30123164870
S31500002BF405AA0093FFF732FB009B694659F82300A8
S31500002C0483690493FFF79AFBD5F8A0323B42EAD0D6
S31500002C14A40004F1804404F53024D4F8E03023F011
S31500002C240803C4F8E030084BD3F8AC3243B9074A7A
S31500002C34D2F8101363F31041C2F81013D2F810330C
S31500002C4419B0BDE8F08300BF00000B4000600040EF
S31500002C54EC9701202DE9F04399B0EFF30384454B3B
S31500002C64103C64B253F82490D9F80430D9F81820EB
S31500002C741F68D9F800101D6901F598580097049249
S31500002C8418F80730B844002B61D007262AE04FF421
S31500002C94006003F5617301EB83021368ADF8040069
S31500002CA493FAA3F31BB1B3FA83F3072B07DD536837
S31500002CB493FAA3F3002B5AD0B3FA83F3203303EB2E
S31500002CC48712114491F8D02722F0060281F8D02702
S31500002CD4694648460393FFF731FB98F80030B3B3CF
S31500002CE4D9F8001098F800207B00D0B2D20727F05C
S31500002CF40047CCD4020723D5EA690C3352F82330B3
S31500002D04D1F8B40213F4805F0CBF4FF400534FF4B0
S31500002D14006307EB470206FA02F20240ADF80430FC
S31500002D2492FAA2F202B3B2FA82F202F1280301EB9A
S31500002D348202D2F8E01121F01001C2F8E011C7E7CF
S31500002D4403F56B734FF4007001EB8302A5E70A4B9E
S31500002D54C03453F8242022F4803243F8242053F854
S31500002D64243019B0BDE8F08348232022DFE740234E
S31500002D74A5E700BF98970120006000402DE9F043C5
S31500002D8499B0EFF303892F4BA9F110094FFA89F98A
S31500002D9453F82960D6E90003D0F8B0421A6804F063
S31500002DA43F0494FAA4F4002C47D0B4FA84F3012522
S31500002DB413F01C0F03F108011C4618BF03F00303AC
S31500002DC405FA01F50CBF2833283303934FF48063C7
S31500002DD4ADF80430D0F8A03200922B4214D1DFF8BB
S31500002DE46C8004F12807394605AAFFF737FA009BD9
S31500002DF4694658F8230083690493FFF79FFA3068FD
S31500002E04D0F8A0322B42EED000EB8404D4F8E031A3
S31500002E1423F00803C4F8E031D0F8B03253B90A4AB3
S31500002E2409F1C00952F8291063F3104142F8291038
S31500002E3452F8293019B0BDE8F0834FF48075282381
S31500002E44C3E700BF9897012000600040EC9701207B
S31500002E5410B582B0EFF30383103B0D4A5BB203F166
S31500002E64C00152F8210020F4803042F8210052F8C3
S31500002E742120084A01A852F823406269E3680192B6
S31500002E849847A368DA680AB101221A7702B010BD1E
S31500002E94006000409897012070B5836984B00446A9
S31500002EA48C46164601AD9BB193E8070085E80700FA
S31500002EB483F804C0E26918469E601A6063699847FD
S31500002EC4A3691BB195E8070083E8070004B070BD49
S31500002ED42B46EDE72DE9F041EFF30382103A7A4CE5
S31500002EE44FFA82FC0CF1C00E54F82E104FEA8C03F4
S31500002EF421F4803103F1804344F82E1003F5C043D6
S31500002F04D3F80013714951F82C0041680D78CE6945
S31500002F14012D09D043692BB1BDE8F04100221146C9
S31500002F24FFF7BABFBDE8F0814FF00008D0E90217F9
S31500002F348F60C1F84880C1F84C80C1F8508054F8BD
S31500002F442E1002F0FF0268F3104144F82E10D3F855
S31500002F540033BFF35F8F5E494FEA5C1302F01F0232
S31500002F6405FA02F2603341F8232096F84830DA076E
S31500002F7403D596F92820424576DA9B0704D596F9B7
S31500002F842930002B80F2878096F92A30002B53DAF9
S31500002F9496F92B30002B37DA96F92C30002B1BDAF6
S31500002FA496F92D30002BB5DB474A03F1C00152F8E0
S31500002FB4214024F4803442F8214052F82120BFF302
S31500002FC45F8F01215A09424C03F01F03603201FA54
S31500002FD403F344F822309DE73B4A03F1C00152F85B
S31500002FE4214024F4803442F8214052F82120BFF3D2
S31500002FF45F8F01215A09364C03F01F03603201FA30
S3150000300403F344F82230CBE72F4A03F1C00152F808
S31500003014214024F4803442F8214052F82120BFF3A1
S315000030245F8F01215A092A4C03F01F03603201FA0B
S3150000303403F344F82230AFE7234A03F1C00152F800
S31500003044214024F4803442F8214052F82120BFF371
S315000030545F8F01215A091E4C03F01F03603201FAE7
S3150000306403F344F8223093E702F1C00354F823C073
S3150000307468F3104C44F823C054F82330BFF35F8F31
S31500003084540902F01F02954004F1600241F82250EF
S3150000309496F8483071E70C4A03F1C00152F8214012
S315000030A424F4803442F8214052F82120BFF35F8F84
S315000030B401215A09064C03F01F03603201FA03F397
S315000030C444F8223060E700BF006000409897012072
S315000030D400E100E030B5836B83B004460A466D46D2
S315000030E4A3B193E8030085E80300E16B1A7118465F
S315000030F4626B19609047A36B1BB195E8030083E8E4
S315000031040300002384F82B3003B030BD2B46ECE7D4
S315000031142DE9F0434022002403691C701A701A78C2
S315000031245206FCD5C0260268DFF89491576AD2F895
S3150000313404E01E703E794FF0000C46F0E0061E7463
S31500003144FE784FF0B30846F0E0065E74BE78594C3C
S31500003154360106F0700646F008069E703E787F78C3
S31500003164012E14BF04260526CE4514BF4FF0770E54
S315000031744FF0F70E46EA4706F6B2DE7083F805E02E
S3150000318483F806C083F807804E7B91F911304A4DC7
S3150000319436014A4AE718F6B287F8006303F1C00617
S315000031A445F8230052F826706CF3104742F826704F
S315000031B452F82660BFF35F8F4FF0010E5E09B6002A
S315000031C403F01F0306F1604606F561460EFA03F3A3
S315000031D4C6F8803133604E7B91F90F303601E7181B
S315000031E4F6B287F8006303F1C00645F8230052F8E7
S315000031F426706CF3104742F8267052F82660BFF327
S315000032045F8F5E09B60003F01F0306F160460EFAEF
S3150000321403F306F56146C6F8803133604E7B91F9B7
S3150000322410303601E718F6B287F8006303F1C006DA
S3150000323445F8230052F826706CF3104742F82670BE
S3150000324452F82660BFF35F8F5E09B60003F01F03D2
S3150000325406F160460EFA03F306F56146C6F88031B8
S3150000326433604B7B91F90E101B010C44DBB284F8DE
S31500003274003301F1C00345F8210052F823406CF3F2
S31500003284104442F8234052F82330BFF35F8F4B09B2
S315000032949B0001F01F0103F160430EFA01F103F5EF
S315000032A46143C3F8801119609F2203691A70BDE84F
S315000032B4F08300BF00E100E0989701200060004021
S315000032C440420F0010B582B0EFF30383103B5A4A15
S315000032D45BB2C03352F8231021F4803142F8231034
S315000032E452F82330EFF30383544A103B5BB252F88F
S315000032F4234094F82D304BBBA369022B20D9E369F4
S31500003304012B0CD123691A7942F010021A711A7929
S3150000331442F008021A711A7922F010021A7123680F
S315000033245B6ADB79002B3ED101222369DB7CDBB2AD
S315000033348DF807309DF8073084F82D2002B010BDB3
S315000033442269137943F040031371D8E7E369002B2C
S31500003354F4D02268526AD279FAB9032B17D0022B19
S3150000336426D0012B32D02269D17C236A6269D154DA
S31500003374D4E907320132013BC4E90732002BDDD11F
S3150000338421690A7963F386120A7102B010BD2269B3
S31500003394137943F040031371E6E705212046FFF74E
S315000033A499FEE369D9E705212046FFF793FEBBE7BB
S315000033B42269137943F010031371137943F0080358
S315000033C41371137923F010031371CDE794F82A20AF
S315000033D44AB322681A4892F90F20510902F01F02D3
S315000033E403FA02F2203140F82120BFF34F8FBFF3D6
S315000033F46F8F04202269D17941F08001D17111794E
S3150000340441F010011171117921F00801117111793E
S3150000341421F0100111715070517921F0010151719F
S3150000342484F82C30A0E708212269537A03F0F703C5
S315000034345372517098E700BF0060004098970120CE
S3150000344400E100E010B5EFF30383103B3C4A5BB2A6
S31500003454C03352F8231021F4803142F8231052F875
S315000034642330EFF30383374A103B5BB252F8234011
S3150000347494F82730002B3BD194F82930002B36D111
S3150000348423685B6ADB792BB194F82B3013B9236A72
S31500003494002B50D1E3692169002B3AD1CB79C022A4
S315000034A423F08003CB7101E0013A02D0CB79DB092A
S315000034B4FAD12368224A93F9103003F1C00052F876
S315000034C4204024F4803442F8204052F82020002B77
S315000034D409DB01205A091C4C03F01F03603200FA71
S315000034E403F344F82230CB7943F04003CB7110BD8B
S315000034F494F8261094F82820032915D094F824006B
S3150000350421690132013B887484F8282084F8273025
S3150000351410BD226A6069013B805C01328874C4E98B
S315000035240732002BBAD010BD022AE7D194F8301026
S315000035340029E3D110BD05212046FFF7CBFDA9E7FD
S31500003544006000409897012000E100E038B5EFF3F1
S315000035540383314A103B5BB252F8234023685B6A0B
S31500003564DB79002B45D194F829301BB194F8273028
S31500003574012B4BD0E369D3B12169CA79C02322F068
S315000035844002CA7101E0013B02D0CA795206FAD45C
S31500003594EFF30383103B214A5BB2C03352F8231086
S315000035A421F4803142F8231052F8233038BD94F8C0
S315000035B42A201AB301202268194D92F90F205109C5
S315000035C402F01F02203100FA02F245F82120BFF36F
S315000035D44F8FBFF36F8F2169CA7942F08002CA7197
S315000035E404224A704A7963F300024A7184F82C0073
S315000035F4C3E705212046FFF76DFDB4E708222169DC
S315000036044B7A03F0F7034B724A70B6E794F83030FE
S31500003614002BAFD1B0E700BF9897012000600040AF
S3150000362400E100E038B5EFF303834B4A103B5BB28D
S3150000363452F8230003695A7A597AD50601F0E00153
S3150000364459725FFA82FC02F003012AD55A785406AD
S315000036544CD400240125016880F82B50DC71FFF757
S3150000366457FDB32290F8263080F82C4080F8283095
S31500003674C46180F82A400369846929460462DA71C0
S31500003684FFF728FDEFF30383103B344A5BB2C033E4
S3150000369452F8231021F4803142F8231052F82330D3
S315000036A438BD0029D5D11CF0080F10D0C269002AF4
S315000036B442D190F82B20002A3ED1B32290F829104B
S315000036C4DA71C1F10301C9B2FFF704FDDAE790F834
S315000036D42C100CF0040231B3002AD3D0C269002A9C
S315000036E438D190F82B20002A34D1E6E70029B0D14E
S315000036F45A78C2F380115206D5D50822046880F898
S315000037042B10616A88795A700A78497942EAC0129C
S3150000371442EA011242F00202D2B2DA705A7942F057
S3150000372401025A71AEE7002AACD003685B6ADB7902
S31500003734002BA7D00421C7E70022B32190F8264026
S3150000374480F82C2080F828408469C261046280F8DD
S315000037542A20D9710121B7E798970120006000401B
S315000037642DE9F84F0388DBB182464FF0000B4FF08A
S315000037740109DFF8D0800024304D4FEACB07DAF890
S31500003784043035F8022BD919898891420AD00134BC
S31500003794032CF4D1BAF800300BF1010B5B45EAD8DF
S315000037A4BDE8F88FDB5909FA04F603F0B853B3F110
S315000037B4807FF6B298F8BB3413D0334231D1204A15
S315000037C404F1200612F81630DB09E0D012F81630A0
S315000037D4012123F08003C82002F81630FEF70AFC04
S315000037E4D5E7334211D0164A04F1200112F81130FC
S315000037F4DB09CCD112F81130C82043F0800302F85B
S3150000380411300121FEF7F6FBC1E70120FEF7D2FCD9
S3150000381498F8BB340120334388F8BB34FEF79AFC8E
S31500003824E1E70120FEF7C6FC98F8BB34012023EA41
S31500003834060388F8BB34FEF78DFCC0E7E4540000A9
S315000038440030084000E00140F8B50446FFF788FF61
S31500003854EFF31082012383F31088234F3B681BB9CF
S315000038642249CB704023CB703B6801333B6082F323
S31500003874108823882BB361681D4C01EBC30E06E048
S315000038841B01083113448E4544F8230019D00868F7
S315000038948A88C5034FEA1223D2B2F1D502EB031C80
S315000038A454F82C601B01083120F4803526F4803648
S315000038B413448E4544F82C6044F82C5044F82300F5
S315000038C4E5D1EFF31082012383F310883B6813B12B
S315000038D43B68013B3B603B681BB980200349CB70C6
S315000038E4C87082F31088F8BD94970120000D084033
S315000038F40008084008B5034B03600846FFF7A4FF19
S31500003904002008BD54524F50F0B5846A85B0054670
S315000039140F4694466E46B4B194E80F0086E80F004D
S31500003924EB6920461B7884F804C02360EB6AC4E97B
S3150000393402736B6A9847AC6A1CB196E80F0084E878
S315000039440F0005B0F0BD3446EAE700BF10B4EFF34C
S315000039540383103B224A5BB203F1C00152F82100F3
S3150000396420F4803042F8210052F821201D4A52F8F2
S315000039742300C3691B69ABB1036913B15DF8044B3A
S315000039847047026A00219378446A03F07F0343F088
S3150000399404039370C160002CF0D080225DF8044BC0
S315000039A4FFF7B2BF0369026A002BEBD08178C468C3
S315000039B401F0030CBCF1020F0AD094F800C082F89F
S315000039C403C001F003029B1A1444C0E90343D4E77D
S315000039D4B4F800C04CF47E4CA2F80EC0F1E700BF68
S315000039E4006000409897012010B582B0EFF303837E
S315000039F4103B1F4A5BB203F1C00152F8210020F4C8
S31500003A04803042F8210052F821201A4A52F8234005
S31500003A14A27802F00303022B236A0CBF198A597990
S31500003A24A3690CBFC1F30801C9B2019143B9636A22
S31500003A34B3B10422204602B0BDE81040FFF764BFCC
S31500003A4402F0030201A9606900F0B8FED4E9052179
S31500003A54A37803F003031A44C91AC4E9052109B17A
S31500003A6402B010BD636A002BFAD00122E2E700BF60
S31500003A74006000409897012010B5EFF303830E4AC7
S31500003A84103B5CB252F82400D0E90821937803F085
S31500003A947B03937019B102220021FFF735FF074A11
S31500003AA404F1C00352F8231021F4803142F82310A4
S31500003AB452F8233010BD00BF9897012000600040E3
S31500003AC410B5EFF303831A4A103B5CB252F8240094
S31500003AD4837803F00303022B036A0CBF198A59790E
S31500003AE493F804C00CBFC1F30801C9B21CF0100F4F
S31500003AF40CF0380206D093F81CC01CF0010F08BF66
S31500003B0442F0400293F804C00CF0C70C83F804C0DA
S31500003B14436A0BB1FFF7F8FE064A04F1C00352F8F4
S31500003B24231021F4803142F8231052F8233010BDBB
S31500003B34989701200060004030B5836A85B004463A
S31500003B448C4601ADABB193E8070085E807006268CF
S31500003B541846117883F804C0E26A19609A60636AA9
S31500003B649847A36A1BB195E8070083E8070005B0E8
S31500003B7430BD2B46EBE700BF10B4EFF30383103BD5
S31500003B84214A5BB203F1C00152F8210020F48030CF
S31500003B9442F8210052F821201C4A52F82330D3E976
S31500003BA406218A421CD018699C6838B393F820C051
S31500003BB4BCF10F0F0AD9616840F82210D9690132A5
S31500003BC48A429A610CD05DF8044B7047BCF1070F2A
S31500003BD416D821798154D96901328A429A61F2D17F
S31500003BE45B6893F90330012203F01F0008495B095F
S31500003BF4824041F823205DF8044B70476068DEE795
S31500003C04A48820F81240DAE7006000409897012063
S31500003C1400E100E030B4EFF30382103A344953B2C2
S31500003C2403F1C00051F8204002F0FF0224F480346E
S31500003C3441F8204051F820102E4951F8230081689C
S31500003C44C978890705D54168497A012901D030BC6C
S31500003C5470470121284C5B0902F01F02203301FA48
S31500003C6402F244F82320BFF34F8FBFF36F8F4368EC
S31500003C7493F90230002B32DB5A0903F01F0301FAD1
S31500003C8403F3203244F82230BFF34F8FBFF36F8F14
S31500003C94D0E90124237892F9022023F04003002A74
S31500003CA4237018DB124B02F1C00453F8245025F498
S31500003CB4803543F8245053F82430BFF35F8F5309FB
S31500003CC49B0002F01F0203F16043914003F5614338
S31500003CD4C3F880111960012130BCFFF72DBF82683B
S31500003CE4012130BC137823F040031370FFF724BF7F
S31500003CF4006000409897012000E100E070B5EFF302
S31500003D040383364A103B5CB252F82460736893F915
S31500003D140230002B49DB012031495A0903F01F0305
S31500003D24203200FA03F341F82230BFF34F8FBFF37A
S31500003D346F8FD6E9013293F902301178002B21F006
S31500003D444001117019DB274A03F1C00152F82150D2
S31500003D5425F4803542F8215052F82120BFF35F8FB5
S31500003D6403F01F025B099B0003F16043904003F5D7
S31500003D746143C3F880011860B2680021D378D1701A
S31500003D841A07DDB224D4EB0715D405F01405142D57
S31500003D9419D0144A04F1C00352F8231021F48031D7
S31500003DA442F8231052F8233070BDB268137823F01A
S31500003DB440031370E1E70421304605F01405FFF7CC
S31500003DC4BBFE142DE5D108213046FFF7B5FEE0E72A
S31500003DD405213046FFF7B0FED5E700BF98970120CE
S31500003DE400E100E00060004000BEFEE71EF0040FA4
S31500003DF40CBFEFF30880EFF3098001490847000080
S31500003E04953E00000F4B1968EFF309821EF0100F60
S31500003E1408BF22ED108A22E9F04FEFF30B8342F834
S31500003E24043D0A604FF0100080F31188BFF34F8FF2
S31500003E34BFF36F8FFDF798FB4FF0000080F31188F6
S31500003E4400F002B848960120074801680A6802CAC9
S31500003E5481F30B88B2E8F04F1EF0100F08BFB2ECE6
S31500003E64108A82F3098870474896012010B5EFF34B
S31500003E741184102383F31188FDF766FB18B14FF004
S31500003E848052024B5A6084F3118810BD00ED00E0A5
S31500003E9408B5836913F8023C022B02D0032B04D81D
S31500003EA408BDBDE80840FFF7CFBF4FF47E71024B53
S31500003EB4024A0348FEF796F8E8500000145500003D
S31500003EC4FC50000070B44FF080756FF00204094E88
S31500003ED4283122F0010240F80C6C40F8045C40F8EA
S31500003EE4244C40F8203C40F8082C70BC40F8481D8F
S31500003EF4704700BFED3D000008B5EFF311811023B4
S31500003F0483F311880A4A13680133012B136000D026
S31500003F1408BD084A084B11605B68C3F30803002B0D
S31500003F24F6D040F2A441054B054A0648FEF75AF876
S31500003F34F8970120F497012000ED00E04C510000B1
S31500003F4400550000FC500000094A08B513683BB14F
S31500003F54013B13601BB9074B1B6883F3118808BD2B
S31500003F6440F2AD41044B054A0548FEF73BF800BF55
S31500003F74F8970120F497012094510000EC540000B6
S31500003F84FC5000000D4B0E4A1B68A2FB03239B0941
S31500003F94013BB3F1807F00D370474FF0E0224FF02E
S31500003FA4F00C0020072110B4064C536184F823C09A
S31500003FB45DF8044B90611161704700BF5097012072
S31500003FC4D34D621000ED00E0F02208B50B4B83F8E8
S31500003FD42220FFF7D7FF0A4A536B43F0404353634B
S31500003FE462B6BFF36F8FEFF3148C2CF0040C8CF3D2
S31500003FF41488BFF36F8F02DF00BEFDE700ED00E01B
S3150000400400EF00E010B5044600F068F82046BDE86D
S31500004014104000F0D7B800BF30B501240D480E4A51
S3150000402403680E4D85B01919CDE901250C4B0160C5
S315000040344FF400620B490C480094FDF7A9F80B4BAA
S31500004044186008B105B030BD014605B0BDE8304082
S3150000405400F042B8B89D0120D09D012000980120AF
S3150000406428550000A851000009400000FC970120D3
S3150000407410B5044600F032F82046BDE8104000F0C2
S31500004084DDB800BF30B502250C480D4C036883B07B
S31500004094591C01944FF4007201600A4B0A490B48FB
S315000040A40095FDF7C5F8012801D103B030BD002104
S315000040B4206803B0BDE8304000F00EB8B89D01207A
S315000040C4849801202C550000B4510000754000006E
S315000040D4704700BFFFF7FCBF00BE704738B5164CEB
S315000040E44FF0FF312068FCF7E7FC012803D00021DC
S315000040F42068FFF7F1FF114B1A7802B138BD01228F
S315000041041A70FFF7E7FF0E4D2B68013B2B60002B5F
S31500004114F4D0002320681A461946FCF745FB01280B
S31500004124F2D000212068FFF7D7FF2B68013B2B60F4
S31500004134002BEED138BD00BFB09D0120B49D0120F7
S31500004144B89D012038B500230C4D0D4C01214FF4C8
S3150000415480700C4A2B602370FCF7E6FA0A4B186051
S3150000416438B1FFF78FFFFFF757FFFDF791F80020EF
S3150000417438BD0146FFF7B0FFF3E700BFB89D012045
S31500004184B49D0120609D0120B09D0120802330B4A0
S31500004194034D044C05600C60136030BC704700BFCF
S315000041A4F89C0120F89A0120802330B4034D044C76
S315000041B405600C60136030BC704700BF909A012004
S315000041C49098012008B50A20FDF78EF9FBE700BF99
S315000041D48388B3F5806F00D07047837E032BFBD1B1
S315000041E449F6FD73028C9A42F6D190F822306B2B75
S315000041F4F2D14369B3F5807F0CD0B3F5007F0DD0BF
S31500004204B3F5407F0ED0B3F5806FE5D10122074B9D
S315000042141A70E1E70122064B1A7070470122054B1A
S315000042241A7070470122044B1A707047C49D01200E
S31500004234C79D0120C69D0120C59D012008B500F03B
S3150000424405FA00F015F800F02BF84FF47A60FDF744
S315000042544BF903216020F2EE040A9FED040A00F0F4
S31500004264A9F80A20FDF740F9FBE700BF00007A43EE
S3150000427408B501214FF4807000F0F0F901214FF4E4
S31500004284007000F0EBF901214FF4407000F0E6F9FC
S31500004294BDE8084001214FF4806000F0DFB900BF9B
S315000042A438B50024104D1149114B124A2C704FF4A5
S315000042B440700C70214614701C7000F0E3F94FF442
S315000042C47A60FDF711F921464FF4807000F0DAF9AF
S315000042D421464FF4007000F0D5F92146BDE8384078
S315000042E44FF4806000F0CEB9C79D0120C69D012021
S315000042F4C49D0120C59D0120DFED2A7AB4EEE70AAC
S31500004304F1EE10FAF0B506460F46154683B01EDCEC
S31500004314DFED257A20EE270AFDEEC07A17EE901A15
S31500004324DFED207AF4EEE70AF1EE10FA18DCDFEDA1
S315000043341E7A60EEA70AFDEEE07A1C4B17EE904A51
S315000043441B789BB11A4B1B78F3B103B0F0BDDFEDBC
S31500004354157AF4EEE70AF1EE10FA44F25061E6DD5E
S31500004364124B44F250641B78002BEBD13B46324689
S315000043744FF48070009500F0A9F90A20FDF7B4F80F
S315000043840B4B1B78002BE0D13B46324621464FF4BB
S315000043940070009500F09AF90A2003B0BDE8F040D9
S315000043A4FDF7A2B80000D243B76D2B42C79D01208A
S315000043B4C69D01202DE9F0412DED028B034684B004
S315000043C400223C214FF49670F0EE408AB0EE608AEB
S315000043D40393FFF791FF584C584E2378002BFCD0DB
S315000043E43378002BF9D0002740F2DC524FF44070AA
S315000043F43B4653490097534D00F068F927703770D0
S315000044042B78002BFCD0DDED037AB8EE677ADFED6E
S315000044144E7AF6EE006A77EEC77A67EEA67AF5EE7E
S31500004424C07AF1EE10FA00F18580DFED486A9FED5F
S31500004434487A67EEA67A77EE877AFDEEE77A17EE84
S31500004444901A21EAE171B1F5FA6FA8BF4FF4FA6147
S315000044544FF000083F4F3C2396224FF48060CDF87E
S31500004464008087F8008000F031F90A20FDF73CF857
S3150000447485F800803B78002BFCD0DFED370A00225C
S31500004484B0EE680A3C214FF4967078EE200AFFF7E6
S3150000449433FF00233B702378002BFCD03378002BAA
S315000044A4F9D0002740F2DC5264214FF440703B46B9
S315000044B4009700F00BF9277037702B78002BFCD08F
S315000044C40022DFED260A9FED240A3C214FF4967064
S315000044D42A70FFF711FF2378002BFCD03378002BCA
S315000044E4F9D0002340F2DC5200934FF4407023705D
S315000044F41349337000F0EAF82B78002BFCD0002423
S315000045044FF4806021462C7000F0BCF84FF4FA702A
S31500004514FCF7EAFFFFF7C4FE4FF47A60FCF7E4FF0A
S3150000452402220F490F4B0C701A7004B0BDEC028BBB
S31500004534BDE8F08156218BE7C79D0120C69D012069
S31500004544400D0300C59D012000000243BDE92D4234
S31500004554BDE9AD42C49D0120000048420080A94344
S31500004564C99D0120880000204FF0000C2DE9F04F72
S31500004574E346E146334B99B09F681E680B78013ACF
S31500004584CDE900C3304C02905FFA82F80391A8EBA0
S315000045940B02D2B2072A28BF07224FF00103924624
S315000045A4ADF81830019B029ACDF820908DF8203092
S315000045B4009BD84552FA83F305930AF10103CDF81B
S315000045C41C90CDF824908DF81A3009D0039B0BF17A
S315000045D40101524653FA81F10DF1210000F0EEF883
S315000045E44CF250350CE00121237808460B44DBB22B
S315000045F4082B28BF00232370FDF7FCFC013D14D0D3
S3150000460430467B68217805AA98470828EBD060B91C
S3150000461423780AEB0B020133DBB2082B28BF0023F5
S315000046245FFA82FBD845237002D819B0BDE8F08F33
S31500004634009B4FF47A71013301200093FDF7DAFCF5
S31500004644A5E700BF30550000C89D0120024BD3E901
S3150000465401121868126810473055000010B58C46D0
S315000046644AF6F33E6B23002482B005226946009481
S315000046748DF80430ADF800E08DF802C0FFF774FF42
S3150000468402B010BD042210B58C466B2340F29A2466
S3150000469482B00DEB0201ADF804408DF807308DF8B9
S315000046A406C0FFF761FF0023044C05480549064A86
S315000046B4238003800B80138002B010BDC29D0120AD
S315000046C4C09D0120BE9D0120BC9D012030B585B052
S315000046D40C468DF808306B2352BAADF80620FD223D
S315000046E4012105469DF820C08DF80F3084EAE47355
S315000046F4A3EBE4738DF804208DF80EC0E20F4FEAA5
S31500004704136C8DF80D108DF805208DF80C308DF88E
S3150000471409C00C224FEA134C01A91B0A8DF80AC0E2
S315000047248DF80B30FFF720FFB5F5407F21D00DD86B
S31500004734B5F5807F15D0B5F5007F10D1114A1388E1
S3150000474414FA83F39BB2138005B030BDB5F5806FC0
S3150000475405D10D4A138814FA83F39BB2138005B06E
S3150000476430BD0A4A138814FA83F39BB2138005B04A
S3150000477430BD074A138814FA83F39BB2138005B03D
S3150000478430BD00BFC09D0120BC9D0120C29D0120FB
S31500004794BE9D0120022800D0704702490248FFF757
S315000047A4A9B800BF54550000889801200244034666
S315000047B4934200D1704703F8011BF9E70A44431EEC
S315000047C4914200D1704710B511F8014B914203F89C
S315000047D4014FF9D110BD00002820282075696E7498
S315000047E4385F74202A20292028207078426C6F6351
S315000047F46B2029203E3D202628207563486561707C
S315000048045B2030205D2029202920262620282028E8
S315000048142075696E74385F74202A20292028207038
S3150000482478426C6F636B2029203C3D202628207536
S3150000483463486561705B202831303234303029207A
S315000048442D2031205D20292029000000443A2F52D2
S31500004854656E657361735F70726F6A6563742F72D8
S31500004864656E657361736375705F736D6172746D84
S3150000487465646963696E652F72612F6177732F466C
S3150000488472656552544F532F4672656552544F53A1
S315000048942F536F757263652F706F727461626C65E6
S315000048A42F4D656D4D616E672F686561705F342E9F
S315000048B4630000002820282075696E74385F742010
S315000048C42A2029202820707652657475726E202954
S315000048D4203E3D202628207563486561705B2030A4
S315000048E4205D2029202920262620282028207569B5
S315000048F46E74385F74202A20292028207076526529
S315000049047475726E2029203C3D2026282075634844
S315000049146561705B202831303234303029202D20F7
S3150000492431205D2029202900282028207078426C17
S315000049346F636B2D3E78426C6F636B53697A6520A7
S3150000494429203C2028207857616E74656453697A5F
S315000049546520292029203D3D2030000028202820DC
S31500004964282073697A655F7420292070784E6577EC
S31500004974426C6F636B4C696E6B20292026202820BD
S3150000498430783030303720292029203D3D20300032
S3150000499428202820282073697A655F7420292070CE
S315000049A47652657475726E20292026202820736934
S315000049B47A655F74202920282030783030303720FB
S315000049C4292029203D3D20300000000028202820F1
S315000049D475696E74385F74202A202920282070781F
S315000049E44C696E6B2029203E3D202628207563489D
S315000049F46561705B2030205D202920292026262031
S31500004A042820282075696E74385F74202A2029208E
S31500004A14282070784C696E6B2029203C3D2026287E
S31500004A24207563486561705B20283130323430303C
S31500004A3429202D2031205D20292029002820282006
S31500004A44282070784C696E6B2D3E78426C6F636BD0
S31500004A5453697A65202920262028202820282073B7
S31500004A64697A655F74202920312029203C3C20285E
S31500004A7420282073697A656F66282073697A655FD2
S31500004A84742029202A202820282073697A655F74D7
S31500004A942029203820292029202D203120292029A9
S31500004AA4202920213D2030202920213D20300000CE
S31500004AB470784C696E6B2D3E70784E6578744672CC
S31500004AC46565426C6F636B203D3D202828766F69CF
S31500004AD464202A29302900002820282075696E744C
S31500004AE4385F74202A20292028207078497465723A
S31500004AF461746F722029203E3D2026282075634864
S31500004B046561705B2030205D20292029202626201F
S31500004B142820282075696E74385F74202A2029207D
S31500004B24282070784974657261746F722029203C5C
S31500004B343D202628207563486561705B2028313046
S31500004B443234303029202D2031205D2029202900BF
S31500004B547851756575650000443A2F52656E657324
S31500004B6461735F70726F6A6563742F72656E6573C5
S31500004B7461736375705F736D6172746D6564696387
S31500004B84696E652F72612F6177732F467265655260
S31500004B94544F532F4672656552544F532F536F75B6
S31500004BA47263652F71756575652E6300707851752E
S31500004BB4657565007852657475726E20213D2028EE
S31500004BC4202820282042617365547970655F74201B
S31500004BD42920302029202900707853746174696370
S31500004BE451756575650000007853697A65203D3D09
S31500004BF42073697A656F66282051756575655F74DB
S31500004C042029000070784E6577517565756500003A
S31500004C147848616E646C65002128202820707649E6
S31500004C2474656D546F5175657565203D3D20282862
S31500004C34766F6964202A29302920292026262028EF
S31500004C4420707851756575652D3E75784974656D66
S31500004C5453697A6520213D202820554261736554A5
S31500004C647970655F74202920305520292029000099
S31500004C74212820282078436F7079506F73697469EE
S31500004C846F6E203D3D2028202820426173655479AB
S31500004C9470655F74202920322029202920262620A9
S31500004CA42820707851756575652D3E75784C656E4E
S31500004CB467746820213D2031202920290000000046
S31500004CC42128202820785461736B476574536368E0
S31500004CD46564756C657253746174652829203D3D5D
S31500004CE4202820282042617365547970655F7420FA
S31500004CF42920302029202920262620282078546996
S31500004D04636B73546F5761697420213D20302029E9
S31500004D1420290000707851756575652D3E757849B2
S31500004D2474656D53697A65203D3D203000000000AE
S31500004D342128202820707851756575652D3E70638D
S31500004D4448656164203D3D202828766F6964202AE1
S31500004D542930292029202626202820707851756597
S31500004D6475652D3E752E7853656D6170686F726535
S31500004D742E784D75746578486F6C64657220213D94
S31500004D84202828766F6964202A2930292029202999
S31500004D94000000002820707851756575652029008B
S31500004DA421282028202820707642756666657220A0
S31500004DB429203D3D202828766F6964202A29302938
S31500004DC420292026262028202820707851756575EC
S31500004DD46520292D3E75784974656D53697A652079
S31500004DE4213D2028205542617365547970655F74AE
S31500004DF42029203055202920290000007854617389
S31500004E046B000000443A2F52656E657361735F70E0
S31500004E14726F6A6563742F72656E65736173637509
S31500004E24705F736D6172746D65646963696E652F15
S31500004E3472612F6177732F4672656552544F532FF3
S31500004E444672656552544F532F536F757263652FBF
S31500004E547461736B732E630075785072696F72692F
S31500004E647479203C202835290000000070785443CA
S31500004E74422D3E7563537461746963616C6C794148
S31500004E846C6C6F6361746564203D3D202820282086
S31500004E9475696E74385F7420292032202900000059
S31500004EA42820282028202820707844656C6179659C
S31500004EB4645461736B4C69737420292D3E75784E66
S31500004EC4756D6265724F664974656D73203D3D204C
S31500004ED428205542617365547970655F74202920D2
S31500004EE4302029203F2028202820426173655479E8
S31500004EF470655F74202920312029203A2028202833
S31500004F042042617365547970655F742029203020CE
S31500004F142920292029000000707578537461636B79
S31500004F2442756666657220213D202828766F69647D
S31500004F34202A29302900000070785461736B427569
S31500004F446666657220213D202828766F6964202ACA
S31500004F54293029007853697A65203D3D2073697AA2
S31500004F64656F6628205443425F74202900000000C0
S31500004F747852657475726E20213D2028202D3120CB
S31500004F842900000075785363686564756C6572530F
S31500004F94757370656E64656420213D20305500008C
S31500004FA4707850726576696F757357616B6554696D
S31500004FB46D65000028207854696D65496E637265D5
S31500004FC46D656E74203E2030552029007578536334
S31500004FD4686564756C657253757370656E64656433
S31500004FE4203D3D20315500007578546F705072692C
S31500004FF46F7269747900000070784576656E744C3A
S31500005004697374007078556E626C6F636B65645473
S3150000501443420000707854696D654F757400000052
S3150000502470785469636B73546F5761697400000038
S31500005034546D72510000000028207854696D657221
S31500005044506572696F64496E5469636B73203E20C0
S3150000505430202900443A2F52656E657361735F7080
S31500005064726F6A6563742F72656E657361736375B7
S31500005074705F736D6172746D65646963696E652FC3
S3150000508472612F6177732F4672656552544F532FA1
S315000050944672656552544F532F536F757263652F6D
S315000050A474696D6572732E630000000028207078A1
S315000050B454696D65722D3E7854696D6572506572DA
S315000050C4696F64496E5469636B73203E20302029EE
S315000050D400000000546D72205376630078526574A4
S315000050E475726E0075635356434E756D6265722014
S315000050F43C3D203300000000443A2F52656E657330
S3150000510461735F70726F6A6563742F72656E65731F
S3150000511461736375705F736D6172746D65646963E1
S31500005124696E652F72612F6673702F7372632F72A7
S315000051346D5F6672656572746F735F706F72742FDC
S31500005144706F72742E6300002828285343425F54FC
S31500005154797065202A292028283078453030304552
S31500005164303030554C29202B20307830443030559F
S315000051744C2920292D3E4943535220262028307895
S31500005184314646554C202929203D3D20300000005B
S315000051947578437269746963616C4E657374696E7C
S315000051A4670000004755495F5468726561640000F2
S315000051B44D6F746F725F74687265616400000000FD
S315000051C4707276496E73657274426C6F636B496E66
S315000051D4746F467265654C697374000076506F721D
S315000051E474467265650000007076506F72744D6186
S315000051F46C6C6F63000000007651756575654164DB
S3150000520464546F5265676973747279007851756571
S31500005214756553656D6170686F726554616B650081
S315000052247851756575655265636569766500000034
S3150000523478517565756547656E6572696353656E04
S31500005244640000007851756575654372656174651F
S31500005254436F756E74696E6753656D6170686F72BE
S31500005264655374617469630078517565756547653E
S315000052746E657269634372656174655374617469BA
S315000052846300000078517565756547656E657269DA
S315000052946352657365740000785461736B43686583
S315000052A4636B466F7254696D654F75740000000038
S315000052B4785461736B52656D6F766546726F6D4592
S315000052C476656E744C6973740000000076546173DD
S315000052D46B506C6163654F6E4576656E744C69738D
S315000052E47452657374726963746564007654617389
S315000052F46B506C6163654F6E4576656E744C69736D
S3150000530474000000765461736B5377697463684361
S315000053146F6E746578740000785461736B496E63BC
S3150000532472656D656E745469636B000078546173BD
S315000053346B526573756D65416C6C000076546173D0
S315000053446B53746172745363686564756C6572003B
S31500005354765461736B44656C6179000070727644AF
S31500005364656C6574655443420000000070727649AA
S315000053746E697469616C6973654E65775461736BA4
S31500005384000000007072764372656174655374613F
S315000053947469635461736B00040000007072765084
S315000053A4726F636573735265636569766564436F8B
S315000053B46D6D616E647300007854696D6572437235
S315000053C46561746554696D65725461736B000000A0
S315000053D40100020008001000200000000400000084
S315000053E48854000008000000085400000200000071
S315000053F4F85300000000006800000068A0000020C8
S31500005404A0000020000000680000006800000060A2
S3150000541400010C080000006800000068000000702D
S315000054240001090800000068000000680000000888
S3150000543400010208000000680000006888000000FF
S3150000544400010108000000200000002000000060A8
S3150000545400010C0300000020000000200000007082
S3150000546400010903000000200000002000000008DD
S3150000547400000203000000208900002088000000CC
S315000054840000010300000068000000680001000835
S315000054940000006800000068000100088900002080
S315000054A4A000002000000003C0040020CA9D0120C3
S315000054B400000003612700004D260000E5220000DD
S315000054C4C5240000B92500000D2200005122000069
S315000054D40001020304050607080C101418203040C6
S315000054E4020403040404000076506F72744578695C
