S020000072656E657361736375705F736D6172746D65646963696E652E7372656307
S3150000000000050020991D0000F9210000951D000043
S31500000010951D0000951D0000951D0000951D000012
S315000000200000000000000000000000003939000058
S31500000030951D00000000000051390000B93900008C
S31500000040552C0000DD2D0000052F0000552C00006A
S31500000050292D0000E53700004937000075380000FB
S30900000060BD380000A1
S315000000644000350000000000B05C00000000000005
S3150000007400000000000000000000000070000020E6
S315000000840100000028000020030000000100000019
S315000000940373000002730000027300000273000081
S315000000A40273000002730000027300000273000072
S315000000B4000000000C0C000000606000006060009E
S315000000C40060600000606000006060000060600026
S315000000D4010000000E000000050000000100000001
S315000000E4010000003B0000001400000004000000B2
S315000000F40000000003000000309E0120A000002044
S3150000010400000000309E0120989E0120009F0120DF
S3150000011400000000000000000000000000000000D5
S3150000012400000000000000000000000000000000C5
S3150000013400000000000000000000000000000000B5
S31100000144000000000000000000000000A9
S315000001500348044B834202D0034B03B11847704750
S31500000160EC000020EC00002000000000064B0749D0
S31500000170C91A891048BF0131491003D0044B0BB18D
S3150000018001481847704700BFEC000020EC00002033
S315000001900000000010B5064C237843B9FFF7D8FFDE
S315000001A0044B13B10448AFF300800123237010BD44
S315000001B0200500200000000084A2000108B5054BC0
S315000001C01BB105490548AFF30080BDE80840FFF7BD
S315000001D0CDBF00BF000000002405002084A200015E
S315000001E04FF0FF31002200F10803C0E90131C0E9F8
S315000001F003330260704700BF00230361704700BFEE
S3150000020030B40D686B1C10D000F108031C465B6807
S315000002101A68AA42FAD902684B60013299608C606A
S315000002206160086130BC0260704704696368F2E788
S315000002300346026910B45468406899689C4281601C
S31500000240486008BF5160002110685DF8044B013812
S3150000025019611060704700BFF8B5431E0A3361D8B4
S3150000026010F0070300F1080466D15A4E01F014F9A4
S3150000027033682246002B72D0002C58DBDFF87CE175
S31500000280DEF80070A74252D3534954480A688242A6
S31500000290C0F08B80524DAA4298BF8C4608D984E0A4
S315000002A0136843B1834273D3AB42944670D81A465F
S315000002B05168A142F4D33368934238D0DCF8006029
S315000002C0083686427ED3AE427CD81368A142CCF86B
S315000002D0003070D3081B102807D911194D075DD1BE
S315000002E048601351CCF8001021463E487F1A046836
S315000002F041F00041A7424FF0000438BF07603A487A
S3150000030051600368146001330360CEF8007001F099
S31500000310CBF873070ED040F25711344B344A3548A8
S3150000032001F01CFF2B4E01F0B7F83368ABB101F0BA
S31500000330BBF800263046F8BDA3F10902A242F1D36C
S31500000340244E1030C41A01F0A7F83368224633B1A0
S31500000350002AECDB002C91D1E9E7002214461F4865
S31500000360002147071CBF073020F007000546224B37
S31500000370194F23F00703181AC7E900513360C3E980
S315000003800011C5E90030174B18601C4B1860DFE7F9
S31500000390FB211B4B164A174801F0E0FE4FF48B7108
S315000003A0184B134A134801F0D9FEF521144B104A95
S315000003B0104801F0D3FE40F20D11134B0C4A0D48C4
S315000003C001F0CCFE40F20511104B094A094801F034
S315000003D0C5FE00BF4C050020500500205805002032
S315000003E0579501204405002040050020544F000089
S315000003F03C580000104E0000509501204805002092
S315000004009C4D0000204F0000EC4E0000784E00008E
S3150000041000284BD0F8B53A4FA0F10804BC42054677
S3150000042058D3384EB44255D850F8043C002B5FDA06
S3150000043050F8082C002A54D123F0004340F8043C1D
S3150000044001F02AF83048DFF8E8C00346DCF800205F
S3150000045055F8041C0A44CCF800201A461B689C4236
S31500000460FBD8824203D0BA422DD3B2422BD8506871
S315000004701618B4420FD06018834218D045F8083CCD
S31500000480A24218BF1460214A136801331360BDE805
S31500000490F84001F009B80144501883425160F2D186
S315000004A01B48006883420CD0144604E07047184885
S315000004B000688342E2D0D3E900500144C4E9005108
S315000004C0DEE71360DFE74FF4FD71124B124A134863
S315000004D001F044FE4FF4B571114B124A0F4801F07A
S315000004E03DFE4FF4B671104B0E4A0C4801F036FE35
S315000004F040F26B110D4B0B4A084801F02FFE00BF6E
S315000005005805002057950120500500203C05002085
S315000005104C0500209C50000014580000104E0000AE
S31500000520904F00003058000074500000005000004A
S315000005304805002070B51646026C0446856B0AB362
S3150000054086B9406803F049FE6368216CA2680B44D3
S315000005509342636005F1010515D3236800206360AB
S31500000560A56370BDC06803F038FE226CE368514293
S315000005709B1A2268E360934202D2A3680B44E360AD
S31500000580022E03D001350020A56370BD012D38BFB2
S315000005900125F8E770B5054603F054FA95F845309D
S315000005A05CB2002C14DD05F1240603E0631EDAB20A
S315000005B05CB26AB16B6A5BB1304601F02BF9002878
S315000005C0F4D001F0EFF9631EDAB25CB2002AF1D181
S315000005D0FF2385F8453003F05DFA03F033FA95F80A
S315000005E044305CB2002C14DD05F1100603E0631EF6
S315000005F0DAB25CB26AB12B695BB1304601F00AF936
S315000006000028F4D001F0CEF9631EDAB25CB2002AFB
S31500000610F1D1FF2385F84430BDE8704003F03ABAC3
S3150000062070B5002848D0C56B0446002D3DD0026C3D
S31500000630A2FB0525002D38D10E4603F003FAD4E9B6
S315000006400F30FF2100FB03F32268181A626013447F
S315000006500244A563C4E9023284F8441084F84510C4
S31500000660BEB923691BB903F015FA012070BD04F168
S31500000670100001F0CFF80028F5D04FF08052124B51
S315000006805A60BFF34F8FBFF36F8F03F003FA012059
S3150000069070BD04F11000FFF7A3FD04F12400FFF77D
S315000006A09FFD03F0F7F9012070BD4FF4B671074BBB
S315000006B0074A084801F052FD40F23711064B044A3A
S315000006C0044801F04BFD00BF00ED00E0785100004A
S315000006D0005900001C5100007051000070B582B036
S315000006E09DF818603BB30546F0B11C46A2B1D9B1DE
S315000006F050230193019B502B24D1C4E90F510121B2
S315000007002046226084F84610019BFFF789FF2046A9
S3150000071084F84C6002B070BD31B950230193019B3F
S31500000720502B0FD12246E8E74FF4D871094B0A4AFD
S315000007300A4801F013FD4FF4C271094B064A0748F7
S3150000074001F00CFD4FF4CB71064B034A034801F050
S3150000075005FD00BFC8510000E45800001C51000010
S315000007609C510000AC5100002DE9F04110B3A1FBF3
S31500000770003705460E46EFB901FB00F010F1510FA8
S3150000078018D850309046FFF767FD044668B180F8E8
S3150000079046706EB100F1500301212046C4E90F56A0
S315000007A02360FFF73DFF84F84C802046BDE8F081CA
S315000007B00346F1E740F22A21024B034A034801F0BF
S315000007C0CDFC00BFC8510000D05800001C510000ED
S315000007D030B583B0D8B188420D4618D3144622B33B
S315000007E050230193019B502B18D101210023226035
S315000007F0D0632364204684F84610019AFFF710FF61
S3150000080002232046A56384F84C3003B030BD4FF474
S315000008105E71094B094A0A4801F0A0FC4FF4CB71FE
S31500000820084B094A064801F099FC4FF4C271074B80
S31500000830054A034801F092FCD4510000AC58000070
S315000008401C510000AC510000E45800009C5100000F
S315000008502DE9F04184B00192002800F0AF800446F3
S315000008600F461E46002900F08B80022E03D1E36B53
S31500000870012B40F09C8001F09BF8002867D003F024
S31500000880E1F8A26BE36B9A4253D3022E51D00020BB
S31500000890DFF8448105460DE003F0FCF82046FFF73B
S315000008A079FE00F001FE03F0CDF8A26BE36B0120A8
S315000008B09A423ED3019B002B6DD0B0B303F0EAF809
S315000008C000F0EAFD03F0BEF894F84430FF2B08BFB1
S315000008D084F8445094F84530FF2B08BF84F84550FF
S315000008E003F0D8F802A801A901F014F8002858D19D
S315000008F003F0A8F8A26BE36B9A42CDD103F0CAF8D5
S31500000900019904F1100000F031FF2046FFF742FE86
S3150000091000F0CAFD0028C6D14FF08053C8F8043055
S31500000920BFF34F8FBFF36F8FBDE702A800F0E6FF5E
S31500000930C4E7324639462046FFF7FCFD636A83B9B1
S31500000940A8B903F0A7F8012004B0BDE8F081019B27
S31500000950002B94D040F2BB311C4B1D4A1D4801F0C0
S31500000960FDFB04F1240000F055FF0028E9D04FF00C
S315000009708052194B5A60BFF34F8FBFF36F8FE0E77A
S31500000980036C002B3FF471AF40F2B731134B104AA2
S31500000990104801F0E3FB03F07DF8002004B0BDE849
S315000009A0F0812046FFF7F6FD00F07EFDF5E74FF4F7
S315000009B06E710B4B064A074801F0D0FB40F2B63188
S315000009C0084B034A034801F0C9FB00BF84520000EC
S315000009D0985800001C51000000ED00E0DC510000BA
S315000009E03452000070510000F8B500283DD0036C69
S315000009F00446002B40D103680D4603B303F0A8F864
S31500000A00EFF31186102383F31188A36BE26B9A42EE
S31500000A1011D994F845200133FF2AA36357B218D1A0
S31500000A20636A03B304F1240000F0F4FED8B1D5B133
S31500000A3001232B6017E0002086F31188F8BD836838
S31500000A40002BDBD040F24951124B134A134801F0F8
S31500000A5085FB00F02FFE874205D27F2F13D001378A
S31500000A607FB284F845700120E6E74FF4A8610C4B8D
S31500000A70094A0A4801F072FB40F24451094B064A02
S31500000A80064801F06BFB40F2CB51074B024A034884
S31500000A9001F064FB18530000845800001C5100004C
S31500000AA070510000FC520000D8520000F0B585B02D
S31500000AB00192002800F0A38004460E4600296ED05D
S31500000AC000F076FF002857D002F0BCFFA56B002D82
S31500000AD06FD1019B002B35D002A800F00FFF2F46E7
S31500000AE002F0D8FF00F0D8FC02F0ACFF94F84430D6
S31500000AF0FF2B08BF84F8447094F84530FF2B08BFDD
S31500000B0084F8457002F0C6FF01A902A800F002FFB2
S31500000B10E8B902F097FFA36B33BB02F0BBFF019964
S31500000B2004F1240000F022FE2046FFF733FD00F01A
S31500000B30BBFC58B302F086FFA56B002D39D1019B93
S31500000B40002BCDD102F0A6FF002005B0F0BD204657
S31500000B50FFF720FD00F0A8FC02F074FFA36B002B4A
S31500000B60F0D002F097FFE5E702F094FF2046FFF78A
S31500000B7011FD00F099FCDDE7019B002BA4D040F2AB
S31500000B80F251224B224A234801F0E8FA4FF08052F4
S31500000B90214B5A60BFF34F8FBFF36F8FCAE7036CC9
S31500000BA0002B8DD040F2ED511C4B194A194801F02B
S31500000BB0D5FA226C5AB1E168A36811449942E16002
S31500000BC028BF2168304628BFE16003F006FB236991
S31500000BD0013DA56323B902F05DFF012005B0F0BD1C
S31500000BE004F1100000F016FE0028F4D04FF08052F9
S31500000BF0094B5A60BFF34F8FBFF36F8FEBE740F29D
S31500000C00E951074B024A034801F0A8FA8452000052
S31500000C10745800001C51000000ED00E088530000ED
S31500000C207C53000070B584B00191002800F09180DB
S31500000C30036C0446002B40F0858000F0B9FE0028C6
S31500000C4055D002F0FFFEA56B002D63D1019BA3B327
S31500000C5002A800F053FE2E4602F01CFF00F01CFC1A
S31500000C6002F0F0FE94F84430FF2B08BF84F844608D
S31500000C7094F84530FF2B08BF84F8456002F00AFF60
S31500000C8001A902A800F046FEE0B902F0DBFEA36B64
S31500000C902BBB02F0FFFE019904F1240000F066FD73
S31500000CA02046FFF777FC00F0FFFB50B302F0CAFEC8
S31500000CB0A56B7DBB019B002BCED102F0EBFE002085
S31500000CC004B070BD2046FFF765FC00F0EDFB02F0B6
S31500000CD0B9FEA36B002BF0D002F0DCFEE6E702F0D3
S31500000CE0D9FE2046FFF756FC00F0DEFBDEE7019B4F
S31500000CF0002BA6D040F28B61194B1A4A1A4801F014
S31500000D002DFA4FF08052194B5A60BFF34F8FBFF345
S31500000D106F8FCBE72369013DA56323B902F0BAFEC5
S31500000D20012004B070BD04F1100000F073FD00282E
S31500000D30F4D04FF080520D4B5A60BFF34F8FBFF384
S31500000D406F8FEBE740F28661094B064A064801F0D1
S31500000D5005FA40F28261074B024A034801F0FEF9A8
S31500000D6084520000605800001C51000000ED00E0B5
S31500000D70FC5200007C53000070B500B3D9B10024CA
S31500000D80124D23462A4604E001330A2B02F10802DB
S31500000D900ED0566886420FD0002CF5D155F8336038
S31500000DA00133002E08BF14460A2B02F10802F0D1C7
S31500000DB00CB1C4E9001070BD05EBC304F9E740F6B9
S31500000DC0C931034B034A044801F0C8F9589501207C
S31500000DD0145100004C5800001C51000070B5044628
S31500000DE00E46154602F02EFE94F84430FF2B04BF43
S31500000DF0002384F8443094F84530FF2B04BF0023C9
S31500000E0084F8453002F046FEA36B23B12046BDE8C8
S31500000E107040FFF7BFBB04F124002A46314600F0BC
S31500000E20C3FC2046BDE87040FFF7B4BB2DE9F04196
S31500000E30044602F007FE394A394E1368013313603F
S31500000E403368002B3ED0374FE36A3A68002A32D027
S31500000E50354D364936480A6804F1040C013262649D
S31500000E600A6002689A4238BF036003EB830305EB0E
S31500000E70830041689B00EA58D1F808E0A160C4F8F5
S31500000E800CE00132CEF804C0C1F808C06061EA5037
S31500000E9002F000FE3B6863B13268E36AD26A9A42A6
S31500000EA007D24FF08052234B5A60BFF34F8FBFF3E8
S31500000EB06F8FBDE8F08132681B4DD26A9A4298BFA7
S31500000EC03460C6E734601368012B03D0E36A164D1D
S31500000ED0144FBEE7144D2F4605F164083846143703
S31500000EE0FFF77EF94745F9D1DFF86480124F404697
S31500000EF0FFF776F93846FFF773F91048FFF770F9F0
S31500000F000F48FFF76DF90F48FFF76AF90E4BC3F864
S31500000F1000800E4B1F60E36A024F9AE7D0950120CE
S31500000F20A8960120C495012044960120B49501207D
S31500000F30C895012000ED00E01C96012000960120D6
S31500000F40EC950120D49501201896012014960120D5
S31500000F50309601202DE9F8430446264B2648274AB9
S31500000F60274DD0F800901768D3F8008028680E4601
S31500000F700430FFF75DF9631C17D02B6819EB0404E6
S31500000F805C600BD2296838460431FFF739F91D4BEE
S31500000F901A68A24200D91C60BDE8F8832968404659
S31500000FA0BDE8F8430431FFF72BB976B92B6809F190
S31500000FB0FF325A60B9F1000FF0D129683846043182
S31500000FC0FFF71EF90F4B1B68E6E70F4B29685A68B7
S31500000FD01C688A602E680134286829681C602D68A0
S31500000FE0946804300431F460606091606B61BDE820
S31500000FF0F88300BF14960120CC9501201896012095
S31500001000A8960120B0950120D49501202DE9F0473E
S315000010108A460A9C95002A460746A521206B9846D3
S31500001020089EDDF8249003F080F8236B043D1D44F0
S3150000103025F00705BAF1000F0FD00AF1FF3C0AF1BF
S315000010400F0104F133031CF9012F03F8012F0AB134
S315000010508C45F8D1002384F84330042E1AD8E66272
S31500001060201DFFF7C9F8C6F1050604F11800FFF7C1
S31500001070C3F843463A462846216BA661246164625A
S3150000108002F0C6FC2060B9F1000F01D0C9F800409B
S31500001090BDE8F08740F26471024B034A034801F051
S315000010A05DF800BF40540000E8590000EC53000012
S315000010B0F8B51A4D2B6823B3194F1A4E05E0012BCC
S315000010C020D0022B22D12B68DBB102F0BBFCFB68DF
S315000010D0DC68201DFFF7ACF83368013B33602B68F2
S315000010E0013B2B6002F0D6FC94F86530002BE6D16C
S315000010F0206BFFF78DF92046FFF78AF92B68002B46
S31500001100E3D1F8BD2046FFF783F9DCE741F62E115F
S31500001110054B064A064801F021F800BFE895012074
S31500001120EC950120D095012054540000D8590000B8
S31500001130EC5300004FF0805608B5094C094DFFF7F7
S31500001140B7FF2368012BFAD96E60BFF34F8FBFF349
S315000011506F8FFFF7ADFF2368012BF5D8EFE700BFD0
S315000011604496012000ED00E02DE9F04F574B83B087
S315000011701E6801361E60002E7BD055490B689E42C4
S3150000118061D3544F3B681868002800F09380002014
S31500001190514B8446B2468146504DDFF85CE10093E0
S315000011A0019146E05969D3E90224946062604A6875
S315000011B0181D82420A6808BF4C60013AC3F814C081
S315000011C00A60996A71B1D3E90724946062604A683B
S315000011D003F11806B2420A6808BF4C60013AC3F828
S315000011E028C00A60DA6ADEF800108A4202EB820141
S315000011F005EB8108D8F8046055F82140D6F808B008
S315000012009E60C3F80CB0CBF80400B060C3F814803D
S31500001210009B88BFCEF80020013445F821401968AC
S315000012203B68C96A1B688A4288BF4FF00109002BD8
S315000012303AD03B68DB68DB685A689245B2D20199BE
S3150000124048460A6003E00020234B244D0093009B90
S31500001250234A1B681268DB6A03EB830355F82330C5
S31500001260022B28BF0120002A18BF012003B0BDE8C9
S31500001270F08F184B1A68126802BB1A4A1868116870
S315000012801960194910600A6801320A601A68126802
S3150000129022B94FF0FF330E490B606FE71B680C490C
S315000012A0DB681B680B6069E7484601994FF0FF331E
S315000012B00B60CCE7084B094D0093F7E741F25F213D
S315000012C00A4B0B4A0B4800F049FF00BFCC950120A2
S315000012D0B095012018960120A89601204496012079
S315000012E0BC95012014960120B89501208854000071
S315000012F094590000EC530000C89501202DE9F043F5
S315000013000E46002187B0DDF83C80109C0491B8F1B0
S31500001310000F24D0002C30D0994668230593174639
S31500001320059A9A4222D105462046059B02F0FDFE0B
S3150000133028460E9DC4F8308000950225029484F854
S31500001340655004AD4B463A4631460195FFF75EFEC1
S315000013502046FFF76BFD049807B0BDE8F08340F226
S31500001360F141094B094A0A4800F0F8FE40F2FA41F9
S31500001370084B064A064800F0F1FE40F2F241064BE1
S31500001380024A034800F0EAFE00550000005A000039
S31500001390EC5300003C550000205500002DE9F043B9
S315000013A0074685B09000164688469946FEF754FFD4
S315000013B0F8B105466820FEF74FFF0446B0B1682233
S315000013C0002102F0B2FE25630D9D4B4601950C9D52
S315000013D032464146384602940095FFF717FE2046EE
S315000013E0FFF724FD012005B0BDE8F0832846FFF78E
S315000013F00FF84FF0FF3005B0BDE8F08330B500249C
S315000014008DB01B4B07AA06A905A80893CDE905448C
S315000014108DF8244002F08EFCDDE905122346CDE965
S3150000142001211448079A009408A9FFF767FF124B99
S31500001430186018B9114B1B680DB030BD00F074FC74
S31500001440012808D00130F5D140F6A9610C4B0D4AB0
S315000014500D4800F083FE80F310884FF0FF350B49EE
S315000014600B4A0C4B0D6010601C6002F053FBE1E769
S3150000147049444C4535110000AC950120145A000032
S3150000148058550000B8590000EC530000B0950120F3
S31500001490C4950120CC950120024A136801331360DC
S315000014A0704700BFA89501202DE9F04F5B4F83B030
S315000014B002F0C8FA3B68002B00F0A8803B68013BAD
S315000014C03B60D7F80080B8F1000F40F09080544B95
S315000014D01B68002B00F08B80DFF870E1DEF800302F
S315000014E0002B00F090804F4BDFF864914E4E019335
S315000014F0DEF80C30DB689A6AD3E907018160486040
S31500001500506803F11804A04208BF51601168C3F87F
S315000015102880013911605A69D3E902108860416058
S3150000152051681D1DA942116808BF5060013911603C
S31500001530DA6AD9F800103D488A4288BFC9F8002007
S3150000154002EB8201006806EB810CDCF80440D0F85F
S315000015502CA056F82100D4F808B0013052459C6002
S31500001560C3F80CB0CBF80450A560C3F814C046F815
S31500001570210002D90122019B1A60DEF80030002BFF
S31500001580B6D12B4B1A681268002A37D01A68294B35
S31500001590D26812681A60284D2C68A4B10126DDF8BD
S315000015A0048006E0FFF7E0FD08B1C8F80060013CE2
S315000015B008D03B68002BF5D02B68013C03F10103F2
S315000015C02B60F6D12C60019B1B6883B14FF08052D3
S315000015D01A4B164909685A60BFF34F8FBFF36F8FD6
S315000015E0012402F057FA204603B0BDE8F08F00242C
S315000015F002F050FA204603B0BDE8F08F4FF0FF32FC
S315000016000C4B1A60C7E7074B0193C4E740F68B7192
S315000016100B4B0C4A0C4800F0A1FD00BFA895012019
S31500001620D0950120BC95012044960120A896012062
S3150000163018960120B0950120C095012000ED00E02C
S315000016406C550000A8590000EC53000000960120DC
S31500001650C895012008B560B10E4B1A6801321A60B0
S315000016601B68012B0ED10021FFF774FCFFF71CFF4E
S3150000167038B94FF08052084B5A60BFF34F8FBFF313
S315000016806F8F08BD40F68E11044B054A054800F0E1
S3150000169065FD00BFA895012000ED00E0B4550000EF
S315000016A0CC590000EC530000014B1868704700BF8E
S315000016B0CC950120014B1868704700BFD0950120DA
S315000016C0054B1B680BB9FFF74FBD044A0020136892
S315000016D001331360704700BFA8950120C095012013
S315000016E038B51A4B1B681BB10122194B1A6038BD5D
S315000016F0174A184C13602368174803EB830250F807
S315000017002250990000EB82023DB9C3B152F8141C75
S31500001710013B09B9143AF8E79900CA1800EB8201AF
S3150000172008464A680830526882424A6004BFCA685E
S315000017304A600A49D2680A6023600B6838BD41F2E4
S31500001740FA31074B074A084800F008FDA895012022
S31500001750BC950120C895012044960120A896012039
S31500001760D055000080590000EC53000010B558B168
S315000017700C46094B19681831FEF742FD2046BDE8B4
S3150000178010400121FFF7E6BB4FF4A451034B044A76
S31500001790044800F0E3FC00BFA8960120E0550000D5
S315000017A068590000EC530000F8B5034610B3154C19
S315000017B05D680846002A11462268D4F800E02768CA
S315000017C02668D5611A68D4F800C006F11804AE6818
S315000017D007F1180702F10102CEF8206018BF4FF09A
S315000017E0FF307760AC60CCF828301A60BDE8F8406E
S315000017F0FFF7B0BB41F2BE41034B044A044800F078
S31500001800ADFC00BFA8960120E05500004859000035
S31500001810EC530000F8B5C368DB68002B54D0D3E95D
S31500001820070100269A6A81604860506803F118042F
S31500001830A042294808BF5160116805680139D86A75
S315000018409E621160A5B1254A15685168013515607B
S315000018508D68D9611D626C608C609A62204B1B6832
S31500001860DB6A83422ED201231E4A18461360F8BD56
S315000018705A69D3E90241A1604C6054681E1DB44206
S3150000188008BF5160116801391160174A1168814219
S31500001890164938BF106000EB800201EB82077D68B5
S315000018A09200D5F808C08C589D60C3F80CC0CCF8DF
S315000018B00460AE605F610A4B01341B688C50DB6AC2
S315000018C08342D0D30020F8BD41F2F541084B094AC6
S315000018D0094800F043FC00BFA895012000960120AE
S315000018E0A8960120BC950120C895012044960120A8
S315000018F0EC5500002C590000EC530000034A044B41
S3150000190012681B68C0E90023704700BFB895012024
S31500001910CC950120F8B550B30D4679B3044602F0D4
S3150000192091F82B68194A581C11681BD0D4E900603D
S31500001930DFF86CC0DCF80070BE4208D0884206D8DA
S31500001940002301242B6002F0A5F82046F8BD0F1AEB
S31500001950BB42F5D95B1ADCF80010126803442B6011
S31500001960C4E90012002402F095F82046F8BD41F2C1
S31500001970A551074B074A084800F0F0FB41F2A65173
S31500001980064B044A044800F0E9FB00BFCC95012051
S31500001990FC55000014590000EC53000008560000E6
S315000019A0B89501200122014B1A607047BC950120B1
S315000019B0054B1B6833B1054B1868B0FA80F0400937
S315000019C04000704701207047C4950120A89501206A
S315000019D0F0B5124C83B002F035F8256825B103B096
S315000019E0BDE8F04002F056B80D4E0E4F3046FEF7F9
S315000019F0F7FB3846FEF7F4FB0B490C4B00950A2023
S31500001A001F600E600A4B0C210A4AFEF767FE206033
S31500001A100028E4D00849FFF7AFF9E0E77C970120FA
S31500001A209C970120889701208497012080970120A8
S31500001A30AC960120FC960120185600002DE9F047CF
S31500001A40DFF884900546D9F800300F46DB68DC687D
S31500001A5004F104084046FEF7EBFB94F828305A07D9
S31500001A600ED423F0010384F828302046236ABDE80B
S31500001A70F047184793421BD82046236A98473546B5
S31500001A80A3697A1BEE182CBF01210021B7426660BC
S31500001A902461EFD2AF4201D20029EDD0D9F800007F
S31500001AA04146FEF7ADFB2046236ABDE8F0471847DE
S31500001AB0044B41461868FEF7A3FB2046236ABDE89F
S31500001AC0F047184780970120849701202DE9F04FB1
S31500001AD000278D4D8D4E8E4CDFF8488285B02B68E1
S31500001AE0D3F800B0BBF1000F00F0D980DB68D3F863
S31500001AF000B0FFF7D1FCFFF7D7FD3368824683427B
S31500001B0043D88345306040F2E68000222068ABEB84
S31500001B100A01FFF763F9FFF7C7FC38B94FF08053A6
S31500001B207C4A5360BFF34F8FBFF36F8FCDE90177C8
S31500001B3003970022206801A9FEF7B8FF0028CED03F
S31500001B40019B002BF5DBDDF80CA0DAF814301BB195
S31500001B500AF10400FEF76CFBFFF7A6FD3368834627
S31500001B60984226D3019BC6F800B0013B082BE0D86B
S31500001B70DFE803F029296C738C29296C7300DB6874
S31500001B804FF0FF311868FFF759FF2B681A68002AD3
S31500001B90F5D1D8F80020C6F800A02A60C8F80030B1
S31500001BA0FFF782FCC2E7DB684FF0FF311868FFF7EA
S31500001BB045FF2B681A68002AF5D1D8F80020C8F826
S31500001BC000302A60CEE79AF828C00298DAF8182082
S31500001BD04CF0010183188AF828102CBF012100213E
S31500001BE05B45CAF80430CAF810A06AD8ABEB00000F
S31500001BF0824244D81CF0040F13D12CF001038AF85A
S31500001C0028305046DAF82030984792E7ABEB0303CA
S31500001C1093426BD3DAF82030504698474B46DAF8B1
S31500001C20182013EB02092CBF01200020CB45CAF86F
S31500001C300490CAF810A0E9D29B4501D20028E9D049
S31500001C4028680AF10401FEF7DBFADAE79AF8283089
S31500001C5023F001038AF828306BE79AF82820029BC4
S31500001C6042F001028AF82820CAF81830002B44D026
S31500001C705B445B45CAF80430CAF810A025D8D8F8EA
S31500001C8000000AF10401FEF7BBFA52E79AF8283081
S31500001C909A0727D523F001038AF8283049E7FFF78A
S31500001CA0FBFBFFF701FD336882469842FFF46DAFF8
S31500001CB0D8F80030C6F800A01A68B2FA82F25209C3
S31500001CC024E7584501D9002994D028680AF104016F
S31500001CD0FEF796FA2DE7FFF7E7FB51465846FFF762
S31500001CE0ADFE23E75046FEF793FB22E7D8F8000047
S31500001CF00AF10401FEF784FA83E74FF48261064B8A
S31500001D00064A074800F02AFA8497012074970120B2
S31500001D107C97012000ED00E094560000185A000060
S31500001D203C5600008097012010B588B0FFF750FEA2
S31500001D30114B1B68CBB1002407AA06A905A8CDE95B
S31500001D40054402F005F803222346059C00920294FE
S31500001D50069C0A490A48079A0194FFF7CFFA094BED
S31500001D60186010B1012008B010BD4FF4A371064BE6
S31500001D70064A074800F0F2F97C970120BC5600009D
S31500001D80CD1A000078970120C4560000345A00008E
S31500001D903C56000000BE704708B500F035F801F06B
S31500001DA0A5FFFEE7F8B5174F05463E68A6B17C6865
S31500001DB006EB460604EB860602E00C34B4420BD072
S31500001DC0637AAB42F9D1D4E900020021121A0C342D
S31500001DD002F0ABF9B442F3D1BE6896B1FC6804EBED
S31500001DE0061602E01034A6420BD0637BAB42F9D153
S31500001DF0D4E90002A168121A103402F0EEF9A642E4
S31500001E00F3D1F8BD585A00004FF47001274B284A09
S31500001E1070B50020C3F888109A6002F063F800F0ED
S31500001E2069F8012002F05EF8224B83F30A8800204D
S31500001E30FFF7B8FF00F048F800F036F9032000F08D
S31500001E4073FA00234FF6FF701B4903F108020133B2
S31500001E500C2B21F81200F8D10024032000F034FAEC
S31500001E60032000F061FA154B03205C609C60DC6087
S31500001E701C6100F029FA022002F034F80120FFF775
S31500001E8091FF0F4D0F4B5B1BA3424FEAA30605DDE7
S31500001E9055F8043B01349847A642F9DC00F0CAF92C
S31500001EA0BDE87040002000F057B900BF00ED00E02B
S31500001EB00000000000010020000D084000000E4058
S31500001EC04C5D0000505D0000064B074993F8260064
S31500001ED01A6A51F82030C2F302620449D3400B60FB
S31500001EE0704700BF00E0014000050020B0970120C8
S31500001EF0704700BFF8B54AF2035001235E495F4AB6
S31500001F00A1F8FE03A2F80431B2F804319BB2002B0B
S31500001F10FAD101204FF400454FF0090C584CDFF878
S31500001F2080E1584EC4F804E0DFF878E15249C4F87D
S31500001F300CE0A2F80001B060534A30605348544F99
S31500001F40C4E90502A56091F8262025612760086A84
S31500001F5054F822204F4DC0F30260C2402A6081F837
S31500001F60133481F8A2C091F880341BB991F88134FA
S31500001F7098077CD0404E96F88034002B6CD0002217
S31500001F803D4B83F8812483F8802400233A4A82F863
S31500001F90363092F83C30D907FBD50023364982F813
S31500001FA0323091F83C301A07FBD5002342F6117601
S31500001FB043F20210304AA1F8486081F84A30088599
S31500001FC081F82A3092F83C309B06FBD50320052386
S31500001FD02A494FF0F10C81F81C012F492F48116254
S31500001FE082F8263092F82630166A54F82310C6F383
S31500001FF00264E14029600123F0260025802480F850
S315000020000CC00372067382F8303082F8523082F8C0
S315000020103E5082F83E4092F87630174943F040032E
S3150000202082F8763091F87630DB09FBD0C6230320A0
S3150000203081F86E0081F8763091F876300E4A03F01A
S31500002040BF0381F8763092F87630DB09FBD14FF486
S315000020502543A2F8FE33F8BD0121C82086F8801476
S3150000206000F084F896F88034012BFBD187E74FF413
S315000020707A70FFF73DFF88E700E0014000C00140AD
S315000020800005002000700040001C4E0E00C2EB0B45
S31500002090002D3101B09701202112012000200040BF
S315000020A000127A0000366E0138B50025284C012151
S315000020B0C82084F8285000F059F884F8245094F881
S315000020C02430002BFBD194F82430214943F002033D
S315000020D084F8243091F82430C3F340009B07F9D4E8
S315000020E01B4A81F8220092F8223003F0FF00002BF1
S315000020F0F9D192F84030164960F3C71382F84030A0
S3150000210091F84030DB09FBD191F84200104A63F3A5
S31500002110C71081F8420092F84230DB09FBD192F8F1
S3150000212044000B4963F3C71082F8440091F8443029
S31500002130C3F3C014DB09F9D1012000F0F5F8054B13
S31500002140012083F8BB44BDE8384000F0BDB800BFAD
S315000021500030084000E00140704700BF00BEFEE7C7
S31500002160A0F101000028FBD1704700BF1F4B204A99
S315000021701B6800FB01F1934213D302F1854202F57D
S31500002180071203F5741302F6834203F6FF03A2FB5C
S3150000219003231B0DA3FB01314FF0FF30F9B1FFF70D
S315000021A0DFBF4FF47A7210B4A1FB02C41148B0FB32
S315000021B0F3F34FF0FF3044B9BCFBF3FC4FEA9C004D
S315000021C088B15DF8044BFFF7CBBF9B00B1FBF3F181
S315000021D0A1FB0212002AF4D1084620B1F1E7184605
S315000021E0002BDCD170475DF8044B7047B097012097
S315000021F000127A0000CA9A3B70B500240B4B0C4EB5
S31500002200B3F82021B3F84051ADB2154025FA04F3D6
S31500002210DB0704D556F82430E0B203B19847013401
S31500002220102CF3D1014BA3F8305170BD0060004073
S31500002230B497012030B5032085B000F075F800256D
S315000022406FF0FF014FF0FF301B4B1C4C9964224688
S315000022502B464FF0010ECDE90100039032F8021F24
S315000022600EFA03FC013311B1012520EA0C00092BFB
S31500002270F4D1F5B10190124B0F4A1067C3F88002F2
S31500002280029903205167C3F8841203999167C3F832
S31500002290881200F019F800230A4834F8022F03F1D7
S315000022A0C00101330AB140F82120092BF5D105B050
S315000022B030BD4FF0FF30DEE7008000409A5C000042
S315000022C000E100E000600040EFF31081012383F39A
S315000022D01088124B33F8102092B22AB133F810202E
S315000022E0013A92B223F8102033F810309BB293B91A
S315000022F00B4A10B4B2F8FE330A4C9BB234F8100005
S3150000230043F4254323EA0003A2F8FE3381F3108841
S315000023105DF8044B704781F3108870471C980120C4
S3150000232000E001404C5A000030B4EFF31081012365
S3150000233083F310880E4A32F810309BB26BB90D4CFD
S315000023400D4DB4F8FE3335F810C09BB243EA0C03CA
S3150000235043F425439BB2A4F8FE3332F81030013320
S315000023609BB222F8103081F3108830BC704700BF52
S315000023701C98012000E001404C5A000008B501F00D
S3150000238023FF0C2203464FF0FF301A6008BD00BF42
S3150000239030B4D0E90004226800EB021293681D0CE9
S315000023A04D731D0E0D739BB20B60D368D0F8B05001
S315000023B09BB20B61D0F8A0324D60DB43C3F30D0333
S315000023C08B6094F91530002030BC002BBCBF002375
S315000023D0D360704784460020CCE90532CCF8101053
S315000023E0704700BF1F2930B536D801F1400E00EB0B
S315000023F0CE1EDEF800301B4DC3F3807454714FEAD5
S31500002400D37CDEF8084023F0604382F804C01360F2
S31500002410DEF8043004F007041B0F9460EC5C0EF148
S315000024200C03947144B10C34A6440B3213F801CB5F
S31500002430734502F801CFF9D11F2905D801238B4036
S31500002440DB43C0F8B03030BDFF2327298CBF68318D
S31500002450203140F8213030BD01F1A00E00EBCE1E38
S31500002460C7E700BF4C5B00001F29034610B5006894
S3150000247009D80123D0F8B0408B4023420ED0FFF795
S31500002480B1FF002010BD27290AD80123D0F8A042A9
S31500002490A1F1200C03FA0CF32342F0D0242010BD46
S315000024A05B68D0F8A0421B6803EB43031944012381
S315000024B0A1F1200C03FA0CF3A343EFD0FFF792FF30
S315000024C00020DFE770B5456904460E4698B0A5B111
S315000024D060222946684601F080FE60223146284681
S315000024E001F07BFE284623699847606918B160228F
S315000024F0694601F072FE18B070BD0D46F2E700BFE6
S315000025002DE9F04146680F063568046801F00F02B0
S3150000251052D404EB0518D8F804704FEA051E17F0DC
S31500002520040F0EF1040333D117F0010F04EB030C73
S3150000253001D1052A2FD0D8F8043023F0070313431E
S31500002540C8F80430DCF8043003F007039A42F9D1E6
S31500002550BA0715D0CB0713D4336905EB4505DE69F9
S31500002560EF1C303656F8253004EB8502D2F82011E0
S3150000257003F0010301350B43BD42C2F82031F1D10E
S31500002580A644DEF8043003F007030373BDE8F081C8
S3150000259011F0010FC8D104EB030CD8F8043023F076
S315000025A0070343F00103C8F80430DCF8043003F0F5
S315000025B00703012BF9D1BEE7D4F8883013F0010CDC
S315000025C019D1CB0717D5634604EB830EDEF8C0702E
S315000025D0013327F00107082BCEF8C070F4D1002391
S315000025E004EB830EDEF82071013327F00107062B7A
S315000025F0CEF82071F4D1D4F8883023F007031343C2
S31500002600C4F88830D4F88C3003F007039A42F9D125
S31500002610BCF1000F0ED011F001010BD13369DB695B
S31500002620043301F1300253F8046F0131082944F8EC
S315000026302260F6D14FEA051EA644DEF8043003F008
S3150000264007030373BDE8F08138B50023446883604F
S3150000265094F91530002B0DDB0121354D5A0903F095
S315000026601F03203201FA03F345F82230BFF34F8FE0
S31500002670BFF36F8F94F91730002B0DDB01212C4D22
S315000026805A0903F01F03203201FA03F345F82230FA
S31500002690BFF34F8FBFF36F8F94F91630002B0DDB0E
S315000026A00121234D5A0903F01F03203201FA03F3D7
S315000026B045F82230BFF34F8FBFF36F8F236843B9BE
S315000026C008221B4BC3F88020BFF34F8FBFF36F8FD9
S315000026D02368B3FA83F3174D5B0955F823303BB1F2
S315000026E00521FFF70DFF0020236845F8230038BDBC
S315000026F010220F4BC3F88020BFF34F8FBFF36F8FAD
S315000027008121FFF7FDFE8521FFF7FAFEEFF3108129
S31500002710012383F31088084B9A6842F000629A609E
S315000027209B6881F310880020236845F8230038BD94
S3150000273000E100E0289801200040084070B5437B86
S315000027400D46934213D014464268802C166816D064
S31500002750802B2BD00221FFF7D3FE026802EB061274
S31500002760536823F0E06343EA046353604473037BD6
S31500002770AB4202D02946FFF7C3FE002070BD0121FF
S31500002780036803EB061CDCF8042003F5805322F0F3
S315000027908072CCF80420D3F8082301FA06F6164313
S315000027A0C3F80863C3F80C134473E0E70121036818
S315000027B0B14003F58053D3F8082322EA0102C3F897
S315000027C00823D3F80823002AC4D1C3F80C23C1E791
S315000027D0F0B513795579DB0743EA857344681568C4
S315000027E0272943EA05032468056828D801EB8414E1
S315000027F02E1996F8D067360762D405EBC41C0CF583
S31500002800803CCCF800309679E301082E61D9182E69
S3150000281059D937090B373F07CCF80470976803F589
S31500002820803C07F0070EEF1807F580330CF10C0C0F
S31500002830C3F808E0AC4402F10C0336BB33E0A1F167
S31500002840280604EB4404344405EBC41C0CF5C04CC8
S31500002850CCF800349679E301082E2FD9182E3AD9F0
S3150000286037090B3746F2084E3F07CCF804749768D1
S3150000287003F5C84C07F007072B440CF10C0C43F882
S315000028800E70AC4402F10C039EB106F10C0E7244BC
S315000028900CF1FF3C13F801EB9A420CF801EFF9D169
S315000028A02729056805D801222B1983F8D022002094
S315000028B0F0BDFF22903445F82420F8E73746D1E7EB
S315000028C04EF66320F0BDA6F10807BF080837FFB231
S315000028D0A1E737469FE7A6F10807BF080837FFB20A
S315000028E0C0E700BF00222DE9F04F0B6883B00093CC
S315000028F08B68D1F810B0CE4E0361CB688846074688
S31500002900C0E90523DBF81C5006604160EFF3108137
S31500002910012383F31088C74B9A6822F000629A60FD
S315000029209B6881F31088D6F88C30DB0700F1318183
S31500002930C14B019395F82C30C04A1B01DBB282F8DB
S315000029400333019BDF60BE4BD3F80C1321F48031B7
S31500002950C3F80C13D3F80C33BFF35F8F0823C2F808
S31500002960803113604FF480730099B64AB04D012947
S3150000297042F82170DBF800A0C5F8983021D0002479
S3150000298041F60806009B03F0010904F00F0E220928
S315000029900EF5C07C42F4807205EB0C1CC5F898203D
S315000029A09AE80F008CE80F0005EB0E1E5EF8063065
S315000029B0013469F3C713202C0AF1100A4EF80630C9
S315000029C0E3D100249A4B01213846C3F89840FFF71B
S315000029D097FDDBF81450D8F8046069683368FF295E
S315000029E0084628BFFF20013BC3F3090C2B680139B9
S315000029F0013BDBB243EA01237168934A01394CEA91
S31500002A004141D6E902C60CF1FF3C013E41EA4C6168
S31500002A1041EA8621D5E90265013E43EA0643009E66
S31500002A20013D43EA0563350105F1804505F530258D
S31500002A302960710101F1804101F53121C1F80034AD
S31500002A409BF818304FEAC60A5B0243EA004343F498
S31500002A50806343F00103C1F80434DBF80800DBF8B7
S31500002A600C10524403C2DBF8103043F003036B60D2
S31500002A7098F91530A34226DB98F8142003F160413B
S31500002A801201D2B201F5614181F80023019A03F1E6
S31500002A90C00142F823706A4A52F8210064F31040DC
S31500002AA042F8210052F82120BFF35F8F012203F084
S31500002AB01F015B099B0003F1604303F561438A40F4
S31500002AC0C3F880211A6098F91730002B26DB98F896
S31500002AD0142003F160411201D2B201F5614181F87F
S31500002AE000230199564A41F8237003F1C00152F8B8
S31500002AF0210020F4803042F8210052F82120BFF353
S31500002B005F8F012203F01F015B099B0003F1604305
S31500002B1003F561438A40C3F880211A6098F916309C
S31500002B20002B27DB98F8142003F160411201D2B282
S31500002B3001F5614181F800230198414A03F1C00182
S31500002B4040F8237052F8210020F4803042F821002A
S31500002B5052F82120BFF35F8F01215A09920003F03A
S31500002B601F0302F1604202F5614201FA03F3C2F863
S31500002B708031136038468021FFF7C2FC0021FFF741
S31500002B80BFFC00231846314ABB81BA6003B0BDE8DA
S31500002B90F08FD6F88C4014F00804FAD1812138461B
S31500002BA0FFF7AEFC4FF4001C23466A682849C6F8B6
S31500002BB08420C6F89CC0C1F81443AA6A1C48C6F80B
S31500002BC0AC202A1D03F1300152F8046F0133082BA3
S31500002BD040F82160F6D195F82D30184A1B01DBB27A
S31500002BE082F80433144B00211E460193144B3161C5
S31500002BF0D3F8106361F31046C3F81063D3F81033AB
S31500002C00BFF35F8F1023C2F8803113602A4652F853
S31500002C102C3B074EC0F8883052F8043F04F14801B7
S31500002C20013423F00103062C46F82130F4D181E665
S31500002C3000000B4000400840F897012000E100E04A
S31500002C400060004028980120500F0B404446435234
S31500002C5000100B4070B598B0EFF30383103B5BB2E6
S31500002C60032B2BD01C462D4B5A2200210DF10600BA
S31500002C7053F8245001F059FA4FF4807200216B6822
S31500002C80ADF804201E682B68284603EB0613DA68A5
S31500002C9092B20292D960AB69694600960493FFF737
S31500002CA011FC1F4A04F1C00352F8231021F48031AD
S31500002CB042F8231052F8233018B070BD194B602229
S31500002CC0002168461C6801F030FA4FF48053002159
S31500002CD02268ADF80430D2F89030180C1B0403EBD0
S31500002CE0007302939B03C2F890100ED5D2F8A83257
S31500002CF093FAA3F3B3FA83F302EB83020393D2F8B6
S31500002D00E03023F00403C2F8E030A36920466946A8
S31500002D1004930324FFF7D6FBC3E700BFF89701200F
S31500002D2000600040289801202DE9F043284D99B015
S31500002D30D5F8AC4294FAA4F4002C38D0B4FA84F452
S31500002D40072C34DC01274FF48062D5F8A032A74067
S31500002D5004F120083B42CDF80C80ADF804201BD1CD
S31500002D6005EBC41606F5C046DFF86C9008363368E6
S31500002D704146C3F30123164805AA0093FFF732FB29
S31500002D80009B694659F8230083690493FFF79AFB71
S31500002D90D5F8A0323B42EAD0A40004F1804404F501
S31500002DA03024D4F8E03023F00803C4F8E030084BB0
S31500002DB0D3F8AC3243B9074AD2F8101363F3104183
S31500002DC0C2F81013D2F8103319B0BDE8F08300BF73
S31500002DD000000B4000600040289801202DE9F043D8
S31500002DE099B0EFF30384454B103C64B253F824903A
S31500002DF0D9F80430D9F818201F68D9F800101D69D1
S31500002E0001F598580097049218F80730B844002B3B
S31500002E1061D007262AE04FF4006003F5617301EBE9
S31500002E2083021368ADF8040093FAA3F31BB1B3FA57
S31500002E3083F3072B07DD536893FAA3F3002B5AD0CD
S31500002E40B3FA83F3203303EB8712114491F8D027AA
S31500002E5022F0060281F8D027694648460393FFF719
S31500002E6031FB98F80030B3B3D9F8001098F8002079
S31500002E707B00D0B2D20727F00047CCD4020723D577
S31500002E80EA690C3352F82330D1F8B40213F4805FA8
S31500002E900CBF4FF400534FF4006307EB470206FAEA
S31500002EA002F20240ADF8043092FAA2F202B3B2FA8C
S31500002EB082F202F1280301EB8202D2F8E01121F03E
S31500002EC01001C2F8E011C7E703F56B734FF4007009
S31500002ED001EB8302A5E70A4BC03453F8242022F401
S31500002EE0803243F8242053F8243019B0BDE8F0832B
S31500002EF048232022DFE74023A5E700BFF8970120FB
S31500002F00006000402DE9F04399B0EFF303892F4BA1
S31500002F10A9F110094FFA89F953F82960D6E9000397
S31500002F20D0F8B0421A6804F03F0494FAA4F4002CD6
S31500002F3047D0B4FA84F3012513F01C0F03F10801FE
S31500002F401C4618BF03F0030305FA01F50CBF28332E
S31500002F50283303934FF48063ADF80430D0F8A032E1
S31500002F6000922B4214D1DFF86C8004F12807394611
S31500002F7005AAFFF737FA009B694658F823008369CC
S31500002F800493FFF79FFA3068D0F8A0322B42EED0B8
S31500002F9000EB8404D4F8E03123F00803C4F8E031F0
S31500002FA0D0F8B03253B90A4A09F1C00952F82910CB
S31500002FB063F3104142F8291052F8293019B0BDE8E0
S31500002FC0F0834FF480752823C3E700BFF8970120EC
S31500002FD000600040289801202DE9F84F0388DBB1F6
S31500002FE082464FF0000B4FF00109DFF8D080002435
S31500002FF0304D4FEACB07DAF8043035F8022BD919F1
S31500003000898891420AD00134032CF4D1BAF80030F1
S315000030100BF1010B5B45EAD8BDE8F88FDB5909FADD
S3150000302004F603F0B853B3F1807FF6B298F8BB34D8
S3150000303013D0334231D1204A04F1200612F816305B
S31500003040DB09E0D012F81630012123F08003C820F6
S3150000305002F81630FFF78AF8D5E7334211D0164A40
S3150000306004F1200112F81130DB09CCD112F811302D
S31500003070C82043F0800302F811300121FFF776F8EB
S31500003080C1E70120FFF750F998F8BB34012033431C
S3150000309088F8BB34FFF718F9E1E70120FFF744F998
S315000030A098F8BB34012023EA060388F8BB34FFF7FF
S315000030B00BF9C0E75C5B00000030084000E001400F
S315000030C0F8B50446FFF788FFEFF31082012383F378
S315000030D01088234F3B681BB92249CB704023CB7025
S315000030E03B6801333B6082F3108823882BB3616809
S315000030F01D4C01EBC30E06E01B01083113448E453F
S3150000310044F8230019D008688A88C5034FEA1223B9
S31500003110D2B2F1D502EB031C54F82C601B01083126
S3150000312020F4803526F4803613448E4544F82C600E
S3150000313044F82C5044F82300E5D1EFF31082012324
S3150000314083F310883B6813B13B68013B3B603B68E7
S315000031501BB980200349CB70C87082F31088F8BD74
S31500003160F4970120000D08400008084008B5034BFD
S3150000317003600846FFF7A4FF002008BD54524F50D5
S3150000318003460020012110B41A6A58609070DA696B
S315000031902C4C92F905204FEA521C02F01F0201FA4C
S315000031A002F20CF1200C44F82C20BFF34F8FBFF332
S315000031B06F8FDA6992F90B204FEA521C02F01F0258
S315000031C001FA02F20CF1200C44F82C20BFF34F8FC9
S315000031D0BFF36F8FDA6992F907204FEA521C02F0AB
S315000031E01F0201FA02F20CF1200C44F82C20BFF366
S315000031F04F8FBFF36F8FDA6992F909204FEA521C9D
S3150000320002F01F0201FA02F20CF1200C44F82C2005
S31500003210BFF34F8FBFF36F8FEFF3108481F31088E6
S31500003220DB69094A93F800C04FF00043516823FA5E
S315000032300CF30B435360536884F310885DF8044B1A
S31500003240704700BF00E100E0004008400346002050
S31500003250C3E90512704700BF10B4046AA37803F0EF
S315000032607B03A370837803F00303D21A0B44026135
S31500003270A278C360837842F0800203F00303022B36
S31500003280A27005D00B780020E3705DF8044B704700
S315000032900B88002043F47E43E3815DF8044B7047BE
S315000032A084460020CCE90A32CCF82410704700BFCF
S315000032B0012310B5C4690A7894F800C003FA0CF328
S315000032C013F0060F01D013071ED402F05C0E002285
S315000032D0036A93F802C00CF00B049C70C26010469F
S315000032E08A784C785A701A780CF07B0C64F30102D9
S315000032F01A70CA789A74DA7902F0A30242EA0E02C8
S31500003300DA7183F802C010BD032010BD4FF0FF3301
S315000033100020C1E9003370470346880710D510B472
S315000033200024186AC907827802F07B028270204660
S315000033301C6102D5002210469A615DF8044B704765
S31500003340CA0748BF00224FF0060044BF9A611046E4
S31500003350704700BF0346002210B49C6910460C60FB
S315000033605DF8044B9A61704706207047F0B5846A91
S3150000337085B005460F4694466E46B4B194E80F00F4
S3150000338086E80F00EB6920461B7884F804C02360AA
S31500003390EB6AC4E902736B6A9847AC6A1CB196E89B
S315000033A00F0084E80F0005B0F0BD3446EAE700BF21
S315000033B0062070472DE9F04101240A78034694401F
S315000033C014F0060F05D0C86940680078000700F1C0
S315000033D0AD810020012518704E6902F580025E62FB
S315000033E002F58C528E691202C3E90712C3E90A0676
S315000033F04E789A78864214BF2E46022666F301025C
S315000034009A7091F90B60CB4C720906F01F072032B7
S3150000341005FA07F791F80AC044F82270BFF34F8FF8
S31500003420BFF36F8FC44A06F1C00752F827E060F376
S31500003430104E42F827E052F82770C04F4FEA0C1C96
S3150000344004EB060E5FFA8CFC8EF800C347F82630B4
S3150000345091F9056091F804C04FEA561E06F01F0860
S315000034600EF1200E05FA08F844F82E80BFF34F8FB0
S31500003470BFF36F8F06F1C00E52F82E8060F310482E
S3150000348042F82E8052F82EE04FEA0C1C04EB060E92
S315000034905FFA8CFC8EF800C347F8263091F9076076
S315000034A091F806C04FEA561E06F01F080EF1200ED0
S315000034B005FA08F844F82E80BFF34F8FBFF36F8FDD
S315000034C006F1C00E52F82E8060F3104842F82E80A6
S315000034D052F82EE04FEA0C1C04EB060E5FFA8CFC49
S315000034E08EF800C347F8263091F9096091F808C0B4
S315000034F04FEA561E06F01F080EF1200E05FA08F8D0
S3150000350044F82E80BFF34F8FBFF36F8F06F1C00EC6
S3150000351052F82E8060F3104842F82E8052F82E2082
S315000035204FEA0C12D2B2344484F8002347F826300E
S31500003530EFF3108785F310884FF000460C78804A29
S31500003540E640546824EA06045460526887F31088FB
S315000035501A6A40F2F9379070107150729072D072F8
S3150000356050830878CC69854040F2F930054218BF8F
S3150000357040204FF0060518BFD074012015770D784E
S315000035808E78A840384218BF4FF478404D78C978F5
S3150000359018BF9082C900032D41EA061100F0C280CF
S315000035A0002D0CBFE220F220C9B211709071217B70
S315000035B008290EBF0A21490001F002015173617802
S315000035C0A078C901400100F02000C9B201430020E3
S315000035D0107294F800C0ACF10200012840F2988005
S315000035E0C9B2D171616888784D785070107865F3EA
S315000035F001001070C87809789074D07901F05C01E8
S3150000360000F0A3000143D1710020D96918619861C7
S31500003610D860586191F90550474A05F1C00152F842
S31500003620216060F3104642F8216052F82110BFF382
S315000036305F8F01266909890005F01F0501F16041C8
S3150000364001F5614106FA05F5C1F880510D60D969A9
S3150000365091F90B5005F1C00152F8217060F3104743
S3150000366042F8217052F82110BFF35F8F6909890073
S3150000367005F01F0501F1604106FA05F501F5614106
S31500003680C1F880510D60D96991F907E00EF1C001CA
S3150000369052F8215060F3104542F8215052F821109B
S315000036A0BFF35F8F4FEA5E1189000EF01F0E01F126
S315000036B0604106FA0EF501F56141C1F880510D60D1
S315000036C0D96991F9091001F1C00552F8257060F326
S315000036D0104742F8257052F82520BFF35F8F4A093C
S315000036E0920001F01F0102F160428E4002F5614234
S315000036F0C2F8806116601A6A0CF0030C4CF0700C6C
S31500003700618982F802C00F4A19815A60BDE8F081CA
S31500003710FF20BCF1020F08BF41F01001C9B2507082
S31500003720D17171E7F22041F040013DE70320BDE889
S31500003730F08100BF00E100E000600040F897012042
S31500003740004008405549435310B4EFF30383103B40
S31500003750224A5BB203F1C00152F8210020F4803006
S3150000376042F8210052F821201D4A52F82300C3696D
S315000037701B69ABB1036913B15DF8044B7047026A6C
S3150000378000219378446A03F07F0343F004039370A7
S31500003790C160002CF0D080225DF8044BFFF7E6BD37
S315000037A00369026A002BEBD08178C46801F0030C30
S315000037B0BCF1020F0AD094F800C082F803C001F0F1
S315000037C003029B1A1444C0E90343D4E7B4F800C0CB
S315000037D04CF47E4CA2F80EC0F1E700BF006000403A
S315000037E0F897012010B582B0EFF30383103B1F4A10
S315000037F05BB203F1C00152F8210020F4803042F898
S31500003800210052F821201A4A52F82340A27802F0E9
S315000038100303022B236A0CBF198A5979A3690CBFCB
S31500003820C1F30801C9B2019143B9636AB3B1042275
S31500003830204602B0BDE81040FFF798BD02F0030233
S3150000384001A9606900F0C9FCD4E90521A37803F059
S3150000385003031A44C91AC4E9052109B102B010BD0F
S31500003860636A002BFAD00122E2E700BF0060004045
S31500003870F897012010B5EFF303830E4A103B5CB2B4
S3150000388052F82400D0E90821937803F07B03937063
S3150000389019B102220021FFF769FD074A04F1C003AE
S315000038A052F8231021F4803142F8231052F82330C5
S315000038B010BD00BFF89701200060004010B5EFF37F
S315000038C003831A4A103B5CB252F82400837803F053
S315000038D00303022B036A0CBF198A597993F804C0B3
S315000038E00CBFC1F30801C9B21CF0100F0CF038026E
S315000038F006D093F81CC01CF0010F08BF42F040022E
S3150000390093F804C00CF0C70C83F804C0436A0BB1EB
S31500003910FFF72CFD064A04F1C00352F8231021F4E8
S31500003920803142F8231052F8233010BDF897012059
S315000039300060004000BEFEE71EF0040F0CBFEFF370
S315000039400880EFF30980014908470000DD390000CF
S315000039500F4B1968EFF309821EF0100F08BF22ED16
S31500003960108A22E9F04FEFF30B8342F8043D0A6018
S315000039704FF0100080F31188BFF34F8FBFF36F8FA6
S31500003980FDF7AEFE4FF0000080F3118800F002B89C
S31500003990A8960120074801680A6802CA81F30B88C5
S315000039A0B2E8F04F1EF0100F08BFB2EC108A82F397
S315000039B009887047A896012010B5EFF311841023EB
S315000039C083F31188FDF77CFE18B14FF08052024B4D
S315000039D05A6084F3118810BD00ED00E008B58369D4
S315000039E013F8023C022B02D0032B04D808BDBDE815
S315000039F00840FFF7CFBF4FF47E71024B024A0348DF
S31500003A00FEF7ACFBCC560000D85B0000E056000089
S31500003A1070B44FF080756FF00204094E283122F021
S31500003A20010240F80C6C40F8045C40F8244C40F865
S31500003A30203C40F8082C70BC40F8481D704700BF79
S31500003A403539000008B5EFF31181102383F311888F
S31500003A500A4A13680133012B136000D008BD084AD7
S31500003A60084B11605B68C3F30803002BF6D040F2E5
S31500003A70A441054B054A0648FEF770FB3498012021
S31500003A803098012000ED00E030570000C45B0000D4
S31500003A90E0560000094A08B513683BB1013B1360C4
S31500003AA01BB9074B1B6883F3118808BD40F2AD4173
S31500003AB0044B054A0548FEF751FB00BF3498012028
S31500003AC03098012078570000B05B0000E0560000F7
S31500003AD00D4B0E4A1B68A2FB03239B09013BB3F166
S31500003AE0807F00D370474FF0E0224FF0F00C0020AB
S31500003AF0072110B4064C536184F823C05DF8044BCB
S31500003B0090611161704700BFB0970120D34D6210DC
S31500003B1000ED00E0F02208B50B4B83F82220FFF7FA
S31500003B20D7FF0A4A536B43F04043536362B6BFF371
S31500003B306F8FEFF3148C2CF0040C8CF31488BFF306
S31500003B406F8F02DF00BEFDE700ED00E000EF00E052
S31500003B5008B5EFF30383103B1A0604D50E4BDB685A
S31500003B605B0511D408BD03F0FF0202F1604303F5C3
S31500003B70614393F800331B09F0D140F20F61074B04
S31500003B80074A0848FEF7EAFA40F22161064B044A62
S31500003B900448FEF7E3FA00BF00ED00E08C57000092
S31500003BA0905B0000E0560000C457000010B50446C4
S31500003BB000F068F82046BDE8104000F0D7B800BF16
S31500003BC030B501240D480E4A03680E4D85B019190B
S31500003BD0CDE901250C4B01604FF480720B490C486E
S31500003BE00094FDF78BFB0B4B186008B105B030BD98
S31500003BF0014605B0BDE8304000F042B8249E0120E1
S31500003C00809F01206C980120EC5B0000F0570000BB
S31500003C10AD3B00006898012010B5044600F032F86C
S31500003C202046BDE8104000F0AFB800BF30B5012512
S31500003C300C480D4C036883B0591901944FF48072F7
S31500003C4001600A4B0A490B480095FDF7A7FBA842FD
S31500003C5001D103B030BD0021206803B0BDE830407B
S31500003C6000F00EB8249E0120F0980120305C000080
S31500003C70FC570000193C0000704700BFFFF7FCBF6F
S31500003C8000BE704738B5164C4FF0FF312068FCF780
S31500003C90C9FF012803D000212068FFF7F1FF114B6F
S31500003CA01A7802B138BD01221A70FFF7E7FF0E4DF0
S31500003CB02B68013B2B60002BF4D0002320681A46AA
S31500003CC01946FCF7C5FD0128F2D000212068FFF750
S31500003CD0D7FF2B68013B2B60002BEED138BD00BF10
S31500003CE01C9E0120209E0120249E012038B5002321
S31500003CF00C4D0D4C01214FF480700C4A2B60237043
S31500003D00FCF766FD0A4B186038B1FFF78FFFFFF727
S31500003D1057FFFDF773FB002038BD0146FFF7B0FFE4
S31500003D20F3E700BF249E0120209E0120CC9D0120A8
S31500003D301C9E0120802330B4034D044C05600C60AA
S31500003D40136030BC704700BF649D0120649B012056
S31500003D50802330B4034D044C05600C60136030BC06
S31500003D60704700BFFC9A0120FC98012008B5044C5E
S31500003D70204600F085F94FF47A70FDF76BFCF7E703
S31500003D800C580000704700BF08B500F02BF8012161
S31500003D90022000F02FF80121032000F02BF801216A
S31500003DA0084600F027F80120FDF754FCFBE700BFAA
S31500003DB070B54FF0080C002494B00190086849686B
S31500003DC0074D04AB03C3AE68ADF808408DF80AC0D2
S31500003DD021462868736801AA0394984714B070BDF9
S31500003DE0345C0000024BD3E90112186812681047D0
S31500003DF0345C00000A4600234AF6F33C00B583B063
S31500003E006946CDE90033ADF800C08DF80220FFF712
S31500003E10CFFF03B05DF804FB70B50D4D2B786BB981
S31500003E200C4B0D4ED3E901121868126890473168A1
S31500003E30044631B1012320462B7070BD0024204674
S31500003E4070BD03220120FCF78FFC3060F2E700BF53
S31500003E50289E0120F05B00002C9E0120002200B568
S31500003E60037983B0022B019202D003B05DF804FB04
S31500003E700A4B18680028F8D001A9FCF7B5FD019B8C
S31500003E80002BF2D04FF08052054B5A60BFF34F8F94
S31500003E90BFF36F8F03B05DF804FB00BF2C9E0120BB
S31500003EA000ED00E038B50C4B0D461B7814467BB18F
S31500003EB00A4B29469868224685681868A84728B993
S31500003EC0074B186810B16421FCF7ACFE204638BDDC
S31500003ED0FFF7A2FFECE700BF289E0120F05B000081
S31500003EE02C9E0120022800D0704702490248FFF7A5
S31500003EF03DB900BF585C0000F4980120002310B5BE
S31500003F0004468360818119464366C2810822836123
S31500003F10C0E90033C0E904335C3000F006F90D4B0C
S31500003F20246263620C4BA3620C4BE3620C4B23636B
S31500003F300C4B9C4206D003F16802944202D0D03367
S31500003F409C4205D104F15800BDE8104000F042B98A
S31500003F5010BD00BFA5400000C7400000FF400000A4
S31500003F6023410000309E0120024A0349034800F025
S31500003F7069B800BF90000020914A0000A000002010
S31500003F8041680C4B994210B5044601D000F080FD03
S31500003F90A168094B994202D0204600F079FDE168FC
S31500003FA0064B994204D02046BDE8104000F070BD93
S31500003FB010BD00BF309E0120989E0120009F012069
S31500003FC010B50B4B04210B4C0B4A20461A600022FD
S31500003FD0FFF794FF04F1680001220921FFF78EFF25
S31500003FE004F1D00002221221BDE81040FFF786BF7F
S31500003FF0689F0120309E0120693F0000014800F0C3
S31500004000EAB800BF719F0120014800F0E5B800BF83
S31500004010719F012010B50446FFF7F0FF236A1BB11C
S31500004020BDE81040FFF7F0BF044B2362044B1B684A
S31500004030002BF5D1FFF7C4FFF2E700BF813F000078
S31500004040689F01202DE9F843074688461446002656
S31500004050D4E90195B9F1010905D52468002CF7D1F9
S315000040603046BDE8F883AB89012B07D9B5F90E3088
S31500004070013303D029463846C04706436835E9E789
S315000040800FB407B5064904AB086853F8042B8168DA
S31500004090019300F0D1F903B05DF804EB04B070476A
S315000040A09C00002010B50C46B1F90E1000F068F81F
S315000040B00028ABBF636DA3891B1823F48053ACBFE4
S315000040C06365A38110BD2DE9F0411F468B89054626
S315000040D00C46DB05164605D502230022B1F90E1063
S315000040E000F03CF8A3893246B4F90E10284623F4B2
S315000040F08053A3813B46BDE8F04100F053B810B5AC
S315000041000C46B1F90E1000F029F8431CA38915BF1F
S31500004110606523F4805343F48053A38118BFA381C1
S3150000412010BDB1F90E1000F009B8024403469342DF
S3150000413000D1704703F8011BF9E7000038B50023EA
S31500004140054D044608462B6000F000FE431C02D1D4
S315000041502B6803B1236038BD6C9F012038B5044637
S31500004160064D0846114600222A601A4600F006FE51
S31500004170431C02D12B6803B1236038BD6C9F01201C
S3150000418038B50446064D0846114600222A601A46EE
S3150000419000F0FCFD431C02D12B6803B1236038BD3F
S315000041A06C9F012038B50446064D0846114600228C
S315000041B02A601A46FFF776FE431C02D12B6803B12C
S315000041C0236038BD6C9F0120014B1868704700BF03
S315000041D09C0000207047704770470A44431E914276
S315000041E000D1704710B511F8014B914203F8014F09
S315000041F0F9D110BD38B50546002941D051F8043C27
S315000042000C1F002BB8BFE41800F0E0F81D4A136835
S3150000421033B9636014602846BDE8384000F0DCB866
S31500004220A34208D9206821188B4201BF19685B6830
S3150000423009182160EDE71A465B680BB1A342FAD96B
S3150000424011685018A0420BD1206801445018116023
S315000042508342E0D118685B68084453601060DAE76F
S3150000426002D90C232B60D6E7206821188B4202BFA7
S3150000427019685B680918636008BF21605460CAE763
S3150000428038BD00BF789F012070B50F4E0C4605461D
S31500004290316811B900F0B8FC30602146284600F0BC
S315000042A0B3FC431C03D14FF0FF34204670BDC41C41
S315000042B024F00304A042F8D0211A284600F0A4FCFA
S315000042C00130F2D1EFE700BF749F01202DE9F843DA
S315000042D0CD1C064625F0030508350C2D38BF0C25E8
S315000042E0002D01DBA94204D90C2333600020BDE870
S315000042F0F883DFF8D48000F069F8D8F800301C465F
S3150000430044BB29463046FFF7BFFF431C044658D13D
S31500004310D8F800402746002F43D1002C4BD0236805
S315000043203946304604EB030900F06EFC814542D164
S31500004330216830466D1A2946FFF7A6FF01303AD0AC
S3150000434023682B442360D8F800305A6862BBC8F84B
S3150000435000700FE02268521B20D40B2A17D961196E
S31500004360A342256018BF5960636808BFC8F80010EB
S3150000437062514B60304600F02FF804F10B00231D0C
S3150000438020F00700C21A1CBF1B1AA350AFE76268D1
S31500004390A3420CBFC8F800205A60EBE723466468C6
S315000043A0AEE73C467F68B6E71A465B68A342FBD198
S315000043B000235360DEE70C233046336000F00CF830
S315000043C094E70560D6E700BF789F01200148FFF714
S315000043D002BF00BF709F01200148FFF7FDBE00BF6E
S315000043E0709F01209368013B002B936010B408DA9C
S315000043F09469A34201DB0A2903D15DF8044B00F05E
S315000044006FBB1368581C1060084619705DF8044BA2
S315000044107047F8B506460F461446D518AC4201D18A
S31500004420002007E03A4614F8011B3046FFF7DAFF92
S31500004430431CF3D1F8BD00002DE9F04F0D469DB0A9
S3150000444014469846064618B1036A0BB9FFF7E2FD13
S315000044506B6ED90705D4AB899A0502D4A86DFFF710
S31500004460BAFEAB891B0701D52B699BB92946304695
S3150000447000F074FB70B16B6EDC0704D54FF0FF30B3
S315000044801DB0BDE8F08FAB899805F7D4A86DFFF78E
S31500004490A3FEF3E70023CDF80C804FF00109DFF807
S315000044A0B481099320238DF8293030238DF82A30E2
S315000044B023469A4613F8012B0AB1252AF9D1BAEBFD
S315000044C0040B0BD05B46224629463046FFF7A1FF78
S315000044D0013000F0A780099A5A4409929AF80030F0
S315000044E0002B00F09F8000234FF0FF320AF1010AF3
S315000044F0049307938DF853301A93CDE90523544658
S315000045000522544814F8011B00F08EFB049AD8B912
S31500004510D10644BF20238DF85330130744BF2B2305
S315000045208DF853309AF800302A2B15D0079A544646
S3150000453000204FF00A0C214611F8013B303B092BB5
S315000045404BD9B0B1079214E0A0EB0803A24609FAD2
S3150000455003F313430493D2E7039B191D1B68002B37
S315000045600391BBBF5B4242F0020207930793B8BFB9
S31500004570049223782E2B0AD163782A2B32D1039BFF
S3150000458002341A1D1B6843EAE37303920593DFF8AE
S31500004590D4A003222178504600F046FB38B1A0EBA8
S315000045A00A004022049B013482401343049314F80A
S315000045B0011B062228488DF8281000F035FB00283C
S315000045C03FD0264B1BBB039B073323F0070308335F
S315000045D00393099B3B4409936AE70CFB02320C46A2
S315000045E00120A8E7002301344FF00A0C1946059371
S315000045F0204610F8012B303A092A03D9002BC6D0E1
S315000046000591C4E70CFB012104460123F0E703AB47
S315000046102A4604A930460093114BAFF300800746A3
S31500004620781CD6D16B6ED90705D4AB899A0502D40E
S31500004630A86DFFF7D1FDAB895B063FF51FAF099863
S315000046401EE703AB2A4604A930460093044B00F04C
S315000046507DF8E4E7C05C0000CA5C000000000000D2
S3150000466013440000C65C00002DE9F0471646984644
S315000046708A6807460B690C46DDF820909342B8BF5E
S315000046801346336091F843200AB10133336023683F
S31500004690990642BF336802333360256815F0060574
S315000046A006D104F1190AE36832689B1AAB422BDC87
S315000046B094F843302268003B18BF0123920630D499
S315000046C004F1430241463846C847013023D02368E7
S315000046D01A3454F80A2C03F00603042B0ABF54F8C4
S315000046E00E5C002533684FF0000608BFED1A54F83B
S315000046F0123C08BF25EAE5759342C4BF9B1AED1824
S31500004700B5421AD1002008E00123524641463846F8
S31500004710C847013003D14FF0FF30BDE8F0870135BF
S31500004720C1E7E1185A1C30200233224481F84300C5
S3150000473094F8451082F84310C2E701232246414609
S315000047403846C8470130E6D00136D9E72DE9FF479C
S315000047500F7E914680460C46782F9A460C9E01F1B4
S31500004760430207D8622F0AD8002F00F0D180582FB5
S3150000477000F0B88004F1420684F842703AE0A7F1EE
S315000047806303152BF6D801A151F823F0E547000085
S31500004790F94700007547000075470000754700009F
S315000047A075470000F947000075470000754700008F
S315000047B07547000075470000F748000023480000D1
S315000047C0B148000075470000754700001949000010
S315000047D07547000023480000754700007547000034
S315000047E0B948000033681A1D1B68326004F142069E
S315000047F084F8423001239CE033682068191D31603B
S31500004800060601D51D6803E04506FBD5B3F9005041
S31500004810002D03DA2D236D4284F8433058480A23CD
S3150000482011E021683368080653F8045B02D4490690
S3150000483048BFADB26F2F3360514814BF0A23082317
S31500004840002184F843106668002EA66005DB216807
S315000048502E4321F0040121604BD01646B5FBF3F13F
S3150000486003FB1157C75D06F8017D2F460D46BB4277
S31500004870F4D9082B0BD12368DF0708D523696168B3
S315000048809942DEBF302306F8013C06F1FF36921B43
S3150000489022614B4603AA21464046CDF800A0FFF709
S315000048A0E3FE01304AD14FF0FF3004B0BDE8F08797
S315000048B0236843F02003236078273248236884F86E
S315000048C045701F06316851F8045B02D45F0648BF85
S315000048D0ADB23160D90744BF43F0200323601DB158
S315000048E01023ADE72648E9E7236823F02003236079
S315000048F0F6E71646BDE733682568181D616930601E
S315000049002E061B6801D5196002E06806FBD51980E2
S31500004910002316462361BCE7336800211A1D326066
S315000049201E686268304600F07FF908B1801B60603F
S3150000493063682361002384F84330AAE7236932467B
S3150000494049464046D0470130ADD023689B0713D473
S31500004950E068039B9842B8BF1846A6E70123324693
S3150000496049464046D04701309DD00135E36803995A
S315000049705B1AAB42F2DCEBE7002504F11906F5E71A
S31500004980D15C0000E25C0000B1F90C202DE9F04199
S31500004990160705460C4654D44B68002B02DC0B6CFC
S315000049A0002B48DDE66A002E45D0002312F4805223
S315000049B02F68216A2B6030D0626DA389590705D50F
S315000049C06368D21A636B0BB1236CD21A0023E66AB2
S315000049D0216A2846B047431CA38906D129681D29A8
S315000049E02BD82A4ACA40D60727D50022D9046260A6
S315000049F02269226004D5421C01D12B6803B9606587
S31500004A00616B2F60B9B104F14403994202D0284684
S31500004A10FFF7F0FB002363630DE001232846B04750
S31500004A200246501CC9D12B68002BC6D01D2B01D0C5
S31500004A30162B1DD12F60002021E043F040031BB24E
S31500004A401AE00F69002FF6D093070E680F600CBFAF
S31500004A504B690023A6EB07088B60B8F1000FEADD6F
S31500004A6043463A46216A2846A66AB047002808DC2B
S31500004A70B4F90C3043F040034FF0FF30A381BDE89A
S31500004A80F0810744A8EB0008E7E700BF01004020DB
S31500004A9038B50B6905460C4613B90025284638BDBE
S31500004AA018B1036A0BB9FFF7B5FAB4F90C30002B4D
S31500004AB0F3D0626ED00704D4990502D4A06DFFF737
S31500004AC08AFB28462146FFF75FFF636E0546DA0735
S31500004AD0E4D4A3899B05E1D4A06DFFF77DFBDDE758
S31500004AE0F8B50E461446054618B1036A0BB9FFF72A
S31500004AF091FAA369A360A3891A0701D5236943B96B
S31500004B002146284600F02AF818B14FF0FF373846FC
S31500004B10F8BD2368F6B222693746981A636983425C
S31500004B2005DC21462846FFF7B3FF0028EDD1A36830
S31500004B30013BA36023685A1C22601E70431C6269F5
S31500004B409A4204D0A389DB07E1D50A2EDFD121469C
S31500004B502846FFF79DFF0028D9D0D6E738B5294B60
S31500004B6005460C46186818B1036A0BB9FFF752FAE6
S31500004B70B4F90C30190722D4DA0607D409222A60C0
S31500004B8043F040034FF0FF30A38133E0580712D5BE
S31500004B90616B41B104F14403994202D02846FFF704
S31500004BA029FB00236363A38923F02403A381002345
S31500004BB0636023692360A38943F00803A381236903
S31500004BC04BB9A38903F42073B3F5007F03D02146C4
S31500004BD0284600F05CF8B4F90C3013F001020AD054
S31500004BE00022A26062695242A261226942B913F0B0
S31500004BF08000C5D138BD990758BF6269A260F4E745
S31500004C000020F7E79C00002038B50023054D044638
S31500004C1008462B60FDF7B2FB431C02D12B6803B19B
S31500004C20236038BD6C9F0120C9B20346024410B50B
S31500004C309342184601D1002003E0047801338C42E8
S31500004C40F6D110BD70B50C46B1F90E1096B01546EA
S31500004C5000291E460CDAA389002113F0800F14BF29
S31500004C6040234FF48063002031602B6016B070BD86
S31500004C706A4600F049F80028EDDB019901F470411D
S31500004C80A1F50053594259414FF48063EBE78B89F4
S31500004C90F7B59D0706460C4607D504F14703236082
S31500004CA023610123636103B0F0BD01AB6A46FFF7E0
S31500004CB0C9FF009F054630463946FFF707FB48B94E
S31500004CC0B4F90C309A05EED423F0030343F0020343
S31500004CD0A381E2E7A389206043F08003A381019BBF
S31500004CE0C4E904075BB1B4F90E10304600F01EF8B3
S31500004CF028B1A38923F0030343F00103A381A38909
S31500004D001D43A581CFE7000038B50023064D0446B4
S31500004D10084611462B6000F021F8431C02D12B688F
S31500004D2003B1236038BD00BF6C9F012038B5002356
S31500004D30054D044608462B6000F018F8431C02D1C6
S31500004D402B6803B1236038BD6C9F0120024B5822AB
S31500004D504FF0FF301A6070476C9F0120024B5822BB
S31500004D604FF0FF301A6070476C9F0120024B5822AB
S31500004D7000201A60704700BF6C9F0120024B58222A
S31500004D804FF0FF301A6070476C9F0120024B58228B
S31500004D904FF0FF301A6070476C9F012028202820B2
S31500004DA075696E74385F74202A202920282070784F
S31500004DB0426C6F636B2029203E3D202628207563B8
S31500004DC0486561705B2030205D2029202920262639
S31500004DD0202820282075696E74385F74202A2029BF
S31500004DE02028207078426C6F636B2029203C3D2080
S31500004DF02628207563486561705B2028313032347F
S31500004E00303029202D2031205D2029202900000066
S31500004E10443A2F52656E657361735F70726F6A658F
S31500004E2063742F72656E657361736375705F736DFE
S31500004E306172746D65646963696E652F72612F6155
S31500004E4077732F4672656552544F532F46726565C8
S31500004E5052544F532F536F757263652F706F727470
S31500004E6061626C652F4D656D4D616E672F6865617A
S31500004E70705F342E630000002820282075696E7448
S31500004E80385F74202A202920282070765265747590
S31500004E90726E2029203E3D202628207563486561D4
S31500004EA0705B2030205D20292029202626202820FE
S31500004EB0282075696E74385F74202A2029202820DE
S31500004EC0707652657475726E2029203C3D20262826
S31500004ED0207563486561705B20283130323430308C
S31500004EE029202D2031205D20292029002820282056
S31500004EF07078426C6F636B2D3E78426C6F636B53B8
S31500004F00697A652029203C2028207857616E7465CF
S31500004F106453697A6520292029203D3D2030000010
S31500004F2028202820282073697A655F74202920703C
S31500004F30784E6577426C6F636B4C696E6B202920E7
S31500004F402620282030783030303720292029203D6F
S31500004F503D20300028202820282073697A655F7458
S31500004F60202920707652657475726E2029202620BD
S31500004F70282073697A655F742029202820307830CC
S31500004F8030303720292029203D3D20300000000008
S31500004F902820282075696E74385F74202A202920FD
S31500004FA0282070784C696E6B2029203E3D202628EB
S31500004FB0207563486561705B2030205D20292029BB
S31500004FC0202626202820282075696E74385F7420D4
S31500004FD02A202920282070784C696E6B2029203CD5
S31500004FE03D202628207563486561705B2028313096
S31500004FF03234303029202D2031205D20292029000F
S3150000500028202820282070784C696E6B2D3E784227
S315000050106C6F636B53697A65202920262028202827
S3150000502020282073697A655F742029203120292081
S315000050303C3C202820282073697A656F66282073F7
S31500005040697A655F742029202A2028202820736920
S315000050507A655F742029203820292029202D2031C7
S3150000506020292029202920213D2030202920213DCA
S315000050702030000070784C696E6B2D3E70784E655E
S31500005080787446726565426C6F636B203D3D2028DF
S3150000509028766F6964202A293029000028202820D4
S315000050A075696E74385F74202A202920282070784C
S315000050B04974657261746F722029203E3D2026284E
S315000050C0207563486561705B2030205D20292029AA
S315000050D0202626202820282075696E74385F7420C3
S315000050E02A202920282070784974657261746F72AD
S315000050F02029203C3D202628207563486561705B89
S31500005100202831303234303029202D2031205D20C6
S31500005110292029007851756575650000443A2F529B
S31500005120656E657361735F70726F6A6563742F7203
S31500005130656E657361736375705F736D6172746DAF
S3150000514065646963696E652F72612F6177732F4697
S3150000515072656552544F532F4672656552544F53CC
S315000051602F536F757263652F71756575652E6300B4
S3150000517070785175657565007852657475726E2024
S31500005180213D20282028202820426173655479700B
S31500005190655F7420292030202920290070785374F7
S315000051A06174696351756575650000007853697AA5
S315000051B065203D3D2073697A656F662820517565C7
S315000051C075655F742029000070784E6577517565A6
S315000051D0756500007848616E646C6500212820289A
S315000051E02070764974656D546F5175657565203DFF
S315000051F03D202828766F6964202A29302920292015
S315000052002626202820707851756575652D3E75789F
S315000052104974656D53697A6520213D2028205542E1
S31500005220617365547970655F742029203055202993
S3150000523020290000212820282078436F7079506F9C
S31500005240736974696F6E203D3D20282028204261D5
S315000052507365547970655F742029203220292029CE
S31500005260202626202820707851756575652D3E7597
S31500005270784C656E67746820213D203120292029ED
S31500005280000000002128202820785461736B4765B0
S31500005290745363686564756C6572537461746528CC
S315000052A029203D3D202820282042617365547970CD
S315000052B0655F7420292030202920292026262028D1
S315000052C020785469636B73546F5761697420213D6C
S315000052D0203020292029000028206354784C6F6351
S315000052E06B202920213D2028202820696E74385FF4
S315000052F0742029203132372029000000707851753A
S315000053006575652D3E75784974656D53697A6520B6
S315000053103D3D2030000000002128202820707851D3
S31500005320756575652D3E706348656164203D3D2059
S315000053302828766F6964202A2930292029202626E4
S31500005340202820707851756575652D3E752E785329
S31500005350656D6170686F72652E784D7574657848F5
S315000053606F6C64657220213D202828766F69642061
S315000053702A293029202920290000000028207078B9
S315000053805175657565202900212820282028207060
S31500005390764275666665722029203D3D202828766E
S315000053A06F6964202A2930292029202626202820D2
S315000053B028207078517565756520292D3E757849C8
S315000053C074656D53697A6520213D20282055426118
S315000053D07365547970655F74202920305520292023
S315000053E029000000785461736B000000443A2F5284
S315000053F0656E657361735F70726F6A6563742F7231
S31500005400656E657361736375705F736D6172746DDC
S3150000541065646963696E652F72612F6177732F46C4
S3150000542072656552544F532F4672656552544F53F9
S315000054302F536F757263652F7461736B732E6300E0
S3150000544075785072696F72697479203C2028352905
S315000054500000000070785443422D3E75635374611A
S31500005460746963616C6C79416C6C6F6361746564BB
S31500005470203D3D202820282075696E74385F7420F1
S315000054802920322029000000282028202820282032
S31500005490707844656C617965645461736B4C6973AB
S315000054A07420292D3E75784E756D6265724F66497A
S315000054B074656D73203D3D20282055426173655407
S315000054C07970655F74202920302029203F2028200C
S315000054D0282042617365547970655F7420292031F4
S315000054E02029203A202820282042617365547970AB
