S020000072656E657361736375705F736D6172746D65646963696E652E7372656307
S31500000000A0040020211C0000812000001D1C00000F
S315000000101D1C00001D1C00001D1C00001D1C0000F6
S31500000020000000000000000000000000ED3D0000A0
S315000000301D1C000000000000053E00006D3E000093
S31500000040CD2A0000552C00007D2D0000CD2A000091
S31500000050A12B0000E93900004D390000793A000073
S31500000060C13A0000C5320000453400004D3500009D
S3150000007025360000793B0000153C0000FD3C0000E1
S30D00000080512E0000D52E0000F0
S315000000881C56000000000000FF00000000000000F1
S31500000098001E00006800002001000000200000206B
S315000000A80300000001000000037300000273000053
S315000000B8027300000273000002730000027300005E
S315000000C80273000002730000000000000C0C000020
S315000000D80060600000606000006060000060600012
S315000000E80060600000606000010000000E00000073
S315000000F80500000001000000010000003B000000B0
S30D000001081400000004000000D1
S315000001100348044B834202D0034B03B11847704790
S31500000120880000208800002000000000064B0749D8
S31500000130C91A891048BF0131491003D0044B0BB1CD
S3150000014001481847704700BF88000020880000203B
S315000001500000000010B5064C237843B9FFF7D8FF1E
S31500000160044B13B10448AFF300800123237010BD84
S31500000170C00400200000000084A2000108B5054B61
S315000001801BB105490548AFF30080BDE80840FFF7FD
S31500000190CDBF00BF00000000C404002084A20001FF
S315000001A04FF0FF31002200F10803C0E90131C0E938
S315000001B003330260704700BF00230361704700BF2E
S315000001C030B40D686B1C10D000F108031C465B6848
S315000001D01A68AA42FAD902684B60013299608C60AB
S315000001E06160086130BC0260704704696368F2E7C9
S315000001F00346026910B45468406899689C4281605D
S31500000200486008BF5160002110685DF8044B013852
S3150000021019611060704700BFF8B5431E0A3361D8F4
S3150000022010F0070300F1080466D15A4E01F07EF87B
S3150000023033682246002B72D0002C58DBDFF87CE1B5
S31500000240DEF80070A74252D3534954480A688242E6
S31500000250C0F08B80524DAA4298BF8C4608D984E0E4
S31500000260136843B1834273D3AB42944670D81A469F
S315000002705168A142F4D33368934238D0DCF8006069
S31500000280083686427ED3AE427CD81368A142CCF8AB
S31500000290003070D3081B102807D911194D075DD1FE
S315000002A048601351CCF8001021463E487F1A046876
S315000002B041F00041A7424FF0000438BF07603A48BA
S315000002C051600368146001330360CEF8007001F0DA
S315000002D035F873070ED040F25711344B344A35487F
S315000002E001F080FE2B4E01F021F83368ABB101F02E
S315000002F025F800263046F8BDA3F10902A242F1D343
S31500000300244E1030C41A01F011F83368224633B176
S31500000310002AECDB002C91D1E9E7002214461F48A5
S31500000320002147071CBF073020F007000546224B77
S31500000330194F23F00703181AC7E900513360C3E9C0
S315000003400011C5E90030174B18601C4B1860DFE739
S31500000350FB211B4B164A174801F044FE4FF48B71E4
S31500000360184B134A134801F03DFEF521144B104A71
S31500000370104801F037FE40F20D11134B0C4A0D48A0
S3150000038001F030FE40F20511104B094A094801F010
S3150000039029FE00BFEC040020F0040020F804002031
S315000003A0F7940120E4040020E00400208C490000BA
S315000003B0E451000048480000F0940120E8040020C1
S315000003C0D44700005849000024490000B048000006
S315000003D000284BD0F8B53A4FA0F10804BC420546B8
S315000003E058D3384EB44255D850F8043C002B5FDA47
S315000003F050F8082C002A54D123F0004340F8043C5E
S3150000040000F094FF3048DFF8E8C00346DCF800202F
S3150000041055F8041C0A44CCF800201A461B689C4276
S31500000420FBD8824203D0BA422DD3B2422BD85068B1
S315000004301618B4420FD06018834218D045F8083C0D
S31500000440A24218BF1460214A136801331360BDE845
S31500000450F84000F073BF0144501883425160F2D156
S315000004601B48006883420CD0144604E070471848C5
S3150000047000688342E2D0D3E900500144C4E9005148
S31500000480DEE71360DFE74FF4FD71124B124A1348A3
S3150000049001F0A8FD4FF4B571114B124A0F4801F057
S315000004A0A1FD4FF4B671104B0E4A0C4801F09AFDAF
S315000004B040F26B110D4B0B4A084801F093FD00BF4B
S315000004C0F8040020F7940120F0040020DC0400204A
S315000004D0EC040020D44A0000BC510000484800004B
S315000004E0C8490000D8510000AC4A0000384A000054
S315000004F0E804002070B51646026C0446856B0AB304
S3150000050086B9406804F058F96368216CA2680B4408
S315000005109342636005F1010515D3236800206360EB
S31500000520A56370BDC06804F047F9226CE3685142C8
S315000005309B1A2268E360934202D2A3680B44E360ED
S31500000540022E03D001350020A56370BD012D38BFF2
S315000005500125F8E770B5054603F0CEFC95F8453061
S315000005605CB2002C14DD05F1240603E0631EDAB24A
S315000005705CB26AB16B6A5BB1304601F08FF8002855
S31500000580F4D001F053F9631EDAB25CB2002AF1D15D
S31500000590FF2385F8453003F0D7FC03F0ADFC95F852
S315000005A044305CB2002C14DD05F1100603E0631E36
S315000005B0DAB25CB26AB12B695BB1304601F06EF813
S315000005C00028F4D001F032F9631EDAB25CB2002AD8
S315000005D0F1D1FF2385F84430BDE8704003F0B4BC88
S315000005E070B5002848D0C56B0446002D3DD0026C7E
S315000005F0A2FB0525002D38D10E4603F07DFCD4E97B
S315000006000F30FF2100FB03F32268181A62601344BF
S315000006100244A563C4E9023284F8441084F8451004
S31500000620BEB923691BB903F08FFC012070BD04F12C
S31500000630100001F033F80028F5D04FF08052124B2D
S315000006405A60BFF34F8FBFF36F8F03F07DFC01201D
S3150000065070BD04F11000FFF7A3FD04F12400FFF7BD
S315000006609FFD03F071FC012070BD4FF4B671074B7E
S31500000670074A084801F0B6FC40F23711064B044A17
S31500000680044801F0AFFC00BF00ED00E0B04B0000F5
S3150000069080520000544B0000A84B000070B582B099
S315000006A09DF818603BB30546F0B11C46A2B1D9B11E
S315000006B050230193019B502B24D1C4E90F510121F2
S315000006C02046226084F84610019BFFF789FF2046EA
S315000006D084F84C6002B070BD31B950230193019B80
S315000006E0502B0FD12246E8E74FF4D871094B0A4A3E
S315000006F00A4801F077FC4FF4C271094B064A0748D5
S3150000070001F070FC4FF4CB71064B034A034801F02D
S3150000071069FC00BF004C000064520000544B00000E
S31500000720D44B0000E44B000030B583B0D8B188420A
S315000007300D4618D3144622B350230193019B502B28
S3150000074018D1012100232260D0632364204684F857
S315000007504610019AFFF744FF02232046A56384F85A
S315000007604C3003B030BD4FF45E71094B094A0A485C
S3150000077001F038FC4FF4CB71084B094A064801F0EA
S3150000078031FC4FF4C271074B054A034801F02AFCBD
S315000007900C4C000040520000544B0000E44B00009B
S315000007A064520000D44B00002DE9F04184B0019260
S315000007B0002800F0AF8004460F461E46002900F0D0
S315000007C08B80022E03D1E36B012B40F09C8001F05D
S315000007D033F8002867D003F08FFBA26BE36B9A42D5
S315000007E053D3022E51D00020DFF8448105460DE098
S315000007F003F0AAFB2046FFF7ADFE00F09FFD03F0D5
S315000008007BFBA26BE36B01209A423ED3019B002B3C
S315000008106DD0B0B303F098FB00F088FD03F06CFBDD
S3150000082094F84430FF2B08BF84F8445094F84530C0
S31500000830FF2B08BF84F8455003F086FB02A801A9E8
S3150000084000F0ACFF002858D103F056FBA26BE36B17
S315000008509A42CDD103F078FB019904F1100000F023
S31500000860C9FE2046FFF776FE00F068FD0028C6D1D7
S315000008704FF08053C8F80430BFF34F8FBFF36F8F2C
S31500000880BDE702A800F07EFFC4E73246394620469F
S31500000890FFF730FE636A83B9A8B903F055FB012060
S315000008A004B0BDE8F081019B002B94D040F2BB312F
S315000008B01C4B1D4A1D4801F095FB04F1240000F075
S315000008C0EDFE0028E9D04FF08052194B5A60BFF375
S315000008D04F8FBFF36F8FE0E7036C002B3FF471AFD0
S315000008E040F2B731134B104A104801F07BFB03F07E
S315000008F02BFB002004B0BDE8F0812046FFF72AFE5E
S3150000090000F01CFDF5E74FF46E710B4B064A0748E5
S3150000091001F068FB40F2B631084B034A034801F088
S3150000092061FB00BFBC4C00002C520000544B000081
S3150000093000ED00E0144C00006C4C0000A84B0000D9
S31500000940F0B585B00192002800F0A38004460E465B
S3150000095000296ED000F070FF002857D003F0CCFAC3
S31500000960A56B002D6FD1019B002B35D002A800F09E
S3150000097009FF2F4603F0E8FA00F0D8FC03F0BCFAB2
S3150000098094F84430FF2B08BF84F8447094F845303F
S31500000990FF2B08BF84F8457003F0D6FA01A902A818
S315000009A000F0FCFEE8B903F0A7FAA36B33BB03F033
S315000009B0CBFA019904F1240000F01CFE2046FFF753
S315000009C0C9FD00F0BBFC58B303F096FAA56B002DE9
S315000009D039D1019B002BCDD103F0B6FA002005B02A
S315000009E0F0BD2046FFF7B6FD00F0A8FC03F084FA40
S315000009F0A36B002BF0D003F0A7FAE5E703F0A4FA07
S31500000A002046FFF7A7FD00F099FCDDE7019B002BD0
S31500000A10A4D040F2F251224B224A234801F0E2FAD6
S31500000A204FF08052214B5A60BFF34F8FBFF36F8F49
S31500000A30CAE7036C002B8DD040F2ED511C4B194ACE
S31500000A40194801F0CFFA226C5AB1E168A368114443
S31500000A509942E16028BF2168304628BFE16003F073
S31500000A60ABFE2369013DA56323B903F06DFA0120AE
S31500000A7005B0F0BD04F1100000F010FE0028F4D01F
S31500000A804FF08052094B5A60BFF34F8FBFF36F8F01
S31500000A90EBE740F2E951074B024A034801F0A2FA9C
S31500000AA0BC4C00001C520000544B000000ED00E05E
S31500000AB09C4D0000904D000070B584B00191002857
S31500000AC000F09180036C0446002B40F0858000F016
S31500000AD0B3FE002855D003F00FFAA56B002D63D1A5
S31500000AE0019BA3B302A800F04DFE2E4603F02CFA9C
S31500000AF000F01CFC03F000FA94F84430FF2B08BF0A
S31500000B0084F8446094F84530FF2B08BF84F84560AC
S31500000B1003F01AFA01A902A800F040FEE0B903F0BA
S31500000B20EBF9A36B2BBB03F00FFA019904F1240038
S31500000B3000F060FD2046FFF70DFD00F0FFFB50B30F
S31500000B4003F0DAF9A56B7DBB019B002BCED103F038
S31500000B50FBF9002004B070BD2046FFF7FBFC00F057
S31500000B60EDFB03F0C9F9A36B002BF0D003F0ECF911
S31500000B70E6E703F0E9F92046FFF7ECFC00F0DEFBC0
S31500000B80DEE7019B002BA6D040F28B61194B1A4A77
S31500000B901A4801F027FA4FF08052194B5A60BFF3FA
S31500000BA04F8FBFF36F8FCBE72369013DA56323B951
S31500000BB003F0CAF9012004B070BD04F1100000F082
S31500000BC06DFD0028F4D04FF080520D4B5A60BFF3F4
S31500000BD04F8FBFF36F8FEBE740F28661094B064AF2
S31500000BE0064801F0FFF940F28261074B024A0348CA
S31500000BF001F0F8F9BC4C000008520000544B00000C
S31500000C0000ED00E0104D0000904D000070B500B3FF
S31500000C10D9B10024124D23462A4604E001330A2B9B
S31500000C2002F108020ED0566886420FD0002CF5D18C
S31500000C3055F833600133002E08BF14460A2B02F123
S31500000C400802F0D10CB1C4E9001070BD05EBC30475
S31500000C50F9E740F6C931034B034A044801F0C2F9EB
S31500000C60F89401204C4B0000F4510000544B000056
S31500000C7070B504460E46154603F03EF994F8443026
S31500000C80FF2B04BF002384F8443094F84530FF2B33
S31500000C9004BF002384F8453003F056F9A36B23B153
S31500000CA02046BDE87040FFF755BC04F124002A46F3
S31500000CB0314600F0BDFC2046BDE87040FFF74ABC57
S31500000CC02DE9F041044603F017F9394A394E136805
S31500000CD0013313603368002B3ED0374FE36A3A681E
S31500000CE0002A32D0354D364936480A6804F1040CDC
S31500000CF0013262640A6002689A4238BF036003EBFD
S31500000D00830305EB830041689B00EA58D1F808E0AD
S31500000D10A160C4F80CE00132CEF804C0C1F808C0E6
S31500000D206061EA5003F010F93B6863B13268E36A28
S31500000D30D26A9A4207D24FF08052234B5A60BFF3D1
S31500000D404F8FBFF36F8FBDE8F08132681B4DD26ABB
S31500000D509A4298BF3460C6E734601368012B03D00B
S31500000D60E36A164D144FBEE7144D2F4605F164088D
S31500000D7038461437FFF714FA4745F9D1DFF864808F
S31500000D80124F4046FFF70CFA3846FFF709FA1048AB
S31500000D90FFF706FA0F48FFF703FA0F48FFF700FAC6
S31500000DA00E4BC3F800800E4B1F60E36A024F9AE7B2
S31500000DB0709501204896012064950120E495012054
S31500000DC0549501206895012000ED00E0BC950120B6
S31500000DD0A09501208C95012074950120B8950120DD
S31500000DE0B4950120D09501202DE9F8430446264B01
S31500000DF02648274A274DD0F800901768D3F8008078
S31500000E0028680E460430FFF7F3F9631C17D02B68E9
S31500000E1019EB04045C600BD2296838460431FFF7ED
S31500000E20CFF91D4B1A68A24200D91C60BDE8F883B1
S31500000E3029684046BDE8F8430431FFF7C1B976B9E1
S31500000E402B6809F1FF325A60B9F1000FF0D1296819
S31500000E5038460431FFF7B4F90F4B1B68E6E70F4B32
S31500000E6029685A681C688A602E68013428682968CF
S31500000E701C602D68946804300431F46060609160F1
S31500000E806B61BDE8F88300BFB49501206C95012025
S31500000E90B8950120489601205095012074950120AF
S31500000EA02DE9F0478A460A9C95002A460746A52161
S31500000EB0206B9846089EDDF8249003F075FC236BA2
S31500000EC0043D1D4425F00705BAF1000F0FD00AF1C5
S31500000ED0FF3C0AF10F0104F133031CF9012F03F85B
S31500000EE0012F0AB18C45F8D1002384F84330042E33
S31500000EF01AD8E662201DFFF75FF9C6F1050604F170
S31500000F001800FFF759F943463A462846216BA66171
S31500000F102461646202F0D6FF2060B9F1000F01D0AF
S31500000F20C9F80040BDE8F08740F26471024B034AFD
S31500000F30034801F057F800BF544E00006853000004
S31500000F40004E0000F8B51A4D2B6823B3194F1A4E00
S31500000F5005E0012B20D0022B22D12B68DBB102F059
S31500000F60CBFFFB68DC68201DFFF742F93368013BC5
S31500000F7033602B68013B2B6002F0E6FF94F8653086
S31500000F80002BE6D1206BFFF723FA2046FFF720FA65
S31500000F902B68002BE3D1F8BD2046FFF719FADCE7F2
S31500000FA041F62E11054B064A064801F01BF800BF14
S31500000FB0889501208C95012070950120684E0000CF
S31500000FC058530000004E00004FF0805608B5094CFB
S31500000FD0094DFFF7B7FF2368012BFAD96E60BFF3FF
S31500000FE04F8FBFF36F8FFFF7ADFF2368012BF5D847
S31500000FF0EFE700BFE495012000ED00E02DE9F04F9A
S31500001000574B83B01E6801361E60002E7BD05549B3
S315000010100B689E4261D3544F3B681868002800F065
S3150000102093800020514B8446B2468146504DDFF8EE
S315000010305CE10093019146E05969D3E9022494608A
S3150000104062604A68181D82420A6808BF4C60013A0D
S31500001050C3F814C00A60996A71B1D3E90724946091
S3150000106062604A6803F11806B2420A6808BF4C601B
S31500001070013AC3F828C00A60DA6ADEF800108A422C
S3150000108002EB820105EB8108D8F8046055F821408F
S31500001090D6F808B09E60C3F80CB0CBF80400B06078
S315000010A0C3F81480009B88BFCEF80020013445F8B1
S315000010B0214019683B68C96A1B688A4288BF4FF09D
S315000010C00109002B3AD03B68DB68DB685A68924519
S315000010D0B2D2019948460A6003E00020234B244D12
S315000010E00093009B234A1B681268DB6A03EB8303A9
S315000010F055F82330022B28BF0120002A18BF0120F3
S3150000110003B0BDE8F08F184B1A68126802BB1A4A82
S31500001110186811681960194910600A6801320A6076
S315000011201A68126822B94FF0FF330E490B606FE759
S315000011301B680C49DB681B680B6069E74846019928
S315000011404FF0FF330B60CCE7084B094D0093F7E7F0
S3150000115041F25F210A4B0B4A0B4800F043FF00BFE8
S315000011606C95012050950120B895012048960120E4
S31500001170E49501205C950120B49501205895012045
S315000011809C4E000014530000004E0000689501209C
S315000011902DE9F0430E46002187B0DDF83C80109C17
S315000011A00491B8F1000F24D0002C30D09946682362
S315000011B005931746059A9A4222D105462046059B75
S315000011C003F0F2FA28460E9DC4F8308000950225F9
S315000011D0029484F8655004AD4B463A463146019573
S315000011E0FFF75EFE2046FFF76BFD049807B0BDE8EB
S315000011F0F08340F2F141094B094A0A4800F0F2FE39
S3150000120040F2FA41084B064A064800F0EBFE40F26F
S31500001210F241064B024A034800F0E4FE144F000078
S3150000122080530000004E0000504F0000344F000075
S315000012302DE9F043074685B0900016468846994644
S31500001240FEF7EAFFF8B105466820FEF7E5FF04461B
S31500001250B0B16822002103F0A7FA25630D9D4B4625
S3150000126001950C9D32464146384602940095FFF79B
S3150000127017FE2046FFF724FD012005B0BDE8F083E8
S315000012802846FFF7A5F84FF0FF3005B0BDE8F0831C
S3150000129030B500248DB01B4B07AA06A905A80893F4
S315000012A0CDE905448DF8244002F070FFDDE9051212
S315000012B02346CDE901211448079A009408A9FFF7AF
S315000012C067FF124B186018B9114B1B680DB030BD83
S315000012D000F06EFC012808D00130F5D140F6A96176
S315000012E00C4B0D4A0D4800F07DFE80F310884FF040
S315000012F0FF350B490B4A0C4B0D6010601C6002F069
S3150000130063FEE1E749444C45C90F00004C950120B6
S31500001310945300006C4F000038530000004E00004C
S3150000132050950120649501206C950120024A1368AE
S3150000133001331360704700BF489501202DE9F04F37
S315000013405B4F83B002F0D8FD3B68002B00F0A8800D
S315000013503B68013B3B60D7F80080B8F1000F40F0D6
S315000013609080544B1B68002B00F08B80DFF870E1F7
S31500001370DEF80030002B00F090804F4BDFF86491D0
S315000013804E4E0193DEF80C30DB689A6AD3E907010A
S3150000139081604860506803F11804A04208BF51609C
S315000013A01168C3F82880013911605A69D3E902101F
S315000013B08860416051681D1DA942116808BF5060D0
S315000013C001391160DA6AD9F800103D488A4288BFAF
S315000013D0C9F8002002EB8201006806EB810CDCF8FC
S315000013E00440D0F82CA056F82100D4F808B00130FB
S315000013F052459C60C3F80CB0CBF80450A560C3F806
S3150000140014C046F8210002D90122019B1A60DEF8B9
S315000014100030002BB6D12B4B1A681268002A37D041
S315000014201A68294BD26812681A60284D2C68A4B134
S315000014300126DDF8048006E0FFF7E0FD08B1C8F8F4
S315000014400060013C08D03B68002BF5D02B68013CBE
S3150000145003F101032B60F6D12C60019B1B6883B15D
S315000014604FF080521A4B164909685A60BFF34F8FE6
S31500001470BFF36F8F012402F067FD204603B0BDE87D
S31500001480F08F002402F060FD204603B0BDE8F08F27
S315000014904FF0FF320C4B1A60C7E7074B0193C4E7C6
S315000014A040F68B710B4B0C4A0C4800F09BFD00BFBD
S315000014B048950120709501205C950120E495012056
S315000014C048960120B895012050950120609501208D
S315000014D000ED00E0804F000028530000004E0000A1
S315000014E0A09501206895012008B560B10E4B1A68D9
S315000014F001321A601B68012B0ED10021FFF774FC24
S31500001500FFF71CFF38B94FF08052084B5A60BFF303
S315000015104F8FBFF36F8F08BD40F68E11044B054AFF
S31500001520054800F05FFD00BF4895012000ED00E092
S31500001530C84F00004C530000004E0000014B1868D5
S31500001540704700BF6C950120054B1B680BB9FFF770
S3150000155055BD044A0020136801331360704700BF6D
S31500001560489501206095012038B51A4B1B681BB1C0
S315000015700122194B1A6038BD174A184C13602368AC
S31500001580174803EB830250F82250990000EB8202C1
S315000015903DB9C3B152F8141C013B09B9143AF8E736
S315000015A09900CA1800EB820108464A68083052685A
S315000015B082424A6004BFCA684A600A49D2680A6021
S315000015C023600B6838BD41F2FA31074B074A0848D9
S315000015D000F008FD489501205C95012068950120E2
S315000015E0E495012048960120E44F000000530000D6
S315000015F0004E000010B558B10C46094B1968183159
S31500001600FEF7DEFD2046BDE810400121FFF7ECBBEA
S315000016104FF4A451034B044A044800F0E3FC00BF16
S3150000162048960120F44F0000E8520000004E0000EA
S31500001630F8B5034610B3154C5D680846002A1146F6
S315000016402268D4F800E027682668D5611A68D4F8BD
S3150000165000C006F11804AE6807F1180702F101028E
S31500001660CEF8206018BF4FF0FF307760AC60CCF842
S3150000167028301A60BDE8F840FFF7B6BB41F2BE411C
S31500001680034B044A044800F0ADFC00BF4896012015
S31500001690F44F0000C8520000004E0000F8B5C368C1
S315000016A0DB68002B54D0D3E9070100269A6A8160D3
S315000016B04860506803F11804A042294808BF5160E9
S315000016C0116805680139D86A9E621160A5B1254A7C
S315000016D015685168013515608D68D9611D626C60A9
S315000016E08C609A62204B1B68DB6A83422ED20123F0
S315000016F01E4A18461360F8BD5A69D3E90241A16033
S315000017004C6054681E1DB44208BF5160116801390F
S315000017101160174A11688142164938BF106000EB04
S31500001720800201EB82077D689200D5F808C08C58CC
S315000017309D60C3F80CC0CCF80460AE605F610A4BD4
S3150000174001341B688C50DB6A8342D0D30020F8BD7D
S3150000175041F2F541084B094A094800F043FC00BF35
S3150000176048950120A0950120489601205C9501200E
S3150000177068950120E495012000500000AC5200005D
S31500001780004E0000034A044B12681B68C0E90023A0
S31500001790704700BF589501206C950120F8B550B3ED
S315000017A00D4679B3044602F0A7FB2B68194A581C6C
S315000017B011681BD0D4E90060DFF86CC0DCF800705B
S315000017C0BE4208D0884206D8002301242B6002F0CE
S315000017D0BBFB2046F8BD0F1ABB42F5D95B1ADCF8F5
S315000017E00010126803442B60C4E90012002402F0C2
S315000017F0ABFB2046F8BD41F2A551074B074A084806
S3150000180000F0F0FB41F2A651064B044A044800F0F2
S31500001810E9FB00BF6C9501201050000094520000B7
S31500001820004E00001C500000589501200122014B7B
S315000018301A6070475C950120054B1B6833B1054B58
S315000018401868B0FA80F040094000704701207047E0
S315000018506495012048950120F0B5124C83B002F042
S315000018604BFB256825B103B0BDE8F04002F06CBB28
S315000018700D4E0E4F3046FEF793FC3846FEF790FCB1
S315000018800B490C4B00950A201F600E600A4B0C2179
S315000018900A4AFEF703FF20600028E4D00849FFF754
S315000018A0B5F9E0E71C9701203C9701202897012015
S315000018B024970120209701204C9601209C96012018
S315000018C02C5000002DE9F047DFF884900546D9F842
S315000018D000300F46DB68DC6804F104084046FEF77A
S315000018E087FC94F828305A070ED423F0010384F8B5
S315000018F028302046236ABDE8F047184793421BD894
S315000019002046236A98473546A3697A1BEE182CBFF2
S3150000191001210021B74266602461EFD2AF4201D2B5
S315000019200029EDD0D9F800004146FEF749FC2046D3
S31500001930236ABDE8F0471847044B41461868FEF78E
S315000019403FFC2046236ABDE8F04718472097012050
S31500001950249701202DE9F04F00278D4D8D4E8E4C9A
S31500001960DFF8488285B02B68D3F800B0BBF1000FD2
S3150000197000F0D980DB68D3F800B0FFF7D7FCFFF79B
S31500001980DDFD33688246834243D88345306040F2AA
S31500001990E68000222068ABEB0A01FFF769F9FFF742
S315000019A0CDFC38B94FF080537C4A5360BFF34F8F5C
S315000019B0BFF36F8FCDE9017703970022206801A955
S315000019C0FEF7BEFF0028CED0019B002BF5DBDDF82D
S315000019D00CA0DAF814301BB10AF10400FEF708FC7B
S315000019E0FFF7ACFD33688346984226D3019BC6F8C1
S315000019F000B0013B082BE0D8DFE803F029296C731F
S31500001A008C29296C7300DB684FF0FF311868FFF7EB
S31500001A1059FF2B681A68002AF5D1D8F80020C6F8B5
S31500001A2000A02A60C8F80030FFF788FCC2E7DB6830
S31500001A304FF0FF311868FFF745FF2B681A68002A38
S31500001A40F5D1D8F80020C8F800302A60CEE79AF819
S31500001A5028C00298DAF818204CF0010183188AF899
S31500001A6028102CBF012100215B45CAF80430CAF8B2
S31500001A7010A06AD8ABEB0000824244D81CF0040FD9
S31500001A8013D12CF001038AF828305046DAF82030BA
S31500001A90984792E7ABEB030393426BD3DAF8203017
S31500001AA0504698474B46DAF8182013EB02092CBF2C
S31500001AB001200020CB45CAF80490CAF810A0E9D24C
S31500001AC09B4501D20028E9D028680AF10401FEF7F7
S31500001AD077FBDAE79AF8283023F001038AF82830F2
S31500001AE06BE79AF82820029B42F001028AF8282028
S31500001AF0CAF81830002B44D05B445B45CAF8043062
S31500001B00CAF810A025D8D8F800000AF10401FEF79B
S31500001B1057FB52E79AF828309A0727D523F0010396
S31500001B208AF8283049E7FFF701FCFFF707FD33681D
S31500001B3082469842FFF46DAFD8F80030C6F800A090
S31500001B401A68B2FA82F2520924E7584501D90029E7
S31500001B5094D028680AF10401FEF732FB2DE7FFF75F
S31500001B60EDFB51465846FFF7ADFE23E75046FEF71C
S31500001B702FFC22E7D8F800000AF10401FEF720FB4B
S31500001B8083E74FF48261064B064A074800F02AFABB
S31500001B9024970120149701201C97012000ED00E0F6
S31500001BA0A8500000985300005050000020970120D4
S31500001BB010B588B0FFF750FE114B1B68CBB100245F
S31500001BC007AA06A905A8CDE9054402F0EDFA032205
S31500001BD02346059C00920294069C0A490A48079AE5
S31500001BE00194FFF7D5FA094B186010B1012008B02F
S31500001BF010BD4FF4A371064B064A074800F0F2F9F0
S31500001C001C970120D050000055190000189701209C
S31500001C10D8500000B45300005050000000BE70477A
S31500001C2008B500F035F802F08DFAFEE7F8B5174F63
S31500001C3005463E68A6B17C6806EB460604EB8606BA
S31500001C4002E00C34B4420BD0637AAB42F9D1D4E94A
S31500001C5000020021121A0C3402F0A6FDB442F3D1A0
S31500001C60BE6896B1FC6804EB061602E01034A64284
S31500001C700BD0637BAB42F9D1D4E90002A168121AFA
S31500001C80103402F099FDA642F3D1F8BDD8530000F6
S31500001C904FF47001274B284A70B50020C3F888100E
S31500001CA09A6002F075FD00F069F8012002F070FDFF
S31500001CB0224B83F30A880020FFF7B8FF00F048F8AC
S31500001CC000F036F9032000F075FA00234FF6FF7096
S31500001CD01B4903F1080201330C2B21F81200F8D13D
S31500001CE00024032000F036FA032000F063FA154BB7
S31500001CF003205C609C60DC601C6100F02BFA022013
S31500001D0002F046FD0120FFF791FF0F4D0F4B5B1BC5
S31500001D10A3424FEAA30605DD55F8043B0134984774
S31500001D20A642F9DC00F0CAF9BDE87040002000F0D8
S31500001D3057B900BF00ED00E000000000A000002041
S31500001D40000D084000000E40845600008856000032
S31500001D50064B074993F826001A6A51F82030C2F359
S31500001D6002620449D3400B60704700BF00E00140A7
S31500001D70A004002050970120704700BFF8B54AF232
S31500001D80035001235E495F4AA1F8FE03A2F804311D
S31500001D90B2F804319BB2002BFAD101204FF4004572
S31500001DA04FF0090C584CDFF880E1584EC4F804E0B7
S31500001DB0DFF878E15249C4F80CE0A2F80001B060FF
S31500001DC0534A30605348544FC4E90502A56091F860
S31500001DD0262025612760086A54F822204F4DC0F35B
S31500001DE00260C2402A6081F8133481F8A2C091F8DB
S31500001DF080341BB991F8813498077CD0404E96F810
S31500001E008034002B6CD000223D4B83F8812483F86C
S31500001E10802400233A4A82F8363092F83C30D907BB
S31500001E20FBD50023364982F8323091F83C301A0748
S31500001E30FBD5002342F6117643F20210304AA1F890
S31500001E40486081F84A30088581F82A3092F83C309B
S31500001E509B06FBD5032005232A494FF0F10C81F898
S31500001E601C012F492F48116282F8263092F826303D
S31500001E70166A54F82310C6F30264E1402960012370
S31500001E80F0260025802480F80CC00372067382F8C1
S31500001E90303082F8523082F83E5082F83E4092F856
S31500001EA07630174943F0400382F8763091F8763061
S31500001EB0DB09FBD0C623032081F86E0081F876305B
S31500001EC091F876300E4A03F0BF0381F8763092F827
S31500001ED07630DB09FBD14FF42543A2F8FE33F8BD7B
S31500001EE00121C82086F8801400F084F896F8803422
S31500001EF0012BFBD187E74FF47A70FFF73DFF88E7A8
S31500001F0000E0014000C00140A00400200070004035
S31500001F10001C4E0E00C2EB0B002D31015097012024
S31500001F20211201200020004000127A0000366E01C6
S31500001F3038B50025284C0121C82084F8285000F027
S31500001F4059F884F8245094F82430002BFBD194F8E7
S31500001F502430214943F0020384F8243091F82430D8
S31500001F60C3F340009B07F9D41B4A81F8220092F87C
S31500001F70223003F0FF00002BF9D192F840301649C9
S31500001F8060F3C71382F8403091F84030DB09FBD18B
S31500001F9091F84200104A63F3C71081F8420092F8A4
S31500001FA04230DB09FBD192F844000B4963F3C710BA
S31500001FB082F8440091F84430C3F3C014DB09F9D128
S31500001FC0012000F0F7F8054B012083F8BB44BDE87B
S31500001FD0384000F0BFB800BF0030084000E00140C4
S31500001FE0704700BF00BEFEE7A0F101000028FBD14C
S31500001FF0704700BF1F4B204A1B6800FB01F193424C
S3150000200013D302F1854202F5071203F5741302F6A3
S31500002010834203F6FF03A2FB03231B0DA3FB01313F
S315000020204FF0FF30F9B1FFF7DFBF4FF47A7210B40B
S31500002030A1FB02C41148B0FBF3F34FF0FF3044B9E3
S31500002040BCFBF3FC4FEA9C0088B15DF8044BFFF73C
S31500002050CBBF9B00B1FBF3F1A1FB0212002AF4D126
S31500002060084620B1F1E71846002BDCD170475DF831
S31500002070044B70475097012000127A0000CA9A3B21
S3150000208070B500240B4B0C4EB3F82021B3F8405129
S31500002090ADB2154025FA04F3DB0704D556F8243013
S315000020A0E0B203B198470134102CF3D1014BA3F8E9
S315000020B0305170BD0060004054970120F0B50320F8
S315000020C085B000F077F800276FF0FF014FF0FF367C
S315000020D01C4C1D4B224699644FF0010C3B46CDE942
S315000020E0016604F12405039632F8021F0CFA03F088
S315000020F0013311B1012726EA0006AA42F4D1F7B14D
S315000021000196124B104A03201667C3F880620299A3
S315000021105167C3F8841203999167C3F8881200F0D7
S3150000212019F800230A4834F8022F03F1C0010133DD
S315000021300AB140F82120A542F5D105B0F0BD4FF017
S31500002140FF36DEE7F65500000080004000E100E0C3
S3150000215000600040EFF31081012383F31088124BD7
S3150000216033F8102092B22AB133F81020013A92B215
S3150000217023F8102033F810309BB293B90B4A10B4F1
S31500002180B2F8FE330A4C9BB234F8100043F42543F0
S3150000219023EA0003A2F8FE3381F310885DF8044BAE
S315000021A0704781F310887047E097012000E00140F6
S315000021B0CC53000030B4EFF31081012383F3108871
S315000021C00E4A32F810309BB26BB90D4C0D4DB4F877
S315000021D0FE3335F810C09BB243EA0C0343F42543A3
S315000021E09BB2A4F8FE3332F8103001339BB222F8CA
S315000021F0103081F3108830BC704700BFE097012093
S3150000220000E00140CC53000030B4D0E9000422685D
S3150000221000EB021293681D0C4D731D0E0D739BB2DD
S315000022200B60D368D0F8B0509BB20B61D0F8A032E7
S315000022304D60DB43C3F30D038B6094F9153000202A
S3150000224030BC002BBCBF0023D360704784460020FF
S31500002250CCE90532CCF81010704700BF1F2930B505
S3150000226036D801F1400E00EBCE1EDEF800301B4DD5
S31500002270C3F3807454714FEAD37CDEF8084023F030
S31500002280604382F804C01360DEF8043004F00704EB
S315000022901B0F9460EC5C0EF10C03947144B10C348A
S315000022A0A6440B3213F801CB734502F801CFF9D1DE
S315000022B01F2905D801238B40DB43C0F8B03030BD61
S315000022C0FF2327298CBF6831203140F8213030BDEB
S315000022D001F1A00E00EBCE1EC7E700BFCC540000F4
S315000022E01F29034610B5006809D80123D0F8B0406D
S315000022F08B4023420ED0FFF7B1FF002010BD2729E7
S315000023000AD80123D0F8A042A1F1200C03FA0CF35D
S315000023102342F0D0242010BD5B68D0F8A0421B6891
S3150000232003EB430319440123A1F1200C03FA0CF338
S31500002330A343EFD0FFF792FF0020DFE770B54569B2
S3150000234004460E4698B0A5B160222946684602F0BA
S3150000235033FA60223146284602F02EFA28462369CF
S315000023609847606918B16022694602F025FA18B0EC
S3150000237070BD0D46F2E700BF2DE9F04146680F0635
S315000023803568046801F00F0252D404EB0518D8F83A
S3150000239004704FEA051E17F0040F0EF1040333D143
S315000023A017F0010F04EB030C01D1052A2FD0D8F842
S315000023B0043023F007031343C8F80430DCF8043074
S315000023C003F007039A42F9D1BA0715D0CB0713D405
S315000023D0336905EB4505DE69EF1C303656F82530C6
S315000023E004EB8502D2F8201103F0010301350B43FB
S315000023F0BD42C2F82031F1D1A644DEF8043003F024
S3150000240007030373BDE8F08111F0010FC8D104EB97
S31500002410030CD8F8043023F0070343F00103C8F88F
S315000024200430DCF8043003F00703012BF9D1BEE7D2
S31500002430D4F8883013F0010C19D1CB0717D56346B1
S3150000244004EB830EDEF8C070013327F00107082B7A
S31500002450CEF8C070F4D1002304EB830EDEF82071B1
S31500002460013327F00107062BCEF82071F4D1D4F8FA
S31500002470883023F007031343C4F88830D4F88C302F
S3150000248003F007039A42F9D1BCF1000F0ED011F008
S3150000249001010BD13369DB69043301F1300253F8D2
S315000024A0046F0131082944F82260F6D14FEA051E6F
S315000024B0A644DEF8043003F007030373BDE8F08199
S315000024C038B500234468836094F91530002B0DDB82
S315000024D00121354D5A0903F01F03203201FA03F397
S315000024E045F82230BFF34F8FBFF36F8F94F9173043
S315000024F0002B0DDB01212C4D5A0903F01F0320325E
S3150000250001FA03F345F82230BFF34F8FBFF36F8F05
S3150000251094F91630002B0DDB0121234D5A0903F0E7
S315000025201F03203201FA03F345F82230BFF34F8F21
S31500002530BFF36F8F236843B908221B4BC3F8802073
S31500002540BFF34F8FBFF36F8F2368B3FA83F3174D33
S315000025505B0955F823303BB10521FFF70DFF00203D
S31500002560236845F8230038BD10220F4BC3F880209E
S31500002570BFF34F8FBFF36F8F8121FFF7FDFE8521DC
S31500002580FFF7FAFEEFF31081012383F31088084B5F
S315000025909A6842F000629A609B6881F31088002076
S315000025A0236845F8230038BD00E100E0EC970120E0
S315000025B00040084070B5437B0D46934213D0144645
S315000025C04268802C166816D0802B2BD00221FFF78C
S315000025D0D3FE026802EB0612536823F0E06343EA77
S315000025E0046353604473037BAB4202D02946FFF772
S315000025F0C3FE002070BD0121036803EB061CDCF856
S31500002600042003F5805322F08072CCF80420D3F81E
S31500002610082301FA06F61643C3F80863C3F80C1339
S315000026204473E0E701210368B14003F58053D3F812
S31500002630082322EA0102C3F80823D3F80823002A54
S31500002640C4D1C3F80C23C1E7F0B513795579DB077C
S3150000265043EA857344681568272943EA0503246815
S31500002660056828D801EB84142E1996F8D06736072A
S3150000267062D405EBC41C0CF5803CCCF8003096798E
S31500002680E301082E61D9182E59D937090B373F07B0
S31500002690CCF80470976803F5803C07F0070EEF1836
S315000026A007F580330CF10C0CC3F808E0AC4402F1DA
S315000026B00C0336BB33E0A1F1280604EB4404344492
S315000026C005EBC41C0CF5C04CCCF800349679E3013C
S315000026D0082E2FD9182E3AD937090B3746F2084E4D
S315000026E03F07CCF80474976803F5C84C07F0070752
S315000026F02B440CF10C0C43F80E70AC4402F10C03A5
S315000027009EB106F10C0E72440CF1FF3C13F801EB7E
S315000027109A420CF801EFF9D12729056805D801225C
S315000027202B1983F8D0220020F0BDFF22903445F803
S315000027302420F8E73746D1E74EF66320F0BDA6F130
S315000027400807BF080837FFB2A1E737469FE7A6F19B
S315000027500807BF080837FFB2C0E700BF00222DE90F
S31500002760F04F0B6883B000938B68D1F810B0CE4E53
S315000027700361CB6888460746C0E90523DBF81C5091
S3150000278006604160EFF31081012383F31088C74B85
S315000027909A6822F000629A609B6881F31088D6F8E6
S315000027A08C30DB0700F13181C14B019395F82C3059
S315000027B0C04A1B01DBB282F80333019BDF60BE4BCC
S315000027C0D3F80C1321F48031C3F80C13D3F80C336F
S315000027D0BFF35F8F0823C2F8803113604FF4807314
S315000027E00099B64AB04D012942F82170DBF800A0E5
S315000027F0C5F8983021D0002441F60806009B03F066
S31500002800010904F00F0E22090EF5C07C42F4807215
S3150000281005EB0C1CC5F898209AE80F008CE80F0011
S3150000282005EB0E1E5EF80630013469F3C713202C43
S315000028300AF1100A4EF80630E3D100249A4B012122
S315000028403846C3F89840FFF797FDDBF81450D8F8E0
S31500002850046069683368FF29084628BFFF20013BEA
S31500002860C3F3090C2B680139013BDBB243EA0123B0
S315000028707168934A01394CEA4141D6E902C60CF126
S31500002880FF3C013E41EA4C6141EA8621D5E90265F9
S31500002890013E43EA0643009E013D43EA05633501D6
S315000028A005F1804505F530252960710101F180416A
S315000028B001F53121C1F800349BF818304FEAC60AF9
S315000028C05B0243EA004343F4806343F00103C1F82B
S315000028D00434DBF80800DBF80C10524403C2DBF8C2
S315000028E0103043F003036B6098F91530A34226DBE2
S315000028F098F8142003F160411201D2B201F561414A
S3150000290081F80023019A03F1C00142F823706A4A54
S3150000291052F8210064F3104042F8210052F82120B9
S31500002920BFF35F8F012203F01F015B099B0003F1D8
S31500002930604303F561438A40C3F880211A6098F921
S315000029401730002B26DB98F8142003F160411201A2
S31500002950D2B201F5614181F800230199564A41F846
S31500002960237003F1C00152F8210020F4803042F8B0
S31500002970210052F82120BFF35F8F012203F01F01CF
S315000029805B099B0003F1604303F561438A40C3F88A
S3150000299080211A6098F91630002B27DB98F814204E
S315000029A003F160411201D2B201F5614181F80023C1
S315000029B00198414A03F1C00140F8237052F8210002
S315000029C020F4803042F8210052F82120BFF35F8FB7
S315000029D001215A09920003F01F0302F1604202F539
S315000029E0614201FA03F3C2F8803113603846802150
S315000029F0FFF7C2FC0021FFF7BFFC00231846314A4F
S31500002A00BB81BA6003B0BDE8F08FD6F88C4014F0F5
S31500002A100804FAD181213846FFF7AEFC4FF4001CBA
S31500002A2023466A682849C6F88420C6F89CC0C1F8BF
S31500002A301443AA6A1C48C6F8AC202A1D03F13001CB
S31500002A4052F8046F0133082B40F82160F6D195F84F
S31500002A502D30184A1B01DBB282F80433144B0021D7
S31500002A601E460193144B3161D3F8106361F310468F
S31500002A70C3F81063D3F81033BFF35F8F1023C2F887
S31500002A80803113602A4652F82C3B074EC0F8883036
S31500002A9052F8043F04F14801013423F00103062CE7
S31500002AA046F82130F4D181E600000B400040084092
S31500002AB09897012000E100E000600040EC970120BB
S31500002AC0500F0B404446435200100B4070B598B06F
S31500002AD0EFF30383103B5BB2032B2BD01C462D4B2D
S31500002AE05A2200210DF1060053F8245001F05CFE35
S31500002AF04FF4807200216B68ADF804201E682B68C5
S31500002B00284603EB0613DA6892B20292D960AB69E3
S31500002B10694600960493FFF711FC1F4A04F1C003AF
S31500002B2052F8231021F4803142F8231052F8233052
S31500002B3018B070BD194B6022002168461C6801F070
S31500002B4033FE4FF4805300212268ADF80430D2F8EA
S31500002B509030180C1B0403EB007302939B03C2F81E
S31500002B6090100ED5D2F8A83293FAA3F3B3FA83F3F2
S31500002B7002EB83020393D2F8E03023F00403C2F899
S31500002B80E030A3692046694604930324FFF7D6FB89
S31500002B90C3E700BF9897012000600040EC97012032
S31500002BA02DE9F043284D99B0D5F8AC4294FAA4F437
S31500002BB0002C38D0B4FA84F4072C34DC01274FF407
S31500002BC08062D5F8A032A74004F120083B42CDF838
S31500002BD00C80ADF804201BD105EBC41606F5C046E3
S31500002BE0DFF86C90083633684146C3F30123164874
S31500002BF005AA0093FFF732FB009B694659F82300AC
S31500002C0083690493FFF79AFBD5F8A0323B42EAD0DA
S31500002C10A40004F1804404F53024D4F8E03023F015
S31500002C200803C4F8E030084BD3F8AC3243B9074A7E
S31500002C30D2F8101363F31041C2F81013D2F8103310
S31500002C4019B0BDE8F08300BF00000B4000600040F3
S31500002C50EC9701202DE9F04399B0EFF30384454B3F
S31500002C60103C64B253F82490D9F80430D9F81820EF
S31500002C701F68D9F800101D6901F59858009704924D
S31500002C8018F80730B844002B61D007262AE04FF425
S31500002C90006003F5617301EB83021368ADF804006D
S31500002CA093FAA3F31BB1B3FA83F3072B07DD53683B
S31500002CB093FAA3F3002B5AD0B3FA83F3203303EB32
S31500002CC08712114491F8D02722F0060281F8D02706
S31500002CD0694648460393FFF731FB98F80030B3B3D3
S31500002CE0D9F8001098F800207B00D0B2D20727F060
S31500002CF00047CCD4020723D5EA690C3352F82330B7
S31500002D00D1F8B40213F4805F0CBF4FF400534FF4B4
S31500002D10006307EB470206FA02F20240ADF8043000
S31500002D2092FAA2F202B3B2FA82F202F1280301EB9E
S31500002D308202D2F8E01121F01001C2F8E011C7E7D3
S31500002D4003F56B734FF4007001EB8302A5E70A4BA2
S31500002D50C03453F8242022F4803243F8242053F858
S31500002D60243019B0BDE8F08348232022DFE7402352
S31500002D70A5E700BF98970120006000402DE9F043C9
S31500002D8099B0EFF303892F4BA9F110094FFA89F98E
S31500002D9053F82960D6E90003D0F8B0421A6804F067
S31500002DA03F0494FAA4F4002C47D0B4FA84F3012526
S31500002DB013F01C0F03F108011C4618BF03F00303B0
S31500002DC005FA01F50CBF2833283303934FF48063CB
S31500002DD0ADF80430D0F8A03200922B4214D1DFF8BF
S31500002DE06C8004F12807394605AAFFF737FA009BDD
S31500002DF0694658F8230083690493FFF79FFA306801
S31500002E00D0F8A0322B42EED000EB8404D4F8E031A7
S31500002E1023F00803C4F8E031D0F8B03253B90A4AB7
S31500002E2009F1C00952F8291063F3104142F829103C
S31500002E3052F8293019B0BDE8F0834FF48075282385
S31500002E40C3E700BF9897012000600040EC9701207F
S31500002E5010B582B0EFF30383103B0D4A5BB203F16A
S31500002E60C00152F8210020F4803042F8210052F8C7
S31500002E702120084A01A852F823406269E3680192BA
S31500002E809847A368DA680AB101221A7702B010BD22
S31500002E90006000409897012070B5836984B00446AD
S31500002EA08C46164601AD9BB193E8070085E80700FE
S31500002EB083F804C0E26918469E601A606369984701
S31500002EC0A3691BB195E8070083E8070004B070BD4D
S31500002ED02B46EDE72DE9F041EFF30382103A7A4CE9
S31500002EE04FFA82FC0CF1C00E54F82E104FEA8C03F8
S31500002EF021F4803103F1804344F82E1003F5C043DA
S31500002F00D3F80013714951F82C0041680D78CE6949
S31500002F10012D09D043692BB1BDE8F04100221146CD
S31500002F20FFF7BABFBDE8F0814FF00008D0E90217FD
S31500002F308F60C1F84880C1F84C80C1F8508054F8C1
S31500002F402E1002F0FF0268F3104144F82E10D3F859
S31500002F500033BFF35F8F5E494FEA5C1302F01F0236
S31500002F6005FA02F2603341F8232096F84830DA0772
S31500002F7003D596F92820424576DA9B0704D596F9BB
S31500002F802930002B80F2878096F92A30002B53DAFD
S31500002F9096F92B30002B37DA96F92C30002B1BDAFA
S31500002FA096F92D30002BB5DB474A03F1C00152F8E4
S31500002FB0214024F4803442F8214052F82120BFF306
S31500002FC05F8F01215A09424C03F01F03603201FA58
S31500002FD003F344F822309DE73B4A03F1C00152F85F
S31500002FE0214024F4803442F8214052F82120BFF3D6
S31500002FF05F8F01215A09364C03F01F03603201FA34
S3150000300003F344F82230CBE72F4A03F1C00152F80C
S31500003010214024F4803442F8214052F82120BFF3A5
S315000030205F8F01215A092A4C03F01F03603201FA0F
S3150000303003F344F82230AFE7234A03F1C00152F804
S31500003040214024F4803442F8214052F82120BFF375
S315000030505F8F01215A091E4C03F01F03603201FAEB
S3150000306003F344F8223093E702F1C00354F823C077
S3150000307068F3104C44F823C054F82330BFF35F8F35
S31500003080540902F01F02954004F1600241F82250F3
S3150000309096F8483071E70C4A03F1C00152F8214016
S315000030A024F4803442F8214052F82120BFF35F8F88
S315000030B001215A09064C03F01F03603201FA03F39B
S315000030C044F8223060E700BF006000409897012076
S315000030D000E100E030B5836B83B004460A466D46D6
S315000030E0A3B193E8030085E80300E16B1A71184663
S315000030F0626B19609047A36B1BB195E8030083E8E8
S315000031000300002384F82B3003B030BD2B46ECE7D8
S315000031102DE9F0434022002403691C701A701A78C6
S315000031205206FCD5C0260268DFF89491576AD2F899
S3150000313004E01E703E794FF0000C46F0E0061E7467
S31500003140FE784FF0B30846F0E0065E74BE78594C40
S31500003150360106F0700646F008069E703E787F78C7
S31500003160012E14BF04260526CE4514BF4FF0770E58
S315000031704FF0F70E46EA4706F6B2DE7083F805E032
S3150000318083F806C083F807804E7B91F911304A4DCB
S3150000319036014A4AE718F6B287F8006303F1C0061B
S315000031A045F8230052F826706CF3104742F8267053
S315000031B052F82660BFF35F8F4FF0010E5E09B6002E
S315000031C003F01F0306F1604606F561460EFA03F3A7
S315000031D0C6F8803133604E7B91F90F303601E7181F
S315000031E0F6B287F8006303F1C00645F8230052F8EB
S315000031F026706CF3104742F8267052F82660BFF32B
S315000032005F8F5E09B60003F01F0306F160460EFAF3
S3150000321003F306F56146C6F8803133604E7B91F9BB
S3150000322010303601E718F6B287F8006303F1C006DE
S3150000323045F8230052F826706CF3104742F82670C2
S3150000324052F82660BFF35F8F5E09B60003F01F03D6
S3150000325006F160460EFA03F306F56146C6F88031BC
S3150000326033604B7B91F90E101B010C44DBB284F8E2
S31500003270003301F1C00345F8210052F823406CF3F6
S31500003280104442F8234052F82330BFF35F8F4B09B6
S315000032909B0001F01F0103F160430EFA01F103F5F3
S315000032A06143C3F8801119609F2203691A70BDE853
S315000032B0F08300BF00E100E0989701200060004025
S315000032C040420F0010B582B0EFF30383103B5A4A19
S315000032D05BB2C03352F8231021F4803142F8231038
S315000032E052F82330EFF30383544A103B5BB252F893
S315000032F0234094F82D304BBBA369022B20D9E369F8
S31500003300012B0CD123691A7942F010021A711A792D
S3150000331042F008021A711A7922F010021A71236813
S315000033205B6ADB79002B3ED101222369DB7CDBB2B1
S315000033308DF807309DF8073084F82D2002B010BDB7
S315000033402269137943F040031371D8E7E369002B30
S31500003350F4D02268526AD279FAB9032B17D0022B1D
S3150000336026D0012B32D02269D17C236A6269D154DE
S31500003370D4E907320132013BC4E90732002BDDD123
S3150000338021690A7963F386120A7102B010BD2269B7
S31500003390137943F040031371E6E705212046FFF752
S315000033A099FEE369D9E705212046FFF793FEBBE7BF
S315000033B02269137943F010031371137943F008035C
S315000033C01371137923F010031371CDE794F82A20B3
S315000033D04AB322681A4892F90F20510902F01F02D7
S315000033E003FA02F2203140F82120BFF34F8FBFF3DA
S315000033F06F8F04202269D17941F08001D171117952
S3150000340041F010011171117921F008011171117942
S3150000341021F0100111715070517921F001015171A3
S3150000342084F82C30A0E708212269537A03F0F703C9
S315000034305372517098E700BF0060004098970120D2
S3150000344000E100E010B5EFF30383103B3C4A5BB2AA
S31500003450C03352F8231021F4803142F8231052F879
S315000034602330EFF30383374A103B5BB252F8234015
S3150000347094F82730002B3BD194F82930002B36D115
S3150000348023685B6ADB792BB194F82B3013B9236A76
S31500003490002B50D1E3692169002B3AD1CB79C022A8
S315000034A023F08003CB7101E0013A02D0CB79DB092E
S315000034B0FAD12368224A93F9103003F1C00052F87A
S315000034C0204024F4803442F8204052F82020002B7B
S315000034D009DB01205A091C4C03F01F03603200FA75
S315000034E003F344F82230CB7943F04003CB7110BD8F
S315000034F094F8261094F82820032915D094F824006F
S3150000350021690132013B887484F8282084F8273029
S3150000351010BD226A6069013B805C01328874C4E98F
S315000035200732002BBAD010BD022AE7D194F830102A
S315000035300029E3D110BD05212046FFF7CBFDA9E701
S31500003540006000409897012000E100E038B5EFF3F5
S315000035500383314A103B5BB252F8234023685B6A0F
S31500003560DB79002B45D194F829301BB194F827302C
S31500003570012B4BD0E369D3B12169CA79C02322F06C
S315000035804002CA7101E0013B02D0CA795206FAD460
S31500003590EFF30383103B214A5BB2C03352F823108A
S315000035A021F4803142F8231052F8233038BD94F8C4
S315000035B02A201AB301202268194D92F90F205109C9
S315000035C002F01F02203100FA02F245F82120BFF373
S315000035D04F8FBFF36F8F2169CA7942F08002CA719B
S315000035E004224A704A7963F300024A7184F82C0077
S315000035F0C3E705212046FFF76DFDB4E708222169E0
S315000036004B7A03F0F7034B724A70B6E794F8303002
S31500003610002BAFD1B0E700BF9897012000600040B3
S3150000362000E100E038B5EFF303834B4A103B5BB291
S3150000363052F8230003695A7A597AD50601F0E00157
S3150000364059725FFA82FC02F003012AD55A785406B1
S315000036504CD400240125016880F82B50DC71FFF75B
S3150000366057FDB32290F8263080F82C4080F8283099
S31500003670C46180F82A400369846929460462DA71C4
S31500003680FFF728FDEFF30383103B344A5BB2C033E8
S3150000369052F8231021F4803142F8231052F82330D7
S315000036A038BD0029D5D11CF0080F10D0C269002AF8
S315000036B042D190F82B20002A3ED1B32290F829104F
S315000036C0DA71C1F10301C9B2FFF704FDDAE790F838
S315000036D02C100CF0040231B3002AD3D0C269002AA0
S315000036E038D190F82B20002A34D1E6E70029B0D152
S315000036F05A78C2F380115206D5D50822046880F89C
S315000037002B10616A88795A700A78497942EAC012A0
S3150000371042EA011242F00202D2B2DA705A7942F05B
S3150000372001025A71AEE7002AACD003685B6ADB7906
S31500003730002BA7D00421C7E70022B32190F826402A
S3150000374080F82C2080F828408469C261046280F8E1
S315000037502A20D9710121B7E798970120006000401F
S315000037602DE9F84F0388DBB182464FF0000B4FF08E
S315000037700109DFF8D0800024304D4FEACB07DAF894
S31500003780043035F8022BD919898891420AD00134C0
S31500003790032CF4D1BAF800300BF1010B5B45EAD8E3
S315000037A0BDE8F88FDB5909FA04F603F0B853B3F114
S315000037B0807FF6B298F8BB3413D0334231D1204A19
S315000037C004F1200612F81630DB09E0D012F81630A4
S315000037D0012123F08003C82002F81630FEF70AFC08
S315000037E0D5E7334211D0164A04F1200112F8113000
S315000037F0DB09CCD112F81130C82043F0800302F85F
S3150000380011300121FEF7F6FBC1E70120FEF7D2FCDD
S3150000381098F8BB340120334388F8BB34FEF79AFC92
S31500003820E1E70120FEF7C6FC98F8BB34012023EA45
S31500003830060388F8BB34FEF78DFCC0E7DC540000B5
S315000038400030084000E00140F8B50446FFF788FF65
S31500003850EFF31082012383F31088234F3B681BB9D3
S315000038602249CB704023CB703B6801333B6082F327
S31500003870108823882BB361681D4C01EBC30E06E04C
S315000038801B01083113448E4544F8230019D00868FB
S315000038908A88C5034FEA1223D2B2F1D502EB031C84
S315000038A054F82C601B01083120F4803526F480364C
S315000038B013448E4544F82C6044F82C5044F82300F9
S315000038C0E5D1EFF31082012383F310883B6813B12F
S315000038D03B68013B3B603B681BB980200349CB70CA
S315000038E0C87082F31088F8BD94970120000D084037
S315000038F00008084008B5034B03600846FFF7A4FF1D
S31500003900002008BD54524F50F0B5846A85B0054674
S315000039100F4694466E46B4B194E80F0086E80F0051
S31500003920EB6920461B7884F804C02360EB6AC4E97F
S3150000393002736B6A9847AC6A1CB196E80F0084E87C
S315000039400F0005B0F0BD3446EAE700BF10B4EFF350
S315000039500383103B224A5BB203F1C00152F82100F7
S3150000396020F4803042F8210052F821201D4A52F8F6
S315000039702300C3691B69ABB1036913B15DF8044B3E
S315000039807047026A00219378446A03F07F0343F08C
S3150000399004039370C160002CF0D080225DF8044BC4
S315000039A0FFF7B2BF0369026A002BEBD08178C468C7
S315000039B001F0030CBCF1020F0AD094F800C082F8A3
S315000039C003C001F003029B1A1444C0E90343D4E781
S315000039D0B4F800C04CF47E4CA2F80EC0F1E700BF6C
S315000039E0006000409897012010B582B0EFF3038382
S315000039F0103B1F4A5BB203F1C00152F8210020F4CC
S31500003A00803042F8210052F821201A4A52F8234009
S31500003A10A27802F00303022B236A0CBF198A597994
S31500003A20A3690CBFC1F30801C9B2019143B9636A26
S31500003A30B3B10422204602B0BDE81040FFF764BFD0
S31500003A4002F0030201A9606900F0B6FED4E905217F
S31500003A50A37803F003031A44C91AC4E9052109B17E
S31500003A6002B010BD636A002BFAD00122E2E700BF64
S31500003A70006000409897012010B5EFF303830E4ACB
S31500003A80103B5CB252F82400D0E90821937803F089
S31500003A907B03937019B102220021FFF735FF074A15
S31500003AA004F1C00352F8231021F4803142F82310A8
S31500003AB052F8233010BD00BF9897012000600040E7
S31500003AC010B5EFF303831A4A103B5CB252F8240098
S31500003AD0837803F00303022B036A0CBF198A597912
S31500003AE093F804C00CBFC1F30801C9B21CF0100F53
S31500003AF00CF0380206D093F81CC01CF0010F08BF6A
S31500003B0042F0400293F804C00CF0C70C83F804C0DE
S31500003B10436A0BB1FFF7F8FE064A04F1C00352F8F8
S31500003B20231021F4803142F8231052F8233010BDBF
S31500003B30989701200060004030B5836A85B004463E
S31500003B408C4601ADABB193E8070085E807006268D3
S31500003B501846117883F804C0E26A19609A60636AAD
S31500003B609847A36A1BB195E8070083E8070005B0EC
S31500003B7030BD2B46EBE700BF10B4EFF30383103BD9
S31500003B80214A5BB203F1C00152F8210020F48030D3
S31500003B9042F8210052F821201C4A52F82330D3E97A
S31500003BA006218A421CD018699C6838B393F820C055
S31500003BB0BCF10F0F0AD9616840F82210D9690132A9
S31500003BC08A429A610CD05DF8044B7047BCF1070F2E
S31500003BD016D821798154D96901328A429A61F2D183
S31500003BE05B6893F90330012203F01F0008495B0963
S31500003BF0824041F823205DF8044B70476068DEE799
S31500003C00A48820F81240DAE7006000409897012067
S31500003C1000E100E030B4EFF30382103A344953B2C6
S31500003C2003F1C00051F8204002F0FF0224F4803472
S31500003C3041F8204051F820102E4951F823008168A0
S31500003C40C978890705D54168497A012901D030BC70
S31500003C5070470121284C5B0902F01F02203301FA4C
S31500003C6002F244F82320BFF34F8FBFF36F8F4368F0
S31500003C7093F90230002B32DB5A0903F01F0301FAD5
S31500003C8003F3203244F82230BFF34F8FBFF36F8F18
S31500003C90D0E90124237892F9022023F04003002A78
S31500003CA0237018DB124B02F1C00453F8245025F49C
S31500003CB0803543F8245053F82430BFF35F8F5309FF
S31500003CC09B0002F01F0203F16043914003F561433C
S31500003CD0C3F880111960012130BCFFF72DBF82683F
S31500003CE0012130BC137823F040031370FFF724BF83
S31500003CF0006000409897012000E100E070B5EFF306
S31500003D000383364A103B5CB252F82460736893F919
S31500003D100230002B49DB012031495A0903F01F0309
S31500003D20203200FA03F341F82230BFF34F8FBFF37E
S31500003D306F8FD6E9013293F902301178002B21F00A
S31500003D404001117019DB274A03F1C00152F82150D6
S31500003D5025F4803542F8215052F82120BFF35F8FB9
S31500003D6003F01F025B099B0003F16043904003F5DB
S31500003D706143C3F880011860B2680021D378D1701E
S31500003D801A07DDB224D4EB0715D405F01405142D5B
S31500003D9019D0144A04F1C00352F8231021F48031DB
S31500003DA042F8231052F8233070BDB268137823F01E
S31500003DB040031370E1E70421304605F01405FFF7D0
S31500003DC0BBFE142DE5D108213046FFF7B5FEE0E72E
S31500003DD005213046FFF7B0FED5E700BF98970120D2
S31500003DE000E100E00060004000BEFEE71EF0040FA8
S31500003DF00CBFEFF30880EFF3098001490847000084
S31500003E00913E00000F4B1968EFF309821EF0100F68
S31500003E1008BF22ED108A22E9F04FEFF30B8342F838
S31500003E20043D0A604FF0100080F31188BFF34F8FF6
S31500003E30BFF36F8FFDF798FB4FF0000080F31188FA
S31500003E4000F002B848960120074801680A6802CACD
S31500003E5081F30B88B2E8F04F1EF0100F08BFB2ECEA
S31500003E60108A82F3098870474896012010B5EFF34F
S31500003E701184102383F31188FDF766FB18B14FF008
S31500003E808052024B5A6084F3118810BD00ED00E0A9
S31500003E9008B5836913F8023C022B02D0032B04D821
S31500003EA008BDBDE80840FFF7CFBF4FF47E71024B57
S31500003EB0024A0348FEF796F8E05000000C55000051
S31500003EC0F450000070B44FF080756FF00204094E94
S31500003ED0283122F0010240F80C6C40F8045C40F8EE
S31500003EE0244C40F8203C40F8082C70BC40F8481D93
S31500003EF0704700BFE93D000008B5EFF311811023BC
S31500003F0083F311880A4A13680133012B136000D02A
S31500003F1008BD084A084B11605B68C3F30803002B11
S31500003F20F6D040F2A441054B054A0648FEF75AF87A
S31500003F30F8970120F497012000ED00E044510000BD
S31500003F40F8540000F4500000094A08B513683BB164
S31500003F50013B13601BB9074B1B6883F3118808BD2F
S31500003F6040F2AD41044B054A0548FEF73BF800BF59
S31500003F70F8970120F49701208C510000E4540000CA
S31500003F80F45000000D4B0E4A1B68A2FB03239B094D
S31500003F90013BB3F1807F00D370474FF0E0224FF032
S31500003FA0F00C0020072110B4064C536184F823C09E
S31500003FB05DF8044B90611161704700BF5097012076
S31500003FC0D34D621000ED00E0F02208B50B4B83F8EC
S31500003FD02220FFF7D7FF0A4A536B43F0404353634F
S31500003FE062B6BFF36F8FEFF3148C2CF0040C8CF3D6
S31500003FF01488BFF36F8F02DF00BEFDE700ED00E01F
S3150000400000EF00E010B5044600F068F82046BDE871
S31500004010104000F0D7B800BF30B501240D480E4A55
S3150000402003680E4D85B01919CDE901250C4B0160C9
S315000040304FF400620B490C480094FDF7A9F80B4BAE
S31500004040186008B105B030BD014605B0BDE8304086
S3150000405000F042B8B89D0120D09D012000980120B3
S3150000406020550000A051000005400000FC970120EB
S3150000407010B5044600F032F82046BDE8104000F0C6
S31500004080DDB800BF30B502250C480D4C036883B07F
S31500004090591C01944FF4007201600A4B0A490B48FF
S315000040A00095FDF7C5F8012801D103B030BD002108
S315000040B0206803B0BDE8304000F00EB8B89D01207E
S315000040C08498012024550000AC5100007140000086
S315000040D0704700BFFFF7FCBF00BE704738B5164CEF
S315000040E04FF0FF312068FCF7E7FC012803D00021E0
S315000040F02068FFF7F1FF114B1A7802B138BD012293
S315000041001A70FFF7E7FF0E4D2B68013B2B60002B63
S31500004110F4D0002320681A461946FCF745FB01280F
S31500004120F2D000212068FFF7D7FF2B68013B2B60F8
S31500004130002BEED138BD00BFB09D0120B49D0120FB
S31500004140B89D012038B500230C4D0D4C01214FF4CC
S3150000415080700C4A2B602370FCF7E6FA0A4B186055
S3150000416038B1FFF78FFFFFF757FFFDF791F80020F3
S3150000417038BD0146FFF7B0FFF3E700BFB89D012049
S31500004180B49D0120609D0120B09D0120802330B4A4
S31500004190034D044C05600C60136030BC704700BFD3
S315000041A0F89C0120F89A0120802330B4034D044C7A
S315000041B005600C60136030BC704700BF909A012008
S315000041C09098012008B50A20FDF78EF9FBE700BF9D
S315000041D08388B3F5806F00D07047837E032BFBD1B5
S315000041E049F6FD73028C9A42F6D190F822306B2B79
S315000041F0F2D14369B3F5807F0CD0B3F5007F0DD0C3
S31500004200B3F5407F0ED0B3F5806FE5D10122074BA1
S315000042101A70E1E70122064B1A7070470122054B1E
S315000042201A7070470122044B1A707047C49D012012
S31500004230C79D0120C69D0120C59D012008B500F03F
S3150000424003FA00F017F800F02DF84FF47A60FDF746
S315000042504BF904215520DFED050A9FED050A00F014
S31500004260ABF80A20FDF740F9FBE700BF00000000AD
S315000042700000D24308B501214FF4807000F0ECF93C
S3150000428001214FF4007000F0E7F901214FF440706E
S3150000429000F0E2F9BDE8084001214FF4806000F02B
S315000042A0DBB900BF38B50024104D1149114B124A35
S315000042B02C704FF440700C70214614701C7000F086
S315000042C0DFF94FF47A60FDF70FF921464FF480705D
S315000042D000F0D6F921464FF4007000F0D1F92146DE
S315000042E0BDE838404FF4806000F0CAB9C79D012090
S315000042F0C69D0120C49D0120C59D0120DFED2A7ABF
S31500004300B4EEE70AF1EE10FAF0B506460F4615468A
S3150000431083B01EDCDFED257A20EE270AFDEEC07A9B
S3150000432017EE901ADFED207AF4EEE70AF1EE10FAB6
S3150000433018DCDFED1E7A60EEA70AFDEEE07A1C4B74
S3150000434017EE904A1B789BB11A4B1B78F3B103B05A
S31500004350F0BDDFED157AF4EEE70AF1EE10FA44F25D
S315000043605061E6DD124B44F250641B78002BEBD112
S315000043703B4632464FF48070009500F0A5F90A20BE
S31500004380FDF7B2F80B4B1B78002BE0D13B463246CB
S3150000439021464FF40070009500F096F90A2003B00C
S315000043A0BDE8F040FDF7A0B80000D243B76D2B4240
S315000043B0C79D0120C69D01202DE9F0412DED028B00
S315000043C0034684B0F0EE408AB0EE608A00223C21BB
S315000043D04FF49670DFED580A9FED580A0393FFF7E6
S315000043E08DFF574C574E2378002BFCD03378002B8B
S315000043F0F9D0002740F2DC524FF440703B46524958
S315000044000097524D00F060F9277037702B78002B1B
S31500004410FCD0DDED037AB8EE677ADFED4D7AF6EE85
S31500004420006A77EEC77A67EEA67AF5EEC07AF1EE05
S3150000443010FA7ED4DFED476A9FED477A67EEA67ADB
S3150000444077EE877AFDEEE77A17EE901A21EAE171A8
S31500004450B1F5FA6FA8BF4FF4FA614FF000083F4F6D
S315000044603C2396224FF48060CDF8008087F80080C8
S3150000447000F02AF90A20FDF737F885F800803B7826
S31500004480002BFCD00022DFED360A9FED2C0A3C21E2
S315000044904FF49670FFF732FF00233B702378002B12
S315000044A0FCD03378002BF9D0002740F2DC5264218F
S315000044B04FF440703B46009700F006F927703770BE
S315000044C02B78002BFCD0F3EE040A0022B0EE680A2B
S315000044D03C214FF4967078EE200A2A70FFF70EFF03
S315000044E02378002BFCD03378002BF9D0002340F240
S315000044F0DC5200934FF4407023701349337000F080
S31500004500E3F82B78002BFCD000214FF48060297053
S3150000451000F0B6F84FF4FA70FCF7E6FFFFF7C2FEBC
S315000045204FF47A6004B0BDEC028BBDE8F041FCF7B5
S31500004530DBBF562191E700BF00809543000048424B
S31500004540C79D0120C69D0120400D0300C59D012089
S3150000455000000243BDE92D42BDE9AD42C49D0120E4
S315000045600080AE434FF0000C2DE9F04FE346E146E4
S31500004570334B99B09F681E680B78013ACDE900C3AA
S31500004580304C02905FFA82F80391A8EB0B02D2B28C
S31500004590072A28BF07224FF001039246ADF81830CC
S315000045A0019B029ACDF820908DF82030009BD845CB
S315000045B052FA83F305930AF10103CDF81C90CDF866
S315000045C024908DF81A3009D0039B0BF10101524655
S315000045D053FA81F10DF1210000F0EEF84CF250355E
S315000045E00CE00121237808460B44DBB2082B28BFD8
S315000045F000232370FDF7FEFC013D14D030467B6896
S31500004600217805AA98470828EBD060B923780AEBE9
S315000046100B020133DBB2082B28BF00235FFA82FBB3
S31500004620D845237002D819B0BDE8F08F009B4FF42F
S315000046307A71013301200093FDF7DCFCA5E700BF8A
S3150000464028550000C89D0120024BD3E901121868C5
S31500004650126810472855000010B58C464AF6F33EFE
S315000046606B23002482B00522694600948DF804303D
S31500004670ADF800E08DF802C0FFF774FF02B010BD80
S31500004680042210B58C466B2340F29A2482B00DEBBF
S315000046900201ADF804408DF807308DF806C0FFF72B
S315000046A061FF0023044C05480549064A2380038020
S315000046B00B80138002B010BDC29D0120C09D012059
S315000046C0BE9D0120BC9D012030B585B00C468DF8FD
S315000046D008306B2352BAADF80620FD2201210546AB
S315000046E09DF820C08DF80F3084EAE473A3EBE473E1
S315000046F08DF804208DF80EC0E20F4FEA136C8DF88A
S315000047000D108DF805208DF80C308DF809C00C229F
S315000047104FEA134C01A91B0A8DF80AC08DF80B301D
S31500004720FFF720FFB5F5407F21D00DD8B5F5807F86
S3150000473015D0B5F5007F10D1114A138814FA83F30A
S315000047409BB2138005B030BDB5F5806F05D10D4A1B
S31500004750138814FA83F39BB2138005B030BD0A4A5E
S31500004760138814FA83F39BB2138005B030BD074A51
S31500004770138814FA83F39BB2138005B030BD00BFD3
S31500004780C09D0120BC9D0120C29D0120BE9D01202F
S31500004790022800D0704702490248FFF7ABB800BFB5
S315000047A04C5500008898012002440346934200D1EC
S315000047B0704703F8011BF9E70A44431E914200D1F2
S315000047C0704710B511F8014B914203F8014FF9D12A
S315000047D010BD00002820282075696E74385F74208B
S315000047E02A20292028207078426C6F636B202920AC
S315000047F03E3D202628207563486561705B20302089
S315000048005D20292029202626202820282075696E4B
S3150000481074385F74202A20292028207078426C6F13
S31500004820636B2029203C3D2026282075634865615E
S31500004830705B202831303234303029202D20312051
S315000048405D20292029000000443A2F52656E6573C9
S3150000485061735F70726F6A6563742F72656E6573DC
S3150000486061736375705F736D6172746D656469639E
S31500004870696E652F72612F6177732F467265655277
S31500004880544F532F4672656552544F532F536F75CD
S315000048907263652F706F727461626C652F4D656D02
S315000048A04D616E672F686561705F342E630000008E
S315000048B02820282075696E74385F74202A202920E4
S315000048C02820707652657475726E2029203E3D2030
S315000048D02628207563486561705B2030205D20299D
S315000048E02029202626202820282075696E74385F06
S315000048F074202A2029202820707652657475726EDD
S315000049002029203C3D202628207563486561705B80
S31500004910202831303234303029202D2031205D20BE
S3150000492029202900282028207078426C6F636B2D7F
S315000049303E78426C6F636B53697A652029203C2070
S3150000494028207857616E74656453697A652029203A
S3150000495029203D3D2030000028202820282073698A
S315000049607A655F7420292070784E6577426C6F6394
S315000049706B4C696E6B202920262028203078303039
S31500004980303720292029203D3D20300028202820AE
S31500004990282073697A655F742029207076526574C1
S315000049A075726E2029202620282073697A655F7427
S315000049B0202920282030783030303720292029201F
S315000049C03D3D2030000000002820282075696E74C7
S315000049D0385F74202A202920282070784C696E6B55
S315000049E02029203E3D202628207563486561705B9E
S315000049F02030205D20292029202626202820282036
S31500004A0075696E74385F74202A20292028207078F2
S31500004A104C696E6B2029203C3D2026282075634872
S31500004A206561705B202831303234303029202D20EA
S31500004A3031205D2029202900282028202820707870
S31500004A404C696E6B2D3E78426C6F636B53697A6569
S31500004A50202920262028202820282073697A655FAF
S31500004A6074202920312029203C3C2028202820732E
S31500004A70697A656F66282073697A655F74202920D4
S31500004A802A202820282073697A655F742029203817
S31500004A9020292029202D20312029202920292021C4
S31500004AA03D2030202920213D2030000070784C69BF
S31500004AB06E6B2D3E70784E65787446726565426CF5
S31500004AC06F636B203D3D202828766F6964202A2974
S31500004AD0302900002820282075696E74385F7420FC
S31500004AE02A202920282070784974657261746F72B3
S31500004AF02029203E3D202628207563486561705B8D
S31500004B002030205D20292029202626202820282024
S31500004B1075696E74385F74202A20292028207078E1
S31500004B204974657261746F722029203C3D202628E5
S31500004B30207563486561705B20283130323430302F
S31500004B4029202D2031205D202920290078517565E6
S31500004B5075650000443A2F52656E657361735F7028
S31500004B60726F6A6563742F72656E657361736375C0
S31500004B70705F736D6172746D65646963696E652FCC
S31500004B8072612F6177732F4672656552544F532FAA
S31500004B904672656552544F532F536F757263652F76
S31500004BA071756575652E630070785175657565005C
S31500004BB07852657475726E20213D202820282028A1
S31500004BC02042617365547970655F74202920302016
S31500004BD0292029007078537461746963517565756D
S31500004BE0650000007853697A65203D3D2073697A37
S31500004BF0656F66282051756575655F74202900000C
S31500004C0070784E6577517565756500007848616EF8
S31500004C10646C6500212820282070764974656D54DF
S31500004C206F5175657565203D3D202828766F69644E
S31500004C30202A29302920292026262028207078514C
S31500004C40756575652D3E75784974656D53697A6528
S31500004C5020213D2028205542617365547970655F97
S31500004C6074202920305520292029000021282028B9
S31500004C702078436F7079506F736974696F6E203D49
S31500004C803D202820282042617365547970655F7441
S31500004C902029203220292029202626202820707825
S31500004CA051756575652D3E75784C656E677468201F
S31500004CB0213D20312029202900000000212820281C
S31500004CC020785461736B4765745363686564756CCB
S31500004CD0657253746174652829203D3D202820287B
S31500004CE02042617365547970655F742029203020F5
S31500004CF0292029202626202820785469636B73549E
S31500004D006F5761697420213D203020292029000039
S31500004D10707851756575652D3E75784974656D5366
S31500004D20697A65203D3D20300000000021282028BA
S31500004D3020707851756575652D3E706348656164B0
S31500004D40203D3D202828766F6964202A29302920B5
S31500004D5029202626202820707851756575652D3EF8
S31500004D60752E7853656D6170686F72652E784D7516
S31500004D70746578486F6C64657220213D202828761A
S31500004D806F6964202A293029202920290000000083
S31500004D9028207078517565756520290021282028FE
S31500004DA020282070764275666665722029203D3D72
S31500004DB0202828766F6964202A2930292029202670
S31500004DC02620282028207078517565756520292DA4
S31500004DD03E75784974656D53697A6520213D2028B2
S31500004DE0205542617365547970655F7420292030BF
S31500004DF05520292029000000785461736B000000BB
S31500004E00443A2F52656E657361735F70726F6A659F
S31500004E1063742F72656E657361736375705F736D0E
S31500004E206172746D65646963696E652F72612F6165
S31500004E3077732F4672656552544F532F46726565D8
S31500004E4052544F532F536F757263652F7461736B92
S31500004E50732E630075785072696F72697479203C9D
S31500004E60202835290000000070785443422D3E75F5
S31500004E7063537461746963616C6C79416C6C6F63C4
S31500004E8061746564203D3D202820282075696E7474
S31500004E90385F74202920322029000000282028208D
S31500004EA028202820707844656C61796564546173A4
S31500004EB06B4C69737420292D3E75784E756D62654D
S31500004EC0724F664974656D73203D3D20282055421A
S31500004ED0617365547970655F74202920302029201C
S31500004EE03F202820282042617365547970655F74DD
S31500004EF0202920312029203A2028202820426173A9
S31500004F0065547970655F7420292030202920292076
S31500004F1029000000707578537461636B427566668C
S31500004F20657220213D202828766F6964202A293061
S31500004F302900000070785461736B4275666665726D
S31500004F4020213D202828766F6964202A29302900EF
S31500004F507853697A65203D3D2073697A656F6628C6
S31500004F60205443425F742029000000007852657483
S31500004F7075726E20213D2028202D31202900000049
S31500004F8075785363686564756C657253757370657F
S31500004F906E64656420213D203055000070785072A3
S31500004FA06576696F757357616B6554696D65000049
S31500004FB028207854696D65496E6372656D656E74F7
S31500004FC0203E203055202900757853636865647546
S31500004FD06C657253757370656E646564203D3D2023
S31500004FE0315500007578546F705072696F7269742C
S31500004FF07900000070784576656E744C69737400AC
S315000050007078556E626C6F636B6564544342000042
S31500005010707854696D654F75740000007078546936
S31500005020636B73546F57616974000000546D72515D
S315000050300000000028207854696D65725065726919
S315000050406F64496E5469636B73203E2030202900DB
S31500005050443A2F52656E657361735F70726F6A654D
S3150000506063742F72656E657361736375705F736DBC
S315000050706172746D65646963696E652F72612F6113
S3150000508077732F4672656552544F532F4672656586
S3150000509052544F532F536F757263652F74696D6544
S315000050A072732E63000000002820707854696D65C5
S315000050B0722D3E7854696D6572506572696F6449E8
S315000050C06E5469636B73203E203020290000000077
S315000050D0546D7220537663007852657475726E0053
S315000050E075635356434E756D626572203C3D2033A1
S315000050F000000000443A2F52656E657361735F705D
S31500005100726F6A6563742F72656E6573617363751A
S31500005110705F736D6172746D65646963696E652F26
S3150000512072612F6673702F7372632F726D5F667272
S31500005130656572746F735F706F72742F706F7274BF
S315000051402E6300002828285343425F547970652057
S315000051502A292028283078453030304530303055DF
S315000051604C29202B20307830443030554C292029CA
S315000051702D3E494353522026202830783146465545
S315000051804C202929203D3D203000000075784372CF
S3150000519069746963616C4E657374696E67000000BB
S315000051A04755495F54687265616400004D6F746FBE
S315000051B0725F7468726561640000000070727649FF
S315000051C06E73657274426C6F636B496E746F467270
S315000051D065654C697374000076506F72744672652B
S315000051E0650000007076506F72744D616C6C6F6371
S315000051F000000000765175657565416464546F5210
S31500005200656769737472790078517565756553655C
S315000052106D6170686F726554616B65007851756574
S315000052207565526563656976650000007851756538
S31500005230756547656E6572696353656E6400000047
S31500005240785175657565437265617465436F756EF2
S3150000525074696E6753656D6170686F7265537461CA
S315000052607469630078517565756547656E65726921
S315000052706343726561746553746174696300000009
S3150000528078517565756547656E65726963526573B4
S3150000529065740000785461736B436865636B466F91
S315000052A07254696D654F757400000000785461731F
S315000052B06B52656D6F766546726F6D4576656E7479
S315000052C04C69737400000000765461736B506C6116
S315000052D063654F6E4576656E744C6973745265737B
S315000052E07472696374656400765461736B506C61A3
S315000052F063654F6E4576656E744C69737400000085
S31500005300765461736B537769746368436F6E746523
S3150000531078740000785461736B496E6372656D65CD
S315000053206E745469636B0000785461736B526573D5
S31500005330756D65416C6C0000765461736B537461D6
S3150000534072745363686564756C6572007654617334
S315000053506B44656C6179000070727644656C6574A7
S315000053606554434200000000707276496E697469A4
S31500005370616C6973654E65775461736B000000005C
S3150000538070727643726561746553746174696354AF
S3150000539061736B000400000070727650726F636573
S315000053A073735265636569766564436F6D6D616E8F
S315000053B0647300007854696D657243726561746543
S315000053C054696D65725461736B0000000100020040
S315000053D008001000200000000400000080540000B7
S315000053E0080000000054000002000000F053000016
S315000053F00000006800000068A0000020A000002057
S3150000540000000068000000680000006000010C0851
S315000054100000006800000068000000700001090834
S315000054200000006800000068000000080001020893
S315000054300000006800000068880000000001010804
S3150000544000000020000000200000006000010C03A6
S315000054500000002000000020000000700001090389
S3150000546000000020000000200000000800000203E9
S3150000547000000020880000208800000000000103D2
S3150000548000000068000000680001000800000068D5
S31500005490000000680001000888000020A00000202D
S315000054A000000003C0040020C99D01200000000385
S315000054B05D27000049260000E1220000C12400000B
S315000054C0B5250000092200004D220000000102035C
S315000054D004050607080C10141820304002040304C3
S315000054E00404000076506F727445786974437269DB
