S020000072656E657361736375705F736D6172746D65646963696E652E7372656307
S3150000000060050020191E000079220000151E000060
S31500000010151E0000151E0000151E0000151E00000E
S3150000002000000000000000000000000099590000D8
S31500000030151E000000000000B1590000195A00000A
S31500000040D92C0000612E0000892F0000D92C000059
S31500000050AD2D0000194F00007D4E0000A94F000095
S31500000060F14F000075400000F5410000FD42000020
S31500000070D5430000D5560000C1570000A95800001E
S30D00000080C933000061390000DC
S3150000008840003500000010080000000000000000D5
S31500000098000000000000000070D40300000000000B
S315000000A8FF00000000000000001E00008000002085
S315000000B801000000380000200300000001000000D5
S315000000C8037300000273000002730000027300004D
S315000000D8027300000273000002730000027300003E
S315000000E8000000000C0C000000606000006060006A
S315000000F800606000006060000060600000606000F2
S31500000108010000000E0000000500000001000000CC
S31500000118010000003B00000014000000040000007D
S3150000012801FFFFFF00000080D4C3B2A16F000000EA
S3150000013821900200ED8F0200AD8F0200658F02004C
S31500000148718E020059900200398E02004C8D030010
S31500000158548D03005C8D0300188A0300648D030028
S315000001686C8D03007085030001020000000000008A
S315000001780300000010F60620FC0000200000000026
S3150000018810F6062078F60620E0F6062000000000A5
S315000001980000000000000000000000000000000051
S315000001A80000000000000000000000000000000041
S315000001B80000000000000000000000000000000031
S30D000001C8000000000000000029
S315000001D00348044B834202D0034B03B118477047D0
S315000001E0480100204801002000000000064B074996
S315000001F0C91A891048BF0131491003D0044B0BB10D
S3150000020001481847704700BF4801002048010020F8
S315000002100000000010B5064C237843B9FFF7D8FF5D
S31500000220044B13B10448AFF300800123237010BDC3
S31500000230800500200000000084A2000108B5054BDF
S315000002401BB105490548AFF30080BDE80840FFF73C
S31500000250CDBF00BF000000008405002084A200017D
S315000002604FF0FF31002200F10803C0E90131C0E977
S3150000027003330260704700BF00230361704700BF6D
S3150000028030B40D686B1C10D000F108031C465B6887
S315000002901A68AA42FAD902684B60013299608C60EA
S315000002A06160086130BC0260704704696368F2E708
S315000002B00346026910B45468406899689C4281609C
S315000002C0486008BF5160002110685DF8044B013892
S315000002D019611060704700BFF8B5431E0A3361D834
S315000002E010F0070300F1080466D15A4E01F014F924
S315000002F033682246002B72D0002C58DBDFF87CE1F5
S31500000300DEF80070A74252D3534954480A68824225
S31500000310C0F08B80524DAA4298BF8C4608D984E023
S31500000320136843B1834273D3AB42944670D81A46DE
S315000003305168A142F4D33368934238D0DCF80060A8
S31500000340083686427ED3AE427CD81368A142CCF8EA
S31500000350003070D3081B102807D911194D075DD13D
S3150000036048601351CCF8001021463E487F1A0468B5
S3150000037041F00041A7424FF0000438BF07603A48F9
S3150000038051600368146001330360CEF8007001F019
S31500000390CBF873070ED040F25711344B344A354828
S315000003A001F01CFF2B4E01F0B7F83368ABB101F03A
S315000003B0BBF800263046F8BDA3F10902A242F1D3EC
S315000003C0244E1030C41A01F0A7F83368224633B120
S315000003D0002AECDB002C91D1E9E7002214461F48E5
S315000003E0002147071CBF073020F007000546224BB7
S315000003F0194F23F00703181AC7E900513360C3E900
S315000004000011C5E90030174B18601C4B1860DFE778
S31500000410FB211B4B164A174801F0E0FE4FF48B7187
S31500000420184B134A134801F0D9FEF521144B104A14
S31500000430104801F0D3FE40F20D11134B0C4A0D4843
S3150000044001F0CCFE40F20511104B094A094801F0B3
S31500000450C5FE00BFAC050020B0050020B805002091
S31500000460B7950120A4050020A00500204C810300BB
S31500000470148F030008800300B0950120A805002012
S31500000480947F030018810300E4800300708003005A
S3150000049000284BD0F8B53A4FA0F10804BC420546F7
S315000004A058D3384EB44255D850F8043C002B5FDA86
S315000004B050F8082C002A54D123F0004340F8043C9D
S315000004C001F02AF83048DFF8E8C00346DCF80020DF
S315000004D055F8041C0A44CCF800201A461B689C42B6
S315000004E0FBD8824203D0BA422DD3B2422BD85068F1
S315000004F01618B4420FD06018834218D045F8083C4D
S31500000500A24218BF1460214A136801331360BDE884
S31500000510F84001F009B80144501883425160F2D105
S315000005201B48006883420CD0144604E07047184804
S3150000053000688342E2D0D3E900500144C4E9005187
S31500000540DEE71360DFE74FF4FD71124B124A1348E2
S3150000055001F044FE4FF4B571114B124A0F4801F0F9
S315000005603DFE4FF4B671104B0E4A0C4801F036FEB4
S3150000057040F26B110D4B0B4A084801F02FFE00BFED
S31500000580B8050020B7950120B00500209C05002085
S31500000590AC05002094820300EC8E03000880030063
S315000005A088810300088F03006C820300F881030032
S315000005B0A805002070B51646026C0446856B0AB382
S315000005C086B9406836F091FF6368216CA2680B44D7
S315000005D09342636005F1010515D32368002063602B
S315000005E0A56370BDC06836F080FF226CE368514297
S315000005F09B1A2268E360934202D2A3680B44E3602D
S31500000600022E03D001350020A56370BD012D38BF31
S315000006100125F8E770B5054605F044FA95F845302A
S315000006205CB2002C14DD05F1240603E0631EDAB289
S315000006305CB26AB16B6A5BB1304601F02BF90028F7
S31500000640F4D001F0EFF9631EDAB25CB2002AF1D100
S31500000650FF2385F8453005F04DFA05F023FA95F8A5
S3150000066044305CB2002C14DD05F1100603E0631E75
S31500000670DAB25CB26AB12B695BB1304601F00AF9B5
S315000006800028F4D001F0CEF9631EDAB25CB2002A7B
S31500000690F1D1FF2385F84430BDE8704005F02ABA51
S315000006A070B5002848D0C56B0446002D3DD0026CBD
S315000006B0A2FB0525002D38D10E4605F0F3F9D4E945
S315000006C00F30FF2100FB03F32268181A62601344FF
S315000006D00244A563C4E9023284F8441084F8451044
S315000006E0BEB923691BB905F005FA012070BD04F1F6
S315000006F0100001F0CFF80028F5D04FF08052124BD1
S315000007005A60BFF34F8FBFF36F8F05F0F3F90120E7
S3150000071070BD04F11000FFF7A3FD04F12400FFF7FC
S315000007209FFD05F0E7F9012070BD4FF4B671074B48
S31500000730074A084801F052FD40F23711064B044AB9
S31500000740044801F04BFD00BF00ED00E0708303009C
S31500000750D88F0300148303006883030070B582B04A
S315000007609DF818603BB30546F0B11C46A2B1D9B15D
S3150000077050230193019B502B24D1C4E90F51012131
S315000007802046226084F84610019BFFF789FF204629
S3150000079084F84C6002B070BD31B950230193019BBF
S315000007A0502B0FD12246E8E74FF4D871094B0A4A7D
S315000007B00A4801F013FD4FF4C271094B064A074877
S315000007C001F00CFD4FF4CB71064B034A034801F0D0
S315000007D005FD00BFC0830300BC8F03001483030024
S315000007E094830300A48303002DE9F04110B3A1FB19
S315000007F0003705460E46EFB901FB00F010F1510F28
S3150000080018D850309046FFF767FD044668B180F867
S3150000081046706EB100F1500301212046C4E90F561F
S315000008202360FFF73DFF84F84C802046BDE8F08149
S315000008300346F1E740F22A21024B034A034801F03E
S31500000840CDFC00BFC0830300A88F03001483030000
S3150000085030B583B0D8B188420D4618D3144622B3BA
S3150000086050230193019B502B18D1012100232260B4
S31500000870D0632364204684F84610019AFFF710FFE0
S3150000088002232046A56384F84C3003B030BD4FF4F4
S315000008905E71094B094A0A4801F0A0FC4FF4CB717E
S315000008A0084B094A064801F099FC4FF4C271074B00
S315000008B0054A034801F092FCCC830300848F0300B1
S315000008C014830300A4830300BC8F030094830300F6
S315000008D02DE9F04184B00192002800F0AF80044673
S315000008E00F461E46002900F08B80022E03D1E36BD3
S315000008F0012B40F09C8001F09BF8002867D005F0A2
S31500000900D1F8A26BE36B9A4253D3022E51D000204A
S31500000910DFF8448105460DE005F0ECF82046FFF7C8
S3150000092079FE00F001FE05F0BDF8A26BE36B012035
S315000009309A423ED3019B002B6DD0B0B305F0DAF896
S3150000094000F0EAFD05F0AEF894F84430FF2B08BF3E
S3150000095084F8445094F84530FF2B08BF84F845507E
S3150000096005F0C8F802A801A901F014F8002858D12A
S3150000097005F098F8A26BE36B9A42CDD105F0BAF870
S31500000980019904F1100000F031FF2046FFF742FE06
S3150000099000F0CAFD0028C6D14FF08053C8F80430D5
S315000009A0BFF34F8FBFF36F8FBDE702A800F0E6FFDE
S315000009B0C4E7324639462046FFF7FCFD636A83B931
S315000009C0A8B905F097F8012004B0BDE8F081019BB5
S315000009D0002B94D040F2BB311C4B1D4A1D4801F040
S315000009E0FDFB04F1240000F055FF0028E9D04FF08C
S315000009F08052194B5A60BFF34F8FBFF36F8FE0E7FA
S31500000A00036C002B3FF471AF40F2B731134B104A21
S31500000A10104801F0E3FB05F06DF8002004B0BDE8D6
S31500000A20F0812046FFF7F6FD00F07EFDF5E74FF476
S31500000A306E710B4B064A074801F0D0FB40F2B63107
S31500000A40084B034A034801F0C9FB00BF7C8403003E
S31500000A50708F03001483030000ED00E0D4830300CD
S31500000A602C84030068830300F8B500283DD0036C8E
S31500000A700446002B40D103680D4603B305F098F8F1
S31500000A80EFF31186102383F31188A36BE26B9A426E
S31500000A9011D994F845200133FF2AA36357B218D120
S31500000AA0636A03B304F1240000F0F4FED8B1D5B1B3
S31500000AB001232B6017E0002086F31188F8BD8368B8
S31500000AC0002BDBD040F24951124B134A134801F078
S31500000AD085FB00F02FFE874205D27F2F13D001370A
S31500000AE07FB284F845700120E6E74FF4A8610C4B0D
S31500000AF0094A0A4801F072FB40F24451094B064A82
S31500000B00064801F06BFB40F2CB51074B024A034803
S31500000B1001F064FB108503005C8F0300148303005F
S31500000B2068830300F4840300D0840300F0B585B025
S31500000B300192002800F0A38004460E4600296ED0DC
S31500000B4000F076FF002857D004F0ACFFA56B002D0F
S31500000B506FD1019B002B35D002A800F00FFF2F4666
S31500000B6004F0C8FF00F0D8FC04F09CFF94F8443071
S31500000B70FF2B08BF84F8447094F84530FF2B08BF5C
S31500000B8084F8457004F0B6FF01A902A800F002FF40
S31500000B90E8B904F087FFA36B33BB04F0ABFF019900
S31500000BA004F1240000F022FE2046FFF733FD00F09A
S31500000BB0BBFC58B304F076FFA56B002D39D1019B21
S31500000BC0002BCDD104F096FF002005B0F0BD2046E5
S31500000BD0FFF720FD00F0A8FC04F064FFA36B002BD8
S31500000BE0F0D004F087FFE5E704F084FF2046FFF726
S31500000BF011FD00F099FCDDE7019B002BA4D040F22B
S31500000C00F251224B224A234801F0E8FA4FF0805273
S31500000C10214B5A60BFF34F8FBFF36F8FCAE7036C48
S31500000C20002B8DD040F2ED511C4B194A194801F0AA
S31500000C30D5FA226C5AB1E168A36811449942E16081
S31500000C4028BF2168304628BFE16036F04EFC236994
S31500000C50013DA56323B904F04DFF012005B0F0BDA9
S31500000C6004F1100000F016FE0028F4D04FF0805278
S31500000C70094B5A60BFF34F8FBFF36F8FEBE740F21C
S31500000C80E951074B024A034801F0A8FA7C840300A5
S31500000C904C8F03001483030000ED00E08085030001
S31500000CA07485030070B584B00191002800F091802E
S31500000CB0036C0446002B40F0858000F0B9FE002846
S31500000CC055D004F0EFFEA56B002D63D1019BA3B3B5
S31500000CD002A800F053FE2E4604F00CFF00F01CFCA8
S31500000CE004F0E0FE94F84430FF2B08BF84F844601B
S31500000CF094F84530FF2B08BF84F8456004F0FAFEEF
S31500000D0001A902A800F046FEE0B904F0CBFEA36BF1
S31500000D102BBB04F0EFFE019904F1240000F066FD00
S31500000D202046FFF777FC00F0FFFB50B304F0BAFE55
S31500000D30A56B7DBB019B002BCED104F0DBFE002012
S31500000D4004B070BD2046FFF765FC00F0EDFB04F033
S31500000D50A9FEA36B002BF0D004F0CCFEE6E704F06E
S31500000D60C9FE2046FFF756FC00F0DEFBDEE7019BDE
S31500000D70002BA6D040F28B61194B1A4A1A4801F093
S31500000D802DFA4FF08052194B5A60BFF34F8FBFF3C5
S31500000D906F8FCBE72369013DA56323B904F0AAFE53
S31500000DA0012004B070BD04F1100000F073FD0028AE
S31500000DB0F4D04FF080520D4B5A60BFF34F8FBFF304
S31500000DC06F8FEBE740F28661094B064A064801F051
S31500000DD005FA40F28261074B024A034801F0FEF928
S31500000DE07C840300388F03001483030000ED00E0C9
S31500000DF0F48403007485030070B500B3D9B10024F0
S31500000E00124D23462A4604E001330A2B02F108025A
S31500000E100ED0566886420FD0002CF5D155F83360B7
S31500000E200133002E08BF14460A2B02F10802F0D146
S31500000E300CB1C4E9001070BD05EBC304F9E740F638
S31500000E40C931034B034A044801F0C8F9B89501209B
S31500000E500C830300248F03001483030070B504463B
S31500000E600E46154604F01EFE94F84430FF2B04BFD0
S31500000E70002384F8443094F84530FF2B04BF002348
S31500000E8084F8453004F036FEA36B23B12046BDE856
S31500000E907040FFF7BFBB04F124002A46314600F03C
S31500000EA0C3FC2046BDE87040FFF7B4BB2DE9F04116
S31500000EB0044604F0F7FD394A394E136801331360CE
S31500000EC03368002B3ED0374FE36A3A68002A32D0A7
S31500000ED0354D364936480A6804F1040C013262641D
S31500000EE00A6002689A4238BF036003EB830305EB8E
S31500000EF0830041689B00EA58D1F808E0A160C4F875
S31500000F000CE00132CEF804C0C1F808C06061EA50B6
S31500000F1004F0F0FD3B6863B13268E36AD26A9A4234
S31500000F2007D24FF08052234B5A60BFF34F8FBFF367
S31500000F306F8FBDE8F08132681B4DD26A9A4298BF26
S31500000F403460C6E734601368012B03D0E36A164D9C
S31500000F50144FBEE7144D2F4605F164083846143782
S31500000F60FFF77EF94745F9D1DFF86480124F404616
S31500000F70FFF776F93846FFF773F91048FFF770F96F
S31500000F800F48FFF76DF90F48FFF76AF90E4BC3F8E4
S31500000F9000800E4B1F60E36A024F9AE730960120ED
S31500000FA00897012024960120A4960120149601207A
S31500000FB02896012000ED00E07C9601206096012035
S31500000FC04C960120349601207896012074960120D3
S31500000FD0909601202DE9F8430446264B2648274AD9
S31500000FE0274DD0F800901768D3F8008028680E4681
S31500000FF00430FFF75DF9631C17D02B6819EB040466
S315000010005C600BD2296838460431FFF739F91D4B6D
S315000010101A68A24200D91C60BDE8F88329684046D8
S31500001020BDE8F8430431FFF72BB976B92B6809F10F
S31500001030FF325A60B9F1000FF0D129683846043101
S31500001040FFF71EF90F4B1B68E6E70F4B29685A6836
S315000010501C688A602E680134286829681C602D681F
S31500001060946804300431F460606091606B61BDE89F
S31500001070F88300BF749601202C96012078960120F3
S315000010800897012010960120349601202DE9F0479B
S315000010908A460A9C95002A460746A521206B984653
S315000010A0089EDDF8249036F0B7F9236B043D1D4405
S315000010B025F00705BAF1000F0FD00AF1FF3C0AF13F
S315000010C00F0104F133031CF9012F03F8012F0AB1B4
S315000010D08C45F8D1002384F84330042E1AD8E662F2
S315000010E0201DFFF7C9F8C6F1050604F11800FFF741
S315000010F0C3F843463A462846216BA66124616462DA
S3150000110004F0B6FC2060B9F1000F01D0C9F8004028
S31500001110BDE8F08740F26471024B034A034801F0D0
S315000011205DF800BF38860300C0900300E485030025
S31500001130F8B51A4D2B6823B3194F1A4E05E0012B4B
S3150000114020D0022B22D12B68DBB104F0ABFCFB686C
S31500001150DC68201DFFF7ACF83368013B33602B6871
S31500001160013B2B6004F0C6FC94F86530002BE6D1F9
S31500001170206BFFF78DF92046FFF78AF92B68002BC5
S31500001180E3D1F8BD2046FFF783F9DCE741F62E11DF
S31500001190054B064A064801F021F800BF4896012093
S315000011A04C960120309601204C860300B090030037
S315000011B0E48503004FF0805608B5094C094DFFF74A
S315000011C0B7FF2368012BFAD96E60BFF34F8FBFF3C9
S315000011D06F8FFFF7ADFF2368012BF5D8EFE700BF50
S315000011E0A496012000ED00E02DE9F04F574B83B0A7
S315000011F01E6801361E60002E7BD055490B689E4244
S3150000120061D3544F3B681868002800F09380002093
S31500001210514B8446B2468146504DDFF85CE100935F
S31500001220019146E05969D3E90224946062604A68F4
S31500001230181D82420A6808BF4C60013AC3F814C000
S315000012400A60996A71B1D3E90724946062604A68BA
S3150000125003F11806B2420A6808BF4C60013AC3F8A7
S3150000126028C00A60DA6ADEF800108A4202EB8201C0
S3150000127005EB8108D8F8046055F82140D6F808B087
S315000012809E60C3F80CB0CBF80400B060C3F81480BD
S31500001290009B88BFCEF80020013445F8214019682C
S315000012A03B68C96A1B688A4288BF4FF00109002B58
S315000012B03AD03B68DB68DB685A689245B2D201993E
S315000012C048460A6003E00020234B244D0093009B10
S315000012D0234A1B681268DB6A03EB830355F8233045
S315000012E0022B28BF0120002A18BF012003B0BDE849
S315000012F0F08F184B1A68126802BB1A4A18681168F0
S315000013001960194910600A6801320A601A68126881
S3150000131022B94FF0FF330E490B606FE71B680C498B
S31500001320DB681B680B6069E7484601994FF0FF339D
S315000013300B60CCE7084B094D0093F7E741F25F21BC
S315000013400A4B0B4A0B4800F049FF00BF2C960120C0
S31500001350109601207896012008970120A496012076
S315000013601C960120749601201896012080860300A1
S315000013706C900300E4850300289601202DE9F043D4
S315000013800E46002187B0DDF83C80109C0491B8F130
S31500001390000F24D0002C30D09946682305931746B9
S315000013A0059A9A4222D105462046059B36F034F826
S315000013B028460E9DC4F8308000950225029484F8D4
S315000013C0655004AD4B463A4631460195FFF75EFE41
S315000013D02046FFF76BFD049807B0BDE8F08340F2A6
S315000013E0F141094B094A0A4800F0F8FE40F2FA4179
S315000013F0084B064A064800F0F1FE40F2F241064B61
S31500001400024A034800F0EAFEF8860300D89003007B
S31500001410E485030034870300188703002DE9F043B1
S31500001420074685B09000164688469946FEF754FF53
S31500001430F8B105466820FEF74FFF0446B0B16822B2
S31500001440002135F0E9FF25630D9D4B4601950C9D66
S3150000145032464146384602940095FFF717FE20466D
S31500001460FFF724FD012005B0BDE8F0832846FFF70D
S315000014700FF84FF0FF3005B0BDE8F08330B500241B
S315000014808DB01B4B07AA06A905A80893CDE905440C
S315000014908DF8244004F084FCDDE905122346CDE9ED
S315000014A001211448079A009408A9FFF767FF124B19
S315000014B0186018B9114B1B680DB030BD00F074FCF4
S315000014C0012808D00130F5D140F6A9610C4B0D4A30
S315000014D00D4800F083FE80F310884FF0FF350B496E
S315000014E00B4A0C4B0D6010601C6004F043FBE1E7F7
S315000014F049444C45B51100000C960120EC900300C0
S315000015005087030090900300E485030010960120A5
S31500001510249601202C960120024A13680133136099
S31500001520704700BF089601202DE9F04F5B4F83B04E
S3150000153004F0B8FA3B68002B00F0A8803B68013B3A
S315000015403B60D7F80080B8F1000F40F09080544B14
S315000015501B68002B00F08B80DFF870E1DEF80030AE
S31500001560002B00F090804F4BDFF864914E4E0193B4
S31500001570DEF80C30DB689A6AD3E9070181604860BF
S31500001580506803F11804A04208BF51601168C3F8FF
S315000015902880013911605A69D3E9021088604160D8
S315000015A051681D1DA942116808BF506001391160BC
S315000015B0DA6AD9F800103D488A4288BFC9F8002087
S315000015C002EB8201006806EB810CDCF80440D0F8DF
S315000015D02CA056F82100D4F808B0013052459C6082
S315000015E0C3F80CB0CBF80450A560C3F814C046F895
S315000015F0210002D90122019B1A60DEF80030002B7F
S31500001600B6D12B4B1A681268002A37D01A68294BB4
S31500001610D26812681A60284D2C68A4B10126DDF83C
S31500001620048006E0FFF7E0FD08B1C8F80060013C61
S3150000163008D03B68002BF5D02B68013C03F1010371
S315000016402B60F6D12C60019B1B6883B14FF0805252
S315000016501A4B164909685A60BFF34F8FBFF36F8F55
S31500001660012404F047FA204603B0BDE8F08F0024B9
S3150000167004F040FA204603B0BDE8F08F4FF0FF3289
S315000016800C4B1A60C7E7074B0193C4E740F68B7112
S315000016900B4B0C4A0C4800F0A1FD00BF0896012038
S315000016A0309601201C960120A4960120089701205F
S315000016B078960120109601202096012000ED00E08A
S315000016C06487030080900300E48503006096012090
S315000016D02896012008B560B10E4B1A6801321A60CF
S315000016E01B68012B0ED10021FFF774FCFFF71CFFCE
S315000016F038B94FF08052084B5A60BFF34F8FBFF393
S315000017006F8F08BD40F68E11044B054A054800F060
S3150000171065FD00BF0896012000ED00E0AC870300E0
S31500001720A4900300E4850300014B1868704700BFCE
S315000017302C960120014B1868704700BF3096012097
S31500001740054B1B680BB9FFF74FBD044A0020136811
S3150000175001331360704700BF0896012020960120D0
S3150000176038B51A4B1B681BB10122194B1A6038BDDC
S31500001770174A184C13602368174803EB830250F886
S315000017802250990000EB82023DB9C3B152F8141CF5
S31500001790013B09B9143AF8E79900CA1800EB82012F
S315000017A008464A680830526882424A6004BFCA68DE
S315000017B04A600A49D2680A6023600B6838BD41F264
S315000017C0FA31074B074A084800F008FD0896012041
S315000017D01C96012028960120A49601200897012036
S315000017E0C887030058900300E485030010B558B17C
S315000017F00C46094B19681831FEF742FD2046BDE834
S3150000180010400121FFF7E6BB4FF4A451034B044AF5
S31500001810044800F0E3FC00BF08970120D8870300C6
S3150000182040900300E4850300F8B5034610B3154C59
S315000018305D680846002A11462268D4F800E0276849
S315000018402668D5611A68D4F800C006F11804AE6897
S3150000185007F1180702F10102CEF8206018BF4FF019
S31500001860FF307760AC60CCF828301A60BDE8F840ED
S31500001870FFF7B0BB41F2BE41034B044A044800F0F7
S31500001880ADFC00BF08970120D88703002090030015
S31500001890E4850300F8B5C368DB68002B54D0D3E9B0
S315000018A0070100269A6A81604860506803F11804AF
S315000018B0A042294808BF5160116805680139D86AF5
S315000018C09E621160A5B1254A1568516801351560FB
S315000018D08D68D9611D626C608C609A62204B1B68B2
S315000018E0DB6A83422ED201231E4A18461360F8BDD6
S315000018F05A69D3E90241A1604C6054681E1DB44286
S3150000190008BF5160116801391160174A1168814298
S31500001910164938BF106000EB800201EB82077D6834
S315000019209200D5F808C08C589D60C3F80CC0CCF85E
S315000019300460AE605F610A4B01341B688C50DB6A41
S315000019408342D0D30020F8BD41F2F541084B094A45
S31500001950094800F043FC00BF08960120609601206C
S31500001960089701201C96012028960120A4960120A4
S31500001970E487030004900300E4850300034A044B54
S3150000198012681B68C0E90023704700BF1896012043
S315000019902C960120F8B550B30D4679B3044604F0F1
S315000019A081F82B68194A581C11681BD0D4E90060CD
S315000019B0DFF86CC0DCF80070BE4208D0884206D85A
S315000019C0002301242B6004F095F82046F8BD0F1A79
S315000019D0BB42F5D95B1ADCF80010126803442B6091
S315000019E0C4E90012002404F085F82046F8BD41F24F
S315000019F0A551074B074A084800F0F0FB41F2A651F3
S31500001A00064B044A044800F0E9FB00BF2C9601206F
S31500001A10F4870300EC8F0300E485030000880300CD
S31500001A20189601200122014B1A6070471C9601206E
S31500001A30054B1B6833B1054B1868B0FA80F04009B6
S31500001A404000704701207047249601200896012027
S31500001A50F0B5124C83B004F025F8256825B103B023
S31500001A60BDE8F04004F046B80D4E0E4F3046FEF786
S31500001A70F7FB3846FEF7F4FB0B490C4B00950A20A2
S31500001A801F600E600A4B0C210A4AFEF767FE2060B3
S31500001A900028E4D00849FFF7AFF9E0E7DC9701201A
S31500001AA0FC970120E8970120E4970120E0970120A8
S31500001AB00C9701205C970120108803002DE9F04760
S31500001AC0DFF884900546D9F800300F46DB68DC68FD
S31500001AD004F104084046FEF7EBFB94F828305A0759
S31500001AE00ED423F0010384F828302046236ABDE88B
S31500001AF0F047184793421BD82046236A9847354635
S31500001B00A3697A1BEE182CBF01210021B74266603B
S31500001B102461EFD2AF4201D20029EDD0D9F80000FE
S31500001B204146FEF7ADFB2046236ABDE8F04718475D
S31500001B30044B41461868FEF7A3FB2046236ABDE81E
S31500001B40F0471847E0970120E49701202DE9F04F70
S31500001B5000278D4D8D4E8E4CDFF8488285B02B6860
S31500001B60D3F800B0BBF1000F00F0D980DB68D3F8E2
S31500001B7000B0FFF7D1FCFFF7D7FD336882468342FA
S31500001B8043D88345306040F2E68000222068ABEB04
S31500001B900A01FFF763F9FFF7C7FC38B94FF0805326
S31500001BA07C4A5360BFF34F8FBFF36F8FCDE9017748
S31500001BB003970022206801A9FEF7B8FF0028CED0BF
S31500001BC0019B002BF5DBDDF80CA0DAF814301BB115
S31500001BD00AF10400FEF76CFBFFF7A6FD33688346A7
S31500001BE0984226D3019BC6F800B0013B082BE0D8EB
S31500001BF0DFE803F029296C738C29296C7300DB68F4
S31500001C004FF0FF311868FFF759FF2B681A68002A52
S31500001C10F5D1D8F80020C6F800A02A60C8F8003030
S31500001C20FFF782FCC2E7DB684FF0FF311868FFF769
S31500001C3045FF2B681A68002AF5D1D8F80020C8F8A5
S31500001C4000302A60CEE79AF828C00298DAF8182001
S31500001C504CF0010183188AF828102CBF01210021BD
S31500001C605B45CAF80430CAF810A06AD8ABEB00008E
S31500001C70824244D81CF0040F13D12CF001038AF8D9
S31500001C8028305046DAF82030984792E7ABEB03034A
S31500001C9093426BD3DAF82030504698474B46DAF831
S31500001CA0182013EB02092CBF01200020CB45CAF8EF
S31500001CB00490CAF810A0E9D29B4501D20028E9D0C9
S31500001CC028680AF10401FEF7DBFADAE79AF8283009
S31500001CD023F001038AF828306BE79AF82820029B44
S31500001CE042F001028AF82820CAF81830002B44D0A6
S31500001CF05B445B45CAF80430CAF810A025D8D8F86A
S31500001D0000000AF10401FEF7BBFA52E79AF8283000
S31500001D109A0727D523F001038AF8283049E7FFF709
S31500001D20FBFBFFF701FD336882469842FFF46DAF77
S31500001D30D8F80030C6F800A01A68B2FA82F2520942
S31500001D4024E7584501D9002994D028680AF10401EE
S31500001D50FEF796FA2DE7FFF7E7FB51465846FFF7E1
S31500001D60ADFE23E75046FEF793FB22E7D8F80000C6
S31500001D700AF10401FEF784FA83E74FF48261064B09
S31500001D80064A074800F02AFAE4970120D497012072
S31500001D90DC97012000ED00E08C880300F090030042
S31500001DA034880300E097012010B588B0FFF750FE95
S31500001DB0114B1B68CBB1002407AA06A905A8CDE9DB
S31500001DC0054403F0FBFF03222346059C0092029480
S31500001DD0069C0A490A48079A0194FFF7CFFA094B6D
S31500001DE0186010B1012008B010BD4FF4A371064B66
S31500001DF0064A074800F0F2F9DC970120B488030090
S31500001E004D1B0000D8970120BC8803000C910300ED
S31500001E103488030000BE704708B500F035F803F0BB
S31500001E209BFFFEE7F8B5174F05463E68A6B17C68EE
S31500001E3006EB460604EB860602E00C34B4420BD0F1
S31500001E40637AAB42F9D1D4E900020021121A0C34AC
S31500001E5035F0E2FAB442F3D1BE6896B1FC6804EB01
S31500001E60061602E01034A6420BD0637BAB42F9D1D2
S31500001E70D4E90002A168121A103435F036FBA642E6
S31500001E80F3D1F8BD309103004FF47001274B284A77
S31500001E9070B50020C3F888109A6034F051FF00F046
S31500001EA069F8012034F04CFF224B83F30A880020A6
S31500001EB0FFF7B8FF00F048F800F036F9032000F00D
S31500001EC075FA00234FF6FF701B4903F10802013330
S31500001ED00C2B21F81200F8D10024032000F036FA6A
S31500001EE0032000F063FA154B03205C609C60DC6005
S31500001EF01C6100F02BFA022034F022FF0120FFF7CC
S31500001F0091FF0F4D0F4B5B1BA3424FEAA30605DD66
S31500001F1055F8043B01349847A642F9DC00F0CAF9AB
S31500001F20BDE87040002000F057B900BF00ED00E0AA
S31500001F300000000060010020000D084000000E4077
S31500001F40A0360D00A4360D00064B074993F826006F
S31500001F501A6A51F82030C2F302620449D3400B607A
S31500001F60704700BF00E00140600500201098012086
S31500001F70704700BFF8B54AF2035001235E495F4A35
S31500001F80A1F8FE03A2F80431B2F804319BB2002B8B
S31500001F90FAD101204FF400454FF0090C584CDFF8F8
S31500001FA080E1584EC4F804E0DFF878E15249C4F8FD
S31500001FB00CE0A2F80001B060534A30605348544F19
S31500001FC0C4E90502A56091F8262025612760086A04
S31500001FD054F822204F4DC0F30260C2402A6081F8B7
S31500001FE0133481F8A2C091F880341BB991F881347A
S31500001FF098077CD0404E96F88034002B6CD0002297
S315000020003D4B83F8812483F8802400233A4A82F8E2
S31500002010363092F83C30D907FBD50023364982F892
S31500002020323091F83C301A07FBD5002342F6117680
S3150000203043F20210304AA1F8486081F84A30088518
S3150000204081F82A3092F83C309B06FBD50320052305
S315000020502A494FF0F10C81F81C012F492F481162D3
S3150000206082F8263092F82630166A54F82310C6F302
S315000020700264E14029600123F0260025802480F8CF
S315000020800CC00372067382F8303082F8523082F840
S315000020903E5082F83E4092F87630174943F04003AE
S315000020A082F8763091F87630DB09FBD0C623032020
S315000020B081F86E0081F8763091F876300E4A03F09A
S315000020C0BF0381F8763092F87630DB09FBD14FF406
S315000020D02543A2F8FE33F8BD0121C82086F88014F6
S315000020E000F084F896F88034012BFBD187E74FF493
S315000020F07A70FFF73DFF88E700E0014000C001402D
S315000021006005002000700040001C4E0E00C2EB0B64
S31500002110002D3101109801202112012000200040DD
S3150000212000127A0000366E0138B50025284C0121D0
S31500002130C82084F8285000F059F884F8245094F800
S315000021402430002BFBD194F82430214943F00203BC
S3150000215084F8243091F82430C3F340009B07F9D467
S315000021601B4A81F8220092F8223003F0FF00002B70
S31500002170F9D192F84030164960F3C71382F840301F
S3150000218091F84030DB09FBD191F84200104A63F325
S31500002190C71081F8420092F84230DB09FBD192F871
S315000021A044000B4963F3C71082F8440091F84430A9
S315000021B0C3F3C014DB09F9D1012000F0F7F8054B91
S315000021C0012083F8BB44BDE8384000F0BFB800BF2B
S315000021D00030084000E00140704700BF00BEFEE747
S315000021E0A0F101000028FBD1704700BF1F4B204A19
S315000021F01B6800FB01F1934213D302F1854202F5FD
S31500002200071203F5741302F6834203F6FF03A2FBDB
S3150000221003231B0DA3FB01314FF0FF30F9B1FFF78C
S31500002220DFBF4FF47A7210B4A1FB02C41148B0FBB1
S31500002230F3F34FF0FF3044B9BCFBF3FC4FEA9C00CC
S3150000224088B15DF8044BFFF7CBBF9B00B1FBF3F100
S31500002250A1FB0212002AF4D1084620B1F1E7184684
S31500002260002BDCD170475DF8044B704710980120B5
S3150000227000127A0000CA9A3B70B500240B4B0C4E34
S31500002280B3F82021B3F84051ADB2154025FA04F356
S31500002290DB0704D556F82430E0B203B19847013481
S315000022A0102CF3D1014BA3F8305170BD00600040F3
S315000022B014980120F0B5032085B000F077F80027C8
S315000022C06FF0FF014FF0FF361C4C1D4B2246996400
S315000022D04FF0010C3B46CDE9016604F12405039657
S315000022E032F8021F0CFA03F0013311B1012726EA76
S315000022F00006AA42F4D1F7B10196124B104A032008
S315000023001667C3F8806202995167C3F8841203996D
S315000023109167C3F8881200F019F800230A4834F8C8
S31500002320022F03F1C00101330AB140F82120A54272
S31500002330F5D105B0F0BD4FF0FF36DEE79E95030000
S315000023400080004000E100E000600040EFF31081F3
S31500002350012383F31088124B33F8102092B22AB16E
S3150000236033F81020013A92B223F8102033F81030D7
S315000023709BB293B90B4A10B4B2F8FE330A4C9BB227
S3150000238034F8100043F4254323EA0003A2F8FE3391
S3150000239081F310885DF8044B704781F3108870470D
S315000023A0A098012000E001402491030030B4EFF32F
S315000023B01081012383F310880E4A32F810309BB245
S315000023C06BB90D4C0D4DB4F8FE3335F810C09BB209
S315000023D043EA0C0343F425439BB2A4F8FE3332F8D8
S315000023E0103001339BB222F8103081F3108830BCD4
S315000023F0704700BFA098012000E00140249103002F
S3150000240008B535F057F80C2203464FF0FF301A6036
S3150000241008BD00BF30B4D0E90004226800EB021208
S3150000242093681D0C4D731D0E0D739BB20B60D36824
S31500002430D0F8B0509BB20B61D0F8A0324D60DB43B0
S31500002440C3F30D038B6094F91530002030BC002BCC
S31500002450BCBF0023D360704784460020CCE9053218
S31500002460CCF81010704700BF1F2930B536D801F1DF
S31500002470400E00EBCE1EDEF800301B4DC3F3807419
S3150000248054714FEAD37CDEF8084023F0604382F8AB
S3150000249004C01360DEF8043004F007041B0F9460D8
S315000024A0EC5C0EF10C03947144B10C34A6440B326F
S315000024B013F801CB734502F801CFF9D11F2905D8CE
S315000024C001238B40DB43C0F8B03030BDFF23272902
S315000024D08CBF6831203140F8213030BD01F1A00EAB
S315000024E000EBCE1EC7E700BF249203001F29034658
S315000024F010B5006809D80123D0F8B0408B402342BC
S315000025000ED0FFF7B1FF002010BD27290AD80123FE
S31500002510D0F8A042A1F1200C03FA0CF32342F0D02C
S31500002520242010BD5B68D0F8A0421B6803EB430370
S3150000253019440123A1F1200C03FA0CF3A343EFD0B5
S31500002540FFF792FF0020DFE770B5456904460E46A7
S3150000255098B0A5B160222946684634F0C6FF6022CD
S315000025603146284634F0C1FF2846236998476069FA
S3150000257018B16022694634F0B8FF18B070BD0D4638
S31500002580F2E700BF2DE9F04146680F06356804689A
S3150000259001F00F0252D404EB0518D8F804704FEA84
S315000025A0051E17F0040F0EF1040333D117F0010FC7
S315000025B004EB030C01D1052A2FD0D8F8043023F000
S315000025C007031343C8F80430DCF8043003F00703AC
S315000025D09A42F9D1BA0715D0CB0713D4336905EB64
S315000025E04505DE69EF1C303656F8253004EB8502CA
S315000025F0D2F8201103F0010301350B43BD42C2F8A6
S315000026002031F1D1A644DEF8043003F0070303734A
S31500002610BDE8F08111F0010FC8D104EB030CD8F826
S31500002620043023F0070343F00103C8F80430DCF854
S31500002630043003F00703012BF9D1BEE7D4F8883044
S3150000264013F0010C19D1CB0717D5634604EB830EA3
S31500002650DEF8C070013327F00107082BCEF8C070F2
S31500002660F4D1002304EB830EDEF82071013327F04A
S315000026700107062BCEF82071F4D1D4F8883023F068
S3150000268007031343C4F88830D4F88C3003F00703EB
S315000026909A42F9D1BCF1000F0ED011F001010BD115
S315000026A03369DB69043301F1300253F8046F0131F9
S315000026B0082944F82260F6D14FEA051EA644DEF842
S315000026C0043003F007030373BDE8F08138B5002337
S315000026D04468836094F91530002B0DDB0121354DDC
S315000026E05A0903F01F03203201FA03F345F822309A
S315000026F0BFF34F8FBFF36F8F94F91730002B0DDBAD
S3150000270001212C4D5A0903F01F03203201FA03F36D
S3150000271045F82230BFF34F8FBFF36F8F94F9163011
S31500002720002B0DDB0121234D5A0903F01F03203234
S3150000273001FA03F345F82230BFF34F8FBFF36F8FD3
S31500002740236843B908221B4BC3F88020BFF34F8F81
S31500002750BFF36F8F2368B3FA83F3174D5B0955F800
S3150000276023303BB10521FFF70DFF0020236845F814
S31500002770230038BD10220F4BC3F88020BFF34F8FC4
S31500002780BFF36F8F8121FFF7FDFE8521FFF7FAFE6C
S31500002790EFF31081012383F31088084B9A6842F007
S315000027A000629A609B6881F310880020236845F8D0
S315000027B0230038BD00E100E0AC980120004008404D
S315000027C070B5437B0D46934213D014464268802C65
S315000027D0166816D0802B2BD00221FFF7D3FE026895
S315000027E002EB0612536823F0E06343EA0463536086
S315000027F04473037BAB4202D02946FFF7C3FE002099
S3150000280070BD0121036803EB061CDCF8042003F508
S31500002810805322F08072CCF80420D3F8082301FA02
S3150000282006F61643C3F80863C3F80C134473E0E7CF
S3150000283001210368B14003F58053D3F8082322EA47
S315000028400102C3F80823D3F80823002AC4D1C3F829
S315000028500C23C1E7F0B513795579DB0743EA857395
S3150000286044681568272943EA05032468056828D8BB
S3150000287001EB84142E1996F8D067360762D405EB5F
S31500002880C41C0CF5803CCCF800309679E301082E88
S3150000289061D9182E59D937090B373F07CCF8047080
S315000028A0976803F5803C07F0070EEF1807F58033AD
S315000028B00CF10C0CC3F808E0AC4402F10C0336BB77
S315000028C033E0A1F1280604EB4404344405EBC41CB0
S315000028D00CF5C04CCCF800349679E301082E2FD9BC
S315000028E0182E3AD937090B3746F2084E3F07CCF86F
S315000028F00474976803F5C84C07F007072B440CF1DE
S315000029000C0C43F80E70AC4402F10C039EB106F1B8
S315000029100C0E72440CF1FF3C13F801EB9A420CF8D2
S3150000292001EFF9D12729056805D801222B1983F86B
S31500002930D0220020F0BDFF22903445F82420F8E78D
S315000029403746D1E74EF66320F0BDA6F10807BF086B
S315000029500837FFB2A1E737469FE7A6F10807BF0889
S315000029600837FFB2C0E700BF00222DE9F04F0B6821
S3150000297083B000938B68D1F810B0CE4E0361CB685C
S3150000298088460746C0E90523DBF81C50066041600F
S31500002990EFF31081012383F31088C74B9A6822F066
S315000029A000629A609B6881F31088D6F88C30DB074A
S315000029B000F13181C14B019395F82C30C04A1B01BF
S315000029C0DBB282F80333019BDF60BE4BD3F80C13F6
S315000029D021F48031C3F80C13D3F80C33BFF35F8FA7
S315000029E00823C2F8803113604FF480730099B64A09
S315000029F0B04D012942F82170DBF800A0C5F89830E7
S31500002A0021D0002441F60806009B03F0010904F0DA
S31500002A100F0E22090EF5C07C42F4807205EB0C1CE9
S31500002A20C5F898209AE80F008CE80F0005EB0E1EFB
S31500002A305EF80630013469F3C713202C0AF1100A38
S31500002A404EF80630E3D100249A4B01213846C3F8EC
S31500002A509840FFF797FDDBF81450D8F804606968D2
S31500002A603368FF29084628BFFF20013BC3F3090C42
S31500002A702B680139013BDBB243EA01237168934AB3
S31500002A8001394CEA4141D6E902C60CF1FF3C013E50
S31500002A9041EA4C6141EA8621D5E90265013E43EAF5
S31500002AA00643009E013D43EA0563350105F1804575
S31500002AB005F530252960710101F1804101F53121CB
S31500002AC0C1F800349BF818304FEAC60A5B0243EAA5
S31500002AD0004343F4806343F00103C1F80434DBF898
S31500002AE00800DBF80C10524403C2DBF8103043F048
S31500002AF003036B6098F91530A34226DB98F814207F
S31500002B0003F160411201D2B201F5614181F800235F
S31500002B10019A03F1C00142F823706A4A52F8210073
S31500002B2064F3104042F8210052F82120BFF35F8F72
S31500002B30012203F01F015B099B0003F1604303F5CB
S31500002B4061438A40C3F880211A6098F91730002B38
S31500002B5026DB98F8142003F160411201D2B201F588
S31500002B60614181F800230199564A41F8237003F127
S31500002B70C00152F8210020F4803042F8210052F8BA
S31500002B802120BFF35F8F012203F01F015B099B0029
S31500002B9003F1604303F561438A40C3F880211A605C
S31500002BA098F91630002B27DB98F8142003F16041C2
S31500002BB01201D2B201F5614181F800230198414A20
S31500002BC003F1C00140F8237052F8210020F4803050
S31500002BD042F8210052F82120BFF35F8F01215A09E4
S31500002BE0920003F01F0302F1604202F5614201FA0E
S31500002BF003F3C2F88031136038468021FFF7C2FC28
S31500002C000021FFF7BFFC00231846314ABB81BA609A
S31500002C1003B0BDE8F08FD6F88C4014F00804FAD162
S31500002C2081213846FFF7AEFC4FF4001C23466A6844
S31500002C302849C6F88420C6F89CC0C1F81443AA6A7D
S31500002C401C48C6F8AC202A1D03F1300152F8046F67
S31500002C500133082B40F82160F6D195F82D30184A3B
S31500002C601B01DBB282F80433144B00211E4601938C
S31500002C70144B3161D3F8106361F31046C3F8106347
S31500002C80D3F81033BFF35F8F1023C2F8803113607F
S31500002C902A4652F82C3B074EC0F8883052F8043FBB
S31500002CA004F14801013423F00103062C46F82130D3
S31500002CB0F4D181E600000B400040084058980120FE
S31500002CC000E100E000600040AC980120500F0B408E
S31500002CD04446435200100B4070B598B0EFF303839F
S31500002CE0103B5BB2032B2BD01C462D4B5A220021E6
S31500002CF00DF1060053F8245034F08EFB4FF4807229
S31500002D0000216B68ADF804201E682B68284603EB8B
S31500002D100613DA6892B20292D960AB6969460096E8
S31500002D200493FFF711FC1F4A04F1C00352F8231065
S31500002D3021F4803142F8231052F8233018B070BDC8
S31500002D40194B6022002168461C6834F065FB4FF47D
S31500002D50805300212268ADF80430D2F89030180C68
S31500002D601B0403EB007302939B03C2F890100ED56D
S31500002D70D2F8A83293FAA3F3B3FA83F302EB8302F1
S31500002D800393D2F8E03023F00403C2F8E030A369DD
S31500002D902046694604930324FFF7D6FBC3E700BF2A
S31500002DA05898012000600040AC9801202DE9F043BE
S31500002DB0284D99B0D5F8AC4294FAA4F4002C38D03A
S31500002DC0B4FA84F4072C34DC01274FF48062D5F87A
S31500002DD0A032A74004F120083B42CDF80C80ADF8A4
S31500002DE004201BD105EBC41606F5C046DFF86C902F
S31500002DF0083633684146C3F30123164805AA0093F3
S31500002E00FFF732FB009B694659F823008369049358
S31500002E10FFF79AFBD5F8A0323B42EAD0A40004F1B2
S31500002E20804404F53024D4F8E03023F00803C4F8D5
S31500002E30E030084BD3F8AC3243B9074AD2F8101346
S31500002E4063F31041C2F81013D2F8103319B0BDE87D
S31500002E50F08300BF00000B4000600040AC980120EA
S31500002E602DE9F04399B0EFF30384454B103C64B26F
S31500002E7053F82490D9F80430D9F818201F68D9F8E7
S31500002E8000101D6901F598580097049218F807304C
S31500002E90B844002B61D007262AE04FF4006003F502
S31500002EA0617301EB83021368ADF8040093FAA3F390
S31500002EB01BB1B3FA83F3072B07DD536893FAA3F329
S31500002EC0002B5AD0B3FA83F3203303EB8712114455
S31500002ED091F8D02722F0060281F8D02769464846A5
S31500002EE00393FFF731FB98F80030B3B3D9F800101D
S31500002EF098F800207B00D0B2D20727F00047CCD448
S31500002F00020723D5EA690C3352F82330D1F8B4020C
S31500002F1013F4805F0CBF4FF400534FF4006307EBCC
S31500002F20470206FA02F20240ADF8043092FAA2F223
S31500002F3002B3B2FA82F202F1280301EB8202D2F85E
S31500002F40E01121F01001C2F8E011C7E703F56B7339
S31500002F504FF4007001EB8302A5E70A4BC03453F827
S31500002F60242022F4803243F8242053F8243019B068
S31500002F70BDE8F08348232022DFE74023A5E700BF12
S31500002F8058980120006000402DE9F04399B0EFF316
S31500002F9003892F4BA9F110094FFA89F953F82960D3
S31500002FA0D6E90003D0F8B0421A6804F03F0494FA58
S31500002FB0A4F4002C47D0B4FA84F3012513F01C0FB7
S31500002FC003F108011C4618BF03F0030305FA01F5D7
S31500002FD00CBF2833283303934FF48063ADF80430D5
S31500002FE0D0F8A03200922B4214D1DFF86C8004F1A5
S31500002FF02807394605AAFFF737FA009B694658F8AD
S31500003000230083690493FFF79FFA3068D0F8A03253
S315000030102B42EED000EB8404D4F8E03123F0080311
S31500003020C4F8E031D0F8B03253B90A4A09F1C00900
S3150000303052F8291063F3104142F8291052F829304A
S3150000304019B0BDE8F0834FF480752823C3E700BFAD
S315000030505898012000600040AC9801200346090101
S315000030609B6841F00101C9B200205977704700BF43
S315000030700023826818465377704700BF0346012233
S315000030809B6800201A777047024610B44FF48034CC
S3150000309092680C60148A4FF6FF7314F4404F18BF01
S315000030A04FF48063D46800204C6092685DF8044B4E
S315000030B092B2C1E9023270470620704703460020EB
S315000030C0D9605A61704700BF30B400244268124D7F
S315000030D05268034611788068A03145F82140D168CE
S315000030E00477A9B14FF0010C92F901100B4D480974
S315000030F001F01F0120300CFA01F145F82010BFF352
S315000031004F8FBFF36F8F064992F9012041F8224095
S31500003110002030BC186070470060004000E100E00D
S315000031205898012091F803C02DE9F047002467461E
S31500003130436891F802905E6883683278B6F80A8030
S31500003140920002F1804202F5C042C9F3810EC2F834
S315000031508042CCF3810A1C774FEA8E1EC2F8808229
S315000031605C774FEA9C12CD894EEA8A3E07F0C00A88
S315000031709203CCF3011CBAF1800FADB242EA0C22E5
S315000031805FD0BAF1400F5CD0BAF1C00F00F0978063
S3150000319042F40052B8F1000F01D042F00102D0F81B
S315000031A00CC0BCF1000F33D019F0200F54D14FF0F2
S315000031B0100C96F90170B37807F160481B01DFF82F
S315000031C01091DBB208F5614888F800333F4B07F1F0
S315000031D0C00849F8270053F8289029F4803943F8A5
S315000031E0289053F82830BFF35F8F4FF001087B0912
S315000031F09B0007F01F0703F1604303F5614308FADC
S3150000320007F7C3F880711F60CF78836807F0C00A9C
S31500003210BAF1C00F28D00020074692B21FFA8EFEE0
S315000032209F62D862A3F814E01A8248687268186030
S31500003230896859609D60DC609A6183F813C0BDE8B7
S31500003240F0878C8905EB0545C9F3001C25F0FC25A4
S31500003250A4B242EA0C329DE7BAF1C00F14BF4FF098
S315000032601C0C4FF0100CA4E7888907F00C07042FFC
S3150000327080B208BF074691F80290B1F80E8009F0B7
S315000032800C0918BF37891FFA88F808BF4EF4005E8C
S31500003290B9F1040F1CBF10FB08F81FFA88F0D1F82B
S315000032A0048008BF4EF0200EC3F82080D1F80880B5
S315000032B007EB074700EB0040C3F82480ADE78C8995
S315000032C005EB054525F0FC25A4B263E70060004048
S315000032D05898012038B500254A684160137804469D
S315000032E003F1012340339B018360D368C3605369B4
S315000032F0C0E90453EFF3108E4FF0010C8CF31088E5
S31500003300084B1A6822F480021A601B688EF3108834
S31500003310054B096883F800C0FFF704FF034B2846F6
S31500003320236038BD004008400052004043414D44F0
S3150000333010B50446FFF7F6FE0122A36800201A77AF
S3150000334010BD00BF0346002210B4D3E901416468F2
S315000033501046237864899B0003F1804303F5C0433C
S31500003360C3F880220A77C3F880425DF8044B4A7797
S31500003370704700BF10B4002483B001910092D0E9D9
S315000033800121506802784089920002F1804202F5DC
S31500003390C042C2F880420C77C2F880024C77019A8C
S315000033A00AB1019A0A60009A0AB1009A4A600A8A2A
S315000033B0002012F4404F14BFCB608B6001230B77C3
S315000033C003B05DF8044B704710B582B0EFF303838A
S315000033D0103B0D4A5BB203F1C00152F8210020F404
S315000033E0803042F8210052F82120084A01A852F8FC
S315000033F023406269E36801929847A368DA680AB1D4
S3150000340001221A7702B010BD0060004058980120D2
S3150000341003460020D3E902235360704770B58369E1
S3150000342084B004468C46164601AD9BB193E807006E
S3150000343085E8070083F804C0E26918469E601A60B2
S3150000344063699847A3691BB195E8070083E80700FD
S3150000345004B070BD2B46EDE730B44268034692F9DE
S315000034601210D269002910DB012401F01F05AC40BF
S315000034704809494D203045F82040BFF34F8FBFF330
S315000034806F8F0024454840F8214092F92810002902
S3150000349010DB012401F01F05AC4048093E4D2030E9
S315000034A045F82040BFF34F8FBFF36F8F00243B4892
S315000034B040F8214092F92910002910DB012401F07F
S315000034C01F05AC404809344D203045F82040BFF375
S315000034D04F8FBFF36F8F0024304840F8214092F998
S315000034E02A10002910DB012401F01F05AC40480911
S315000034F0294D203045F82040BFF34F8FBFF36F8F23
S315000035000024264840F8214092F92B10002910DBB0
S31500003510012401F01F05AC4048091F4D203045F835
S315000035202040BFF34F8FBFF36F8F00241B4840F836
S31500003530214092F92C10002910DB012401F01F050F
S31500003540AC404809144D203045F82040BFF34F8F5A
S31500003550BFF36F8F0024114840F8214092F92D20C7
S31500003560002A11DB01200C4C510902F01F0C2031FE
S3150000357000FA0CF044F82100BFF34F8FBFF36F8FB2
S315000035800020064941F822000020D3E9022130BC80
S31500003590186091605063704700E100E05898012080
S315000035A02DE9F043012600250A7CD34B044613443B
S315000035B006FA02F21B0212F00F0FC0E901130CBF4C
S315000035C033462B4603744B69C26043618B69C0E97D
S315000035D00653C869EFF3108786F310884FF000464C
S315000035E00A7CC64BD6401A6922EA06021A611B6992
S315000035F087F310884FF42543D0E90698A2684FF068
S31500003600004C1360D562D56395640E780B7A032E51
S315000036104FEAC35308BF43F480334D68D362002397
S315000036206668013DD6F81CE0066DC2F810C0C2F807
S3150000363014C0C2F818C053629362C2F81C90C2F854
S315000036402080956655660EF130079EF848E02EFA02
S3150000365003F5ED070ED5032B57F8235000F06981CB
S31500003660042B00F0708103F1120C013D02EB8C0C6F
S31500003670CCF804500133062BE9D100239363C2F83A
S31500003680883036B990F8216090F82030760746EAFF
S31500003690433690F848300125002B14BF4FF4A003A1
S315000036A04FF4AA03136456630326E368166315638F
S315000036B0D36091F91230002B24DB4A7C03F1604180
S315000036C012018F4ED2B201F5614181F800238D4A75
S315000036D003F1C00146F8234052F8216026F48036F3
S315000036E042F8216052F82120BFF35F8F03F01F02DA
S315000036F05B099B0003F16043954003F56143C3F802
S3150000370080511D6090F92830002B27DB90F822208D
S3150000371003F160411201D2B201F5614181F8002343
S315000037207749784A41F8234003F1C00152F8215005
S3150000373025F4803542F8215052F82120BFF35F8FDF
S3150000374001215A09920003F01F0302F1604202F5BB
S31500003750614201FA03F3C2F88031136090F929300F
S31500003760002B27DB90F8232003F160411201D2B22F
S3150000377001F5614181F800236149624A41F823401D
S3150000378003F1C00152F8215025F4803542F821504A
S3150000379052F82120BFF35F8F01215A09920003F0EE
S315000037A01F0302F1604202F5614201FA03F3C2F817
S315000037B08031136090F92A30002B27DB90F8242003
S315000037C003F160411201D2B201F5614181F8002393
S315000037D04B494C4A41F8234003F1C00152F82150AD
S315000037E025F4803542F8215052F82120BFF35F8F2F
S315000037F001215A09920003F01F0302F1604202F50B
S31500003800614201FA03F3C2F88031136090F92B305C
S31500003810002B27DB90F8252003F160411201D2B27C
S3150000382001F5614181F800233549364A41F82340C4
S3150000383003F1C00152F8215025F4803542F8215099
S3150000384052F82120BFF35F8F01215A09920003F03D
S315000038501F0302F1604202F5614201FA03F3C2F866
S315000038608031136090F92C30002B27DB90F826204E
S3150000387003F160411201D2B201F5614181F80023E2
S315000038801F49204A41F8234003F1C00152F8215054
S3150000389025F4803542F8215052F82120BFF35F8F7E
S315000038A001215A09920003F01F0302F1604202F55A
S315000038B0614201FA03F3C2F88031136090F92D30AA
S315000038C0002B31DB90F8272003F1604112010C48F0
S315000038D0D2B201F5614181F800230A4A03F1C00121
S315000038E040F8234052F8210020F4803042F82100AD
S315000038F052F8212008E000BF901640000040084022
S315000039005898012000600040BFF35F8F01215A09DB
S31500003910920003F01F0302F1604202F5614201FAD0
S3150000392003F3C2F8803113600C4B00202360BDE81E
S31500003930F083013D1EF0100FD5650DD00423042B36
S315000039403D697FF490AE013D1EF0200F95653FF472
S3150000395094AE05237D6986E6052378E65450470034
S315000039602DE9F041EFF30382103A7A4C4FFA82FCCC
S315000039700CF1C00E54F82E104FEA8C0321F480315E
S3150000398003F1804344F82E1003F5C043D3F8001327
S31500003990714951F82C0041680D78CE69012D09D086
S315000039A043692BB1BDE8F04100221146FFF736BD51
S315000039B0BDE8F0814FF00008D0E902178F60C1F82A
S315000039C04880C1F84C80C1F8508054F82E1002F09F
S315000039D0FF0268F3104144F82E10D3F80033BFF30A
S315000039E05F8F5E494FEA5C1302F01F0205FA02F28E
S315000039F0603341F8232096F84830DA0703D596F964
S31500003A002820424576DA9B0704D596F92930002B03
S31500003A1080F2878096F92A30002B53DA96F92B30FC
S31500003A20002B37DA96F92C30002B1BDA96F92D305D
S31500003A30002BB5DB474A03F1C00152F8214024F4BC
S31500003A40803442F8214052F82120BFF35F8F0121D4
S31500003A505A09424C03F01F03603201FA03F344F89B
S31500003A6022309DE73B4A03F1C00152F8214024F47D
S31500003A70803442F8214052F82120BFF35F8F0121A4
S31500003A805A09364C03F01F03603201FA03F344F877
S31500003A902230CBE72F4A03F1C00152F8214024F42B
S31500003AA0803442F8214052F82120BFF35F8F012174
S31500003AB05A092A4C03F01F03603201FA03F344F853
S31500003AC02230AFE7234A03F1C00152F8214024F423
S31500003AD0803442F8214052F82120BFF35F8F012144
S31500003AE05A091E4C03F01F03603201FA03F344F82F
S31500003AF0223093E702F1C00354F823C068F3104C58
S31500003B0044F823C054F82330BFF35F8F540902F002
S31500003B101F02954004F1600241F8225096F84830A1
S31500003B2071E70C4A03F1C00152F8214024F48034B5
S31500003B3042F8214052F82120BFF35F8F01215A0934
S31500003B40064C03F01F03603201FA03F344F82230F7
S31500003B5060E700BF006000405898012000E100E0E7
S31500003B600346002059601A72704700BF8446002041
S31500003B70CCE90E32CCF83410704700BF0346044A35
S31500003B80DB6800209B1AB3FA83F35B090B7070475E
S31500003B904349495230B5836B83B004460A466D46A5
S31500003BA0A3B193E8030085E80300E16B1A71184698
S31500003BB0626B19609047A36B1BB195E8030083E81D
S31500003BC00300002384F82B3003B030BD2B46ECE70E
S31500003BD030B5404B83B01B6A0193019B03F00F2362
S31500003BE0019303690199019D1A7C90F82C4094B9C0
S31500003BF0C1F30321D2B2A1EB15618A40920804D128
S31500003C00082003B030BD013AFAD05978C1F3C01488
S31500003C10C909F8D1DC71002290F82610056880F8F1
S31500003C20271080F8282081696C6A80F82B200262B0
S31500003C3080F82D20C16180F82E2080F82F2080F892
S31500003C403020217894F801E0012914BF4FF0040CCC
S31500003C504FF0050C6179090141EA4E0194F806E03E
S31500003C60E47941EACE114CEA0101C9B2D970197959
S31500003C7041F010011971197962F3C30119711979AB
S31500003C8062F3041119711A7964F3C7121A715A7919
S31500003C9042F001025A7195F90F20002A08DB012330
S31500003CA002F01F040C495209A34041F8223003696F
S31500003CB0BF215A7A02F0F3025A72D97190F82C2079
S31500003CC02AB1002380F82C30002003B030BD022238
S31500003CD05A70F9E700E0014000E100E090F808C002
S31500003CE0C0E90512BCF1010F80F82A3008D1002284
S31500003CF0436880F826C05B0080F8243080F82520D1
S31500003D00002380F82930FFF763BF00BF90F808C092
S31500003D10C0E90512BCF1010F80F82A300AD1002251
S31500003D20436880F826C05B0043F0010380F8243026
S31500003D3080F82520012380F82930FFF749BF00BF0E
S31500003D402DE9F0434022002403691C701A701A788A
S31500003D505206FCD5C0260268DFF89491576AD2F85D
S31500003D6004E01E703E794FF0000C46F0E0061E742B
S31500003D70FE784FF0B30846F0E0065E74BE78594C04
S31500003D80360106F0700646F008069E703E787F788B
S31500003D90012E14BF04260526CE4514BF4FF0770E1C
S31500003DA04FF0F70E46EA4706F6B2DE7083F805E0F6
S31500003DB083F806C083F807804E7B91F911304A4D8F
S31500003DC036014A4AE718F6B287F8006303F1C006DF
S31500003DD045F8230052F826706CF3104742F8267017
S31500003DE052F82660BFF35F8F4FF0010E5E09B600F2
S31500003DF003F01F0306F1604606F561460EFA03F36B
S31500003E00C6F8803133604E7B91F90F303601E718E2
S31500003E10F6B287F8006303F1C00645F8230052F8AE
S31500003E2026706CF3104742F8267052F82660BFF3EE
S31500003E305F8F5E09B60003F01F0306F160460EFAB7
S31500003E4003F306F56146C6F8803133604E7B91F97F
S31500003E5010303601E718F6B287F8006303F1C006A2
S31500003E6045F8230052F826706CF3104742F8267086
S31500003E7052F82660BFF35F8F5E09B60003F01F039A
S31500003E8006F160460EFA03F306F56146C6F8803180
S31500003E9033604B7B91F90E101B010C44DBB284F8A6
S31500003EA0003301F1C00345F8210052F823406CF3BA
S31500003EB0104442F8234052F82330BFF35F8F4B097A
S31500003EC09B0001F01F0103F160430EFA01F103F5B7
S31500003ED06143C3F8801119609F2203691A70BDE817
S31500003EE0F08300BF00E100E0589801200060004028
S31500003EF040420F0070B500250A78016002F5800285
S31500003F0002F51F62120202618A68044642600A7B59
S31500003F100272CA6942630A6A80F82950C26380F84D
S31500003F202A50856380F82B504561C0E90655056225
S31500003F3080F82C50EFF3108C012282F310880B7856
S31500003F40C3F109039A40074B5E6826EA02025A60EB
S31500003F505B688CF31088FFF7F3FE034B2846E3609B
S31500003F6070BD00BF004008404349495238B500259E
S31500003F7003690168DD71FFF7E3FEB322836990F8F8
S31500003F8026100362036980F8281080F82C50C5615A
S31500003F9080F82A502846DA7138BD00BF38B50025AA
S31500003FA0044603690168DD71FFF7CAFEB3200123E9
S31500003FB094F8262084F82C5084F82820A269E5611C
S31500003FC02262226984F82A50D071D5712268E56090
S31500003FD092F911202549500902F01F0203FA02F254
S31500003FE0203041F82020BFF34F8FBFF36F8F226838
S31500003FF092F90E20500902F01F0203FA02F2203055
S3150000400041F82020BFF34F8FBFF36F8F226892F9DC
S315000040101020500902F01F0203FA02F2203041F884
S315000040202020BFF34F8FBFF36F8F226892F90F20C6
S31500004030500902F01F0203FA02F2203041F8202054
S31500004040BFF34F8FBFF36F8FEFF3108083F31088AA
S315000040502168074A0978C1F109018B4051680B4371
S315000040605360536880F31088284638BD00E100E0AD
S315000040700040084010B582B0EFF30383103B5A4A64
S315000040805BB2C03352F8231021F4803142F823107A
S3150000409052F82330EFF30383544A103B5BB252F8D5
S315000040A0234094F82D304BBBA369022B20D9E3693A
S315000040B0012B0CD123691A7942F010021A711A7970
S315000040C042F008021A711A7922F010021A71236856
S315000040D05B6ADB79002B3ED101222369DB7CDBB2F4
S315000040E08DF807309DF8073084F82D2002B010BDFA
S315000040F02269137943F040031371D8E7E369002B73
S31500004100F4D02268526AD279FAB9032B17D0022B5F
S3150000411026D0012B32D02269D17C236A6269D15420
S31500004120D4E907320132013BC4E90732002BDDD165
S3150000413021690A7963F386120A7102B010BD2269F9
S31500004140137943F040031371E6E705212046FFF794
S3150000415021FDE369D9E705212046FFF71BFDBBE7F3
S315000041602269137943F010031371137943F008039E
S315000041701371137923F010031371CDE794F82A20F5
S315000041804AB322681A4892F90F20510902F01F0219
S3150000419003FA02F2203140F82120BFF34F8FBFF31C
S315000041A06F8F04202269D17941F08001D171117994
S315000041B041F010011171117921F008011171117985
S315000041C021F0100111715070517921F001015171E6
S315000041D084F82C30A0E708212269537A03F0F7030C
S315000041E05372517098E700BF006000405898012054
S315000041F000E100E010B5EFF30383103B3C4A5BB2ED
S31500004200C03352F8231021F4803142F8231052F8BB
S315000042102330EFF30383374A103B5BB252F8234057
S3150000422094F82730002B3BD194F82930002B36D157
S3150000423023685B6ADB792BB194F82B3013B9236AB8
S31500004240002B50D1E3692169002B3AD1CB79C022EA
S3150000425023F08003CB7101E0013A02D0CB79DB0970
S31500004260FAD12368224A93F9103003F1C00052F8BC
S31500004270204024F4803442F8204052F82020002BBD
S3150000428009DB01205A091C4C03F01F03603200FAB7
S3150000429003F344F82230CB7943F04003CB7110BDD1
S315000042A094F8261094F82820032915D094F82400B1
S315000042B021690132013B887484F8282084F827306C
S315000042C010BD226A6069013B805C01328874C4E9D2
S315000042D00732002BBAD010BD022AE7D194F830106D
S315000042E00029E3D110BD05212046FFF753FCA9E7BD
S315000042F0006000405898012000E100E038B5EFF377
S315000043000383314A103B5BB252F8234023685B6A51
S31500004310DB79002B45D194F829301BB194F827306E
S31500004320012B4BD0E369D3B12169CA79C02322F0AE
S315000043304002CA7101E0013B02D0CA795206FAD4A2
S31500004340EFF30383103B214A5BB2C03352F82310CC
S3150000435021F4803142F8231052F8233038BD94F806
S315000043602A201AB301202268194D92F90F2051090B
S3150000437002F01F02203100FA02F245F82120BFF3B5
S315000043804F8FBFF36F8F2169CA7942F08002CA71DD
S3150000439004224A704A7963F300024A7184F82C00B9
S315000043A0C3E705212046FFF7F5FBB4E7082221699C
S315000043B04B7A03F0F7034B724A70B6E794F8303045
S315000043C0002BAFD1B0E700BF589801200060004035
S315000043D000E100E038B5EFF303834B4A103B5BB2D4
S315000043E052F8230003695A7A597AD50601F0E0019A
S315000043F059725FFA82FC02F003012AD55A785406F4
S315000044004CD400240125016880F82B50DC71FFF79D
S3150000441097FCB32290F8263080F82C4080F828309C
S31500004420C46180F82A400369846929460462DA7106
S31500004430FFF7B0FBEFF30383103B344A5BB2C033A4
S3150000444052F8231021F4803142F8231052F8233019
S3150000445038BD0029D5D11CF0080F10D0C269002A3A
S3150000446042D190F82B20002A3ED1B32290F8291091
S31500004470DA71C1F10301C9B2FFF78CFBDAE790F8F4
S315000044802C100CF0040231B3002AD3D0C269002AE2
S3150000449038D190F82B20002A34D1E6E70029B0D194
S315000044A05A78C2F380115206D5D50822046880F8DE
S315000044B02B10616A88795A700A78497942EAC012E3
S315000044C042EA011242F00202D2B2DA705A7942F09E
S315000044D001025A71AEE7002AACD003685B6ADB7949
S315000044E0002BA7D00421C7E70022B32190F826406D
S315000044F080F82C2080F828408469C261046280F824
S315000045002A20D9710121B7E75898012000600040A0
S315000045100022034610461A60704700BF0B0A10B40B
S315000045201B01064C53FA81F154F821300020C3F3E5
S3150000453040035DF8044B1370704700BF0008084045
S31500004540090A490101F1804101F500214B6800206B
S3150000455013807047090A490123EA020C01F18041E0
S315000045601A4001F5002142EA0C4200208A60704799
S315000045700120CBB2984080B202B900040B0A5B015D
S3150000458003F1804303F5002398600020704700BFC5
S31500004590090A490101F1804101F5002110B40C68B6
S315000045A002EA030C4CEA040C62EA030202EA0C0279
S315000045B000205DF8044B0A60704700BF090A4901F4
S315000045C001F1804101F500214B680020C3F30F4340
S315000045D013807047012310B44FEA112C4FEA4C1C8C
S315000045E00CF1804C0CF5002CDCF80440C9B28B4071
S315000045F099B203EA14435B1AB3FA83F35B0900200A
S315000046005DF8044B13707047090A490123EA020C4E
S3150000461001F180411A4001F5002142EA0C420020D6
S31500004620CA60704701200B0A5B0103F1804303F562
S315000046300023C9B210B400FA01F1DC68012A4FEA7E
S3150000464001400DBF84438C4304430C430020DC60CF
S315000046505DF8044B704700BF2DE9F84F0388DBB1C6
S3150000466082464FF0000B4FF00109DFF8D08000249E
S31500004670304D4FEACB07DAF8043035F8022BD9195A
S31500004680898891420AD00134032CF4D1BAF800305B
S315000046900BF1010B5B45EAD8BDE8F88FDB5909FA47
S315000046A004F603F0B853B3F1807FF6B298F8BB3442
S315000046B013D0334231D1204A04F1200612F81630C5
S315000046C0DB09E0D012F81630012123F08003C82060
S315000046D002F81630FDF78AFDD5E7334211D0164AA7
S315000046E004F1200112F81130DB09CCD112F8113097
S315000046F0C82043F0800302F811300121FDF776FD52
S31500004700C1E70120FDF752FE98F8BB340120334380
S3150000471088F8BB34FDF71AFEE1E70120FDF746FEF7
S3150000472098F8BB34012023EA060388F8BB34FDF76A
S315000047300DFEC0E7809203000030084000E0014013
S31500004740F8B50446FFF788FFEFF31082012383F3E1
S315000047501088234F3B681BB92249CB704023CB708E
S315000047603B6801333B6082F3108823882BB3616872
S315000047701D4C01EBC30E06E01B01083113448E45A8
S3150000478044F8230019D008688A88C5034FEA122323
S31500004790D2B2F1D502EB031C54F82C601B01083190
S315000047A020F4803526F4803613448E4544F82C6078
S315000047B044F82C5044F82300E5D1EFF3108201238E
S315000047C083F310883B6813B13B68013B3B603B6851
S315000047D01BB980200349CB70C87082F31088F8BDDE
S315000047E054980120000D08400008084008B5034B06
S315000047F003600846FFF7A4FF002008BD54524F503F
S3150000480008B50846FFF79CFF002008BD70B50126D5
S3150000481086B001AB03A80C4615460493ADF80C60B0
S31500004820ADF808100192FFF717FFEFF3108286F339
S3150000483010881D490B681BB940261C48C370C670FA
S315000048400B6801330B6082F31088EA034FEA1423E6
S31500004850E4B219D41B01164A234442F82350EFF35D
S315000048601082012383F310880B6813B10B68013B98
S315000048700B600B681BB980200C49CB70C87082F3A3
S315000048801088002006B070BD094A04EB031052F8E8
S3150000489020601B0126F4803642F8206025F480361D
S315000048A042F82060D7E700BF54980120000D084069
S315000048B00008084003460020012110B41A6A586017
S315000048C09070DA692C4C92F905204FEA521C02F0DE
S315000048D01F0201FA02F20CF1200C44F82C20BFF35F
S315000048E04F8FBFF36F8FDA6992F90B204FEA521C94
S315000048F002F01F0201FA02F20CF1200C44F82C20FF
S31500004900BFF34F8FBFF36F8FDA6992F907204FEA33
S31500004910521C02F01F0201FA02F20CF1200C44F8BC
S315000049202C20BFF34F8FBFF36F8FDA6992F90920FE
S315000049304FEA521C02F01F0201FA02F20CF1200C9F
S3150000494044F82C20BFF34F8FBFF36F8FEFF3108423
S3150000495081F31088DB69094A93F800C04FF00043E1
S31500004960516823FA0CF30B435360536884F31088A1
S315000049705DF8044B704700BF00E100E000400840CE
S3150000498003460020C3E90512704700BF10B4046A4D
S31500004990A37803F07B03A370837803F00303D21A92
S315000049A00B440261A278C360837842F0800203F070
S315000049B00303022BA27005D00B780020E3705DF88C
S315000049C0044B70470B88002043F47E43E3815DF877
S315000049D0044B704784460020CCE90A32CCF82410F8
S315000049E0704700BF012310B5C4690A7894F800C067
S315000049F003FA0CF313F0060F01D013071ED402F0CE
S31500004A005C0E0022036A93F802C00CF00B049C7043
S31500004A10C26010468A784C785A701A780CF07B0C73
S31500004A2064F301021A70CA789A74DA7902F0A30262
S31500004A3042EA0E02DA7183F802C010BD032010BDEF
S31500004A404FF0FF330020C1E9003370470346880763
S31500004A5010D510B40024186AC907827802F07B02C8
S31500004A60827020461C6102D5002210469A615DF8CC
S31500004A70044B7047CA0748BF00224FF0060044BFE8
S31500004A809A611046704700BF0346002210B49C6925
S31500004A9010460C605DF8044B9A617047062070471B
S31500004AA0F0B5846A85B005460F4694466E46B4B1A5
S31500004AB094E80F0086E80F00EB6920461B7884F81F
S31500004AC004C02360EB6AC4E902736B6A9847AC6A58
S31500004AD01CB196E80F0084E80F0005B0F0BD34461F
S31500004AE0EAE700BF062070472DE9F04101240A7865
S31500004AF00346944014F0060F05D0C8694068007854
S31500004B00000700F1AD810020012518704E6902F5FD
S31500004B1080025E6202F58C528E691202C3E90712A8
S31500004B20C3E90A064E789A78864214BF2E460226B4
S31500004B3066F301029A7091F90B60CB4C720906F08C
S31500004B401F07203205FA07F791F80AC044F82270C9
S31500004B50BFF34F8FBFF36F8FC44A06F1C00752F8F9
S31500004B6027E060F3104E42F827E052F82770C04F56
S31500004B704FEA0C1C04EB060E5FFA8CFC8EF800C3A1
S31500004B8047F8263091F9056091F804C04FEA561EA1
S31500004B9006F01F080EF1200E05FA08F844F82E80DC
S31500004BA0BFF34F8FBFF36F8F06F1C00E52F82E8002
S31500004BB060F3104842F82E8052F82EE04FEA0C1CA3
S31500004BC004EB060E5FFA8CFC8EF800C347F826301D
S31500004BD091F9076091F806C04FEA561E06F01F08C5
S31500004BE00EF1200E05FA08F844F82E80BFF34F8F19
S31500004BF0BFF36F8F06F1C00E52F82E8060F3104897
S31500004C0042F82E8052F82EE04FEA0C1C04EB060EFA
S31500004C105FFA8CFC8EF800C347F8263091F90960DC
S31500004C2091F808C04FEA561E06F01F080EF1200E36
S31500004C3005FA08F844F82E80BFF34F8FBFF36F8F45
S31500004C4006F1C00E52F82E8060F3104842F82E800E
S31500004C5052F82E204FEA0C12D2B2344484F80023C4
S31500004C6047F82630EFF3108785F310884FF000469B
S31500004C700C78804AE640546824EA06045460526878
S31500004C8087F310881A6A40F2F937907010715072E3
S31500004C909072D07250830878CC69854040F2F93022
S31500004CA0054218BF40204FF0060518BFD0740120FA
S31500004CB015770D788E78A840384218BF4FF47840A3
S31500004CC04D78C97818BF9082C900032D41EA0611B4
S31500004CD000F0C280002D0CBFE220F220C9B2117094
S31500004CE09071217B08290EBF0A21490001F00201BB
S31500004CF051736178A078C901400100F02000C9B263
S31500004D0001430020107294F800C0ACF102000128A3
S31500004D1040F29880C9B2D171616888784D78507038
S31500004D20107865F301001070C87809789074D0790E
S31500004D3001F05C0100F0A3000143D1710020D969A4
S31500004D4018619861D860586191F90550474A05F194
S31500004D50C00152F8216060F3104642F8216052F813
S31500004D602110BFF35F8F01266909890005F01F0531
S31500004D7001F1604101F5614106FA05F5C1F880517E
S31500004D800D60D96991F90B5005F1C00152F82170F7
S31500004D9060F3104742F8217052F82110BFF35F8F7D
S31500004DA06909890005F01F0501F1604106FA05F55C
S31500004DB001F56141C1F880510D60D96991F907E0AB
S31500004DC00EF1C00152F8215060F3104542F821500F
S31500004DD052F82110BFF35F8F4FEA5E1189000EF083
S31500004DE01F0E01F1604106FA0EF501F56141C1F8A9
S31500004DF080510D60D96991F9091001F1C00552F889
S31500004E00257060F3104742F8257052F82520BFF34D
S31500004E105F8F4A09920001F01F0102F160428E4045
S31500004E2002F56142C2F8806116601A6A0CF0030C42
S31500004E304CF0700C618982F802C00F4A19815A60E1
S31500004E40BDE8F081FF20BCF1020F08BF41F0100160
S31500004E50C9B25070D17171E7F22041F040013DE7CF
S31500004E600320BDE8F08100BF00E100E000600040E3
S31500004E7058980120004008405549435310B4EFF3B9
S31500004E800383103B224A5BB203F1C00152F82100B2
S31500004E9020F4803042F8210052F821201D4A52F8B1
S31500004EA02300C3691B69ABB1036913B15DF8044BF9
S31500004EB07047026A00219378446A03F07F0343F047
S31500004EC004039370C160002CF0D080225DF8044B7F
S31500004ED0FFF7E6BD0369026A002BEBD08178C46850
S31500004EE001F0030CBCF1020F0AD094F800C082F85E
S31500004EF003C001F003029B1A1444C0E90343D4E73C
S31500004F00B4F800C04CF47E4CA2F80EC0F1E700BF26
S31500004F10006000405898012010B582B0EFF303837B
S31500004F20103B1F4A5BB203F1C00152F8210020F486
S31500004F30803042F8210052F821201A4A52F82340C4
S31500004F40A27802F00303022B236A0CBF198A59794F
S31500004F50A3690CBFC1F30801C9B2019143B9636AE1
S31500004F60B3B10422204602B0BDE81040FFF798BD59
S31500004F7002F0030201A9606932F0B7FAD4E905210B
S31500004F80A37803F003031A44C91AC4E9052109B139
S31500004F9002B010BD636A002BFAD00122E2E700BF1F
S31500004FA0006000405898012010B5EFF303830E4AC5
S31500004FB0103B5CB252F82400D0E90821937803F044
S31500004FC07B03937019B102220021FFF769FD074A9E
S31500004FD004F1C00352F8231021F4803142F8231063
S31500004FE052F8233010BD00BF5898012000600040E1
S31500004FF010B5EFF303831A4A103B5CB252F8240053
S31500005000837803F00303022B036A0CBF198A5979CC
S3150000501093F804C00CBFC1F30801C9B21CF0100F0D
S315000050200CF0380206D093F81CC01CF0010F08BF24
S3150000503042F0400293F804C00CF0C70C83F804C099
S31500005040436A0BB1FFF72CFD064A04F1C00352F880
S31500005050231021F4803142F8231052F8233010BD7A
S31500005060589801200060004084460020CCE90A32AE
S31500005070CCF82410704700BF0022436810B50260C8
S315000050805A69044622B1936810681B6A9847636898
S315000050901A6922B1936810681B6A9847636893F986
S315000050A00220002A0EDB01212448530902F01F02C8
S315000050B0203301FA02F240F82320BFF34F8FBFF3EB
S315000050C06F8F636893F90120002A0EDB01211B48CC
S315000050D0530902F01F02203301FA02F240F823209E
S315000050E0BFF34F8FBFF36F8F6368012293F90330CD
S315000050F01248590903F01F03203102FA03F340F85E
S315000051002130BFF34F8FBFF36F8F636893F904307D
S31500005110590903F01F039A4001F1200340F82320A8
S31500005120BFF34F8FBFF36F8F0020A268137823F071
S3150000513040031370D378D07010BD00BF00E100E0CB
S31500005140F8B58568044628789DF818C010F0400028
S3150000515040F0A880C4E90500606884F820C01E46B7
S31500005160E36143690F46C4E903124BB35968BCF1C6
S315000051700F0F0968A66152D8BCF1070F94BF4FF014
S31500005180000C4FF0010C48884FEA0C3C20F44050CC
S3150000519020F00C004CF0080C4CEA000CB0B2C881B0
S315000051A0A1F802C08A60002A00F086809A68186812
S315000051B053689847002871D1606894F820C0A568A4
S315000051C00369002B3FD05A68BCF10F0F1168666166
S315000051D065D8BCF1070F94BF4FF0000C4FF0010CDF
S315000051E0CA784FEA0C1C22F03C024CF0080C4CEA40
S315000051F0020C81F803C090F809C0B2B2006ABCF193
S31500005200000F0FD170B1007B01280BD1E069012896
S3150000521008D0013A013E92B26661CA8103E04FF0BE
S31500005220020CB0E7CA814F60002F4CD02A789E68E6
S3150000523022F02002186873682A70984770BBA56828
S3150000524094F820C06068EB7ABCF10F0FDAB22B8AB3
S315000052509BB229D90CF1010C22F040024FEA9C0CBA
S31500005260ACF1050C42F02002417A23F47063006A27
S3150000527043EA0C2351B948B1017B012906D1E16902
S31500005280012914BF43F0800323F0800300209BB262
S31500005290EA722B822B7843F060032B70F8BD4FF037
S315000052A0020C9DE70820F8BDBCF1070F94BF42F041
S315000052B0400202F09F02D7E7887862F38300054A2E
S315000052C088708A6072E7CA7867F38302CA70024AF6
S315000052D04A60ABE7B8980120B498012010B594460F
S315000052E08E461C4682B00021724663460094FFF744
S315000052F027FF02B010BD00BF10B594461C4682B011
S31500005300002263460094FFF71BFF02B010BD00BFEA
S3150000531010B49DF8044001945DF8044BFFF710BFEC
S3150000532042684369517A126A19B912B1127B012A8D
S3150000533024D0C269511E99420FD09A420CD081687E
S31500005340C26832B190F820C0BCF10F0F0DD952F8E7
S3150000535023204A6001334361704781680A8A22F03C
S3150000536080021204120C0A82EAE7BCF1070F95BF0D
S31500005370D25C32F813200A718A80EBE78268D27811
S315000053809206E9D5D5E700BF30B5836A85B00446F5
S315000053908C4601ADABB193E8070085E8070062686B
S315000053A01846117883F804C0E26A19609A60636A45
S315000053B09847A36A1BB195E8070083E8070005B084
S315000053C030BD2B46EBE700BF2DE9F04F0B78DFF839
S315000053D000830F691B020D46044683B0984477B1DB
S315000053E04FF00062796838680B681A60C3F8088065
S315000053F0BB681B6898470646002840F00D816B691C
S3150000540073B1D3E901124FF4002618680B681268CD
S315000054101E60C3F8048090470646002840F00081CD
S31500005420D5E906130022C4E90A236560616228787B
S3150000543000F5800303F58D531B02A3606F7A002FDE
S3150000544000F0F88011464FF0B00894466A7BEE7A79
S315000054502B6A1203AD7A42EA46022A431D78002DD2
S3150000546040F0EE8001218140890740F0208193F8C9
S3150000547001E098784FEA4E1128EACE1541EA4E012E
S3150000548022F070062943DA781D79904012011DB189
S31500005490022D0CBF3025202593F805E0BEF1000F44
S315000054A006D0BEF1010F14BF4CF0010C4CF0030CFA
S315000054B093F808E00EF0030E42EA8E0232439E791C
S315000054C00196002F40F0EF8093F8099093F80A8038
S315000054D0DF7A42F46042EFF3108A4FF0010E8EF34A
S315000054E0108866683678C6F113060EFA06FE734E05
