S020000072656E657361736375705F736D6172746D65646963696E652E7372656307
S31500000000200700209D1A0000F91E0000991A000022
S31500000010991A0000991A0000991A0000991A00000E
S31500000020000000000000000000000000195600005B
S31500000030991A000000000000315600009956000091
S3150000004059290000E12A0000092C00005929000066
S315000000502D2A0000994B0000FD4A0000294C0000A3
S31500000060714C0000F53C0000753E00007D3F00002D
S31500000070554000005553000041540000295500002A
S30D0000008049300000E1350000E3
S3150000008840003500000010180000000000000000C5
S315000000980000000000000000480405000000000001
S315000000A800000000000000000000000080000020A2
S315000000B801000000380000200300000001000000D5
S315000000C8037300000273000002730000027300004D
S315000000D8027300000273000002730000027300003E
S315000000E8000000000C0C000000606000006060006A
S315000000F800606000006060000060600000606000F2
S31500000108010000000E0000000500000001000000CC
S31500000118010000003B00000014000000040000007D
S315000001280509110E000208139C1F9C1FFF1F0000E3
S315000001389A1F05009C1F9C1FFF1F00009A1F9A1FED
S315000001489A1F9A1F9A1FFF1F9C1FFF1F9A1F9A1F0D
S31500000158C800FF1F9C1F9C1FFF1F00009A1F9A1FA5
S3150000016814009A1F9A1FFF1F9C1F9C1FFF1F000049
S315000001789A1F9A1F9A1F9A1F9A1FFF1F9A1F9C1F42
S31500000188FF1F00009A1F9C1F9A1F9A1F9A1F9C1FE9
S31500000198FF1F00009A1F9C1F9A1FA31FFF1F000026
S315000001A89A1F9C1F0A00FF1F14009C1FFF1F0000B8
S315000001B89A1F05009A1F28009A1F28009A1F2800D0
S315000001C89A1F2800FF1F00009C1F9C1FFF1F00008E
S315000001D89A1F9A1F9A1F9A1F9A1F9A1F9A1FFF1FE4
S315000001E89A1F9C1FFF1F00009A1F9A1F9A1FFF1F26
S315000001F89C1FFF1F9A1F05009A1F28009A1F280098
S315000002089A1F28009A1F2800FF1F00009C1F9C1F8A
S31500000218FF1F00009A1F9A1F9A1FECFF9A1F9A1F2A
S31500000228FF1F00009A1F01009A1F9C1FFF1F000056
S315000002389A1F9A1FFF1F00009C1F9C1FFF1F00008C
S315000002489A1F05009A1F1E0005009A1F1E00FF1F11
S315000002589C1F9C1FFF1F00009A1F9A1F0A009A1FC7
S315000002689A1FFF1F9A1F05009A1F9D1F9C1F9C1F00
S31500000278FF1F00009A1F9A1FFF1F00009C1F9C1F4C
S31500000288FF1F0000E8030000E8030000E803000081
S3150000029801FFFFFF14C7040014C6040014C50400B8
S315000002A89CC4040014C7040014C7040014C704003F
S315000002B814C704000000000064C7040064C60400F4
S315000002C864C50400C0C4040064C7040064C704000D
S315000002D864C7040064C70400000000000000008032
S315000002E8CDAB3412D4C3B2A16F000000B1B2020084
S315000002F87DB202003DB20200F5B1020001B1020072
S31500000308E9B20200C9B00200846C03008C6C0300D9
S31500000318946C0300146803009C6C0300A46C03002F
S3150000032854660300010000000000000003000000FE
S315000003387C980220B8020020000000007C98022069
S31500000348E49802204C9902200000000000000000FA
S31500000358000000000000000000000000000000008F
S31500000368000000000000000000000000000000007F
S31500000378000000000000000000000000000000006F
S30900000388000000006B
S315000003900348044B834202D0034B03B1184770470E
S315000003A0040300200403002000000000064B074958
S315000003B0C91A891048BF0131491003D0044B0BB14B
S315000003C001481847704700BF0403002004030020BB
S315000003D00000000010B5064C237843B9FFF7D8FF9C
S315000003E0044B13B10448AFF300800123237010BD02
S315000003F0400700200000000084A2000108B5054B5C
S315000004001BB105490548AFF30080BDE80840FFF77A
S31500000410CDBF00BF000000004407002084A20001F9
S315000004204FF0FF31002200F10803C0E90131C0E9B5
S3150000043003330260704700BF00230361704700BFAB
S3150000044030B40D686B1C10D000F108031C465B68C5
S315000004501A68AA42FAD902684B60013299608C6028
S315000004606160086130BC0260704704696368F2E746
S315000004700346026910B45468406899689C428160DA
S31500000480486008BF5160002110685DF8044B0138D0
S3150000049019611060704700BFF8B5431E0A3346D88D
S315000004A010F0070300F108044BD13A4D00F010FF9D
S315000004B02B682246002B54D0002C3DDB364E30688C
S315000004C0A04239D3354B9C461B6803E01A6822B11B
S315000004D09C4613465968A142F8D32A689A422BD003
S315000004E0DCF800501A680F1B102F05F10805CCF830
S315000004F0002007D9214603EB040ECEF804701A51EA
S31500000500CCF800E0264A401A14683060A0424FF04A
S31500000510000438BF1060234841F00041026859606A
S3150000052001321C60026000F0DBFE2846F8BD194D62
S3150000053000F0CEFE2A689AB1002500F0D1FE2846CA
S31500000540F8BDA3F10902A242F1D3124D1030C41A2C
S3150000055000F0BEFE2B6822461BB1002AAEDCEBE79C
S315000005601446114B002059071CBF073323F007031D
S315000005701E460E49094F21F00701CB1AC7E9006054
S315000005802960C1E90000C6E9001305490B6002496C
S315000005900B60E2E76C070020680700207007002068
S315000005A0640700206007002078070020709701206C
S315000005B090B338B550F8043C0446002B00DB38BD38
S315000005C050F8082C002AFAD123F0004340F8043CE6
S315000005D0A0F1080500F07CFE1A4854F8041C0268D5
S315000005E0194B0A4402601A461B689D42FBD85068A4
S315000005F002EB000C654510D0681883421DD044F804
S31500000600083CAA4218BF1560104A136801331360EC
S31500000610BDE8384000F064BE70470144501883427C
S315000006205160F1D10A4800688342EDD01546D3E9FE
S3150000063000400144C5E90041E3E7054800688342FC
S31500000640F5D1DCE768070020700700205C07002072
S315000006506C07002070B51646026C0446856B0AB31B
S3150000066086B9406835F049F96368216CA2680B4485
S315000006709342636005F1010515D32368002063608A
S31500000680A56370BDC06835F038F9226CE368514245
S315000006909B1A2268E360934202D2A3680B44E3608C
S315000006A0022E03D001350020A56370BD012D38BF91
S315000006B00125F8E770B5054605F022F895F84530AE
S315000006C05CB2002C14DD05F1240603E0631EDAB2E9
S315000006D05CB26AB16B6A5BB1304600F071FF00280C
S315000006E0F4D001F011F8631EDAB25CB2002AF1D13F
S315000006F0FF2385F8453005F015F805F001F895F863
S3150000070044305CB2002C14DD05F1100603E0631ED4
S31500000710DAB25CB26AB12B695BB1304600F050FFC9
S315000007200028F4D000F0F0FF631EDAB25CB2002AB3
S31500000730F1D1FF2385F84430BDE8704004F0F2BFE4
S3150000074070B5044600B3C06BF0B1236C0022A3FB66
S31500000750003595BB0E4604F0D3FFD4E90F31FF20D8
S3150000076001FB03F32268591A626013440A44A56325
S31500000770C4E9023284F8440084F84500A6B9236926
S315000007801BB904F0CFFF012070BD04F1100000F08A
S3150000079017FF0028F5D04FF08052094B5A60BFF37F
S315000007A04F8FBFF36F8FECE704F11000FFF738FEB1
S315000007B004F12400FFF734FEE3E7104670BD00BFE6
S315000007C000ED00E070B582B09DF8185080B31C466D
S315000007D0002B38D072B399B350230193019BA1FB30
S315000007E000360123C4E90F01226084F84630E6B9D9
S315000007F004F086FFD4E90F31A663FF2601FB03F35D
S315000008002268591A626013440A44C4E9023204F1A8
S31500000810100084F8446084F84560FFF701FE04F197
S315000008202400FFF7FDFD04F07DFF204684F84C50C0
S3150000083002B070BD51B9502301932246019BCEE709
S31500000840084602B070BD184602B070BD1046EFE70C
S315000008502DE9F04110B3A1FB003804460D46B8F16E
S31500000860000F1BD101FB00F010F1510F16D85030CC
S315000008701746FFF711FE064680B180F846808DB117
S3150000088000F1500301213046C6E90F453360FFF7FA
S3150000089057FF86F84C703046BDE8F081002630469A
S315000008A0BDE8F0810346EDE7E0B130B588420D467C
S315000008B083B014D3144682B1002301215022E06391
S315000008C0019223642046246084F84610019AFFF7BB
S315000008D037FF0223A56384F84C30204600E0002051
S315000008E003B030BD704700BF2DE9F041044684B027
S315000008F01E4601920F4604F003FFA26BE36B9A4279
S3150000090053D3022E51D00020DFF8F08005460DE0CB
S3150000091004F008FF2046FFF7CDFE00F0E1FC04F0EE
S31500000920EFFEA26BE36B01209A423ED3019B002BA4
S3150000093058D0B0B304F0F6FE00F0CAFC04F0E0FEB6
S3150000094094F84430FF2B08BF84F8445094F845309F
S31500000950FF2B08BF84F8455004F0E4FE02A801A965
S3150000096000F0A2FE002843D104F0CAFEA26BE36B9E
S315000009709A42CDD104F0D6FE019904F1100000F0A0
S31500000980E7FD2046FFF796FE00F0AAFC0028C6D138
S315000009904FF08053C8F80430BFF34F8FBFF36F8F0B
S315000009A0BDE702A800F074FEC4E732463946204689
S315000009B0FFF750FE636A33B958B904F0B3FE01205D
S315000009C004B0BDE8F08104F1240000F0F9FD002830
S315000009D0F3D04FF08052094B5A60BFF34F8FBFF3ED
S315000009E06F8FEAE704F09EFE002004B0BDE8F081B8
S315000009F02046FFF75FFE00F073FCF5E700ED00E030
S31500000A00F8B504460E4604F0DBFEEFF3118510231D
S31500000A1083F31188A36BE26B9A4211D994F84520AF
S31500000A200133FF2AA36357B20ED1636AA3B104F15F
S31500000A30240000F0C5FD78B176B1012333600BE0E8
S31500000A40002085F31188F8BD00F032FD874203D2FD
S31500000A5001377FB284F845700120F2E7F0B504460D
S31500000A6085B00F46019204F04BFEA56B002D59D1BF
S31500000A70019BA3B302A800F00BFE2E4604F052FE23
S31500000A8000F026FC04F03CFE94F84430FF2B08BF2F
S31500000A9084F8446094F84530FF2B08BF84F845601D
S31500000AA004F040FE01A902A800F0FEFDE0B904F042
S31500000AB027FEA36B2BBB04F035FE019904F124003D
S31500000AC000F046FD2046FFF7F5FD00F009FC00B3F7
S31500000AD004F016FEA56B2DBB019B002BCED104F0B6
S31500000AE021FE002005B0F0BD2046FFF7E3FD00F033
S31500000AF0F7FB04F005FEA36B002BF0D004F012FE0A
S31500000B00E6E704F00FFE2046FFF7D4FD00F0E8FB11
S31500000B10DEE74FF08052164B5A60BFF34F8FBFF39C
S31500000B206F8FD5E7226C5AB1E168A36811449942E8
S31500000B30E16028BF2168384628BFE16034F0DDFE59
S31500000B402369013DA56323B904F0ECFD012005B03E
S31500000B50F0BD04F1100000F033FD0028F4D04FF092
S31500000B608052034B5A60BFF34F8FBFF36F8FEBE793
S31500000B7000ED00E070B5044684B0019104F0C0FDBC
S31500000B80A56B002D59D1019BA3B302A800F080FDEF
S31500000B902E4604F0C7FD00F09BFB04F0B1FD94F86F
S31500000BA04430FF2B08BF84F8446094F84530FF2B8F
S31500000BB008BF84F8456004F0B5FD01A902A800F05D
S31500000BC073FDE0B904F09CFDA36B2BBB04F0AAFDFA
S31500000BD0019904F1240000F0BBFC2046FFF76AFDF2
S31500000BE000F07EFB00B304F08BFDA56B2DBB019BD3
S31500000BF0002BCED104F096FD002004B070BD204637
S31500000C00FFF758FD00F06CFB04F07AFDA36B002B98
S31500000C10F0D004F087FDE6E704F084FD2046FFF7F8
S31500000C2049FD00F05DFBDEE74FF080520F4B5A6046
S31500000C30BFF34F8FBFF36F8FD5E72369013DA563E0
S31500000C4023B904F06FFD012004B070BD04F110005B
S31500000C5000F0B6FC0028F4D04FF08052034B5A60E7
S31500000C60BFF34F8FBFF36F8FEBE700BF00ED00E0E0
S31500000C70F1B170B40024104D23462A4604E0013336
S31500000C800A2B02F108020ED05668864211D0002CBB
S31500000C90F5D155F833600133002E08BF14460A2BF0
S31500000CA002F10802F0D10CB1C4E9001070BC704723
S31500000CB0704705EBC304F7E77897012070B5044643
S31500000CC00E46154604F01CFD94F84430FF2B04BF75
S31500000CD0002384F8443094F84530FF2B04BF0023EA
S31500000CE084F8453004F01EFDA36B23B12046BDE811
S31500000CF07040FFF7DFBC04F124002A46314600F0BD
S31500000D0037FC2046BDE87040FFF7D4BC2DE9F04122
S31500000D10044604F0F5FC394A394E13680133136072
S31500000D203368002B3ED0374FE36A3A68002A32D048
S31500000D30354D364936480A6804F1040C01326264BE
S31500000D400A6002689A4238BF036003EB830305EB2F
S31500000D50830041689B00EA58D1F808E0A160C4F816
S31500000D600CE00132CEF804C0C1F808C06061EA5058
S31500000D7004F0D8FC3B6863B13268E36AD26A9A42EF
S31500000D8007D24FF08052234B5A60BFF34F8FBFF309
S31500000D906F8FBDE8F08132681B4DD26A9A4298BFC8
S31500000DA03460C6E734601368012B03D0E36A164D3E
S31500000DB0144FBEE7144D2F4605F164083846143724
S31500000DC0FFF72EFB4745F9D1DFF86480124F404606
S31500000DD0FFF726FB3846FFF723FB1048FFF720FBFB
S31500000DE00F48FFF71DFB0F48FFF71AFB0E4BC3F822
S31500000DF000800E4B1F60E36A024F9AE7F0970120CE
S31500000E00C8980120E497012064980120D497012016
S31500000E10E897012000ED00E03C9801202098012091
S31500000E200C980120F497012038980120349801206D
S31500000E30509801202DE9F8430446264B2648274AB8
S31500000E40274DD0F800901768D3F8008028680E4622
S31500000E500430FFF70DFB631C17D02B6819EB040455
S31500000E605C600BD2296838460431FFF7E9FA1D4B5E
S31500000E701A68A24200D91C60BDE8F883296840467A
S31500000E80BDE8F8430431FFF7DBBA76B92B6809F100
S31500000E90FF325A60B9F1000FF0D1296838460431A3
S31500000EA0FFF7CEFA0F4B1B68E6E70F4B29685A6827
S31500000EB01C688A602E680134286829681C602D68C1
S31500000EC0946804300431F460606091606B61BDE841
S31500000ED0F88300BF34980120EC9701203898012050
S31500000EE0C8980120D0970120F49701202DE9F843F6
S31500000EF089460A9C95002A460646A521206B1F4670
S31500000F00DDF8248034F090FC236B043D1D4425F06D
S31500000F100705B9F1000F0FD009F1FF3C09F10F01E8
S31500000F2004F133031CF9012F03F8012F0AB18C4594
S31500000F30F8D1002384F84330089B201D042B28BFDA
S31500000F4004239946E362FFF777FA04F11800FFF7E6
S31500000F5073FAC9F10503A36132463B462846216B65
S31500000F602461646204F0B2FB2060B8F1000F01D086
S31500000F70C8F80040BDE8F883F8B5154D2B6813B3E3
S31500000F80144F154E03E0012B1ED02B68DBB104F085
S31500000F90B7FBFB68DC68201DFFF76AFA3368013B84
S31500000FA033602B68013B2B6004F0BCFB94F8653082
S31500000FB0002BE8D1206BFFF7FBFA2046FFF7F8FA83
S31500000FC02B68002BE3D1F8BD2046FFF7F1FADCE7EA
S31500000FD0089801200C980120F09701204FF08056C8
S31500000FE008B5094C094DFFF7C7FF2368012BFAD94D
S31500000FF06E60BFF34F8FBFF36F8FFFF7BDFF2368A0
S31500001000012BF5D8EFE700BF6498012000ED00E062
S315000010102DE9F04F544B83B01D6801351D60002D3E
S315000010207FD052490B689D4265D3514E336818688C
S31500001030002800F0948000204E4B0746AA468146C1
S315000010404D4CDFF844E10093019147E05869D3E93C
S31500001050022CC2F808C0CCF8042042688A42026812
S3150000106008BFC0F804C0013A5F610260986A70B1B7
S31500001070D3E9072CC2F808C0CCF804204268AA427B
S31500001080026808BFC0F804C0013A9F620260DA6ACB
S31500001090DEF8000002EB820C04EB8C088242D8F8E2
S315000010A0040054F82C50D0F808B09860C3F80CB07F
S315000010B0CBF804108160C3F81480009B88BFCEF87B
S315000010C0002019680135336844F82C50C96A1B683A
S315000010D08A4288BF4FF00109002B34D03368DB68A1
S315000010E0DB685A68191D924503F11805AED20199BD
S315000010F048460A6003E000201E4B1F4C0093009BED
S315000011001E4A1B681268DB6A03EB830354F823301C
S31500001110022B28BF0120002A18BF012003B0BDE81A
S31500001120F08F134B164A186811681960154910603C
S315000011300A6801320A601A68126852B94FF0FF3322
S315000011400A490B606EE7484601994FF0FF330B6082
S31500001150D5E71B680549DB681B680B6062E7054B32
S31500001160054C0093F1E700BFEC970120D0970120D2
S3150000117038980120C898012064980120DC97012046
S3150000118034980120D8970120E89701202DE9F043F3
S31500001190904668220F46002187B0109C059299461A
S315000011A00F9D059B0491F4B1CDB10646204634F05F
S315000011B03BFB25630E9D02940095022584F865503D
S315000011C004AD4B464246394630460195FFF78EFE42
S315000011D02046FFF79BFD049807B0BDE8F08328463C
S315000011E007B0BDE8F083204607B0BDE8F08300BF36
S315000011F02DE9F043074685B0900016468846994685
S31500001200FFF74AF9F8B105466820FFF745F90446A5
S31500001210B0B16822002134F007FB25630D9D4B46D3
S3150000122001950C9D32464146384602940095FFF7DB
S315000012305DFE2046FFF76AFD012005B0BDE8F0839C
S315000012402846FFF7B5F94FF0FF3005B0BDE8F0834B
S3150000125030B500248DB0174B07AA06A905A8089338
S31500001260CDE905448DF8244004F082FBDDE9051242
S315000012702346CDE901211048079A009408A9FFF7F3
S3150000128085FF0E4B186018B90D4B1B680DB030BDAD
S3150000129000F0D6FB0128F7D180F310884FF0FF3518
S315000012A00849094A094B0D6010601C6004F06AFA8F
S315000012B0EAE700BF49444C45DD0F0000CC9701200A
S315000012C0A4630300D0970120E4970120EC97012046
S315000012D0024A136801331360704700BFC8970120A4
S315000012E02DE9F04FDFF87C8183B004F009FAD8F8D5
S315000012F00030013BC8F80030D8F800A0BAF1000F62
S3150000130040F08E804E4B1B68002B00F08980DFF882
S3150000131058C1DCF80030002B00F08E80494B4A4E55
S315000013200193DCF80C30DB689A6AD3E9070154684C
S315000013308160486003F11800844208BF516011685B
S31500001340C3F828A0013911605A69D3E902148C60E8
S31500001350616051681D1DA94211683C4801F1FF31C9
S31500001360116008BF54600068DA6ADCF800E0824267
S3150000137088BF364802EB820188BF0260344806EB1C
S31500001380810700687C68D0F82C9056F82100D4F8C4
S3150000139008B001304A459C60C3F80CB0CBF8045045
S315000013A0A5605F6146F8210002D90122019B1A60FF
S315000013B0BEF1000FB5D1274B1A681268002A36D045
S315000013C01A68254BD26812681A60244D2C689CB1A5
S315000013D00126019F05E0FFF71BFE00B13E60013CC0
S315000013E009D0D8F80030002BF5D02B68013C03F16A
S315000013F001032B60F5D12C60019B1B6883B14FF074
S315000014008052174B124909685A60BFF34F8FBFF3DA
S315000014106F8F012404F086F9204603B0BDE8F08FF3
S31500001420002404F07FF9204603B0BDE8F08F4FF0AA
S31500001430FF32094B1A60C8E7024B0193C5E700BFAC
S31500001440F0970120DC97012064980120E89701209D
S31500001450C898012038980120D0970120E0970120F4
S3150000146000ED00E0C89701202098012008B540B99A
S315000014704FF08052094B5A60BFF34F8FBFF36F8F07
S3150000148008BD074A1368013313600021FFF7D2FC39
S31500001490FFF726FF0028EBD008BD00BF00ED00E0F7
S315000014A0C8970120014B1868704700BFEC970120D0
S315000014B0014B1868704700BFF0970120054B1B6869
S315000014C00BB9FFF7A5BD044A00201368013313606A
S315000014D0704700BFC8970120E0970120174B1B6893
S315000014E01BB10122164B1A607047154A30B4154CD1
S315000014F013602368144903EB830251F822509800C5
S3150000150001EB82022DB952F8140D013B0028FAD0E6
S315000015109800C21801EB8200014642680831526801
S315000015208A42426008BFC268084908BF4260D26862
S315000015300A6023600B6830BC704700BFC897012063
S31500001540DC970120E897012064980120C8980120C3
S3150000155010B50C46054B19681831FEF771FF204689
S31500001560BDE810400121FFF765BC00BFC898012007
S315000015700346F0B5114C002A2768D4F800E0266827
S315000015802568D4F800C05C6808BF084611461A688A
S31500001590FC61A76806F1180605F1180502F10102BB
S315000015A0CEF8207018BF4FF0FF307E60A560CCF8F3
S315000015B02830BDE8F0401A60FFF73CBCC89801200F
S315000015C0F0B40026C368DB689A6AD3E90701816034
S315000015D04860506803F11804A042274808BF5160CC
S315000015E0116805680139D86A9E621160002D2FD1F5
S315000015F0D3E902415A69A1604C6054681E1DB44289
S3150000160008BF51601168013911601C4A1168814296
S315000016101B4938BF106000EB800201EB82077D6832
S315000016209200D5F808C08C589D60C3F80CC0CCF861
S315000016300460AE605F61134B01341B688C50DB6A3B
S31500001640834215D2F0BC01230F4A18461360704737
S315000016500E4A15685168013515608D68D9611D629D
S315000016606C608C609A62074B1B68DB6A8342E9D325
S31500001670F0BC0020704700BFC8970120E897012002
S3150000168064980120C8980120DC9701202098012049
S31500001690034A044B12681B68C0E90023704700BF69
S315000016A0D8970120EC970120F8B50D46044604F0C2
S315000016B027F82B68124A581C11681BD0D4E9006021
S315000016C0DFF840C0DCF80070BE4208D0884206D879
S315000016D0002301242B6004F025F82046F8BD0F1ADC
S315000016E0BB42F5D95B1ADCF80010126803442B6084
S315000016F0C4E90012002404F015F82046F8BD00BF26
S31500001700EC970120D89701200122014B1A607047FF
S31500001710DC970120F0B5124C83B003F0F1FF256889
S3150000172025B103B0BDE8F04003F0FCBF0D4E0E4FEF
S315000017303046FEF775FE3846FEF772FE0B490C4B37
S3150000174000950A201F600E600A4B0C210A4AFFF71B
S3150000175039F820600028E4D00849FFF789FAE0E765
S315000017609C990120BC990120A8990120A4990120E7
S31500001770A0990120CC9801201C990120A8630300A0
S315000017802DE9F047DFF884900546D9F800300F467A
S31500001790DB68DC6804F104084046FEF769FE94F84D
S315000017A028305A070ED423F0010384F82830204647
S315000017B0236ABDE8F047184793421BD82046236AA0
S315000017C098473546A3697A1BEE182CBF01210021E4
S315000017D0B74266602461EFD2AF4201D20029EDD054
S315000017E0D9F800004146FEF72BFE2046236ABDE8E5
S315000017F0F0471847044B41461868FEF721FE20467D
S31500001800236ABDE8F0471847A0990120A499012052
S315000018102DE9F04F4FF00009844DDFF81C82DFF808
S315000018201CA2834C85B02B681F68002F00F0D08067
S31500001830DB681F68FFF74CFDFFF734FED8F8003071
S315000018400646984242D38742C8F8000040F2DD803F
S3150000185000222068B91BFFF731FAFFF741FD38B9BE
S315000018604FF08052734B5A60BFF34F8FBFF36F8FA9
S31500001870CDE90199CDF80C900022206801A9FFF767
S31500001880EDF80028CFD0019B002BF5DB039E736992
S3150000189013B1301DFEF7ECFDFFF704FED8F800305B
S315000018A00746984226D3019BC8F80070013B082BD7
S315000018B0E2D8DFE803F02929676E842929676E00DC
S315000018C0DB684FF0FF311868FFF75AFF2B681A687C
S315000018D0002AF5D1DAF80020C8F800602A60CAF8B4
S315000018E00030FFF7FDFCC3E7DB684FF0FF311868F7
S315000018F0FFF746FF2B681A68002AF5D1DAF80020B0
S31500001900CAF800302A60CEE796F82810029AB06925
S3150000191041F0010386F8283013182CBF4FF0010C54
S315000019204FF0000CBB423661736064D8BA1A90421D
S315000019303FD84A070ED421F0010186F82810304618
S31500001940336A984798E781426AD33046336A9847A4
S315000019505B46B06913EB000B2CBF4FF0010C4FF048
S31500001960000C5F45A7EB0301C6F804B03661EAD266
S315000019709F4202D2BCF1000FE7D02868311DFEF766
S315000019805FFDDCE796F8283023F0010386F828305F
S3150000199072E7029A96F82830D11943F00103B9424A
S315000019A086F82830B2617160366129D8002A3FF482
S315000019B063AFDAF80000311DFEF742FD5CE796F8EA
S315000019C028309A0728D523F0010386F8283053E7F4
S315000019D0FFF77EFCFFF766FDD8F800300646984212
S315000019E0FFF474AFDAF80030C8F800601A68B2FA8B
S315000019F082F252092DE7BA4202D9BCF1000F98D003
S31500001A002868311DFEF71CFD36E7FFF769FC3146F5
S31500001A103846FFF7B5FE2BE73046FEF7C9FD2BE744
S31500001A20DAF80000311DFEF70BFD88E7A4990120C6
S31500001A309C99012000ED00E094990120A0990120D5
S31500001A4010B588B0FFF766FE0F4B1868C8B10024C2
S31500001A5007AA06A905A8CDE9054403F097FF0322C6
S31500001A602346059C00920294069C079A074908485B
S31500001A700194FFF78BFB0346003818BF0120054A87
S31500001A80136008B010BD00BF9C990120B06303002D
S31500001A90111800009899012000BE704708B500F0A3
S31500001AA035F803F041FFFEE7F8B5174F05463E68E7
S31500001AB0A6B17C6806EB460604EB860602E00C340B
S31500001AC0B4420BD0637AAB42F9D1D4E900020021CB
S31500001AD0121A0C3433F0A8FEB442F3D1BE6896B1A4
S31500001AE0FC6804EB061602E01034A6420BD0637BBA
S31500001AF0AB42F9D1D4E90002A168121A103433F0CE
S31500001B00FCFEA642F3D1F8BD286D03004FF4700128
S31500001B10274B284A70B50020C3F888109A6033F026
S31500001B20B9FA00F069F8012033F0B4FA224B83F3D6
S31500001B300A880020FFF7B8FF00F048F800F036F9F1
S31500001B40032000F073FA00234FF6FF701B4903F1E0
S31500001B50080201330C2B21F81200F8D100240320CF
S31500001B6000F034FA032000F061FA154B03205C60A4
S31500001B709C60DC601C6100F029FA022033F08AFACE
S31500001B800120FFF791FF0F4D0F4B5B1BA3424FEA5E
S31500001B90A30605DD55F8043B01349847A642F9DC57
S31500001BA000F0C8F9BDE87040002000F057B900BF4A
S31500001BB000ED00E00000000020030020000D0840BA
S31500001BC000000E40680505006C050500064B074938
S31500001BD093F826001A6A51F82030C2F302620449CB
S31500001BE0D3400B60704700BF00E001402007002093
S31500001BF0D0990120704700BFF8B54AF2035001237F
S31500001C005E495F4AA1F8FE03A2F80431B2F8043136
S31500001C109BB2002BFAD101204FF400454FF0090C7E
S31500001C20584CDFF880E1584EC4F804E0DFF878E15C
S31500001C305249C4F80CE0A2F80001B060534A306083
S31500001C405348544FC4E90502A56091F82620256142
S31500001C502760086A54F822204F4DC0F30260C24044
S31500001C602A6081F8133481F8A2C091F880341BB938
S31500001C7091F8813498077CD0404E96F88034002B3A
S31500001C806CD000223D4B83F8812483F88024002306
S31500001C903A4A82F8363092F83C30D907FBD5002311
S31500001CA0364982F8323091F83C301A07FBD50023CA
S31500001CB042F6117643F20210304AA1F8486081F8E4
S31500001CC04A30088581F82A3092F83C309B06FBD5CD
S31500001CD0032005232A494FF0F10C81F81C012F49F6
S31500001CE02F48116282F8263092F82630166A54F888
S31500001CF02310C6F30264E14029600123F026002583
S31500001D00802480F80CC00372067382F8303082F8A3
S31500001D10523082F83E5082F83E4092F876301749AB
S31500001D2043F0400382F8763091F87630DB09FBD039
S31500001D30C623032081F86E0081F8763091F876305C
S31500001D400E4A03F0BF0381F8763092F87630DB094D
S31500001D50FBD14FF42543A2F8FE33F8BD0121C8207C
S31500001D6086F8801400F082F896F88034012BFBD1B7
S31500001D7087E74FF47A70FFF73DFF88E700E0014000
S31500001D8000C001402007002000700040001C4E0EDD
S31500001D9000C2EB0B002D3101D09901202112012048
S31500001DA00020004000127A0000366E0138B500258A
S31500001DB0284C0121C82084F8285000F057F884F8F0
S31500001DC0245094F82430002BFBD194F82430214978
S31500001DD043F0020384F8243091F82430C3F3400022
S31500001DE09B07F9D41B4A81F8220092F8223003F0AF
S31500001DF0FF00002BF9D192F84030164960F3C71363
S31500001E0082F8403091F84030DB09FBD191F842006E
S31500001E10104A63F3C71081F8420092F84230DB099A
S31500001E20FBD192F844000B4963F3C71082F84400D3
S31500001E3091F84430C3F3C014DB09F9D1012000F056
S31500001E40F5F8054B012083F8BB44BDE8384000F0A7
S31500001E50BDB800BF0030084000E00140704700BF39
S31500001E60A0F101000028FBD1704700BF1F4B204A9C
S31500001E701B6800FB01F1934213D302F1854202F580
S31500001E80071203F5741302F6834203F6FF03A2FB5F
S31500001E9003231B0DA3FB01314FF0FF30F9B1FFF710
S31500001EA0DFBF4FF47A7210B4A1FB02C41148B0FB35
S31500001EB0F3F34FF0FF3044B9BCFBF3FC4FEA9C0050
S31500001EC088B15DF8044BFFF7CBBF9B00B1FBF3F184
S31500001ED0A1FB0212002AF4D1084620B1F1E7184608
S31500001EE0002BDCD170475DF8044B7047D099012078
S31500001EF000127A0000CA9A3B70B500240B4B0C4EB8
S31500001F00B3F82021B3F84051ADB2154025FA04F3D9
S31500001F10DB0704D556F82430E0B203B19847013404
S31500001F20102CF3D1014BA3F8305170BD0060004076
S31500001F30D4990120F0B5032085B000F077F800278A
S31500001F406FF0FF014FF0FF361C4C1D4B2246996483
S31500001F504FF0010C3B46CDE9016604F124050396DA
S31500001F6032F8021F0CFA03F0013311B1012726EAF9
S31500001F700006AA42F4D1F7B10196124B104A03208B
S31500001F801667C3F8806202995167C3F884120399F1
S31500001F909167C3F8881200F019F800230A4834F84C
S31500001FA0022F03F1C00101330AB140F82120A542F6
S31500001FB0F5D105B0F0BD4FF0FF36DEE72A7103001C
S31500001FC00080004000E100E000600040EFF3108177
S31500001FD0012383F31088124B33F8102092B22AB1F2
S31500001FE033F81020013A92B223F8102033F810305B
S31500001FF09BB293B90B4A10B4B2F8FE330A4C9BB2AB
S3150000200034F8100043F4254323EA0003A2F8FE3314
S3150000201081F310885DF8044B704781F31088704790
S31500002020609A012000E001401C6D030030B4EFF31C
S315000020301081012383F310880E4A32F810309BB2C8
S315000020406BB90D4C0D4DB4F8FE3335F810C09BB28C
S3150000205043EA0C0343F425439BB2A4F8FE3332F85B
S31500002060103001339BB222F8103081F3108830BC57
S31500002070704700BF609A012000E001401C6D03001C
S3150000208008B533F01FFC0C2203464FF0FF301A60F0
S3150000209008BD00BF30B4D0E90004226800EB02128C
S315000020A093681D0C4D731D0E0D739BB20B60D368A8
S315000020B0D0F8B0509BB20B61D0F8A0324D60DB4334
S315000020C0C3F30D038B6094F91530002030BC002B50
S315000020D0BCBF0023D360704784460020CCE905329C
S315000020E0CCF81010704700BF1F2930B536D801F163
S315000020F0400E00EBCE1EDEF800301B4DC3F380749D
S3150000210054714FEAD37CDEF8084023F0604382F82E
S3150000211004C01360DEF8043004F007041B0F94605B
S31500002120EC5C0EF10C03947144B10C34A6440B32F2
S3150000213013F801CB734502F801CFF9D11F2905D851
S3150000214001238B40DB43C0F8B03030BDFF23272985
S315000021508CBF6831203140F8213030BD01F1A00E2E
S3150000216000EBCE1EC7E700BF1C6E03001F29034607
S3150000217010B5006809D80123D0F8B0408B4023423F
S315000021800ED0FFF7B1FF002010BD27290AD8012382
S31500002190D0F8A042A1F1200C03FA0CF32342F0D0B0
S315000021A0242010BD5B68D0F8A0421B6803EB4303F4
S315000021B019440123A1F1200C03FA0CF3A343EFD039
S315000021C0FFF792FF0020DFE770B5456904460E462B
S315000021D098B0A5B160222946684633F08EFB60228E
S315000021E03146284633F089FB2846236998476069BB
S315000021F018B16022694633F080FB18B070BD0D46F9
S31500002200F2E700BF2DE9F04146680F06356804681D
S3150000221001F00F0252D404EB0518D8F804704FEA07
S31500002220051E17F0040F0EF1040333D117F0010F4A
S3150000223004EB030C01D1052A2FD0D8F8043023F083
S3150000224007031343C8F80430DCF8043003F007032F
S315000022509A42F9D1BA0715D0CB0713D4336905EBE7
S315000022604505DE69EF1C303656F8253004EB85024D
S31500002270D2F8201103F0010301350B43BD42C2F829
S315000022802031F1D1A644DEF8043003F007030373CE
S31500002290BDE8F08111F0010FC8D104EB030CD8F8AA
S315000022A0043023F0070343F00103C8F80430DCF8D8
S315000022B0043003F00703012BF9D1BEE7D4F88830C8
S315000022C013F0010C19D1CB0717D5634604EB830E27
S315000022D0DEF8C070013327F00107082BCEF8C07076
S315000022E0F4D1002304EB830EDEF82071013327F0CE
S315000022F00107062BCEF82071F4D1D4F8883023F0EC
S3150000230007031343C4F88830D4F88C3003F007036E
S315000023109A42F9D1BCF1000F0ED011F001010BD198
S315000023203369DB69043301F1300253F8046F01317C
S31500002330082944F82260F6D14FEA051EA644DEF8C5
S31500002340043003F007030373BDE8F08138B50023BA
S315000023504468836094F91530002B0DDB0121354D5F
S315000023605A0903F01F03203201FA03F345F822301D
S31500002370BFF34F8FBFF36F8F94F91730002B0DDB30
S3150000238001212C4D5A0903F01F03203201FA03F3F1
S3150000239045F82230BFF34F8FBFF36F8F94F9163095
S315000023A0002B0DDB0121234D5A0903F01F032032B8
S315000023B001FA03F345F82230BFF34F8FBFF36F8F57
S315000023C0236843B908221B4BC3F88020BFF34F8F05
S315000023D0BFF36F8F2368B3FA83F3174D5B0955F884
S315000023E023303BB10521FFF70DFF0020236845F898
S315000023F0230038BD10220F4BC3F88020BFF34F8F48
S31500002400BFF36F8F8121FFF7FDFE8521FFF7FAFEEF
S31500002410EFF31081012383F31088084B9A6842F08A
S3150000242000629A609B6881F310880020236845F853
S31500002430230038BD00E100E06C9A0120004008400E
S3150000244070B5437B0D46934213D014464268802CE8
S31500002450166816D0802B2BD00221FFF7D3FE026818
S3150000246002EB0612536823F0E06343EA0463536009
S315000024704473037BAB4202D02946FFF7C3FE00201C
S3150000248070BD0121036803EB061CDCF8042003F58C
S31500002490805322F08072CCF80420D3F8082301FA86
S315000024A006F61643C3F80863C3F80C134473E0E753
S315000024B001210368B14003F58053D3F8082322EACB
S315000024C00102C3F80823D3F80823002AC4D1C3F8AD
S315000024D00C23C1E7F0B513795579DB0743EA857319
S315000024E044681568272943EA05032468056828D83F
S315000024F001EB84142E1996F8D067360762D405EBE3
S31500002500C41C0CF5803CCCF800309679E301082E0B
S3150000251061D9182E59D937090B373F07CCF8047003
S31500002520976803F5803C07F0070EEF1807F5803330
S315000025300CF10C0CC3F808E0AC4402F10C0336BBFA
S3150000254033E0A1F1280604EB4404344405EBC41C33
S315000025500CF5C04CCCF800349679E301082E2FD93F
S31500002560182E3AD937090B3746F2084E3F07CCF8F2
S315000025700474976803F5C84C07F007072B440CF161
S315000025800C0C43F80E70AC4402F10C039EB106F13C
S315000025900C0E72440CF1FF3C13F801EB9A420CF856
S315000025A001EFF9D12729056805D801222B1983F8EF
S315000025B0D0220020F0BDFF22903445F82420F8E711
S315000025C03746D1E74EF66320F0BDA6F10807BF08EF
S315000025D00837FFB2A1E737469FE7A6F10807BF080D
S315000025E00837FFB2C0E700BF00222DE9F04F0B68A5
S315000025F083B000938B68D1F810B0CE4E0361CB68E0
S3150000260088460746C0E90523DBF81C500660416092
S31500002610EFF31081012383F31088C74B9A6822F0E9
S3150000262000629A609B6881F31088D6F88C30DB07CD
S3150000263000F13181C14B019395F82C30C04A1B0142
S31500002640DBB282F80333019BDF60BE4BD3F80C1379
S3150000265021F48031C3F80C13D3F80C33BFF35F8F2A
S315000026600823C2F8803113604FF480730099B64A8C
S31500002670B04D012942F82170DBF800A0C5F898306A
S3150000268021D0002441F60806009B03F0010904F05E
S315000026900F0E22090EF5C07C42F4807205EB0C1C6D
S315000026A0C5F898209AE80F008CE80F0005EB0E1E7F
S315000026B05EF80630013469F3C713202C0AF1100ABC
S315000026C04EF80630E3D100249A4B01213846C3F870
S315000026D09840FFF797FDDBF81450D8F80460696856
S315000026E03368FF29084628BFFF20013BC3F3090CC6
S315000026F02B680139013BDBB243EA01237168934A37
S3150000270001394CEA4141D6E902C60CF1FF3C013ED3
S3150000271041EA4C6141EA8621D5E90265013E43EA78
S315000027200643009E013D43EA0563350105F18045F8
S3150000273005F530252960710101F1804101F531214E
S31500002740C1F800349BF818304FEAC60A5B0243EA28
S31500002750004343F4806343F00103C1F80434DBF81B
S315000027600800DBF80C10524403C2DBF8103043F0CB
S3150000277003036B6098F91530A34226DB98F8142002
S3150000278003F160411201D2B201F5614181F80023E3
S31500002790019A03F1C00142F823706A4A52F82100F7
S315000027A064F3104042F8210052F82120BFF35F8FF6
S315000027B0012203F01F015B099B0003F1604303F54F
S315000027C061438A40C3F880211A6098F91730002BBC
S315000027D026DB98F8142003F160411201D2B201F50C
S315000027E0614181F800230199564A41F8237003F1AB
S315000027F0C00152F8210020F4803042F8210052F83E
S315000028002120BFF35F8F012203F01F015B099B00AC
S3150000281003F1604303F561438A40C3F880211A60DF
S3150000282098F91630002B27DB98F8142003F1604145
S315000028301201D2B201F5614181F800230198414AA3
S3150000284003F1C00140F8237052F8210020F48030D3
S3150000285042F8210052F82120BFF35F8F01215A0967
S31500002860920003F01F0302F1604202F5614201FA91
S3150000287003F3C2F88031136038468021FFF7C2FCAB
S315000028800021FFF7BFFC00231846314ABB81BA601E
S3150000289003B0BDE8F08FD6F88C4014F00804FAD1E6
S315000028A081213846FFF7AEFC4FF4001C23466A68C8
S315000028B02849C6F88420C6F89CC0C1F81443AA6A01
S315000028C01C48C6F8AC202A1D03F1300152F8046FEB
S315000028D00133082B40F82160F6D195F82D30184ABF
S315000028E01B01DBB282F80433144B00211E46019310
S315000028F0144B3161D3F8106361F31046C3F81063CB
S31500002900D3F81033BFF35F8F1023C2F88031136002
S315000029102A4652F82C3B074EC0F8883052F8043F3E
S3150000292004F14801013423F00103062C46F8213056
S31500002930F4D181E600000B4000400840189A0120BF
S3150000294000E100E0006000406C9A0120500F0B404F
S315000029504446435200100B4070B598B0EFF3038322
S31500002960103B5BB2032B2BD01C462D4B5A22002169
S315000029700DF1060053F8245032F056FF4FF48072E2
S3150000298000216B68ADF804201E682B68284603EB0F
S315000029900613DA6892B20292D960AB69694600966C
S315000029A00493FFF711FC1F4A04F1C00352F82310E9
S315000029B021F4803142F8231052F8233018B070BD4C
S315000029C0194B6022002168461C6832F02DFF4FF437
S315000029D0805300212268ADF80430D2F89030180CEC
S315000029E01B0403EB007302939B03C2F890100ED5F1
S315000029F0D2F8A83293FAA3F3B3FA83F302EB830275
S31500002A000393D2F8E03023F00403C2F8E030A36960
S31500002A102046694604930324FFF7D6FBC3E700BFAD
S31500002A20189A0120006000406C9A01202DE9F043BD
S31500002A30284D99B0D5F8AC4294FAA4F4002C38D0BD
S31500002A40B4FA84F4072C34DC01274FF48062D5F8FD
S31500002A50A032A74004F120083B42CDF80C80ADF827
S31500002A6004201BD105EBC41606F5C046DFF86C90B2
S31500002A70083633684146C3F30123164805AA009376
S31500002A80FFF732FB009B694659F8230083690493DC
S31500002A90FFF79AFBD5F8A0323B42EAD0A40004F136
S31500002AA0804404F53024D4F8E03023F00803C4F859
S31500002AB0E030084BD3F8AC3243B9074AD2F81013CA
S31500002AC063F31041C2F81013D2F8103319B0BDE801
S31500002AD0F08300BF00000B40006000406C9A0120AC
S31500002AE02DE9F04399B0EFF30384454B103C64B2F3
S31500002AF053F82490D9F80430D9F818201F68D9F86B
S31500002B0000101D6901F598580097049218F80730CF
S31500002B10B844002B61D007262AE04FF4006003F585
S31500002B20617301EB83021368ADF8040093FAA3F313
S31500002B301BB1B3FA83F3072B07DD536893FAA3F3AC
S31500002B40002B5AD0B3FA83F3203303EB87121144D8
S31500002B5091F8D02722F0060281F8D0276946484628
S31500002B600393FFF731FB98F80030B3B3D9F80010A0
S31500002B7098F800207B00D0B2D20727F00047CCD4CB
S31500002B80020723D5EA690C3352F82330D1F8B40290
S31500002B9013F4805F0CBF4FF400534FF4006307EB50
S31500002BA0470206FA02F20240ADF8043092FAA2F2A7
S31500002BB002B3B2FA82F202F1280301EB8202D2F8E2
S31500002BC0E01121F01001C2F8E011C7E703F56B73BD
S31500002BD04FF4007001EB8302A5E70A4BC03453F8AB
S31500002BE0242022F4803243F8242053F8243019B0EC
S31500002BF0BDE8F08348232022DFE74023A5E700BF96
S31500002C00189A0120006000402DE9F04399B0EFF3D7
S31500002C1003892F4BA9F110094FFA89F953F8296056
S31500002C20D6E90003D0F8B0421A6804F03F0494FADB
S31500002C30A4F4002C47D0B4FA84F3012513F01C0F3A
S31500002C4003F108011C4618BF03F0030305FA01F55A
S31500002C500CBF2833283303934FF48063ADF8043058
S31500002C60D0F8A03200922B4214D1DFF86C8004F128
S31500002C702807394605AAFFF737FA009B694658F830
S31500002C80230083690493FFF79FFA3068D0F8A032D7
S31500002C902B42EED000EB8404D4F8E03123F0080395
S31500002CA0C4F8E031D0F8B03253B90A4A09F1C00984
S31500002CB052F8291063F3104142F8291052F82930CE
S31500002CC019B0BDE8F0834FF480752823C3E700BF31
S31500002CD0189A0120006000406C9A01200346090101
S31500002CE09B6841F00101C9B200205977704700BFC7
S31500002CF00023826818465377704700BF03460122B7
S31500002D009B6800201A777047024610B44FF480344F
S31500002D1092680C60148A4FF6FF7314F4404F18BF84
S31500002D204FF48063D46800204C6092685DF8044BD1
S31500002D3092B2C1E90232704706207047034600206E
S31500002D40D9605A61704700BF30B400244268124D02
S31500002D505268034611788068A03145F82140D16851
S31500002D600477A9B14FF0010C92F901100B4D4809F7
S31500002D7001F01F0120300CFA01F145F82010BFF3D5
S31500002D804F8FBFF36F8F064992F9012041F8224019
S31500002D90002030BC186070470060004000E100E091
S31500002DA0189A012091F803C02DE9F04700246746E0
S31500002DB0436891F802905E6883683278B6F80A80B4
S31500002DC0920002F1804202F5C042C9F3810EC2F8B8
S31500002DD08042CCF3810A1C774FEA8E1EC2F88082AD
S31500002DE05C774FEA9C12CD894EEA8A3E07F0C00A0C
S31500002DF09203CCF3011CBAF1800FADB242EA0C2269
S31500002E005FD0BAF1400F5CD0BAF1C00F00F09780E6
S31500002E1042F40052B8F1000F01D042F00102D0F89E
S31500002E200CC0BCF1000F33D019F0200F54D14FF075
S31500002E30100C96F90170B37807F160481B01DFF8B2
S31500002E401091DBB208F5614888F800333F4B07F173
S31500002E50C00849F8270053F8289029F4803943F828
S31500002E60289053F82830BFF35F8F4FF001087B0995
S31500002E709B0007F01F0703F1604303F5614308FA5F
S31500002E8007F7C3F880711F60CF78836807F0C00A20
S31500002E90BAF1C00F28D00020074692B21FFA8EFE64
S31500002EA09F62D862A3F814E01A82486872681860B4
S31500002EB0896859609D60DC609A6183F813C0BDE83B
S31500002EC0F0878C8905EB0545C9F3001C25F0FC2528
S31500002ED0A4B242EA0C329DE7BAF1C00F14BF4FF01C
S31500002EE01C0C4FF0100CA4E7888907F00C07042F80
S31500002EF080B208BF074691F80290B1F80E8009F03B
S31500002F000C0918BF37891FFA88F808BF4EF4005E0F
S31500002F10B9F1040F1CBF10FB08F81FFA88F0D1F8AE
S31500002F20048008BF4EF0200EC3F82080D1F8088038
S31500002F3007EB074700EB0040C3F82480ADE78C8918
S31500002F4005EB054525F0FC25A4B263E700600040CB
S31500002F50189A012038B500254A684160137804465E
S31500002F6003F1012340339B018360D368C360536937
S31500002F70C0E90453EFF3108E4FF0010C8CF3108868
S31500002F80084B1A6822F480021A601B688EF31088B8
S31500002F90054B096883F800C0FFF704FF034B28467A
S31500002FA0236038BD004008400052004043414D4474
S31500002FB010B50446FFF7F6FE0122A36800201A7733
S31500002FC010BD00BF0346002210B4D3E90141646876
S31500002FD01046237864899B0003F1804303F5C043C0
S31500002FE0C3F880220A77C3F880425DF8044B4A771B
S31500002FF0704700BF10B4002483B001910092D0E95D
S315000030000121506802784089920002F1804202F55F
S31500003010C042C2F880420C77C2F880024C77019A0F
S315000030200AB1019A0A60009A0AB1009A4A600A8AAD
S31500003030002012F4404F14BFCB608B6001230B7746
S3150000304003B05DF8044B704710B582B0EFF303830D
S31500003050103B0D4A5BB203F1C00152F8210020F487
S31500003060803042F8210052F82120084A01A852F87F
S3150000307023406269E36801929847A368DA680AB157
S3150000308001221A7702B010BD00600040189A012094
S3150000309003460020D3E902235360704770B5836965
S315000030A084B004468C46164601AD9BB193E80700F2
S315000030B085E8070083F804C0E26918469E601A6036
S315000030C063699847A3691BB195E8070083E8070081
S315000030D004B070BD2B46EDE730B44268034692F962
S315000030E01210D269002910DB012401F01F05AC4043
S315000030F04809494D203045F82040BFF34F8FBFF3B4
S315000031006F8F0024454840F8214092F92810002985
S3150000311010DB012401F01F05AC4048093E4D20306C
S3150000312045F82040BFF34F8FBFF36F8F00243B4815
S3150000313040F8214092F92910002910DB012401F002
S315000031401F05AC404809344D203045F82040BFF3F8
S315000031504F8FBFF36F8F0024304840F8214092F91B
S315000031602A10002910DB012401F01F05AC40480994
S31500003170294D203045F82040BFF34F8FBFF36F8FA6
S315000031800024264840F8214092F92B10002910DB34
S31500003190012401F01F05AC4048091F4D203045F8B9
S315000031A02040BFF34F8FBFF36F8F00241B4840F8BA
S315000031B0214092F92C10002910DB012401F01F0593
S315000031C0AC404809144D203045F82040BFF34F8FDE
S315000031D0BFF36F8F0024114840F8214092F92D204B
S315000031E0002A11DB01200C4C510902F01F0C203182
S315000031F000FA0CF044F82100BFF34F8FBFF36F8F36
S315000032000020064941F822000020D3E9022130BC03
S31500003210186091605063704700E100E0189A012041
S315000032202DE9F043012600250A7CD34B04461344BE
S3150000323006FA02F21B0212F00F0FC0E901130CBFCF
S3150000324033462B4603744B69C26043618B69C0E900
S315000032500653C869EFF3108786F310884FF00046CF
S315000032600A7CC64BD6401A6922EA06021A611B6915
S3150000327087F310884FF42543D0E90698A2684FF0EB
S31500003280004C1360D562D56395640E780B7A032ED5
S315000032904FEAC35308BF43F480334D68D36200231B
S315000032A06668013DD6F81CE0066DC2F810C0C2F88B
S315000032B014C0C2F818C053629362C2F81C90C2F8D8
S315000032C02080956655660EF130079EF848E02EFA86
S315000032D003F5ED070ED5032B57F8235000F069814F
S315000032E0042B00F0708103F1120C013D02EB8C0CF3
S315000032F0CCF804500133062BE9D100239363C2F8BE
S31500003300883036B990F8216090F82030760746EA82
S31500003310433690F848300125002B14BF4FF4A00324
S315000033204FF4AA03136456630326E3681663156312
S31500003330D36091F91230002B24DB4A7C03F1604103
S3150000334012018F4ED2B201F5614181F800238D4AF8
S3150000335003F1C00146F8234052F8216026F4803676
S3150000336042F8216052F82120BFF35F8F03F01F025D
S315000033705B099B0003F16043954003F56143C3F885
S3150000338080511D6090F92830002B27DB90F8222011
S3150000339003F160411201D2B201F5614181F80023C7
S315000033A07749784A41F8234003F1C00152F8215089
S315000033B025F4803542F8215052F82120BFF35F8F63
S315000033C001215A09920003F01F0302F1604202F53F
S315000033D0614201FA03F3C2F88031136090F9293093
S315000033E0002B27DB90F8232003F160411201D2B2B3
S315000033F001F5614181F800236149624A41F82340A1
S3150000340003F1C00152F8215025F4803542F82150CD
S3150000341052F82120BFF35F8F01215A09920003F071
S315000034201F0302F1604202F5614201FA03F3C2F89A
S315000034308031136090F92A30002B27DB90F8242086
S3150000344003F160411201D2B201F5614181F8002316
S315000034504B494C4A41F8234003F1C00152F8215030
S3150000346025F4803542F8215052F82120BFF35F8FB2
S3150000347001215A09920003F01F0302F1604202F58E
S31500003480614201FA03F3C2F88031136090F92B30E0
S31500003490002B27DB90F8252003F160411201D2B200
S315000034A001F5614181F800233549364A41F8234048
S315000034B003F1C00152F8215025F4803542F821501D
S315000034C052F82120BFF35F8F01215A09920003F0C1
S315000034D01F0302F1604202F5614201FA03F3C2F8EA
S315000034E08031136090F92C30002B27DB90F82620D2
S315000034F003F160411201D2B201F5614181F8002366
S315000035001F49204A41F8234003F1C00152F82150D7
S3150000351025F4803542F8215052F82120BFF35F8F01
S3150000352001215A09920003F01F0302F1604202F5DD
S31500003530614201FA03F3C2F88031136090F92D302D
S31500003540002B31DB90F8272003F1604112010C4873
S31500003550D2B201F5614181F800230A4A03F1C001A4
S3150000356040F8234052F8210020F4803042F8210030
S3150000357052F8212008E000BF9016400000400840A5
S31500003580189A012000600040BFF35F8F01215A099D
S31500003590920003F01F0302F1604202F5614201FA54
S315000035A003F3C2F8803113600C4B00202360BDE8A2
S315000035B0F083013D1EF0100FD5650DD00423042BBA
S315000035C03D697FF490AE013D1EF0200F95653FF4F6
S315000035D094AE05237D6986E6052378E654504700B8
S315000035E02DE9F041EFF30382103A7A4C4FFA82FC50
S315000035F00CF1C00E54F82E104FEA8C0321F48031E2
S3150000360003F1804344F82E1003F5C043D3F80013AA
S31500003610714951F82C0041680D78CE69012D09D009
S3150000362043692BB1BDE8F04100221146FFF736BDD4
S31500003630BDE8F0814FF00008D0E902178F60C1F8AD
S315000036404880C1F84C80C1F8508054F82E1002F022
S31500003650FF0268F3104144F82E10D3F80033BFF38D
S315000036605F8F5E494FEA5C1302F01F0205FA02F211
S31500003670603341F8232096F84830DA0703D596F9E7
S315000036802820424576DA9B0704D596F92930002B87
S3150000369080F2878096F92A30002B53DA96F92B3080
S315000036A0002B37DA96F92C30002B1BDA96F92D30E1
S315000036B0002BB5DB474A03F1C00152F8214024F440
S315000036C0803442F8214052F82120BFF35F8F012158
S315000036D05A09424C03F01F03603201FA03F344F81F
S315000036E022309DE73B4A03F1C00152F8214024F401
S315000036F0803442F8214052F82120BFF35F8F012128
S315000037005A09364C03F01F03603201FA03F344F8FA
S315000037102230CBE72F4A03F1C00152F8214024F4AE
S31500003720803442F8214052F82120BFF35F8F0121F7
S315000037305A092A4C03F01F03603201FA03F344F8D6
S315000037402230AFE7234A03F1C00152F8214024F4A6
S31500003750803442F8214052F82120BFF35F8F0121C7
S315000037605A091E4C03F01F03603201FA03F344F8B2
S31500003770223093E702F1C00354F823C068F3104CDB
S3150000378044F823C054F82330BFF35F8F540902F086
S315000037901F02954004F1600241F8225096F8483025
S315000037A071E70C4A03F1C00152F8214024F4803439
S315000037B042F8214052F82120BFF35F8F01215A09B8
S315000037C0064C03F01F03603201FA03F344F822307B
S315000037D060E700BF00600040189A012000E100E0A9
S315000037E00346002059601A72704700BF84460020C5
S315000037F0CCE90E32CCF83410704700BF0346044AB9
S31500003800DB6800209B1AB3FA83F35B090B707047E1
S315000038104349495230B5836B83B004460A466D4628
S31500003820A3B193E8030085E80300E16B1A7118461B
S31500003830626B19609047A36B1BB195E8030083E8A0
S315000038400300002384F82B3003B030BD2B46ECE791
S3150000385030B5404B83B01B6A0193019B03F00F23E5
S31500003860019303690199019D1A7C90F82C4094B943
S31500003870C1F30321D2B2A1EB15618A40920804D1AB
S31500003880082003B030BD013AFAD05978C1F3C0140C
S31500003890C909F8D1DC71002290F82610056880F875
S315000038A0271080F8282081696C6A80F82B20026234
S315000038B080F82D20C16180F82E2080F82F2080F816
S315000038C03020217894F801E0012914BF4FF0040C50
S315000038D04FF0050C6179090141EA4E0194F806E0C2
S315000038E0E47941EACE114CEA0101C9B2D9701979DD
S315000038F041F010011971197962F3C301197119792F
S3150000390062F3041119711A7964F3C7121A715A799C
S3150000391042F001025A7195F90F20002A08DB0123B3
S3150000392002F01F040C495209A34041F822300369F2
S31500003930BF215A7A02F0F3025A72D97190F82C20FC
S315000039402AB1002380F82C30002003B030BD0222BB
S315000039505A70F9E700E0014000E100E090F808C085
S31500003960C0E90512BCF1010F80F82A3008D1002207
S31500003970436880F826C05B0080F8243080F8252054
S31500003980002380F82930FFF763BF00BF90F808C016
S31500003990C0E90512BCF1010F80F82A300AD10022D5
S315000039A0436880F826C05B0043F0010380F82430AA
S315000039B080F82520012380F82930FFF749BF00BF92
S315000039C02DE9F0434022002403691C701A701A780E
S315000039D05206FCD5C0260268DFF89491576AD2F8E1
S315000039E004E01E703E794FF0000C46F0E0061E74AF
S315000039F0FE784FF0B30846F0E0065E74BE78594C88
S31500003A00360106F0700646F008069E703E787F780E
S31500003A10012E14BF04260526CE4514BF4FF0770E9F
S31500003A204FF0F70E46EA4706F6B2DE7083F805E079
S31500003A3083F806C083F807804E7B91F911304A4D12
S31500003A4036014A4AE718F6B287F8006303F1C00662
S31500003A5045F8230052F826706CF3104742F826709A
S31500003A6052F82660BFF35F8F4FF0010E5E09B60075
S31500003A7003F01F0306F1604606F561460EFA03F3EE
S31500003A80C6F8803133604E7B91F90F303601E71866
S31500003A90F6B287F8006303F1C00645F8230052F832
S31500003AA026706CF3104742F8267052F82660BFF372
S31500003AB05F8F5E09B60003F01F0306F160460EFA3B
S31500003AC003F306F56146C6F8803133604E7B91F903
S31500003AD010303601E718F6B287F8006303F1C00626
S31500003AE045F8230052F826706CF3104742F826700A
S31500003AF052F82660BFF35F8F5E09B60003F01F031E
S31500003B0006F160460EFA03F306F56146C6F8803103
S31500003B1033604B7B91F90E101B010C44DBB284F829
S31500003B20003301F1C00345F8210052F823406CF33D
S31500003B30104442F8234052F82330BFF35F8F4B09FD
S31500003B409B0001F01F0103F160430EFA01F103F53A
S31500003B506143C3F8801119609F2203691A70BDE89A
S31500003B60F08300BF00E100E0189A012000600040E9
S31500003B7040420F0070B500250A78016002F5800208
S31500003B8002F51F62120202618A68044642600A7BDD
S31500003B900272CA6942630A6A80F82950C26380F8D1
S31500003BA02A50856380F82B504561C0E906550562A9
S31500003BB080F82C50EFF3108C012282F310880B78DA
S31500003BC0C3F109039A40074B5E6826EA02025A606F
S31500003BD05B688CF31088FFF7F3FE034B2846E3601F
S31500003BE070BD00BF004008404349495238B5002522
S31500003BF003690168DD71FFF7E3FEB322836990F87C
S31500003C0026100362036980F8281080F82C50C561DD
S31500003C1080F82A502846DA7138BD00BF38B500252D
S31500003C20044603690168DD71FFF7CAFEB32001236C
S31500003C3094F8262084F82C5084F82820A269E5619F
S31500003C402262226984F82A50D071D5712268E56013
S31500003C5092F911202549500902F01F0203FA02F2D7
S31500003C60203041F82020BFF34F8FBFF36F8F2268BB
S31500003C7092F90E20500902F01F0203FA02F22030D8
S31500003C8041F82020BFF34F8FBFF36F8F226892F960
S31500003C901020500902F01F0203FA02F2203041F808
S31500003CA02020BFF34F8FBFF36F8F226892F90F204A
S31500003CB0500902F01F0203FA02F2203041F82020D8
S31500003CC0BFF34F8FBFF36F8FEFF3108083F310882E
S31500003CD02168074A0978C1F109018B4051680B43F5
S31500003CE05360536880F31088284638BD00E100E031
S31500003CF00040084010B582B0EFF30383103B5A4AE8
S31500003D005BB2C03352F8231021F4803142F82310FD
S31500003D1052F82330EFF30383544A103B5BB252F858
S31500003D20234094F82D304BBBA369022B20D9E369BD
S31500003D30012B0CD123691A7942F010021A711A79F3
S31500003D4042F008021A711A7922F010021A712368D9
S31500003D505B6ADB79002B3ED101222369DB7CDBB277
S31500003D608DF807309DF8073084F82D2002B010BD7D
S31500003D702269137943F040031371D8E7E369002BF6
S31500003D80F4D02268526AD279FAB9032B17D0022BE3
S31500003D9026D0012B32D02269D17C236A6269D154A4
S31500003DA0D4E907320132013BC4E90732002BDDD1E9
S31500003DB021690A7963F386120A7102B010BD22697D
S31500003DC0137943F040031371E6E705212046FFF718
S31500003DD021FDE369D9E705212046FFF71BFDBBE777
S31500003DE02269137943F010031371137943F0080322
S31500003DF01371137923F010031371CDE794F82A2079
S31500003E004AB322681A4892F90F20510902F01F029C
S31500003E1003FA02F2203140F82120BFF34F8FBFF39F
S31500003E206F8F04202269D17941F08001D171117917
S31500003E3041F010011171117921F008011171117908
S31500003E4021F0100111715070517921F00101517169
S31500003E5084F82C30A0E708212269537A03F0F7038F
S31500003E605372517098E700BF00600040189A012015
S31500003E7000E100E010B5EFF30383103B3C4A5BB270
S31500003E80C03352F8231021F4803142F8231052F83F
S31500003E902330EFF30383374A103B5BB252F82340DB
S31500003EA094F82730002B3BD194F82930002B36D1DB
S31500003EB023685B6ADB792BB194F82B3013B9236A3C
S31500003EC0002B50D1E3692169002B3AD1CB79C0226E
S31500003ED023F08003CB7101E0013A02D0CB79DB09F4
S31500003EE0FAD12368224A93F9103003F1C00052F840
S31500003EF0204024F4803442F8204052F82020002B41
S31500003F0009DB01205A091C4C03F01F03603200FA3A
S31500003F1003F344F82230CB7943F04003CB7110BD54
S31500003F2094F8261094F82820032915D094F8240034
S31500003F3021690132013B887484F8282084F82730EF
S31500003F4010BD226A6069013B805C01328874C4E955
S31500003F500732002BBAD010BD022AE7D194F83010F0
S31500003F600029E3D110BD05212046FFF753FCA9E740
S31500003F7000600040189A012000E100E038B5EFF338
S31500003F800383314A103B5BB252F8234023685B6AD5
S31500003F90DB79002B45D194F829301BB194F82730F2
S31500003FA0012B4BD0E369D3B12169CA79C02322F032
S31500003FB04002CA7101E0013B02D0CA795206FAD426
S31500003FC0EFF30383103B214A5BB2C03352F8231050
S31500003FD021F4803142F8231052F8233038BD94F88A
S31500003FE02A201AB301202268194D92F90F2051098F
S31500003FF002F01F02203100FA02F245F82120BFF339
S315000040004F8FBFF36F8F2169CA7942F08002CA7160
S3150000401004224A704A7963F300024A7184F82C003C
S31500004020C3E705212046FFF7F5FBB4E7082221691F
S315000040304B7A03F0F7034B724A70B6E794F83030C8
S31500004040002BAFD1B0E700BF189A012000600040F6
S3150000405000E100E038B5EFF303834B4A103B5BB257
S3150000406052F8230003695A7A597AD50601F0E0011D
S3150000407059725FFA82FC02F003012AD55A78540677
S315000040804CD400240125016880F82B50DC71FFF721
S3150000409097FCB32290F8263080F82C4080F8283020
S315000040A0C46180F82A400369846929460462DA718A
S315000040B0FFF7B0FBEFF30383103B344A5BB2C03328
S315000040C052F8231021F4803142F8231052F823309D
S315000040D038BD0029D5D11CF0080F10D0C269002ABE
S315000040E042D190F82B20002A3ED1B32290F8291015
S315000040F0DA71C1F10301C9B2FFF78CFBDAE790F878
S315000041002C100CF0040231B3002AD3D0C269002A65
S3150000411038D190F82B20002A34D1E6E70029B0D117
S315000041205A78C2F380115206D5D50822046880F861
S315000041302B10616A88795A700A78497942EAC01266
S3150000414042EA011242F00202D2B2DA705A7942F021
S3150000415001025A71AEE7002AACD003685B6ADB79CC
S31500004160002BA7D00421C7E70022B32190F82640F0
S3150000417080F82C2080F828408469C261046280F8A7
S315000041802A20D9710121B7E7189A01200060004062
S315000041900022034610461A60704700BF0B0A10B48F
S315000041A01B01064C53FA81F154F821300020C3F369
S315000041B040035DF8044B1370704700BF00080840C9
S315000041C0090A490101F1804101F500214B680020EF
S315000041D013807047090A490123EA020C01F1804164
S315000041E01A4001F5002142EA0C4200208A6070471D
S315000041F00120CBB2984080B202B900040B0A5B01E1
S3150000420003F1804303F5002398600020704700BF48
S31500004210090A490101F1804101F5002110B40C6839
S3150000422002EA030C4CEA040C62EA030202EA0C02FC
S3150000423000205DF8044B0A60704700BF090A490177
S3150000424001F1804101F500214B680020C3F30F43C3
S3150000425013807047012310B44FEA112C4FEA4C1C0F
S315000042600CF1804C0CF5002CDCF80440C9B28B40F4
S3150000427099B203EA14435B1AB3FA83F35B0900208D
S315000042805DF8044B13707047090A490123EA020CD2
S3150000429001F180411A4001F5002142EA0C4200205A
S315000042A0CA60704701200B0A5B0103F1804303F5E6
S315000042B00023C9B210B400FA01F1DC68012A4FEA02
S315000042C001400DBF84438C4304430C430020DC6053
S315000042D05DF8044B704700BF2DE9F84F0388DBB14A
S315000042E082464FF0000B4FF00109DFF8D080002422
S315000042F0304D4FEACB07DAF8043035F8022BD919DE
S31500004300898891420AD00134032CF4D1BAF80030DE
S315000043100BF1010B5B45EAD8BDE8F88FDB5909FACA
S3150000432004F603F0B853B3F1807FF6B298F8BB34C5
S3150000433013D0334231D1204A04F1200612F8163048
S31500004340DB09E0D012F81630012123F08003C820E3
S3150000435002F81630FDF78AFDD5E7334211D0164A2A
S3150000436004F1200112F81130DB09CCD112F811301A
S31500004370C82043F0800302F811300121FDF776FDD5
S31500004380C1E70120FDF752FE98F8BB340120334304
S3150000439088F8BB34FDF71AFEE1E70120FDF746FE7B
S315000043A098F8BB34012023EA060388F8BB34FDF7EE
S315000043B00DFEC0E7786E03000030084000E00140C3
S315000043C0F8B50446FFF788FFEFF31082012383F365
S315000043D01088234F3B681BB92249CB704023CB7012
S315000043E03B6801333B6082F3108823882BB36168F6
S315000043F01D4C01EBC30E06E01B01083113448E452C
S3150000440044F8230019D008688A88C5034FEA1223A6
S31500004410D2B2F1D502EB031C54F82C601B01083113
S3150000442020F4803526F4803613448E4544F82C60FB
S3150000443044F82C5044F82300E5D1EFF31082012311
S3150000444083F310883B6813B13B68013B3B603B68D4
S315000044501BB980200349CB70C87082F31088F8BD61
S31500004460149A0120000D08400008084008B5034BC7
S3150000447003600846FFF7A4FF002008BD54524F50C2
S3150000448008B50846FFF79CFF002008BD70B5012659
S3150000449086B001AB03A80C4615460493ADF80C6034
S315000044A0ADF808100192FFF717FFEFF3108286F3BD
S315000044B010881D490B681BB940261C48C370C6707E
S315000044C00B6801330B6082F31088EA034FEA14236A
S315000044D0E4B219D41B01164A234442F82350EFF3E1
S315000044E01082012383F310880B6813B10B68013B1C
S315000044F00B600B681BB980200C49CB70C87082F327
S315000045001088002006B070BD094A04EB031052F86B
S3150000451020601B0126F4803642F8206025F48036A0
S3150000452042F82060D7E700BF149A0120000D08402A
S315000045300008084003460020012110B41A6A58609A
S315000045409070DA692C4C92F905204FEA521C02F061
S315000045501F0201FA02F20CF1200C44F82C20BFF3E2
S315000045604F8FBFF36F8FDA6992F90B204FEA521C17
S3150000457002F01F0201FA02F20CF1200C44F82C2082
S31500004580BFF34F8FBFF36F8FDA6992F907204FEAB7
S31500004590521C02F01F0201FA02F20CF1200C44F840
S315000045A02C20BFF34F8FBFF36F8FDA6992F9092082
S315000045B04FEA521C02F01F0201FA02F20CF1200C23
S315000045C044F82C20BFF34F8FBFF36F8FEFF31084A7
S315000045D081F31088DB69094A93F800C04FF0004365
S315000045E0516823FA0CF30B435360536884F3108825
S315000045F05DF8044B704700BF00E100E00040084052
S3150000460003460020C3E90512704700BF10B4046AD0
S31500004610A37803F07B03A370837803F00303D21A15
S315000046200B440261A278C360837842F0800203F0F3
S315000046300303022BA27005D00B780020E3705DF80F
S31500004640044B70470B88002043F47E43E3815DF8FA
S31500004650044B704784460020CCE90A32CCF824107B
S31500004660704700BF012310B5C4690A7894F800C0EA
S3150000467003FA0CF313F0060F01D013071ED402F051
S315000046805C0E0022036A93F802C00CF00B049C70C7
S31500004690C26010468A784C785A701A780CF07B0CF7
S315000046A064F301021A70CA789A74DA7902F0A302E6
S315000046B042EA0E02DA7183F802C010BD032010BD73
S315000046C04FF0FF330020C1E90033704703468807E7
S315000046D010D510B40024186AC907827802F07B024C
S315000046E0827020461C6102D5002210469A615DF850
S315000046F0044B7047CA0748BF00224FF0060044BF6C
S315000047009A611046704700BF0346002210B49C69A8
S3150000471010460C605DF8044B9A617047062070479E
S31500004720F0B5846A85B005460F4694466E46B4B128
S3150000473094E80F0086E80F00EB6920461B7884F8A2
S3150000474004C02360EB6AC4E902736B6A9847AC6ADB
S315000047501CB196E80F0084E80F0005B0F0BD3446A2
S31500004760EAE700BF062070472DE9F04101240A78E8
S315000047700346944014F0060F05D0C86940680078D7
S31500004780000700F1AD810020012518704E6902F581
S3150000479080025E6202F58C528E691202C3E907122C
S315000047A0C3E90A064E789A78864214BF2E46022638
S315000047B066F301029A7091F90B60CB4C720906F010
S315000047C01F07203205FA07F791F80AC044F822704D
S315000047D0BFF34F8FBFF36F8FC44A06F1C00752F87D
S315000047E027E060F3104E42F827E052F82770C04FDA
S315000047F04FEA0C1C04EB060E5FFA8CFC8EF800C325
S3150000480047F8263091F9056091F804C04FEA561E24
S3150000481006F01F080EF1200E05FA08F844F82E805F
S31500004820BFF34F8FBFF36F8F06F1C00E52F82E8085
S3150000483060F3104842F82E8052F82EE04FEA0C1C26
S3150000484004EB060E5FFA8CFC8EF800C347F82630A0
S3150000485091F9076091F806C04FEA561E06F01F0848
S315000048600EF1200E05FA08F844F82E80BFF34F8F9C
S31500004870BFF36F8F06F1C00E52F82E8060F310481A
S3150000488042F82E8052F82EE04FEA0C1C04EB060E7E
S315000048905FFA8CFC8EF800C347F8263091F9096060
S315000048A091F808C04FEA561E06F01F080EF1200EBA
S315000048B005FA08F844F82E80BFF34F8FBFF36F8FC9
S315000048C006F1C00E52F82E8060F3104842F82E8092
S315000048D052F82E204FEA0C12D2B2344484F8002348
S315000048E047F82630EFF3108785F310884FF000461F
S315000048F00C78804AE640546824EA060454605268FC
S3150000490087F310881A6A40F2F93790701071507266
S315000049109072D07250830878CC69854040F2F930A5
S31500004920054218BF40204FF0060518BFD07401207D
S3150000493015770D788E78A840384218BF4FF4784026
S315000049404D78C97818BF9082C900032D41EA061137
S3150000495000F0C280002D0CBFE220F220C9B2117017
S315000049609071217B08290EBF0A21490001F002013E
S3150000497051736178A078C901400100F02000C9B2E6
S3150000498001430020107294F800C0ACF10200012827
S3150000499040F29880C9B2D171616888784D785070BC
S315000049A0107865F301001070C87809789074D07992
S315000049B001F05C0100F0A3000143D1710020D96928
S315000049C018619861D860586191F90550474A05F118
S315000049D0C00152F8216060F3104642F8216052F897
S315000049E02110BFF35F8F01266909890005F01F05B5
S315000049F001F1604101F5614106FA05F5C1F8805102
S31500004A000D60D96991F90B5005F1C00152F821707A
S31500004A1060F3104742F8217052F82110BFF35F8F00
S31500004A206909890005F01F0501F1604106FA05F5DF
S31500004A3001F56141C1F880510D60D96991F907E02E
S31500004A400EF1C00152F8215060F3104542F8215092
S31500004A5052F82110BFF35F8F4FEA5E1189000EF006
S31500004A601F0E01F1604106FA0EF501F56141C1F82C
S31500004A7080510D60D96991F9091001F1C00552F80C
S31500004A80257060F3104742F8257052F82520BFF3D1
S31500004A905F8F4A09920001F01F0102F160428E40C9
S31500004AA002F56142C2F8806116601A6A0CF0030CC6
S31500004AB04CF0700C618982F802C00F4A19815A6065
S31500004AC0BDE8F081FF20BCF1020F08BF41F01001E4
S31500004AD0C9B25070D17171E7F22041F040013DE753
S31500004AE00320BDE8F08100BF00E100E00060004067
S31500004AF0189A0120004008405549435310B4EFF37B
S31500004B000383103B224A5BB203F1C00152F8210035
S31500004B1020F4803042F8210052F821201D4A52F834
S31500004B202300C3691B69ABB1036913B15DF8044B7C
S31500004B307047026A00219378446A03F07F0343F0CA
S31500004B4004039370C160002CF0D080225DF8044B02
S31500004B50FFF7E6BD0369026A002BEBD08178C468D3
S31500004B6001F0030CBCF1020F0AD094F800C082F8E1
S31500004B7003C001F003029B1A1444C0E90343D4E7BF
S31500004B80B4F800C04CF47E4CA2F80EC0F1E700BFAA
S31500004B9000600040189A012010B582B0EFF303833D
S31500004BA0103B1F4A5BB203F1C00152F8210020F40A
S31500004BB0803042F8210052F821201A4A52F8234048
S31500004BC0A27802F00303022B236A0CBF198A5979D3
S31500004BD0A3690CBFC1F30801C9B2019143B9636A65
S31500004BE0B3B10422204602B0BDE81040FFF798BDDD
S31500004BF002F0030201A9606930F07FFED4E90521C5
S31500004C00A37803F003031A44C91AC4E9052109B1BC
S31500004C1002B010BD636A002BFAD00122E2E700BFA2
S31500004C2000600040189A012010B5EFF303830E4A86
S31500004C30103B5CB252F82400D0E90821937803F0C7
S31500004C407B03937019B102220021FFF769FD074A21
S31500004C5004F1C00352F8231021F4803142F82310E6
S31500004C6052F8233010BD00BF189A012000600040A2
S31500004C7010B5EFF303831A4A103B5CB252F82400D6
S31500004C80837803F00303022B036A0CBF198A597950
S31500004C9093F804C00CBFC1F30801C9B21CF0100F91
S31500004CA00CF0380206D093F81CC01CF0010F08BFA8
S31500004CB042F0400293F804C00CF0C70C83F804C01D
S31500004CC0436A0BB1FFF72CFD064A04F1C00352F804
S31500004CD0231021F4803142F8231052F8233010BDFE
S31500004CE0189A01200060004084460020CCE90A3270
S31500004CF0CCF82410704700BF0022436810B502604C
S31500004D005A69044622B1936810681B6A984763681B
S31500004D101A6922B1936810681B6A9847636893F909
S31500004D200220002A0EDB01212448530902F01F024B
S31500004D30203301FA02F240F82320BFF34F8FBFF36E
S31500004D406F8F636893F90120002A0EDB01211B484F
S31500004D50530902F01F02203301FA02F240F8232021
S31500004D60BFF34F8FBFF36F8F6368012293F9033050
S31500004D701248590903F01F03203102FA03F340F8E1
S31500004D802130BFF34F8FBFF36F8F636893F9043001
S31500004D90590903F01F039A4001F1200340F823202C
S31500004DA0BFF34F8FBFF36F8F0020A268137823F0F5
S31500004DB040031370D378D07010BD00BF00E100E04F
S31500004DC0F8B58568044628789DF818C010F04000AC
S31500004DD040F0A880C4E90500606884F820C01E463B
S31500004DE0E36143690F46C4E903124BB35968BCF14A
S31500004DF00F0F0968A66152D8BCF1070F94BF4FF098
S31500004E00000C4FF0010C48884FEA0C3C20F440504F
S31500004E1020F00C004CF0080C4CEA000CB0B2C88133
S31500004E20A1F802C08A60002A00F086809A68186895
S31500004E3053689847002871D1606894F820C0A56827
S31500004E400369002B3FD05A68BCF10F0F11686661E9
S31500004E5065D8BCF1070F94BF4FF0000C4FF0010C62
S31500004E60CA784FEA0C1C22F03C024CF0080C4CEAC3
S31500004E70020C81F803C090F809C0B2B2006ABCF116
S31500004E80000F0FD170B1007B01280BD1E06901281A
S31500004E9008D0013A013E92B26661CA8103E04FF042
S31500004EA0020CB0E7CA814F60002F4CD02A789E686A
S31500004EB022F02002186873682A70984770BBA568AC
S31500004EC094F820C06068EB7ABCF10F0FDAB22B8A37
S31500004ED09BB229D90CF1010C22F040024FEA9C0C3E
S31500004EE0ACF1050C42F02002417A23F47063006AAB
S31500004EF043EA0C2351B948B1017B012906D1E16986
S31500004F00012914BF43F0800323F0800300209BB2E5
S31500004F10EA722B822B7843F060032B70F8BD4FF0BA
S31500004F20020C9DE70820F8BDBCF1070F94BF42F0C4
S31500004F30400202F09F02D7E7887862F38300054AB1
S31500004F4088708A6072E7CA7867F38302CA70024A79
S31500004F504A60ABE7789A0120749A012010B594460E
S31500004F608E461C4682B00021724663460094FFF7C7
S31500004F7027FF02B010BD00BF10B594461C4682B094
S31500004F80002263460094FFF71BFF02B010BD00BF6E
S31500004F9010B49DF8044001945DF8044BFFF710BF70
S31500004FA042684369517A126A19B912B1127B012A11
S31500004FB024D0C269511E99420FD09A420CD0816802
S31500004FC0C26832B190F820C0BCF10F0F0DD952F86B
S31500004FD023204A6001334361704781680A8A22F0C0
S31500004FE080021204120C0A82EAE7BCF1070F95BF91
S31500004FF0D25C32F813200A718A80EBE78268D27895
S315000050009206E9D5D5E700BF30B5836A85B0044678
S315000050108C4601ADABB193E8070085E807006268EE
S315000050201846117883F804C0E26A19609A60636AC8
S315000050309847A36A1BB195E8070083E8070005B007
S3150000504030BD2B46EBE700BF2DE9F04F0B78DFF8BC
S3150000505000830F691B020D46044683B0984477B15E
S315000050604FF00062796838680B681A60C3F80880E8
S31500005070BB681B6898470646002840F00D816B699F
S3150000508073B1D3E901124FF4002618680B68126851
S315000050901E60C3F8048090470646002840F0008151
S315000050A0D5E906130022C4E90A23656061622878FF
S315000050B000F5800303F58D531B02A3606F7A002F62
S315000050C000F0F88011464FF0B00894466A7BEE7AFD
S315000050D02B6A1203AD7A42EA46022A431D78002D56
S315000050E040F0EE8001218140890740F0208193F84D
S315000050F001E098784FEA4E1128EACE1541EA4E01B2
S3150000510022F070062943DA781D79904012011DB10C
S31500005110022D0CBF3025202593F805E0BEF1000FC7
S3150000512006D0BEF1010F14BF4CF0010C4CF0030C7D
S3150000513093F808E00EF0030E42EA8E0232439E799F
S315000051400196002F40F0EF8093F8099093F80A80BB
S31500005150DF7A42F46042EFF3108A4FF0010E8EF3CD
S31500005160108866683678C6F113060EFA06FE734E88
S31500005170D6F804B02BEA0E0BC6F804B076688AF3AC
S3150000518010884FF0000EA668C9B2C0B296F803A008
S3150000519086F803E031707070B570D97992B2B17249
S315000051A05FFA8CFC019986F80C9086F80D80B7732F
S315000051B086F80FC03282626886F82010517A00297C
S315000051C040F081801B7B012B0CBF1223102386F835
S315000051D0213092F90230002B7CDA594892F90130DD
S315000051E0002B26DB527903F160411201D2B201F5A0
S315000051F0614181F80023534A03F1C00140F823407E
S3150000520052F8215025F4803542F8215052F82120D9
S31500005210BFF35F8F01215A09920003F01F0302F1C9
S31500005220604202F5614201FA03F3C2F8803113606D
S315000052306268117A92F90430434D0A01EE18414929
S31500005240D2B286F8002303F1C00240F8234051F899
S31500005250226026F4803641F8226051F82220BFF3FE
S315000052605F8F012203F01F015B099B0003F160437E
S3150000527003F561438A40C3F880211A6000266368FB
S3150000528093F90320DB7915441B01DBB285F8003363
S315000052902E4B40F822402360304603B0BDE8F08F25
S315000052A0002FF9D0BB6838681B6A9847304603B0B0
S315000052B0BDE8F08F4FF0B80808214FF0100C05E755
S315000052C041F0B10813E7102386F8213092F9023035
S315000052D0002B82DB927903F1604112011848D2B2A9
S315000052E001F5614181F80023164A03F1C00140F837
S315000052F0234052F8215025F4803542F8215052F8C7
S315000053002120BFF35F8F01215A09920003F01F038A
S3150000531002F1604202F5614201FA03F3C2F88031FC
S31500005320136062685AE70027B846B94613E7B7FA2A
S3150000533087F1490942EAC112D9E600BF0040084098
S31500005340189A01200060004000E100E049505352E5
S3150000535004A0114010B4EFF30383103B214A5BB263
S3150000536003F1C00152F8210020F4803042F82100F8
S3150000537052F821201C4A52F82330D3E906218A42EA
S315000053801CD018699C6838B393F820C0BCF10F0F85
S315000053900AD9616840F82210D96901328A429A61B5
S315000053A00CD05DF8044B7047BCF1070F16D8217975
S315000053B08154D96901328A429A61F2D15B6893F9C4
S315000053C00330012203F01F0008495B09824041F8BF
S315000053D023205DF8044B70476068DEE7A48820F858
S315000053E01240DAE700600040189A012000E100E070
S315000053F038B54468637A256A3BB92DB12B7B012BFE
S3150000540012D06B78012B05D038BD002DFCD06B78FF
S31500005410012BF9D194F90320084902F01F008340BB
S31500005420520941F8223038BDC369012BE9D08268A0
S31500005430D3789B06FCD5FFF7B3FDE2E700E100E079
S3150000544030B4EFF30382103A344953B203F1C0008B
S3150000545051F8204002F0FF0224F4803441F8204045
S3150000546051F820102E4951F823008168C978890720
S3150000547005D54168497A012901D030BC7047012120
S31500005480284C5B0902F01F02203301FA02F244F8AD
S315000054902320BFF34F8FBFF36F8F436893F902301A
S315000054A0002B32DB5A0903F01F0301FA03F3203203
S315000054B044F82230BFF34F8FBFF36F8FD0E901243A
S315000054C0237892F9022023F04003002A237018DB88
S315000054D0124B02F1C00453F8245025F4803543F8EA
S315000054E0245053F82430BFF35F8F53099B0002F01A
S315000054F01F0203F16043914003F56143C3F8801135
